:020000001028C6
:10000800FE00030EF7000408F8000A08F90083123E
:1000180003137F08FA00B9281128F001F101F20151
:10002800F301F401F501A001A101A201A301A401BA
:10003800F620A500F720A600F820A700F920A800C0
:10004800FA20A9008301EF285728013083120313EF
:1000580095001014F501F50AF001F101F40108000A
:10006800831203130C1C08000C101010FC308F00B6
:1000780017308E000230AA002A08F5000800632015
:10008800831203130C101010F40195010330AA0019
:100098002A08F500F001F101080005307402031C7C
:1000A8000800F501080075088400043004020318EC
:1000B800080000308A00FB30040782000800831221
:1000C8000313051C6B288312031306146E2883126E
:1000D80003130610851C7428831203130616772849
:1000E800831203130612051D7D2883120313861637
:1000F8008028831203138612851D86288312031312
:1001080006178928831203130613051E8F288312E6
:100118000313861708008312031386130800FC30A4
:10012800831203138F0018308E00831603130C10EC
:10013800831203130C10CF309005101590119010F6
:10014800101010140800831203131215873092053B
:10015800FC30920583160313861111309200831226
:10016800031395010C30970008000B110130F600BD
:100178007608F4077A08FF0079088A00780884006E
:10018800770E8300FE0E7E0E090083160313861178
:100198000514851405158515051606100612861210
:1001A8000613851308000730831203139F00F40118
:1001B800F501F301F201033095009601080083165A
:1001C8000313811281110108F839013881000B11DC
:1001D8008B168B170800D720C920A7209320E3206F
:1001E8002820F42801340234063408340C34292831
:0601F800342843285128C1
:02400E0018FF99
:00000001FF
