:020000001028C6
:10000800FE00030EF0000408F1000A08F200831253
:1000180003137F08F30081281128763084007A3092
:10002800E3218313203084003130E321EB21C10028
:10003800EC21C200ED21C300EE21C400EF21C50070
:100048008301C72883120313B601B21F3228B109EE
:10005800B209B10A0319B20AB601B60AB41F3D289B
:10006800B309B409B30A0319B40A0130F4007408D7
:10007800B606B701B8013108320403197428B5016E
:10008800B50AB21B532801300310B10DB20DFF3E63
:10009800031D48280130F4007408B50745280130CD
:1000A8000310B70DB80DFF3E031D54283208340263
:1000B800031D602831083302031C69283108B30284
:1000C8003208031CB403B402371401300310B20C15
:1000D800B10CFF3E031D6A280130B502031D5328E9
:1000E800360803197C28B709B809B70A0319B80AEA
:1000F8003808B2003708B1000800831603138C1CB7
:10010800BB28831203138C1CBB280130AA070030BC
:1001180003180130AB07003003180130AC0700307A
:1001280003180130AD07F8302A06031DA3282B0356
:100138002C042D04031DA3288316031386113030C5
:1001480083122A06023003192B062C042D04031DE2
:10015800BA28831603138615003083120313AD00E3
:100168000030AC000030AB000030AA008C107308DF
:100178008312FF0072088A0071088400700E8300E1
:10018800FE0E7E0E0900003083120313AD0000300E
:10019800AC000030AB000030AA00DA21CC21BB2132
:1001A800831603138C140B178B170B210230831241
:1001B8000313B9000030BA008A21F528AD1BF428D2
:1001C8002D08031D09292C08031D092902302B02BB
:1001D800031DF22826302A02031DF22803180929D4
:1001E8004F2183120313AD1B09292D08031DE22893
:1001F8002C08031DE22802302B02031D07291D309D
:100208002A02031D07290318E2280B21F52879087B
:10021800031D0800831203132008031D0614031985
:1002280006102108031D0616031906122208031DCD
:100238008616031986122308031D061703190613C9
:100248002408031D861703198613F401F5017508A0
:10025800803AFF0080307F02031D34290530740284
:1002680003184C297408203E840083138001013050
:10027800F4070318F50A0030F5077508803AFF00FF
:1002880080307F02031D4A2905307402031C362979
:10029800F901F90A080083120313B101B10A200811
:1002A8000319051C5829B1013108F4007408A0008D
:1002B800B201B20A21080319851C6329B201320868
:1002C800F4007408A100B301B30A22080319051D3C
:1002D8006E29B3013308F4007408A200B401B40A0B
:1002E80023080319851D7929B4013408F40074081A
:1002F800A300B501B50A24080319051E8429B50110
:100308003508F4007408A400F901080003308312CA
:1003180003133905BB0000303A05BC003C08803A9D
:10032800FF0080307F02031D9B2902303B02031C23
:10033800A129831203139716A42983120313971272
:1003480039080139BB00BB0E17083B06EF393B06DD
:1003580097000430B1000030B2003A08B400390800
:10036800B300262083120313310895000800831276
:100378000313121587309205FC3092058316031378
:100388008611113092000C30831203139700080075
:10039800831603138611051485140515851505168E
:1003A80006100612861206138513080007308312FA
:1003B80003139F00F701F801F601B001080064007B
:1003C8008001840A0406031900340406E429013470
:0803D8000234063408340C3431
:02400E0018FF99
:00000001FF
