:020000001028C6
:10000800FE00030EF0000408F1000A08F200831253
:1000180003137F08F30034291128753084007930E0
:100028001F2283132030840036301F221722C60077
:100038001822C7001922C8001A22C9001B22CA00A8
:100048001C22CB001D22CC001E22CD0083017A2960
:100058007908031D08008312031334083504031DAF
:10006800472806122008031D861603198612210840
:10007800031D0517031905132208031D8517031906
:1000880085132308582806162408031D8616031905
:1000980086122508031D0517031905132608031DD5
:1000A8008517031985132708031D0514031905105F
:1000B8000130B4000030B500B601B7013708803A06
:1000C800FF0080307F02031D6B28083036020318BA
:1000D8008528831203133608203E84008313800189
:1000E8000130B6070318B70A0030B7073708803A57
:1000F800FF0080307F02031D832808303602031C6E
:100108006D28F901F90A080083120313BB01B71F10
:100118009428B609B709B60A0319B70ABB01BB0A7E
:10012800B91F9F28B809B909B80A0319B90A0130D3
:10013800F4007408BB06BC01BD0136083704031976
:10014800D628BA01BA0AB71BB52801300310B60D74
:10015800B70DFF3E031DAA280130F4007408BA0742
:10016800A72801300310BC0DBD0DFF3E031DB628A6
:1001780037083902031DC22836083802031CCB2869
:100188003608B8023708031CB903B9023C14013019
:100198000310B70CB60CFF3E031DCC280130BA0281
:1001A800031DB5283B080319DE28BC09BD09BC0A94
:1001B8000319BD0A3D08B7003C08B60008008312C1
:1001C8000313B601B60A20080319061DEC28B60168
:1001D8003608F4007408A000B701B70A210803190B
:1001E800861CF728B7013708F4007408A100B80185
:1001F800B80A22080319061C0229B8013808F400B5
:100208007408A200B901B90A23080319051E0D29AB
:10021800B9013908F4007408A300BA01BA0A24081D
:100228000319851D1829BA013A08F4007408A400B6
:10023800BB01BB0A25080319051D2329BB013B087F
:10024800F4007408A500BC01BC0A26080319851C23
:100258002E29BC013C08F4007408A600F901080026
:10026800831603138C1C6E29831203138C1C6E29AE
:100278000130B007003003180130B107003003180F
:100288000130B207003003180130B307F8303006E8
:10029800031D5629310332043304031D56298316DE
:1002A80003138611303083123006023003193106E9
:1002B80032043304031D6D29831603138615003099
:1002C80083120313B3000030B2000030B1000030D5
:1002D800B0008C1073088312FF0072088A0071083E
:1002E8008400700E8300FE0E7E0E0900F901F90AE3
:1002F800003083120313B3000030B2000030B100A5
:100308000030B0000E220022EA212C2083160313AD
:100318008C140B178B17A329B31BA2293308031DB1
:10032800B7293208031DB72902303102031DA0295D
:1003380030303002031DA0290318B729E3208312A7
:100348000313B31BB7293308031D90293208031D73
:10035800902902303102031DB5291D303002031DDA
:10036800B529031890292C20A329033083120313DD
:100378003E05C00000303F05C1004108803AFF003B
:1003880080307F02031DCA2902304002031CD02995
:10039800831203139716D3298312031397123E0867
:1003A8000139C000C00E17084006EF394006970013
:1003B8000430B6000030B7003F08B9003E08B80066
:1003C800882083120313360895000800831203134C
:1003D800121587309205FC30920583160313861197
:1003E800113092000C308312031397000F30BE00B7
:1003F8000030BF00B92108008316031386110615C3
:100408008614061405168515851005108513051321
:10041800861208000730831203139F00F701F801C2
:10042800F601F501080001340234063408340C34AE
:1004380000340034003464008001840A040603197F
:0604480000340406202A26
:02400E0018FF99
:00000001FF
