:0400000007EF00F016
:0A0008005A82F4ED14F0EFEF15F04A
:10080000004600640003000300F40158020022ECDB
:1008100016F0000E0001E56F010EE46F000EF56F9B
:10082000000EF46F000E646F000E656F000E666FB1
:10083000000E676F000E4F6E000E4E6E000E516E72
:10084000000E506EC1EC16F0000E0001F76F000EA6
:10085000F66F7CEC15F053EF08F0000E4F6E000EB3
:100860004E6E000E516E000E506EC1EC16F083B04D
:100870003CEF04F03EEF04F047EF04F081888384FE
:10088000030E0001ED6FE80EEC6F4EEF04F081985F
:100890008394000E0001ED6F000EEC6F83B253EFF6
:1008A00004F055EF04F05DEF04F0030EEF6FE80E77
:1008B000EE6F8282808863EF04F082928098000E4F
:1008C000EF6F000EEE6FECC04EF0EDC04FF0EEC0DB
:1008D00050F0EFC051F0C1EC16F0000163BF7CEFA7
:1008E00004F063516211611109E1C90E605DD8A085
:1008F0007CEF04F07EEF04F08BEF04F0F651F7117B
:10090000D8A485EF04F087EF04F08BEF04F0000E1D
:10091000F76F010EF66FF605F711D8A492EF04F009
:1009200094EF04F029EF04F063BFA3EF04F06351E8
:1009300062110BE1910E605D010E6159D8A0A3EF29
:1009400004F0A5EF04F029EF04F0000E606F000E34
:10095000616F000E626F000E636F000EF76F000E86
:10096000F66F29EF04F0000E4F6E000E4E6E000E73
:10097000516E000E506EC1EC16F00001F451F511ED
:10098000D8A4C5EF04F0C7EF04F0DCEF04F067BFB4
:10099000D6EF04F0675166110BE1D10E645D070ECE
:1009A0006559D8A0D6EF04F0D8EF04F0DCEF04F0DE
:1009B000000EF56F010EF46FF405F511D8A4E3EF06
:1009C00004F0E5EF04F0FAEF04F067BFF4EF04F091
:1009D000675166110BE1A10E645D0F0E6559D8A039
:1009E000F4EF04F0F6EF04F0FAEF04F0000EF56F08
:1009F000020EF46F63BF0BEF05F06351621109E162
:100A0000E80E605D030E6159D8B009EF05F00BEFF9
:100A100005F00DEF05F0DDEC16F0000163BF1DEFF2
:100A200005F0635162110BE1E90E605D030E61593F
:100A3000D8A01DEF05F01FEF05F032EF05F063BF02
:100A400030EF05F06351621109E1D00E605D070ED1
:100A50006159D8B02EEF05F030EF05F032EF05F018
:100A6000D8EC16F0000163BF42EF05F0635162114C
:100A70000BE1D10E605D070E6159D8A042EF05F081
:100A800044EF05F057EF05F063BF55EF05F06351F4
:100A9000621109E1B80E605D0B0E6159D8B053EFD9
:100AA00005F055EF05F057EF05F0D3EC16F0000117
:100AB00063BF67EF05F0635162110BE1B90E605D32
:100AC0000B0E6159D8A067EF05F069EF05F07CEFD8
:100AD00005F063BF7AEF05F06351621109E1A00EE2
:100AE000605D0F0E6159D8B078EF05F07AEF05F030
:100AF0007CEF05F0CEEC16F0000163BF8CEF05F043
:100B0000635162110BE1A10E605D0F0E6159D8A017
:100B10008CEF05F08EEF05F096EF05F0000E606F9C
:100B2000000E616F000E626F000E636F83B09BEF6B
:100B300005F09DEF05F029EF04F0000EE56F020EC1
:100B4000E46F000E606F000E616F000E626F000EAA
:100B5000636F39EC15F029EF04F0000E4F6E000EB4
:100B60004E6E000E516E000E506EC1EC16F060C05D
:100B700005F061C006F062C007F063C008F0E80E3F
:100B8000096E030E0A6E000E0B6E000E0C6E50EC1A
:100B900013F008BEDDEF05F00850071009E1F50E6F
:100BA000055C010E0658D8B0D8EF05F0DDEF05F072
:100BB0000001E66BE62BDFEF05F00001E66BE63B9C
:100BC0008150E619EF0BE619816E8292839480982A
:100BD00082EC08F083B2EFEF05F0F1EF05F029EFBA
:100BE00004F0000E0001686F000E696F000E6A6F5E
:100BF000000E6B6F000EF16F000EF06F6BBF0CEF0D
:100C000006F06B516A11691109E1640E685DD8A0A4
:100C10000CEF06F00EEF06F0FEEF05F0000E686F29
:100C2000000E696F000E6A6F000E6B6FF04BF12BB8
:100C3000F1BF24EF06F0F15109E1050EF05DD8A0F7
:100C400024EF06F026EF06F0FEEF05F0000EE56F4C
:100C5000060EE46F000E606F000E616F000E626F93
:100C6000000E636F29EF04F083A239EF06F03BEF2B
:100C700006F029EF04F0000EE56F030EE46F29EF94
:100C800004F0000E4F6E000E4E6E000E516E000E00
:100C9000506EC1EC16F0819882828394809864EC47
:100CA0000FF0000163BF61EF06F0635162110BE1C9
:100CB000E90E605D030E6159D8A061EF06F063EFA5
:100CC00006F07FEF06F0000EF36F000EF26FF24BAE
:100CD000F32BF3BF75EF06F0F35109E1050EF25D5A
:100CE000D8A075EF06F077EF06F067EF06F0000E7C
:100CF000606F000E616F000E626F000E636F83B055
:100D000084EF06F086EF06F098EF06F0000EE56F30
:100D1000050EE46F000E6C6F000E6D6F000E6E6FAF
:100D2000000E6F6F000E8F6F010E8E6F29EF04F0B3
:100D300083B29DEF06F09FEF06F07EEF08F0000E05
:100D4000E56F050EE46F000E6C6F000E6D6F000E08
:100D50006E6F000E6F6F000E8F6F000E8E6F29EF9B
:100D600004F0818882828384808883A0BAEF06F0B1
:100D7000BCEF06F029EF04F083A2C1EF06F0C3EF49
:100D800006F029EF04F0000EE56F040EE46F000E8C
:100D90006C6F000E6D6F000E6E6F000E6F6F29EF9F
:100DA00004F064EC0FF0D89000018E35F66E8F35AC
:100DB000F76E090EF626080EF7220900F5CFFCF0B3
:100DC0000A00F5CFFDF09051925DEA6F9151935971
:100DD000EB6FD8908E35F66E8F35F76E050EF626D2
:100DE000080EF7220900F5CFE6F00900F5CFE7F08D
:100DF000E6C005F0E7C006F0000E06BEFF0E076E67
:100E0000086E010EEBEC10F005C017F006C018F0EC
:100E100007C019F008C01AF092C005F093C006F0A0
:100E2000000E06BEFF0E076E086E010EEBEC10F012
:100E300005C013F006C014F007C015F008C016F086
:100E40004FEC0DF013C02CF014C02DF015C02EF097
:100E500016C02FF0D89000018E35F66E8F35F76EE4
:100E6000010EF626080EF7220900F5CFE8F009007A
:100E7000F5CFE9F0E8C005F0E9C006F0000E06BEC7
:100E8000FF0E076E086E010EEBEC10F005C017F0B8
:100E900006C018F007C019F008C01AF0EAC005F043
:100EA000EBC006F0000E06BEFF0E076E086E010EC8
:100EB000EBEC10F005C013F006C014F007C015F0FD
:100EC00008C016F04FEC0DF013C030F014C031F034
:100ED00015C032F016C033F0EFEC0AF02CC0F8F079
:100EE0002DC0F9F02EC0FAF02FC0FBF0000193AF37
:100EF00085EF07F0C50E925DFF0E9359D8A083EFE2
:100F000007F085EF07F099EF07F093BF93EF07F035
:100F1000935107E13C0E925DD8B091EF07F093EF4B
:100F200007F099EF07F08198829283848088AEEF72
:100F300007F08394809893BFA6EF07F0935108E1E0
:100F40009205D8A0A6EF07F0A8EF07F0ACEF07F0E6
:100F500081888292AEEF07F081988282000E056E42
:100F6000000E066E000E076E000E086EF8C009F047
:100F7000F9C00AF0FAC00BF0FBC00CF0CEEC12F096
:100F8000D8B0C5EF07F0C7EF07F0F9EF07F0F8C0EA
:100F900040F0F9C041F0FAC042F0FBC043F0FCC0A1
:100FA00005F0FDC006F0000E06BEFF0E076E086ECF
:100FB000010EEBEC10F005C03CF006C03DF007C0A0
:100FC0003EF008C03FF048EC16F03CC044F03DC095
:100FD00045F03EC046F03FC047F04BEC12F044C035
:100FE0004EF045C04FF0FCC050F0FDC051F0C1ECD8
:100FF00016F00001FBBF01EF08F0FFEF07F033EF41
:1010000008F0FCC04EF0FDC04FF0F8C030F0F9C061
:1010100031F0FAC032F0FBC033F0FCC005F0FDC087
:1010200006F0000E06BEFF0E076E086E010EEBEC1A
:1010300010F005C02CF006C02DF007C02EF008C03F
:101040002FF0EFEC0AF02CC044F02DC045F02EC07C
:1010500046F02FC047F04BEC12F044C050F045C0B2
:1010600051F0C1EC16F092C090F093C091F00001E5
:101070006FBF47EF08F06F516E110BE1E90E6C5D29
:10108000030E6D59D8A047EF08F049EF08F029EF9B
:1010900004F0000E6C6F000E6D6F000E6E6F000E90
:1010A0006F6F29EF04F0E4C0E6F0E5C0E7F000015F
:1010B000E751000AD8B45FEF08F029EF04F0E651D9
:1010C000000AD8B42DEF04F0010AD8B4B3EF04F04D
:1010D000030AD8B4ADEF05F0010AD8B441EF06F029
:1010E000070AD8B4D1EF06F0010AD8B4B1EF06F080
:1010F000030AD8B434EF06F029EF04F029EF04F026
:1011000007EF00F0000E176E000E166ED890163422
:10111000D96E1734DA6ECA0ED926000EDA22DECF67
:1011200005F0DDCF06F0D89005360636A60E05246C
:10113000D96E000E0620DA6ED8901634E16E1734A0
:10114000E26ECA0EE126000EE222E6CF09F0E5CFFC
:101150000AF0D89009360A36B80E0924E16E000E5E
:101160000A20E26EDE50E65CE650800A0D6EDE502C
:10117000800A0D58D8A0BFEF08F0C1EF08F0D9EFF2
:1011800008F0D8901634D96E1734DA6ECA0ED92604
:10119000000EDA22DECF05F0DDCF06F0D89005365E
:1011A0000636B80E05240E6E000E06200F6EEFEF09
:1011B00008F0D8901634D96E1734DA6ECA0ED926D4
:1011C000000EDA22DECF05F0DDCF06F0D89005362E
:1011D0000636A60E05240E6E000E06200F6E0EC0FB
:1011E000D9FF0FC0DAFFD8901634E16E1734E26EE3
:1011F000CA0EE126000EE222E6CF05F0E5CF06F0AA
:10120000D89005360636A60E0524E16E000E06209F
:10121000E26EDECFE6FFDDCFE5FF164A172A17BEE6
:101220001BEF09F0175009E1050E165CD8A01BEF63
:1012300009F01DEF09F086EF08F0000E176E000EA2
:10124000166ED8901634D96E1734DA6ECA0ED926B7
:10125000000EDA22DECF05F0DDCF06F0D89005369D
:101260000636B80E0524D96E000E0620DA6ED89028
:101270001634E16E1734E26ECA0EE126000EE22249
:10128000E6CF09F0E5CF0AF0D89009360A36940E79
:101290000924E16E000E0A20E26EDE50E65CE650A4
:1012A000800A0D6EDE50800A0D58D8A05AEF09F062
:1012B0005CEF09F074EF09F0D8901634D96E17344A
:1012C000DA6ECA0ED926000EDA22DECF05F0DDCFA7
:1012D00006F0D89005360636B80E0524106E000EBE
:1012E0000620116E8AEF09F0D8901634D96E1734A3
:1012F000DA6ECA0ED926000EDA22DECF05F0DDCF77
:1013000006F0D89005360636940E0524106E000EB1
:101310000620116E10C0D9FF11C0DAFFD890163424
:10132000E16E1734E26ECA0EE126000EE222E6CF2D
:1013300005F0E5CF06F0D89005360636940E052464
:10134000E16E000E0620E26EDECFE6FFDDCFE5FFA8
:10135000164A172A17BEB6EF09F0175009E1050E15
:10136000165CD8A0B6EF09F0B8EF09F021EF09F04C
:10137000000E176E000E166ED8901634D96E173404
:10138000DA6E560ED926000EDA22DECF05F0DDCF5A
:1013900006F0D89005360636A60E0524D96E000E46
:1013A0000620DA6ED8901634E16E1734E26E560ECF
:1013B000E126000EE222E6CF09F0E5CF0AF0D89050
:1013C00009360A36B80E0924E16E000E0A20E26ED4
:1013D000DE50E65CE650800A0D6EDE50800A0D5845
:1013E000D8A0F5EF09F0F7EF09F00FEF0AF0D89069
:1013F0001634D96E1734DA6E560ED926000EDA225C
:10140000DECF05F0DDCF06F0D89005360636B80EF3
:101410000524126E000E0620136E25EF0AF0D890F8
:101420001634D96E1734DA6E560ED926000EDA222B
:10143000DECF05F0DDCF06F0D89005360636A60ED5
:101440000524126E000E0620136E12C0D9FF13C0C1
:10145000DAFFD8901634E16E1734E26E560EE126AC
:10146000000EE222E6CF05F0E5CF06F0D890053673
:101470000636A60E0524E16E000E0620E26EDECFD3
:10148000E6FFDDCFE5FF164A172A17BE51EF0AF037
:10149000175009E1020E165CD8A051EF0AF053EF85
:1014A0000AF0BCEF09F0000E176E000E166ED89011
:1014B0001634D96E1734DA6E560ED926000EDA229B
:1014C000DECF05F0DDCF06F0D89005360636B80E33
:1014D0000524D96E000E0620DA6ED8901634E16E1F
:1014E0001734E26E560EE126000EE222E6CF09F036
:1014F000E5CF0AF0D89009360A36940E0924E16E39
:10150000000E0A20E26EDE50E65CE650800A0D6EA8
:10151000DE50800A0D58D8A090EF0AF092EF0AF042
:10152000AAEF0AF0D8901634D96E1734DA6E560E38
:10153000D926000EDA22DECF05F0DDCF06F0D890F6
:1015400005360636B80E0524146E000E0620156EFC
:10155000C0EF0AF0D8901634D96E1734DA6E560EF2
:10156000D926000EDA22DECF05F0DDCF06F0D890C6
:1015700005360636940E0524146E000E0620156EF0
:1015800014C0D9FF15C0DAFFD8901634E16E1734B5
:10159000E26E560EE126000EE222E6CF05F0E5CF20
:1015A00006F0D89005360636940E0524E16E000E3E
:1015B0000620E26EDECFE6FFDDCFE5FF164A172AF2
:1015C00017BEECEF0AF0175009E1020E165CD8A026
:1015D000ECEF0AF0EEEF0AF057EF0AF012002F508E
:1015E000800B386E2F502F243A6E2EAEFAEF0AF091
:1015F000FCEF0AF0FDEF0AF03A803A50D8B403EF5E
:101600000BF005EF0BF01AEF0BF03A28D8A40BEF14
:101610000BF00DEF0BF015EF0BF0000E2C6E000E23
:101620002D6E000E2E6E000E2F6E2E8E000E2F6E63
:1016300022EF0BF0000E2C6E000E2D6E000E2E6EA3
:10164000000E2F6E3350800B396E38503918D8B4D5
:101650002CEF0BF02EEF0BF02FEF0BF0388C3350FC
:101660003324396E32AE37EF0BF039EF0BF03AEF2F
:101670000BF039803950D8B440EF0BF042EF0BF04B
:1016800057EF0BF03928D8A448EF0BF04AEF0BF0D6
:1016900052EF0BF0000E306E000E316E000E326E07
:1016A000000E336E328E000E336E5FEF0BF0000EC5
:1016B000306E000E316E000E326E000E336E3A50F8
:1016C000395CD8B066EF0BF068EF0BF08FEF0BF0E2
:1016D00038AC6DEF0BF06FEF0BF071EF0BF0800E8D
:1016E000381A3AC03BF039C03AF03BC039F02CC050
:1016F0003BF030C02CF03BC030F02DC03BF031C08F
:101700002DF03BC031F02EC03BF032C02EF03BC07C
:1017100032F02FC03BF033C02FF03BC033F0000E4F
:101720003B6E3A5039C034F0356A345E000E355A9B
:1017300035BEA4EF0BF0355009E11A0E345CD8A089
:10174000A4EF0BF0A6EF0BF0DDEF0BF02C502D10FB
:101750002E102F10D8A4AFEF0BF0B2EF0BF0010E4C
:10176000B3EF0BF0000E3B6E000E2C6E000E2D6ED4
:10177000000E2E6E000E2F6E39C03AF0E6EF0BF021
:101780003BA0C5EF0BF0C7EF0BF0CDEF0BF0D890FF
:101790003B3001093B6ECFEF0BF0D8903B322CA0D1
:1017A000D4EF0BF0D6EF0BF0D7EF0BF03B8E2F34CE
:1017B0002F322E322D322C323A2A39503A5CD8A0B0
:1017C000E4EF0BF0E6EF0BF0C0EF0BF038BCEBEF03
:1017D0000BF0EDEF0BF02DEF0CF03A50D8A4F3EF37
:1017E0000BF0F5EF0BF0FFEF0BF0000E2C6E000E80
:1017F0002D6E000E2E6E000E2F6E4EEF0DF030503F
:101800002C2631502D2232502E2233502F222FA041
:101810000CEF0CF00EEF0CF0BAEF0CF03BA013EF56
:101820000CF015EF0CF01BEF0CF0D8903B300109D9
:101830003B6E1DEF0CF0D8903B322CA022EF0CF049
:1018400024EF0CF025EF0CF03B8E2F342F322E328C
:101850002D322C323A2ABAEF0CF030502C5C315039
:101860002D5832502E582F50800A346E3350800A33
:101870003458D8B03EEF0CF040EF0CF06BEF0CF0AA
:101880002C50305C346E2D503158356E2E503258FD
:10189000366E2F503358376EFF0E34242C6EFF0EE9
:1018A00035202D6EFF0E36202E6EFF0E37202F6E48
:1018B000800E381A3B6C3B50D8A461EF0CF063EFFC
:1018C0000CF073EF0CF0010E2C26000E2D222E22B0
:1018D0002F2273EF0CF030502C5E31502D5A3250C5
:1018E0002E5A33502F5A2C502D102E102F10D8A4B2
:1018F0007CEF0CF07EEF0CF0B3EF0CF03B50D8A473
:1019000084EF0CF086EF0CF0B3EF0CF0000E2C6EB1
:10191000000E2D6E000E2E6E000E2F6E4EEF0DF08F
:10192000D8902C362D362E362F363BAE9AEF0CF053
:101930009CEF0CF09DEF0CF02C803BA0A2EF0CF084
:10194000A4EF0CF0A8EF0CF0D8803B36AAEF0CF017
:10195000D8903B363A50D8B4B0EF0CF0B2EF0CF060
:10196000B3EF0CF03A062EAEB8EF0CF0BAEF0CF075
:1019700090EF0CF0000E396E3BAEC1EF0CF0C3EFF0
:101980000CF0DBEF0CF03BC034F07F0E3416D8B413
:10199000CCEF0CF0CEEF0CF0D2EF0CF0010E396E64
:1019A000DBEF0CF02CA0D7EF0CF0D9EF0CF0DBEF55
:1019B0000CF0CEEF0CF03950D8B4E1EF0CF0E3EFBF
:1019C0000CF00EEF0DF0010E2C26000E2D222E2213
:1019D0002F222FA0EEEF0CF0F0EF0CF00EEF0DF039
:1019E0002CC034F02DC035F02EC036F02FC037F0AB
:1019F0003734373236323532343234C02CF035C0D9
:101A00002DF036C02EF037C02FF03A28D8B40BEFA7
:101A10000DF00DEF0DF00EEF0DF03A2A3A28D8B484
:101A200014EF0DF016EF0DF01EEF0DF03A50D8A4A4
:101A30001CEF0DF01EEF0DF030EF0DF0000E2C6ED0
:101A4000000E2D6E000E2E6E000E2F6E3A50D8A492
:101A50002CEF0DF02EEF0DF030EF0DF0000E386E84
:101A60003AA035EF0DF037EF0DF03AEF0DF02E8E76
:101A70003BEF0DF02E9ED8903A302F6E38AE43EFEC
:101A80000DF045EF0DF046EF0DF02F8E2CC02CF031
:101A90002DC02DF02EC02EF02FC02FF012001650AA
:101AA000800B1F6E16501624256E15AE5AEF0DF0E2
:101AB0005CEF0DF05DEF0DF025802550D8B463EF9D
:101AC0000DF065EF0DF078EF0DF02528D8A46BEF41
:101AD0000DF06DEF0DF075EF0DF0000E136E000EB2
:101AE000146E000E156E000E166E158E80EF0DF042
:101AF000000E136E000E146E000E156E000E166EA4
:101B00001A50800B1F1A1A501A24246E19AE8BEF2C
:101B10000DF08DEF0DF08EEF0DF024802450D8B431
:101B200094EF0DF096EF0DF0A9EF0DF02428D8A456
:101B30009CEF0DF09EEF0DF0A6EF0DF0000E176E6E
:101B4000000E186E000E196E000E1A6E198EB1EF8F
:101B50000DF0000E176E000E186E000E196E000EBE
:101B60001A6E2450D8B4B7EF0DF0B9EF0DF0C1EFF5
:101B70000DF02550D8A4BFEF0DF0C1EF0DF0CBEF65
:101B80000DF0000E136E000E146E000E156E000E9A
:101B9000166E63EF0FF019501302F3CF2AF0F4CF53
:101BA0002BF02A50206E216A226A236A2B50266E5F
:101BB000276A286A296A18501402F3CF2AF0F4CF52
:101BC0002BF02A502026000E2122222223222B50E5
:101BD0002626000E27222822292217501502F3CF8D
:101BE0002AF0F4CF2BF02A502026000E21222222A8
:101BF00023222B502626000E27222822292222C00B
:101C000023F021C022F020C021F0206A17501402D6
:101C1000F3CF2AF0F4CF2BF02A5020262B5021228C
:101C2000000E2222000E232218501302F3CF2AF0B6
:101C3000F4CF2BF02A5020262B502122000E2222F6
:101C4000000E232222C023F021C022F020C021F068
:101C5000206A17501302F3CF2AF0F4CF2BF02A504A
:101C600020262B502122000E2222000E2322195062
:101C70001402F3CF2AF0F4CF2BF02A5026262B5053
:101C80002722000E2822000E292218501502F3CF19
:101C90002AF0F4CF2BF02A5026262B502722000EB4
:101CA0002822000E292219501502F3CF2AF0F4CF72
:101CB0002BF02A501B6E2B501C6E1D6A1E6A1DC015
:101CC0001EF01CC01DF01BC01CF01B6A1B502626FA
:101CD0001C5027221D5028221E50292220C01BF0F4
:101CE00021C01CF022C01DF023C01EF0190E7EEF93
:101CF0000EF0D8901E321D321C321B32E82E79EFC6
:101D00000EF01B5026261C5027221D5028221E5044
:101D1000292222C023F021C022F020C021F0206A15
:101D2000245025C01BF01C6A1B26000E1C22820EAC
:101D30001B242A6EFF0E1C202B6EB4EF0EF0D890E1
:101D4000263627362836293623AEA9EF0EF0ABEF1C
:101D50000EF0ACEF0EF02680D890203621362236D9
:101D600023362A06D8A02B0628AEB9EF0EF0BBEF1B
:101D70000EF09FEF0EF0000E246E23AEC2EF0EF0B9
:101D8000C4EF0EF0E8EF0EF0FF0E20141B6EFF0EF6
:101D900021141C6EFF0E22141D6E7F0E23141E6E66
:101DA0001B501C101D101E10D8B4D9EF0EF0DBEF25
:101DB0000EF0DFEF0EF0010E246EE8EF0EF026A01D
:101DC000E4EF0EF0E6EF0EF0E8EF0EF0DBEF0EF0D2
:101DD0002450D8B4EEEF0EF0F0EF0EF014EF0FF049
:101DE000010E2626000E27222822292229A0FBEFF9
:101DF0000EF0FDEF0EF014EF0FF026C01BF027C021
:101E00001CF028C01DF029C01EF01E341E321D32E9
:101E10001C321B321BC026F01CC027F01DC028F04E
:101E20001EC029F02A4A2B2A2BBE1FEF0FF02B5081
:101E300008E12A28D8A01FEF0FF021EF0FF02BEFB9
:101E40000FF0000E266E000E276E800E286E7F0E9D
:101E5000296E59EF0FF02BBE38EF0FF02B5006E133
:101E60002A04D8B036EF0FF038EF0FF044EF0FF040
:101E7000000E266E000E276E000E286E000E296ED4
:101E8000000E1F6E59EF0FF02AC025F0FF0E261628
:101E9000FF0E27167F0E2816000E291625A053EFD9
:101EA0000FF055EF0FF056EF0FF0288ED890253039
:101EB000296E1F50291226C013F027C014F028C025
:101EC00015F029C016F01200000E296E000E2A6EC1
:101ED000000E2B6E000E2C6E000E2D6E000E2E6E60
:101EE000000E2F6E000E306E000E326E000E316E40
:101EF000000E3A6E000E396ED8903934D96E3A34ED
:101F0000DA6ECA0ED926000EDA22DECF3BF0DDCF24
:101F10003CF0D8903B34D96E3C34DA6EB80ED926FA
:101F2000000EDA22DECF33F0DDCF34F0D8903B3430
:101F3000D96E3C34DA6E940ED926000EDA22335074
:101F4000DE5CDE50800A216E3450800A2158D8A011
:101F5000ACEF0FF0AEEF0FF0BBEF0FF0D8903B34CB
:101F6000D96E3C34DA6E940ED926000EDA22DECF1A
:101F700033F0DDCF34F0D8903B34D96E3C34DA6E98
:101F8000A60ED926000EDA22DE50335C3450800AC9
:101F9000216EDE50800A2158D8A0D1EF0FF0D3EF88
:101FA0000FF0E0EF0FF0D8903B34D96E3C34DA6E8E
:101FB000A60ED926000EDA22DECF33F0DDCF34F0C4
:101FC000D8903B34D96E3C34DA6E940ED926000E8C
:101FD000DA22DE50335EDD50345A33C005F034C0AF
:101FE00006F0000E06BEFF0E076E086EE80E096EC4
:101FF000030E0A6E000E0B6E000E0C6EBAEC15F09E
:1020000005C011F006C012F007C013F008C014F0AC
:10201000D8903B34D96E3C34DA6E940ED926000E3B
:10202000DA22DECF1FF0DDCF20F0D8903B34D96E1E
:102030003C34DA6EA60ED926000EDA22DECF21F06D
:10204000DDCF22F01F50215C236E20502258246ED9
:1020500023C015F024C016F0000E16BEFF0E176E3A
:10206000186EC5EC11F01150E808356E030E1254CD
:10207000366E000E1354376E000E1454386ED8901E
:102080003B34D96E3C34DA6E000ED926010EDA22CA
:1020900035C0DEFF36C0DDFF38BE5BEF10F03850D4
:1020A00037100BE12C0E355C010E3658D8A05BEFD3
:1020B00010F05DEF10F061EF10F0000E326E010EC7
:1020C000316E39C005F03AC006F0000E06BEFF0EB4
:1020D000076E086E35C009F036C00AF037C00BF045
:1020E00038C00CF0BAEC15F005C025F006C026F09B
:1020F00007C027F008C028F025C005F026C006F06C
:1021000027C007F028C008F0640E096E000E0A6EA2
:10211000000E0B6E000E0C6EBAEC15F00550292661
:1021200006502A2207502B2208502C2235502D26EB
:1021300036502E2237502F2238503022394A3A2A30
:102140003ABEACEF10F03A5009E1050E395CD8A068
:10215000ACEF10F0AEEF10F07CEF0FF03104321066
:10216000D8A4B5EF10F0B7EF10F0D2EF10F029C0FF
:1021700011F02AC012F02BC013F02CC014F02DC0A7
:1021800015F02EC016F02FC017F030C018F0C5ECB7
:1021900011F0380E11240001926FFF0E1220936F80
:1021A000EAEF10F0000193BFE0EF10F0935106E169
:1021B0009205D8B0DEEF10F0E0EF10F0E6EF10F08F
:1021C000FF0E936F420E926FEAEF10F0000E936FC6
:1021D000BE0E926F12000D6E0D50D8B4F2EF10F0DB
:1021E000F4EF10F016EF11F008BEFBEF10F0F9EF6E
:1021F00010F016EF11F005C009F006C00AF007C094
:102200000BF008C00CF0091E0A1E0B1E0C1E092A3A
:10221000000E0A220B220C2209C00FF00AC010F097
:102220000BC011F00CC012F01EEF11F005C00FF042
:1022300006C010F007C011F008C012F005500610DB
:1022400007100810D8A427EF11F029EF11F033EF91
:1022500011F0000E056E000E066E000E076E000EE9
:10226000086EC4EF11F0960E0E6E3DEF11F00E2ABF
:10227000D8901232113210320F32000E0F14096E44
:10228000000E10140A6E000E11140B6EFE0E1214C6
:102290000C6E09500A100B100C10D8A452EF11F05C
:1022A00054EF11F037EF11F062EF11F00E2A010E2A
:1022B0000F26000E102211221222D8901232113253
:1022C00010320F32000E0F14096E000E10140A6E39
:1022D000000E11140B6EFF0E12140C6E09500A1032
:1022E0000B100C10D8A477EF11F079EF11F056EF26
:1022F00011F081EF11F00E06D8900F36103611361E
:10230000123611BE86EF11F088EF11F090EF11F048
:10231000020E0E608EEF11F090EF11F07BEF11F0D6
:102320000EB095EF11F097EF11F098EF11F0119EAC
:10233000D8900E320EC009F00A6A0B6A0C6A09C006
:102340000CF00B6A0A6A096A09500F120A5010123F
:102350000B5011120C5012120D50D8B4B2EF11F0F4
:10236000B4EF11F0BCEF11F008BEBBEF11F0B9EF04
:1023700011F0BCEF11F0128E0FC005F010C006F086
:1023800011C007F012C008F01200000E1A6E18BE3D
:10239000CEEF11F0CCEF11F0D8EF11F0181E171E90
:1023A000161E156C000E162217221822010E1A6E28
:1023B00014BEDFEF11F0DDEF11F0E9EF11F0141EA4
:1023C000131E121E116C000E122213221422010E73
:1023D0001A1A000E1B6E000E1C6E000E1D6E000EF3
:1023E0001E6E1550161017101810D8B4FAEF11F011
:1023F000FCEF11F032EF12F0010E196E06EF12F041
:10240000D8901536163617361836192A18AE0BEF2F
:1024100012F00DEF12F000EF12F0D8901B361C36C0
:102420001D361E361550115C165012581750135891
:1024300018501458D8A01FEF12F021EF12F02AEF15
:1024400012F01550115E1650125A1750135A1850A8
:10245000145A1B80D8901832173216321532192EA2
:102460000DEF12F01A50D8B438EF12F03AEF12F024
:1024700042EF12F01E1E1D1E1C1E1B6C000E1C22A5
:102480001D221E221BC011F01CC012F01DC013F033
:102490001EC014F01200463447344D6E4D50D8A47F
:1024A00054EF12F056EF12F060EF12F0000E446E8F
:1024B000000E456E000E466E000E476ECDEF12F018
:1024C00044C048F045C049F046C04AF047C04BF010
:1024D000200E70EF12F0D8904B324A324932483217
:1024E000E82E6BEF12F048504C6E468EFF0E4416ED
:1024F000FF0E4516FF0E4616000E4716960E4D5E51
:102500004DBE87EF12F085EF12F09DEF12F04D50A7
:10251000800A970FD8B08FEF12F091EF12F093EF7F
:1025200012F056EF12F0D89047324632453244321C
:102530004D3E93EF12F0B5EF12F01F0E4D64A3EF76
:1025400012F0A5EF12F0ADEF12F056EF12F0D890A6
:1025500044364536463647364D064D50D8A4B3EF7F
:1025600012F0B5EF12F0A7EF12F04C50D8B4BBEF59
:1025700012F0BDEF12F0C5EF12F0471E461E451EC9
:10258000446C000E45224622472244C044F045C018
:1025900045F046C046F047C047F01200000E051453
:1025A0000D6E000E06140E6E800E07140F6E7F0E59
:1025B0000814106E0D500E100F101010D8A4E3EF79
:1025C00012F0E5EF12F0EDEF12F0000E056E000EC6
:1025D000066E000E076E000E086E000E09140D6EDA
:1025E000000E0A140E6E800E0B140F6E7F0E0C146C
:1025F000106E0D500E100F101010D8A402EF13F033
:1026000004EF13F00CEF13F0000E096E000E0A6ECB
:10261000000E0B6E000E0C6E08AE11EF13F013EFF0
:1026200013F01CEF13F0056C061ED8B0062A071E27
:10263000D8B0072A800E08560CAE21EF13F023EF16
:1026400013F02CEF13F0096C0A1ED8B00A2A0B1EE7
:10265000D8B00B2A800E0C56000E051A000E061A72
:10266000000E071A800E081A000E091A000E0A1A28
:10267000000E0B1A800E0C1A0950055C0A50065801
:102680000B5007580C500858D8B049EF13F04BEFD7
:1026900013F04EEF13F0D8904FEF13F0D8801200E4
:1026A000000E0E6E08BE59EF13F057EF13F063EFF4
:1026B00013F0081E071E061E056C000E06220722D8
:1026C0000822010E0E6E0CBE6AEF13F068EF13F0D5
:1026D00072EF13F00C1E0B1E0A1E096C000E0A226C
:1026E0000B220C2209500A100B100C10D8B47BEFEF
:1026F00013F07DEF13F0ADEF13F0010E0D6E87EFC9
:1027000013F0D89009360A360B360C360D2A0CAE6B
:102710008CEF13F08EEF13F081EF13F00950055C8E
:102720000A5006580B5007580C500858D8A09BEF79
:1027300013F09DEF13F0A5EF13F00950055E0A505A
:10274000065A0B50075A0C50085AD8900C320B32CC
:102750000A3209320D2E8EEF13F00E50D8B4B3EFBB
:1027600013F0B5EF13F0BDEF13F0081E071E061EA1
:10277000056C000E06220722082205C005F006C0DF
:1027800006F007C007F008C008F012000D6C0E1E1E
:10279000D8B00E2A0EBED6EF13F0E80E0D5C030E75
:1027A0000E58D8A0D6EF13F0D8EF13F0DCEF13F0EB
:1027B000030E0E6EE80E0D6E0EAEE8EF13F0190E5E
:1027C0000D5CFC0E0E58D8B0E8EF13F0EAEF13F0F2
:1027D000EEEF13F0FC0E0E6E180E0D6E0EBEF9EF3E
:1027E00013F00E500AE10D04D8A0F9EF13F0FDEF3D
:1027F00013F00F6A0F2AFEEF13F00F6A81500F18C3
:10280000FE0B0F18816E0EBE10EF14F00E5006E195
:102810000D04D8B00EEF14F010EF14F016EF14F012
:10282000E80E0D240D6E030E0E200E6E0DC00FF07F
:10283000030E0F160F3A0F46BD500F18DF0B0F187F
:10284000BD6E0DC005F00EC006F0000E086E040E41
:10285000076E92EC14F00550BE6E12000EBE3AEFF9
:1028600014F0E80E0D5C030E0E58D8A03AEF14F0E9
:102870003CEF14F040EF14F0030E0E6EE80E0D6EF8
:102880000EAE4CEF14F0190E0D5CFC0E0E58D8B0C5
:102890004CEF14F04EEF14F052EF14F0FC0E0E6EED
:1028A000180E0D6E0EBE5DEF14F00E500AE10D0411
:1028B000D8A05DEF14F061EF14F00F6A0F2A62EFF9
:1028C00014F00F6A0F4681500F18FD0B0F18816E20
:1028D0000EBE75EF14F00E5006E10D04D8B073EF84
:1028E00014F075EF14F07BEF14F0E80E0D240D6E6C
:1028F000030E0E200E6E0DC00FF0030E0F160F3AD2
:10290000BA500F18CF0B0F18BA6E0DC005F00EC0DD
:1029100006F0000E086E040E076E92EC14F00550DF
:10292000BB6E1200000E0A6E08BE9BEF14F099EF0A
:1029300014F0A1EF14F0076C081ED8B0082A010E9D
:102940000A6E06BEA8EF14F0A6EF14F0AEEF14F076
:10295000056C061ED8B0062A010E0A1A000E0C6E6F
:10296000000E0B6E07500810D8B4B9EF14F0BBEF8F
:1029700014F0E3EF14F0010E096EC3EF14F0D890D9
:1029800007360836092A08AEC8EF14F0CAEF14F06B
:10299000BFEF14F0D8900B360C360750055C08508A
:1029A0000658D8A0D6EF14F0D8EF14F0DDEF14F0ED
:1029B0000750055E0850065A0B80D890083207323F
:1029C000092ECAEF14F00A50D8B4E9EF14F0EBEF77
:1029D00014F0EFEF14F00B6C0C1ED8B00C2A0BC0E7
:1029E00005F00CC006F012000600D9CF03F0DACFD4
:1029F00004F0F2A4FEEF14F000EF15F033EF15F041
:102A0000000E00018D6F000E8C6F8DBF11EF15F061
:102A10008D5109E10A0E8C5DD8A011EF15F013EF6E
:102A200015F015EF15F02EEF15F0600E016E000E8B
:102A3000026ED8908C35D96E8D35DA6ED890D93635
:102A4000DA360150D9260250DA22DE2A000EDE22C2
:102A5000DE22DE228C4B8D2B05EF15F0F80ED76EA3
:102A60002F0ED66EF29404C0DAFF03C0D9FF5A923B
:102A70001100000E066E000E056ED8900534D96E5A
:102A80000634DA6EA60ED926000EDA22000EDE6EAD
:102A9000000EDD6E054A062A06BE58EF15F00650F8
:102AA00009E1090E055CD8A058EF15F05AEF15F0B2
:102AB0003DEF15F0000E066E000E056ED890053441
:102AC000D96E0634DA6E940ED926000EDA22000E84
:102AD000DE6E040EDD6E054A062A06BE79EF15F09D
:102AE000065009E1090E055CD8A079EF15F07BEFDF
:102AF00015F05EEF15F01200000E106E10C00DF014
:102B00000D460D46C2500D18C30B0D18C26EC28281
:102B1000C2B28DEF15F08FEF15F088EF15F0C450AD
:102B2000040DF3CF0EF0F4CF0FF0C3CF05F0066A1B
:102B3000000E086E400E076E92EC14F00E50052445
:102B40000E6E0F5006200F6E1050020DB80EF324BB
:102B5000D96E000EF420DA6E0EC0DEFF0FC0DDFF6E
:102B6000102A080E1064B7EF15F0B9EF15F07EEFDC
:102B700015F01200000E0D6E000E0E6E000E0F6EA0
:102B8000000E106E05A0C7EF15F0C9EF15F0D1EFDC
:102B900015F009500D260A500E220B500F220C5032
:102BA0001022D89009360A360B360C36D8900832E7
:102BB0000732063205320550061007100810D8A457
:102BC000E4EF15F0E6EF15F0C2EF15F00DC005F0DB
:102BD0000EC006F00FC007F010C008F01200660E1D
:102BE000F66E2D0EF76E000EF86E00EECAF010EEC7
:102BF0001CF00900F5CFEEFFE550E150FAE1C40EFC
:102C0000F66E2D0EF76E000EF86E00EE52F010EE1E
:102C100008F00900F5CFEEFFE550E150FAE101EED2
:102C200000F0120EEE6AE806FDE100EE60F06A0EBA
:102C3000EE6AE806FDE15A905A92000EF86E000125
:102C400007EF04F0700ED312070EB46E6D966F8608
:102C5000D59ED59CD59AD586F80ED76E2F0ED66EFA
:102C6000F184D09EF28AF28ED58ECD90CD9ECD9CF1
:102C7000CF0ECD16CD96CD92CD80F80ECF6E2F0E05
:102C8000CE6E8AEC16F0A1EC16F06BEC16F012008A
:102C9000000E401A000E411A000E421A800E431A0E
:102CA0003CC02CF03DC02DF03EC02EF03FC02FF0B8
:102CB00040C030F041C031F042C032F043C033F088
:102CC000EFEC0AF02CC03CF02DC03DF02EC03EF0E1
:102CD0002FC03FF01200CA96CA98CA9ACA9CCA84EA
:102CE000CA90CA92CA84CA50870B5809CA6ECA5081
:102CF000FC0B0109CA6ECA94F90ECB6ECA84BD5092
:102D0000F00B0C09BD6EBA50F00B0C09BA6EF90E3F
:102D1000CB6E12009398949295949298939093927C
:102D2000958095829280928292849286928A9680F1
:102D300096829684938494949396848E949C949E85
:102D40001200CF0EC116C150F00B0609C16EC09E15
:102D5000380EC012C050F80B0609C06EC30EC21662
:102D6000C292C280120008000700060004000200A0
:102D7000CDCCCC3D0000C8420000804000000100E6
:102D800001004EC00DF04FC00EF0C6EC13F050C065
:102D90000DF051C00EF02EEC14F0120081988292CA
:102DA0008394808812008198829283848098120094
:102DB0008198828283948098120081888292839481
:0C2DC00080981200CDCCCC3D0300050033
:020000040020DA
:08000000FFFFFFFFFFFFFFFF00
:020000040030CA
:0E000000240E191EFF0081FF0FC00FE00F40FD
:00000001FF
