:040000000CEF00F011
:10000800FACF01F0FBCF02F0E9CF03F03BED0BF0A4
:100018007DEF0BF012EC0DF0000E00019B6F000E4F
:100028009A6F000E0001936F000E926F000E000190
:10003800836F000E826F0001F269000E0001746F79
:10004800000E756F000E766F000E776F000E436E10
:10005800000E426E000E4B6E020E0101ED6F000E97
:100068003A6E000E3B6E000E3C6E000E3D6E000EAA
:100078000101846F000E856F000E866F000E876F7A
:10008800BEEC0DF0000E1B6E000E1A6E000E1D6EFB
:10009800000E1C6E35EC0DF08386020E0101ED6F2B
:1000A80006D0000E00018D6F010E8C6F00D03DBE92
:1000B800F8D73D503C1008E1880E3A5C130E3B58C7
:1000C800D8B002D0EED700D0FDEC0BF04CEF05F025
:1000D8003AC00FF03BC010F03CC011F03DC012F028
:1000E800E80E136E030E146E000E156E000E166EDB
:1000F800E7EC09F012BE0DD01250111006E1F50E12
:100108000F5C010E1058D8A004D00001DB6BDB2B6C
:1001180002D00001DB6B0001DB3B80500001DB19E2
:10012800EF0BDB19806E44504510D8A402D0819A99
:1001380038D044044510D8A402D0818A32D044284B
:1001480030E14528D8A42DD03AC00FF03BC010F0BC
:100158003CC011F03DC012F0E80E136E030E146E91
:10016800000E156E000E166EE7EC09F012BE0DD0EB
:100178001250111006E1F50E0F5C010E1058D8A0B0
:1001880004D00001DB6BDB2B02D00001DB6B00012C
:10019800DB3BDB4781500001DB19DF0BDB19816E8C
:1001A80000D046504710D8A402D0819035D04604DC
:1001B8004710D8A402D081802FD046282DE14728A7
:1001C800D8A42AD03AC00FF03BC010F03CC011F0C0
:1001D8003DC012F0E80E136E030E146E000E156E7D
:1001E800000E166EE7EC09F012BE0DD01250111079
:1001F80006E1F50E0F5C010E1058D8A004D00001DE
:10020800DB6BDB2B02D00001DB6B81500001DB19BB
:10021800FE0BDB19816E00D000018C5100018D119D
:10022800D8B40CD0000E00018D6F000E8C6FDA0E62
:100238001B6E7F0E1C6ED9EC08F000D083BC19D061
:100248000001885100018911D8A413D0000E0001C3
:10025800896F010E886F44044510D8B407D0010E89
:100268004424446E000E4520456E03D0446845681A
:1002780000D083B819D000018A5100018B11D8A48D
:1002880013D0000E00018B6F010E8A6F46044710D1
:10029800D8B407D0010E4624466E000E4720476E9C
:1002A80003D04668476800D083AC06D0000E000132
:1002B800896F000E886F00D083A806D0000E000159
:1002C8008B6F000E8A6F00D044C00FF045C010F04D
:1002D800030E126EE80E116EAAEC0DF00FC01AF0A4
:1002E80010C01BF046C00FF047C010F0030E126E8E
:1002F800E80E116EAAEC0DF00FC01CF010C01DF036
:1003080035EC0DF0E1D600018C5100018D11D8B407
:100318000CD0000E00018D6F000E8C6FB50E1B6E99
:100328007F0E1C6ED9EC08F000D081903AC00FF017
:100338003BC010F03CC011F03DC012F0D00E136E5F
:10034800070E146E000E156E000E166EE7EC09F01F
:1003580012BE0DD01250111006E1E90E0F5C030E0B
:100368001058D8A004D00001DB6BDB2B02D00001B1
:10037800DB6B0001DB3B80500001DB19EF0BDB1965
:10038800806E819A83BAA0D6330E1B6E7F0E1C6EC8
:10039800D9EC08F0040E0101ED6FBEEC0BF094D619
:1003A800818A809881903DBE8FD63D503C1006E1F1
:1003B800D10E3A5C070E3B58D8A086D6020E64D3FD
:1003C80083D6FDEC0BF0000E4D6E000E4C6E4DBE4C
:1003D80008D04D5005E10B0E4C5CD8B020D101D0AF
:1003E8001ED1000E0001DB6F010E0001DC6FD890FA
:1003F8004C34D96E4D34DA6ED890D936DA360001DD
:10040800DB51D9260001DC51DA22D8904C34E16E58
:100418004D34E26E580EE126010EE222E6CFE1F0FD
:10042800E5CFE2F0E1C0E3F0E2C0E4F0000E000145
:10043800E4BFFF0EE56FE66FDE500001E35DDE50BE
:100448000001E459DE500001E5590001E651800A37
:100458000001E76FDE50800A0001E759D8A014D0E8
:10046800D8904C34D96E4D34DA6E580ED926010E18
:10047800DA22DECFD4F1DDCFD5F10101000ED5BFF0
:10048800FF0ED66FD76F1CD0000E0001DB6F010E78
:100498000001DC6FD8904C34D96E4D34DA6ED890A8
:1004A800D936DA360001DB51D9260001DC51DA22CF
:1004B800DECFD4F1DECFD5F1DECFD6F1DECFD7F166
:1004C800000E0001DB6F010E0001DC6FD8904C3488
:1004D800D96E4D34DA6ED890D936DA360001DB5150
:1004E800D9260001DC51DA22D4C1DEFFD5C1DEFFF6
:1004F800D6C1DEFFD7C1DEFFD8904C34D96E4D345B
:10050800DA6E580ED926010EDA22DECFDBF0DDCF07
:10051800DCF0DBC0DDF0DCC0DEF0000E0001DEBF89
:10052800FF0EDF6FE06F2C0E0001E16F010E00017E
:10053800E26FD8904C34D96E4D34DA6ED890D936F3
:10054800DA360001E151D9260001E251DA22000130
:10055800DD51DE5C0001DE51DE580001DF51DE585E
:10056800DE50800A0001E76F0001E051800A0001B7
:10057800E759D8A014D0D8904C34D96E4D34DA6EDF
:10058800580ED926010EDA22DECFD8F1DDCFD9F107
:100598000101000ED9BFFF0EDA6FDB6F1CD02C0EE5
:1005A8000001DB6F010E0001DC6FD8904C34D96E6E
:1005B8004D34DA6ED890D936DA360001DB51D926B7
:1005C8000001DC51DA22DECFD8F1DECFD9F1DECF5F
:1005D800DAF1DECFDBF12C0E0001DB6F010E00013A
:1005E800DC6FD8904C34D96E4D34DA6ED890D93649
:1005F800DA360001DB51D9260001DC51DA22D8C1F4
:10060800DEFFD9C1DEFFDAC1DEFFDBC1DEFF4C4A07
:100618004D2A4DBEE6D64D5002E1DDD600D03AC097
:100628000FF03BC010F03CC011F03DC012F02C0E92
:10063800136E010E146E000E156E000E166EE7ECAA
:1006480009F012BE0CD012501110101004E1C90E9E
:100658000F5CD8A004D00001DB6BDB2B02D00001BB
:10066800DB6B0001DB3B80500001DB19EF0BDB1972
:10067800806E000E0101DC6F3AC00FF03BC010F035
:100688003CC011F03DC012F02C0E136E010E146E1A
:10069800000E156E000E166EE7EC09F012BE28D09B
:1006A80012501110101004E1650E0F5CD8A020D074
:1006B8003AC00FF03BC010F03CC011F03DC012F042
:1006C8002C0E136E010E146E000E156E000E166EB3
:1006D800E7EC09F012BE08D012501110101008E112
:1006E800C80E0F5CD8B004D0010E0101DC6F00D039
:1006F8000101DCB102D0819A01D0818A3AC00FF0A1
:100708003BC010F03CC011F03DC012F02C0E136E2F
:10071800010E146E000E156E000E166EE7EC09F051
:1007280012BE08D012501110101008E1640E0F5CB0
:10073800D8B004D00001DB6BDB2B02D00001DB6BEF
:1007480081500001DB19FE0BDB19816E83BC12D0CE
:10075800620E1B6E7F0E1C6ED9EC08F0000E3A6E0E
:10076800000E3B6E000E3C6E000E3D6E010E010148
:10077800ED6F00D083B8A8D48E0E1B6E7F0E1C6E52
:10078800D9EC08F0000E3A6E000E3B6E000E3C6E7F
:10079800000E3D6E78D198D481808098819A000EA1
:1007A8001B6E000E1A6E000E1D6E000E1C6E35ECD0
:1007B8000DF0FDEC0BF03DBE22D03D503C1006E1A3
:1007C800E90E3A5C030E3B58D8A019D0000E3A6ED9
:1007D800000E3B6E000E3C6E000E3D6E68EC05F0A0
:1007E8002FC0D2F130C0D3F1470E1B6E7E0E1C6EA7
:1007F800D2C11DF0D3C11EF0D9EC08F000D083BAE5
:1008080063D4050E41D160D481808088818A83AA0F
:100818005BD4060E39D158D481808088819AFDEC4A
:100828000BF068EC05F02FC0E5F130C0E6F10101EE
:10083800000EE6BFFF0EE76FE86F84C1DBF085C1ED
:10084800DCF086C1DDF087C1DEF00001DB1FDC1FB4
:10085800DD1FDE1FDB2B000EDC23DD23DE23010181
:10086800E5510001DB250101CE6F0101E6510001D0
:10087800DC210101CF6F0101E7510001DD210101F8
:10088800D06F0101E8510001DE210101D16FE5C1FE
:1008980015F0E6C116F0E7C117F0E8C118F0060E2A
:1008A800196E000E1A6E000E1B6E000E1C6E95EC73
:1008B8000CF015C0DBF016C0DCF017C0DDF018C076
:1008C800DEF0CEC115F0CFC116F0D0C117F0D1C1FE
:1008D80018F0320E196E000E1A6E000E1B6E000E06
:1008E8001C6E95EC0CF015500001DB250101E96F39
:1008F80016500001DC210101EA6F17500001DD21CB
:100908000101EB6F18500001DE210101EC6F0101BC
:10091800ECBF3AD00101EC510101EB110101EA11E0
:1009280004E10101E905D8A02FD0E9C1DBF0EAC153
:10093800DCF0EBC1DDF0ECC1DEF00001DB1FDC1FF9
:10094800DD1FDE1FDB2B000EDC23DD23DE23C20EC2
:100958000001DB250101DD6F010E0001DC21010131
:10096800DE6F000E0001DD210101DF6F000E0001C6
:10097800DE210101E06FC20E0101E16F010EE26F9D
:10098800000EE36F000E1CD0C20E0101DD6F010ED8
:10099800DE6F000EDF6F000EE06FC20E0101E92569
:1009A8000101E16F010E0101EA210101E26F000E70
:1009B8000101EB210101E36F000E0101EC210101AE
:1009C800E46F00D0DDC11AF0DEC11BF0E1C11CF0FC
:1009D800E2C11DF035EC0DF0E5C184F1E6C185F109
:1009E800E7C186F1E8C187F13DBE4AD03D503C10D1
:1009F80006E1F50E3A5C010E3B58D8A041D0000E36
:100A08003A6E000E3B6E000E3C6E000E3D6E470EB9
:100A18001B6E7E0E1C6EE5C11DF0E6C11EF0E7C11F
:100A28001FF0E8C120F0D9EC08F0840E1B6E7E0E92
:100A38001C6EE9C11DF0EAC11EF0EBC11FF0ECC14C
:100A480020F0D9EC08F0BF0E1B6E7E0E1C6EDDC1C7
:100A58001DF0DEC11EF0DFC11FF0E0C120F0D9ECAF
:100A680008F0F90E1B6E7E0E1C6EE1C11DF0E2C18E
:100A78001EF0E3C11FF0E4C120F0D9EC08F000D06B
:100A880083BC68EF00F0030E0101ED6F68EF00F022
:100A98000101ED51000AD8B46CEF00F0010AD8B496
:100AA8007FD4030AD8B42FD4010AD8B475D6070A5C
:100AB800D8B487D4010AD8B4A7D6030AD8B4ACD618
:100AC80068EF00F00CEF00F0000E0001CD6F000E93
:100AD800CE6F000ECF6F000ED06F000E0001D16FE9
:100AE800000ED26F000ED36F000ED46F000E0001FF
:100AF800CA6F000EC96F000E0001DA6F000ED96FC1
:100B08000001DABF0AD00001DA5106E1050E000142
:100B1800D95DD8B0EAD201D0E8D2D8900001D93551
:100B2800D96E0001DA35DA6EE80ED926000EDA221F
:100B3800DECFABF0DDCFACF00001D890AB37AC37EF
:100B48000001D890AB37AC37000E0001AB25D96E49
:100B5800010E0001AC21DA6ED8900001D935E16EA2
:100B68000001DA35E26EE80EE126000EE222E6CF59
:100B7800B1F0E5CFB2F0D8900001B137B237580ED6
:100B88000001B125E16E010E0001B221E26EE6CF4F
:100B9800B3F0E5CFB4F0B3C0B5F0B4C0B6F0000E12
:100BA8000001B6BFFF0EB76FB86FDE500001B55D2C
:100BB800DE500001B659DE500001B7590001B851A6
:100BC800800A0001B96FDE50800A0001B959D8A027
:100BD80028D0D8900001D935D96E0001DA35DA6EFF
:100BE800E80ED926000EDA22DECFABF0DDCFACF06E
:100BF8000001D890AB37AC370001D890AB37AC3791
:100C0800000E0001AB25D96E010E0001AC21DA6E91
:100C1800DECFC1F0DECFC2F0DECFC3F0DECFC4F04E
:100C280025D0D8900001D935D96E0001DA35DA6EB1
:100C3800E80ED926000EDA22DECFABF0DDCFACF01D
:100C4800D8900001AB37AC37580E0001AB25D96EF0
:100C5800010E0001AC21DA6EDECFC1F0DDCFC2F0AB
:100C68000001000EC2BFFF0EC36FC46FD890000111
:100C7800D935D96E0001DA35DA6EE80ED926000EBC
:100C8800DA22DECFABF0DDCFACF00001D890AB3785
:100C9800AC370001D890AB37AC372C0E0001AB2530
:100CA800D96E010E0001AC21DA6E0001C151DE5C83
:100CB8000001C251DE580001C351DE58DE50800ADF
:100CC8000001B16F0001C451800A0001B159D8A0D8
:100CD80028D0D8900001D935D96E0001DA35DA6EFE
:100CE800E80ED926000EDA22DECFABF0DDCFACF06D
:100CF8000001D890AB37AC370001D890AB37AC3790
:100D08002C0E0001AB25D96E010E0001AC21DA6E64
:100D1800DECFBDF0DECFBEF0DECFBFF0DECFC0F05D
:100D2800B3D0D8900001D935D96E0001DA35DA6E22
:100D3800E80ED926000EDA22DECFABF0DDCFACF01C
:100D48000001D890AB37AC370001D890AB37AC373F
:100D5800000E0001AB25D96E010E0001AC21DA6E40
:100D6800D8900001D935E16E0001DA35E26EE80E5F
:100D7800E126000EE222E6CFB1F0E5CFB2F0D8903E
:100D88000001B137B237580E0001B125E16E010EEE
:100D98000001B221E26EE6CFB3F0E5CFB4F0B3C004
:100DA800B5F0B4C0B6F0000E0001B6BFFF0EB76FC5
:100DB800B86FDE500001B55DDE500001B659DE5057
:100DC8000001B7590001B851800A0001B96FDE501F
:100DD800800A0001B959D8A028D0D8900001D93587
:100DE800D96E0001DA35DA6EE80ED926000EDA225D
:100DF800DECFABF0DDCFACF00001D890AB37AC372D
:100E08000001D890AB37AC37000E0001AB25D96E86
:100E1800010E0001AC21DA6EDECFC5F0DECFC6F0E0
:100E2800DECFC7F0DECFC8F026D0D8900001D93584
:100E3800D96E0001DA35DA6EE80ED926000EDA220C
:100E4800DECFABF0DDCFACF0D8900001AB37AC37DC
:100E5800580E0001AB25D96E010E0001AC21DA6EE7
:100E6800DECFC5F0DDCFC6F00001000EC6BFFF0E15
:100E7800C76FC86F00D0C5C0BDF0C6C0BEF0C7C040
:100E8800BFF0C8C0C0F000D0D8900001D935D96EE5
:100E98000001DA35DA6EE80ED926000EDA22DECF46
:100EA800ABF0DDCFACF00001D890AB37AC37000128
:100EB800D890AB37AC372C0E0001AB25D96E010E9C
:100EC8000001AC21DA6EDECFADF0DECFAEF0DECFC2
:100ED800AFF0DECFB0F00001AD1FAE1FAF1FB01FE7
:100EE800AD2B000EAE23AF23B0230001BD5100018E
:100EF800AD25156E0001BE510001AE21166E000130
:100F0800BF510001AF21176E0001C0510001B0218F
:100F1800186E640E196E000E1A6E000E1B6E000E0F
:100F28001C6E95EC0CF015C021F016C022F017C00D
:100F380023F018C024F0D8900001D935D96E0001EB
:100F4800DA35DA6EE80ED926000EDA22DECFB1F0F5
:100F5800DDCFB2F00001D890B137B2370001D89098
:100F6800B137B237000E0001B125D96E010E00016C
:100F7800B221DA6EDECFB3F0DECFB4F0DECFB5F05B
:100F8800DECFB6F0D8900001D935D96E0001DA3538
:100F9800DA6EE80ED926000EDA22DECFB7F0DDCF02
:100FA800B8F00001D890B737B8370001D890B737F4
:100FB800B8372C0E0001B725D96E010E0001B821F3
:100FC800DA6EDECFB9F0DECFBAF0DECFBBF0DECF1F
:100FD800BCF00001B91FBA1FBB1FBC1FB92B000E04
:100FE800BA23BB23BC230001B3510001B925256EE8
:100FF8000001B4510001BA21266E0001B55100016B
:10100800BB21276E0001B6510001BC21286E78EC87
:1010180009F021C0D5F022C0D6F023C0D7F024C0F3
:10102800D8F0D8900001D935D96E0001DA35DA6EDA
:10103800C00ED926010EDA22DECF0FF0DDCF10F078
:10104800000E126E640E116EAAEC0DF00FC015F0B2
:1010580010C016F0000E16BEFF0E176E186ED5C023
:1010680019F0D6C01AF0D7C01BF0D8C01CF095EC08
:101078000CF015500001CD2716500001CE23175053
:101088000001CF2318500001D0230001D5510001E1
:10109800D1270001D6510001D2230001D751000108
:1010A800D3230001D8510001D4230001D8BF12D0A6
:1010B8000001D8510001D7110001D61105E1330E06
:1010C8000001D55DD8A006D0000E0001CA6F010E40
:1010D800C96F00D00001D94BDA2B0001DABF1DD54A
:1010E8000001DA5102E112D500D00001C951000116
:1010F800CA11D8A428D000017BBF0BD000017B51B6
:1011080000017A110001791109E100017805D8B0D0
:1011180005D0FF0E0001CC6F7E0E04D0000E00013A
:10112800CC6F820ECB6F00D0CBC078F0CCC079F0FA
:101138000001000E79BFFF0E7A6F7B6F78C02FF029
:1011480079C030F031D0CDC021F0CEC022F0CFC070
:1011580023F0D0C024F0D1C025F0D2C026F0D3C0EF
:1011680027F0D4C028F078EC09F021C078F022C02C
:1011780079F023C07AF024C07BF0CDC021F0CEC036
:1011880022F0CFC023F0D0C024F0D1C025F0D2C0C7
:1011980026F0D3C027F0D4C028F078EC09F021C09D
:1011A8002FF022C030F000D012001D0E226E000E6B
:1011B800236E8BD0250E2818D8B404D02850EBEC19
:1011C8000DF083D0000E246E04D08DD015D07DD0C4
:1011D80013D01BC0F6FF1CC0F7FF1B4A1C2A0800CF
:1011E800F5CF28F02850000AD8B47DD0640AD8B4C6
:1011F80003D00D0AD8A469D022C0D9FF23C0DAFFD2
:10120800DECF26F0DDCF27F0020E2226000E2322A5
:1012180027AE07D0030E2412266C271ED8B0272A23
:1012280000D0010E286E050E2818D8B416D001D0AB
:1012380014D02850020D3D0EF324F66E7E0EF420D5
:10124800F76E0900F550265C0900F5502758D8A01C
:1012580004D001D002D0282AE6D724C021F0030EFA
:101268002116D8B404D02D0EEBEC0DF000D028C018
:1012780025F025D02550020D3D0EF324F66E7E0E86
:10128800F420F76E0900F5CF11F00A00F5CF12F03F
:1012980026C00FF027C010F067EC0CF00FC016F056
:1012A80010C017F0000E196E0A0E186EECEC0CF058
:1012B8001650300F286E2850EBEC0DF000D02506A4
:1012C8002528D8B402D0D6D700D01BC0F6FF1CC042
:1012D800F7FF1B4A1C2A0800F5CF28F02850D8B47D
:1012E80002D068D700D01200000E2A6E28AE0BD0AC
:1012F800281E271E261E256C000E2622272228229D
:10130800010E2A6E00D024AE0BD0241E231E221EEE
:10131800216C000E222223222422010E2A1A00D038
:10132800000E2B6E000E2C6E000E2D6E000E2E6E13
:101338002550261027102810D8B42FD0010E296E5A
:1013480007D0D8902536263627362836292A00D0C1
:1013580028BE02D0F6D700D0D8902B362C362D36A2
:101368002E362550215C26502258275023582850C5
:101378002458D8A00AD02550215E2650225A27503A
:10138800235A2850245A2B8000D0D890283227324C
:1013980026322532292EE0D700D02A50D8B409D0D9
:1013A8002E1E2D1E2C1E2B6C000E2C222D222E22C2
:1013B80000D02BC021F02CC022F02DC023F02EC06D
:1013C80024F000D01200000E186E12AE0BD0121EC0
:1013D800111E101E0F6C000E102211221222010E77
:1013E800186E00D016AE09D0161E151E141E136CEA
:1013F800000E14221522162200D0135014101510B6
:101408001610D8B429D0010E176E07D0D89013360D
:10141800143615361636172A00D016BE02D0F6D75F
:1014280000D013500F5C1450105815501158165016
:101438001258D8A009D013500F5E1450105A1550E6
:10144800115A1650125A00D0D8901632153214324A
:101458001332172EE6D700D01850D8B409D0121E70
:10146800111E101E0F6C000E10221122122200D025
:101478000FC00FF010C010F011C011F012C012F020
:1014880000D01200176C181ED8B0182A18BE0BD03E
:10149800E80E175C030E1858D8A005D0030E186E76
:1014A800E80E176E00D018AE0BD0190E175CFC0EA4
:1014B8001858D8B005D0FC0E186E180E176E00D04C
:1014C80018BE05D0185006E11704D8B003D0196A21
:1014D800192A01D0196A1946194683501918FB0BA5
:1014E8001918836E18BE05D018500AE11704D8B031
:1014F80007D0E80E1724176E030E1820186E00D0B8
:1015080017C019F0030E1916193ABA501918CF0B4B
:101518001918BA6E17C00FF018C010F0000E126E2E
:10152800040E116EF0EC0AF00F50BB6E1200176C2F
:10153800181ED8B0182A18BE0BD0E80E175C030E78
:101548001858D8A005D0030E186EE80E176E00D0F4
:1015580018AE0BD0190E175CFC0E1858D8B005D071
:10156800FC0E186E180E176E00D018BE05D0185055
:1015780006E11704D8B003D0196A192A01D0196AEC
:10158800194683501918FD0B1918836E18BE05D01B
:1015980018500AE11704D8B007D0E80E1724176EC0
:1015A800030E1820186E00D017C019F0030E191674
:1015B800193A1946BD501918DF0B1918BD6E17C016
:1015C8000FF018C010F0000E126E040E116EF0EC41
:1015D8000AF00F50BE6E1200000E146E12AE07D045
:1015E800116C121ED8B0122A010E146E00D010AE63
:1015F80007D00F6C101ED8B0102A010E141A00D094
:10160800000E166E000E156E11501210D8B421D0AF
:10161800010E136E05D0D89011361236132A00D059
:1016280012BE02D0F8D700D0D89015361636115011
:101638000F5C12501058D8A006D011500F5E1250EF
:10164800105A158000D0D89012321132132EECD7D0
:1016580000D01450D8B405D0156C161ED8B0162A70
:1016680000D015C00FF016C010F000D01200060010
:10167800EACF04F0E1CF05F0E2CF06F0D9CF07F0CA
:10168800DACF08F0F3CF09F0F4CF0AF0F6CF0BF079
:10169800F7CF0CF0F8CF0DF0F5CF0EF0F2A40CD088
:1016A800010E3A26000E3B223C223D22F80ED76E50
:1016B8002F0ED66EF29400D00EC0F5FF0DC0F8FFC5
:1016C8000CC0F7FF0BC0F6FF0AC0F4FF09C0F3FF18
:1016D80008C0DAFF07C0D9FF06C0E2FF05C0E1FF76
:1016E80004C0EAFF03C0E9FF02C0FBFF01C0FAFF24
:1016F800110001EEEEF013EEFCF0EE6AE550E15059
:10170800FCE1E250FAE101EE00F0900EEE6AE80624
:10171800FDE100EE60F04B0EEE6AE806FDE100EE3A
:1017280036F0180EEE6AE806FDE1AE0EF66E1A0EF9
:10173800F76E000EF86E01EE90F010EE3EF0090024
:10174800F5CFEEFFE550E150FAE1F00EF66E1B0E14
:10175800F76E000EF86E00EEE8F010EE0AF00900E1
:10176800F5CFEEFFE550E150FAE1000EF86E00010A
:101778000EEF00F0000E126E000E116E12BE08D0B1
:10178800125036E10B0E115CD8B032D001D030D0F7
:10179800000E0F6E010E106ED8901134D96E1234EF
:1017A800DA6ED890D936DA360F50D9261050DA22A8
:1017B800DE6ADE6ADE6ADD6A2C0E0F6E010E106EBE
:1017C800D8901134D96E1234DA6ED890D936DA3608
:1017D8000F50D9261050DA22000EDE6E040EDE6E8F
:1017E800000EDE6E000EDD6E114A122AC7D700D039
:1017F8001200000E1A6E0A0E1A6401D030D01AC0F8
:1018080017F017461746C2501718C30B1718C26EA1
:10181800C28200D0C2B2FED7C450040DF3CF18F074
:10182800F4CF19F0C3CF0FF0106A000E126E400EFD
:10183800116EF0EC0AF018500F24186E1950102091
:10184800196E1A50020D580EF324D96E010EF420A9
:10185800DA6E18C0DEFF19C0DDFF1A2ACCD71200D5
:10186800D59ED59CD59AD586F80ED76E2F0ED66EF6
:10187800F184D09EF28AF28ED58ECD90CD9ECD9CED
:10188800CF0ECD16CD96CD92CD80F80ECF6E2F0E01
:10189800CE6E939A929893909588958A958C959206
:1018A800959495809596949294949280928292843D
:1018B8009286928A96809682968493849382949C48
:1018C800948E848E1200000E156E000E146E115048
:1018D8001210D8B421D0010E136E05D0D89011364D
:1018E8001236132A00D012BE02D0F8D700D0D890F2
:1018F8001436153611500F5C12501058D8A006D067
:1019080011500F5E1250105A148000D0D890123225
:101918001132132EECD700D014C00FF015C010F000
:101928001200000E1D6E000E1E6E000E1F6E000EC1
:10193800206E00D015A009D019501D261A501E225D
:101948001B501F221C50202200D0D89019361A365E
:101958001B361C36D89018321732163215321550ED
:10196800161017101810D8A4E5D71DC015F01EC002
:1019780016F01FC017F020C018F01200106E10A04B
:1019880002D0C28401D0C29410C00FF0030E0F160B
:10199800020E0F6001D002D0C28601D0C29610C0DC
:1019A8000FF0070E0F16040E0F6001D002D0C28888
:1019B80001D0C29810C00FF00F0E0F16080E0F605E
:1019C80001D002D0C28A01D0C29AC280C28212005B
:1019D80018501910D8B41DD0010E1A6E05D0D89021
:1019E800183619361A2A00D019BE02D0F8D700D0F6
:1019F8001850165C19501758D8A005D01850165E04
:101A08001950175A00D0D890193218321A2EF0D718
:101A180000D016C016F017C017F01200000E3A6E6C
:101A2800000E3B6E000E3C6E000E3D6E000E000177
:101A3800686F000E696F000E6A6F000E6B6FDAEC4C
:101A48000DF0000E0001F26FE3EC0DF095EC0DF0D7
:101A580034EC0CF0D0EC0DF0F2EC0DF076EC0DF06F
:101A6800120005D01CC01EF01DC01FF005D01AC002
:101A78001EF01BC01FF000D01EC017F01FC018F0CA
:101A88009BEC0AF01CC020F01DC021F005D01AC044
:101A980020F01BC021F000D020C017F021C018F0A2
:101AA80046EC0AF012000096430096430096430065
:101AB800964300E04100A04200704200E041CD4C56
:101AC8003ECDCC3DCD4C3ECDCC3D00614400D7430E
:101AD80000C84300AF43FEFFFFFF00000100020003
:101AE800C8000000CA96CA98CA9ACA9CCA84CA90F2
:101AF800CA92CA84CA50870B5809CA6ECA50FC0BCE
:101B08000109CA6ECA94F90ECB6ECA84BD50F00B97
:101B18000C09BD6EBA50F00B0C09BA6EF90ECB6EFB
:101B28001200C19AC198C196C184C192C190C09E49
:101B3800C086C088C08AC050F80B0609C06EC2941F
:101B4800C296C298C29AC292C28012000F50110265
:101B5800F3CF13F0F4CF14F00F501202F350142601
:101B680010501102F350142613C00FF014C010F0D7
:101B780000D01200B89AB898B886B892B890330EC8
:101B8800AF6E000EB06EAC9EAC9CAC8AAC98AC94B8
:101B9800AB9CAB88AB8E1200000E0001A06F000E4C
:101BA80000019E6F000E00019F6F1200000E3A6E3A
:101BB800000E3B6E000E3C6E000E3D6E1200D38888
:101BC800D38AD38C070EB46E6D966F8612000F6E93
:101BD80000D09EA8FED70FC0ADFF1200000E496EC0
:101BE8004950C2EC0CF01200060005000400020087
:021BF8000100EA
:107E3C000001000A006400E80310277B27434F4D24
:107E4C00273A27706C6F74272C276E616D65273A63
:107E5C00276C696E65272C2776616C7565273A252A
:107E6C00692C27636F6C6F72273A28302C313030B5
:107E7C002C323030297D0A007B27434F4D273A277F
:107E8C00706C6F74272C276E616D65273A2772749E
:107E9C00272C2776616C7565273A25692C27636F2B
:107EAC006C6F72273A28302C3130302C323030291C
:107EBC007D0A007B27434F4D273A27706C6F742740
:107ECC002C276E616D65273A2761272C2776616C0C
:107EDC007565273A25692C27636F6C6F72273A28D2
:107EEC003130302C302C323030297D0A007B274346
:107EFC004F4D273A27706C6F74272C276E616D6578
:107F0C00273A2762272C2776616C7565273A2569F5
:107F1C002C27636F6C6F72273A283130302C302C41
:107F2C00323030297D0A007B27434F4D273A276C8E
:107F3C00696E65272C2776616C7565273A27456E27
:107F4C00746572696E672063616C696272617469D1
:107F5C006F6E277D0A007B27434F4D273A276C69AC
:107F6C006E65272C2776616C7565273A27526573E9
:107F7C0065742063616C6962726174696F6E277DD0
:107F8C000A007B27434F4D273A276C696E65272CD7
:107F9C002776616C7565273A27696E697469616C1F
:107FAC00206D6F6465277D0A007B27434F4D273A70
:107FBC00276C696E65272C2776616C7565273A27C7
:107FCC0052617969746F20322E30277D0A007B272D
:107FDC00434F4D273A276C696E65272C2776616CC9
:107FEC007565273A274D6F746F722074657374270B
:047FFC007D0A0000FA
:020000040030CA
:0E000000240E191EFF0181FF0FC00FE00F40FC
:00000001FF
