:040000000BEF00F012
:100008005082FACF01F0FBCF02F01AED19F059EF48
:100018001AF004EC1DF04F68000E0101846F000E09
:10002800856F000E866F000E876F000E436E000E00
:10003800426E000E0001D76F000E0101EC6F020E38
:10004800EB6F000E0001A96F000EAA6F000EAB6FD8
:10005800000EAC6F69EC1DF0000E246E000E236ECE
:10006800000E266E000E256E2FEC1DF08386000E06
:100078000101EC6F020EEB6F05D0000E0001C46F9A
:10008800010EC36F0001ACBFF8D70001AC510001ED
:10009800AB110AE1880E0001A95D130E0001AA59EF
:1000A800D8B025EF09F0E9D725EF09F0A9C00FF07E
:1000B800AAC010F0ABC011F0ACC012F0E80E136E7D
:1000C800030E146E000E156E000E166EC4EC18F0BA
:1000D80012BE0DD01250111006E1F50E0F5C010E84
:1000E8001058D8A004D00001A56BA52B02D00001A0
:1000F800A56B0001A53B80500001A519EF0BA519C0
:10010800806E0001CB510001CC11D8A402D0819A95
:100118003BD00001CB050001CC11D8A402D0818AC4
:1001280033D00001CB2930E10001CC29D8A42CD050
:10013800A9C00FF0AAC010F0ABC011F0ACC012F00B
:10014800E80E136E030E146E000E156E000E166E7A
:10015800C4EC18F012BE0DD01250111006E1F50EC5
:100168000F5C010E1058D8A004D00001A56BA52B78
:1001780002D00001A56B0001A53BA54781500001F5
:10018800A519DF0BA519816E0001CD510001CE1113
:10019800D8A402D0819038D00001CD050001CE113D
:1001A800D8A402D0818030D00001CD292DE10001F2
:1001B800CE29D8A429D0A9C00FF0AAC010F0ABC08E
:1001C80011F0ACC012F0E80E136E030E146E000EA0
:1001D800156E000E166EC4EC18F012BE0DD012503B
:1001E800111006E1F50E0F5C010E1058D8A004D0CE
:1001F8000001A56BA52B02D00001A56B8150000161
:10020800A519FE0BA519816E0001C3510001C41187
:10021800D8B40DD0000E0001C46F000EC36FB80E25
:100228000001756F7F0E0001766F4AEC09F083BC00
:100238001FD00001BD510001BE11D8A419D0000E75
:100248000001BE6F010EBD6F0001CB050001CC118E
:10025800D8B40BD0010E0001CB250001CB6F000EE6
:100268000001CC210001CC6F03D00001CB69CC691F
:1002780083B81FD00001BF510001C011D8A419D004
:10028800000E0001C06F010EBF6F0001CD05000117
:10029800CE11D8B40BD0010E0001CD250001CD6FD1
:1002A800000E0001CE210001CE6F03D00001CD6900
:1002B800CE6983AC05D0000E0001BE6F000EBD6F85
:1002C80083A805D0000E0001C06F000EBF6FCBC021
:1002D8001DF0CCC01EF0030E206EE80E1F6E44EC1D
:1002E8001DF01DC023F01EC024F0CDC01DF0CEC0EF
:1002F8001EF0030E206EE80E1F6E44EC1DF01DC0AC
:1003080025F01EC026F02FEC1DF025EF09F057EC64
:100318001BF00001C3510001C411D8B40DD0000E68
:100328000001C46F000EC36F930E0001756F7F0E3E
:100338000001766F4AEC09F08190A9C00FF0AAC0BD
:1003480010F0ABC011F0ACC012F0D00E136E070E57
:10035800146E000E156E000E166EC4EC18F012BE68
:100368000DD01250111006E1E90E0F5C030E105863
:10037800D8A004D00001A56BA52B02D00001A56B65
:100388000001A53B80500001A519EF0BA519806E4F
:10039800819A83BA18D0110E0001756F7F0E000183
:1003A800766F4AEC09F0000E0101EC6F040EEB6F5A
:1003B800000E0001A96F000EAA6F000EAB6F000EB1
:1003C800AC6F79EC1CF0000E0201256F000E246F53
:1003D800020125BF0CD00201255107E1020E0201DE
:1003E800245DD8B025EF09F002D025EF09F0D890A8
:1003F80002012435D96E02012535DA6ED40ED926CC
:10040800010EDA22DECF26F2DDCF27F226C2A5F0D2
:1004180027C2A6F00001D890A537A6370001D890CA
:10042800A537A637A5C01DF0A6C01EF026C21FF02E
:1004380027C220F044EC1DF01DC014F21EC015F2B6
:1004480026C21DF027C21EF026C21FF027C220F0C8
:1004580044EC1DF01DC016F21EC017F226C2A5F00E
:1004680027C2A6F00001A53BA63BF00EA617A55192
:100478000F0BA613F00EA517A5C01DF0A6C01EF001
:1004880026C21FF027C220F044EC1DF01DC018F250
:100498001EC019F214C21DF015C21EF0000E206E07
:1004A800240E1F6E44EC1DF01D5002011A6F1B6BC9
:1004B80016C21DF017C21EF0010E206E440E1F6EEC
:1004C80044EC1DF01D5002011C6F1D6B18C21DF07D
:1004D80019C21EF0000E206E240E1F6E44EC1DF093
:1004E8001D5002011E6F1F6BA00E0001756F7E0E5E
:1004F8000001766F26C277F027C278F0D890020103
:100508002635D96E02012735DA6E200ED926010E5E
:10051800DA22DECF79F0DDCF7AF01AC27BF01BC287
:100528007CF01CC27DF01DC27EF01EC27FF01FC28F
:1005380080F04AEC09F00201244B252B020125BF6B
:1005480056D70201255101E149D725EF09F0818AE3
:10055800809881900001ACBF25EF09F00001AC51F3
:100568000001AB1109E1D10E0001A95D070E0001E0
:10057800AA59D8A025EF09F0000E0101EC6F020E70
:10058800EB6F25EF09F057EC1BF00001ACBFD6D09C
:100598000001AC510001AB1108E1E90E0001A95DB1
:1005A800030E0001AA59D8A0C9D0000E0001A96FF6
:1005B800000EAA6F000EAB6F000EAC6F000E0201AA
:1005C800256F000E246F020125BF0AD002012551B4
:1005D80006E1020E0201245DD8B0B0D001D0AED041
:1005E800D89002012435D96E02012535DA6ED40E71
:1005F800D926010EDA22DECF26F2DDCF27F226C277
:10060800A5F027C2A6F00001A53BA63BF00EA61751
:10061800A5510F0BA613F00EA517A5C01DF0A6C077
:100628001EF026C21FF027C220F044EC1DF01DC0AA
:1006380014F21EC015F226C21DF027C21EF026C2F3
:100648001FF027C220F044EC1DF01DC016F21EC09A
:1006580017F226C2A5F027C2A6F00001D890A53748
:10066800A6370001D890A537A637A5C01DF0A6C0AB
:100678001EF026C21FF027C220F044EC1DF01DC05A
:1006880018F21EC019F214C21DF015C21EF0000E99
:10069800206E240E1F6E44EC1DF01D5002011A6FCF
:1006A8001B6B16C21DF017C21EF0000E206E240E22
:1006B8001F6E44EC1DF01D5002011C6F1D6B18C20B
:1006C8001DF019C21EF0000E206E240E1F6E44ECA1
:1006D8001DF01D5002011E6F1F6BA00E0001756FEB
:1006E8007E0E0001766F26C277F027C278F0D89088
:1006F80002012635D96E02012735DA6E200ED92679
:10070800010EDA22DECF79F0DDCF7AF01AC27BF063
:100718001BC27CF01CC27DF01DC27EF01EC27FF0A1
:100728001FC280F04AEC09F00201244B252B02017C
:1007380025BF56D70201255101E14BD7000E020112
:10074800276F000E266F020127BF0AD0020127512A
:1007580006E10B0E0201265DD8B07CD001D07AD01C
:1007680026C224F227C225F2D89002012435D96E78
:1007780002012535DA6E200ED926010EDA22D8902C
:1007880002012435E16E02012535E26E400EE126B4
:10079800010EE222DE50E65CDE50E658D8B01AD0F0
:1007A800D89002012435D96E02012535DA6E200E63
:1007B800D926010EDA22D89002012435E16E020111
:1007C8002535E26E400EE126010EE222DECFE6FF7D
:1007D800DDCFE5FFD89002012435D96E0201253519
:1007E800DA6E600ED926010EDA22D890020124357D
:1007F800E16E02012535E26E200EE126010EE222AD
:10080800DE50E65CDE50E658D8B01AD0D890020127
:100818002435D96E02012535DA6E200ED926010E4F
:10082800DA22D89002012435E16E02012535E26E04
:10083800600EE126010EE222DECFE6FFDDCFE5FF06
:100848000201264B272B020127BF8AD70201275115
:1008580001E17FD7A9C00FF0AAC010F0ABC011F01A
:10086800ACC012F02C0E136E010E146E000E156E35
:10087800000E166EC4EC18F012BE0CD012501110F7
:10088800101004E1C90E0F5CD8A004D00001A56BBC
:10089800A52B02D00001A56B0001A53B80500001EB
:1008A800A519EF0BA519806E000E02010A6FA9C0E9
:1008B8000FF0AAC010F0ABC011F0ACC012F02C0EB3
:1008C800136E010E146E000E156E000E166EC4EC3B
:1008D80018F012BE27D012501110101004E1650E46
:1008E8000F5CD8A01FD0A9C00FF0AAC010F0ABC0F1
:1008F80011F0ACC012F02C0E136E010E146E000E27
:10090800156E000E166EC4EC18F012BE08D0125008
:100918001110101007E1C80E0F5CD8B003D0010EFB
:1009280002010A6F02010AB102D0819A01D0818ABC
:10093800A9C00FF0AAC010F0ABC011F0ACC012F003
:100948002C0E136E010E146E000E156E000E166E30
:10095800C4EC18F012BE08D012501110101008E1A3
:10096800640E0F5CD8B004D00001A56BA52B02D093
:100978000001A56B81500001A519FE0BA519816E18
:1009880083BC16D0400E0001756F7F0E0001766F94
:100998004AEC09F0000E0001A96F000EAA6F000EC4
:1009A800AB6F000EAC6F000E0101EC6F010EEB6F28
:1009B80083B825EF09F06C0E0001756F7F0E0001FA
:1009C800766F4AEC09F0000E0001A96F000EAA6FBD
:1009D800000EAB6F000EAC6F000E0001C46F010E6D
:1009E800C36F000E0101EC6F030EEB6F000E0201E6
:1009F800116F000E106F020111BF0CD002011151CE
:100A080007E1050E0201105DD8B025EF09F002D00C
:100A180025EF09F0D89002011035D96E0201113581
:100A2800DA6EC00ED926010EDA22DECF0EF2DDCF45
:100A38000FF2DC0E0001756F7E0E0001766F0EC29C
:100A480077F00FC278F0D89002010E35D96E020106
:100A58000F35DA6E600ED926010EDA22DECF79F074
:100A6800DDCF7AF0D89002010E35D96E02010F352C
:100A7800DA6E400ED926010EDA22DECF7BF0DDCF0A
:100A88007CF04AEC09F00201104B112B020111BF56
:100A9800C1D70201115101E1B4D7D3D30001C35129
:100AA8000001C411D8B40FD0000E0001D46F010E9C
:100AB800D36F000E0001C86F010EC76F000E000152
:100AC800C46F000EC36F8180010E02010C6FD890B5
:100AD8000101D635D96E0101D735DA6E000ED92657
:100AE800010EDA22010EDBBE2AD0F50EDE5C010E05
:100AF800DE58D8A024D045BE05D0455011E14404A5
:100B0800D8B00ED044C0A5F045C0A6F00001A51F7E
:100B1800A61FA54BA62BA5C00AF2A6C00BF204D0AF
:100B280044C00AF245C00BF202010BBF43D00201D8
:100B38000B5105E1960E02010A5DD8A03BD0D89072
:100B48000101D435D96E0101D535DA6E000ED926EA
:100B5800010EDA22010EDBBE2AD0F50EDE5C010E94
:100B6800DE58D8A024D045BE05D0455011E1440434
:100B7800D8B00ED044C0A5F045C0A6F00001A51F0E
:100B8800A61FA54BA62BA5C00CF2A6C00DF204D03B
:100B980044C00CF245C00DF202010DBF0BD002019A
:100BA8000D5105E1960E02010C5DD8A003D0000E90
:100BB80002010C6F02010CB102D0809801D080882C
:100BC800819A000E246E000E236E000E266E000E13
:100BD800256E2FEC1DF057EC1BF09DEC0EF000017C
:100BE800ACBFC8D00001AC510001AB1108E1F50E53
:100BF8000001A95D010E0001AA59D8A0BBD0000EC2
:100C08000001A96F000EAA6F000EAB6F000EAC6F4B
:100C1800000E0201136F000E126F020113BF0AD0FB
:100C28000201135106E1020E0201125DD8B096D0FE
:100C380001D094D0D89002011235D96E0201133533
:100C4800DA6ED40ED926010EDA22DECF22F2DDCFFB
:100C580023F222C21DF023C21EF022C21FF023C2BB
:100C680020F044EC1DF01DC014F21EC015F222C283
:100C78001DF023C21EF022C21FF023C220F044EC54
:100C88001DF01DC016F21EC017F222C21DF023C2AD
:100C98001EF022C21FF023C220F044EC1DF01DC03C
:100CA80018F21EC019F214C21DF015C21EF0030E70
:100CB800206E840E1F6E44EC1DF01D5002011A6F49
:100CC8001B6B16C21DF017C21EF0000E206E240EFC
:100CD8001F6E44EC1DF01D5002011C6F1D6B18C2E5
:100CE8001DF019C21EF0010E206E440E1F6E44EC5A
:100CF8001DF01D5002011E6F1F6BA00E0001756FC5
:100D08007E0E0001766F22C277F023C278F0D89069
:100D180002012235D96E02012335DA6E000ED9267A
:100D2800010EDA22DECF79F0DDCF7AF01AC27BF03D
:100D38001BC27CF01CC27DF01DC27EF01EC27FF07B
:100D48001FC280F04AEC09F00201124B132B02017A
:100D580013BF70D70201135101E165D7630E00017B
:100D6800756F7E0E0001766F44C077F045C078F04D
:100D78004AEC09F083BA05D0000E0101EC6F050EAC
:100D8800EB6F83BC30D00001D3510001D411D8A43B
:100D98002AD0000E0001D46F010ED36FE2C066F0B6
:100DA800E3C067F0E4C068F0D70E0001696F230E56
:100DB80000016A6F3C0E00016B6FA3EC1CF066C06B
:100DC800E2F067C0E3F068C0E4F0DD0E0001756F83
:100DD8007F0E0001766FE2C077F0E3C078F0E4C0E0
:100DE80079F04AEC09F083B82DD00001C751000111
:100DF800C811D8A427D0000E0001C86F010EC76F14
:100E0800E2C03CF0E3C03DF0E4C03EF0D70E3F6ED8
:100E1800230E406E3C0E416EB3EC14F03CC0E2F081
:100E28003DC0E3F03EC0E4F0DD0E0001756F7F0EBB
:100E38000001766FE2C077F0E3C078F0E4C079F0A3
:100E48004AEC09F083AC05D0000E0001D46F000E07
:100E5800D36F83A8F6D1000E0001C86F000EC76FCC
:100E6800F0D181808088818A83AAEBD1000E0101AC
:100E7800EC6F060EEB6F000E0001A96F000EAA6F53
:100E8800000EAB6F000EAC6F000E0001AD6F000ED0
:100E9800AE6F000EAF6F000EB06F000E0001B16FA5
:100EA800000EB26F000EB36F000EB46F000E00019B
:100EB800D26F000ED16F000E0001C26F000EC16F1D
:100EC800C0D183BC0AD0000E0001C46F010EC36FED
:100ED800000E0101EC6F030EEB6F8180819A000117
:100EE800B4BFAFD10001B4510001B3110001B21178
:100EF80005E1060E0001B15DD8A0A3D1000E0001E6
:100F0800B16F000EB26F000EB36F000EB46F57ECE6
:100F18001BF09DEC0EF00001D1B111D0DEC020F223
:100F2800DFC021F2D8C000F2D9C001F2DAC002F263
:100F3800DEC103F2DFC104F2E0C105F210D0E0C067
:100F480020F2E1C021F2DBC000F2DCC001F2DDC01A
:100F580002F2E1C103F2E2C104F2E3C105F2C9C041
:100F6800A5F0CAC0A6F00001A51FA61FA54BA62B79
:100F780044500001A5250001BB6F45500001A62182
:100F88000001BC6F03C226F004C227F005C228F096
:100F9800BBC017F0BCC018F0E8EC1CF017C023F079
:100FA80018C024F019C025F08DEC17F023C03FF0CD
:100FB80024C040F025C041F000C226F001C227F04D
:100FC80002C228F044C017F045C018F0E8EC1CF045
:100FD80017C023F018C024F019C025F08DEC17F0C5
:100FE80023C03CF024C03DF025C03EF0B3EC14F023
:100FF8003CC066F03DC067F03EC068F0BEEC15F03E
:1010080066C0C5F067C0C6F00001C6BF21D00001A8
:10101800C65104E10001C505D8A01AD0C5C0A5F085
:10102800C6C0A6F00001A51FA61FA54BA62B02014E
:1010380020510001A525236E020121510001A6219E
:10104800246E20C225F021C226F02FEC1DF010D00E
:1010580020C223F021C224F00001C551020120253D
:10106800256E0001C65102012121266E2FEC1DF0CC
:101078000001C1510001C211D8A491D0D89001013A
:10108800D635D96E0101D735DA6E000ED926010E94
:10109800DA22010EDBBE2AD0F50EDE5C010EDE5828
:1010A800D8A024D045BE05D0455011E14404D8B09D
:1010B8000ED044C0A5F045C0A6F00001A51FA61F8C
:1010C800A54BA62BA5C006F2A6C007F204D044C0C3
:1010D80006F245C007F2020107BF40D002010751DE
:1010E80005E1960E0201065DD8A038D0D89001011E
:1010F800D435D96E0101D535DA6E000ED926010E28
:10110800DA22010EDBBE4BD0F50EDE5C010EDE5896
:10111800D8A045D045BE05D0455011E14404D8B00B
:101128000ED044C0A5F045C0A6F00001A51FA61F1B
:10113800A54BA62BA5C008F2A6C009F204D044C04E
:1011480008F245C009F2020109BF08D0020109519D
:1011580026E1960E0201085DD8B021D0000E0001EC
:10116800C26F010EC16F000E0001A96F000EAA6FB9
:10117800000EAB6F000EAC6F80B804D00001A56BF9
:10118800A52B02D00001A56B0001A53B80500001F2
:10119800A519EF0BA519806E0001D14BD22B0001C8
:1011A800C1050001C211D8A41ED00001ACBF1BD0DC
:1011B8000001AC510001AB1108E1B90E0001A95DB5
:1011C8000B0E0001AA59D8A00ED0000E0001A96F7D
:1011D800000EAA6F000EAB6F000EAC6F000E000180
:1011E800C26F000EC16F070E0001D1190001D211A4
:1011F800D8A40AD0000E0001C46F010EC36F000E00
:101208000101EC6F030EEB6F0001B0BF16D00001B7
:10121800B0510001AF1108E1E90E0001AD5D030E08
:101228000001AE59D8A009D0000E0001AD6F000E24
:10123800AE6F000EAF6F000EB06F44C0C9F045C06E
:10124800CAF0EBC1A5F0ECC1A6F00001A651000A56
:10125800D8A4F7D70001A551000AD8B45AEF00F076
:10126800010AD8B4ABEF02F0030AD8B48BEF01F04F
:10127800010AD8B413D4070AD8B4C7EF02F0010A98
:10128800D8B4EFD5030AD8B41CD6DBD7770E000143
:101298008A6F000E00018B6F8DEF0EF0250E000196
:1012A8009F19D8B406D000019F51A4EC1DF08DEF12
:1012B8000EF0000E0001996F000E986F000E0001ED
:1012C800936F000E926F05D0000192850001754B57
:1012D800762B75C0F6FF76C0F7FF0800F550300A88
:1012E800D8B4F2D775C0F6FF76C0F7FF0800F550FE
:1012F8007BEC1DF0D8A046D0000E0001996F000EBF
:10130800986F98C01DF099C01EF0000E206E0A0E4E
:101318001F6E44EC1DF01DC098F01EC099F0D00E51
:101328000001816FFF0E0001826F75C0F6FF76C065
:10133800F7FF0800F5500001836F846B00018151AD
:101348000001832700018251000184230001835199
:101358000001982700018451000199230001754B71
:10136800762B75C0F6FF76C0F7FF0800F5507BECCA
:101378001DF0D8A007D0C5D70001938520D0000163
:10138800928D1DD075C0F6FF76C0F7FF0001754B32
:10139800762B0800F5CF9FF000019F51000AD8B4C2
:1013A8001200640AD8B40BD0020AD8B4E5D70F0AE1
:1013B800D8B405D01C0AD8B4E2D78DEF0EF0070ECA
:1013C80000019315D8B46AD3000E00018D6F060E84
:1013D8008C6F8AC0D9FF8BC0DAFFDECF9CF0DECFDE
:1013E8009DF0DDCF9EF0030E00018A27000E8B23AF
:1013F80000019EAF11D09CC00FF09DC010F09EC0A0
:1014080011F057EC1DF00FC09CF010C09DF011C0FA
:101418009EF0030E00019213000E00019B6F000E58
:101428009A6F00019C5100019D1100019E11D8B4D2
:1014380091D0820E0001816FFF0E0001826F9CC067
:1014480083F09DC084F09EC085F09FC086F0100E8A
:1014580006D00001D8908633853384338333E82E51
:10146800F8D7000183510001812500019A6F000E11
:101478000001822100019B6F00019A07D8A09B07F9
:101488009AC01DF09BC01EF0000E206E030E1F6E4A
:1014980044EC1DF01DC09AF01EC09BF09AC015F0D8
:1014A8009BC016F0000E186E0A0E176E9CEC1AF010
:1014B80015C09AF016C09BF000019BAF04D0000144
:1014C8009A07D8A09B0700019A51000898EC11F0E0
:1014D80032C094F033C095F034C096F094C023F035
:1014E80095C024F096C025F09CC026F09DC027F03A
:1014F8009EC028F08DEC17F023C094F024C095F01E
:1015080025C096F094C00FF095C010F096C011F069
:10151800000E126E800E136E3F0E146E11EC1AF050
:10152800D8B005D000019A07D8A09B0713D094C063
:101538000FF095C010F096C011F0000E126E200E3C
:10154800136E410E146E11EC1AF0D8A003D00001EE
:101558009A4B9B2B00018DBF08D000018D511DE1D6
:101568000D0E00018C5DD8B018D09CC03CF09DC019
:101578003DF09EC03EF000018C5190EC13F032C05B
:101588003FF033C040F034C041F0B3EC14F03CC03D
:101598009CF03DC09DF03EC09EF000019BBF08D06E
:1015A80000019B512AE10A0E00019A5DD8B025D0AE
:1015B80000019C5100019D1100019E11D8B45FD01B
:1015C8009CC066F09DC067F09EC068F0BEEC15F048
:1015D80000016651000167110001681100016911DD
:1015E800D8A44DD000019BBF4AD000019B5105E112
:1015F800020E00019A5DD8A042D094C00FF095C0A9
:1016080010F096C011F0700E126E890E136E400E17
:10161800146E11EC1AF0D8B003D00001F70E02D006
:101628000001F80E9A27FF0E9B2300019A5198ECAF
:1016380011F032C094F033C095F034C096F09CC0DD
:101648000FF09DC010F09EC011F094C012F095C02C
:1016580013F096C014F060EC16F00FC08EF010C0B6
:101668008FF011C090F012C091F0000E00019C6F35
:10167800000E00019D6F000E00019E6F33D09CC0CC
:1016880066F09DC067F09EC068F0BEEC15F066C0BD
:101698008EF067C08FF068C090F069C091F09CC070
:1016A80066F09DC067F09EC068F08EC017F08FC0CE
:1016B80018F090C019F091C01AF0F2EC1BF017C0A6
:1016C80069F018C06AF019C06BF0A3EC1CF066C092
:1016D8009CF067C09DF068C09EF0000E00019B6FF3
:1016E800000E9A6F010E00019F6F0A0E00019F19EC
:1016F800D8B41ED000019F51040DED0EF324F66EF0
:101708007D0EF420F76E0900F55000018E5D09008A
:10171800F55000018F590900F55000019059090052
:10172800F55000019159D8A003D000019F2BDDD7B7
:101738009FC081F00001826B81BF820700018C513C
:101748000001812700018D510001822300019A5177
:101758000001812700019B51000182230001815172
:101768000001985F000182510001995B00018C51D2
:1017780000018D11D8B404D000019807D8A09907AA
:10178800030E000192150001816F000E00019315F0
:101798000001826F0001815100018211D8B404D088
:1017A80000019807D8A09907000192A52DD0030E33
:1017B800000192150001816F000E000193150001D0
:1017C800826F0001815100018211D8B40BD02D0E17
:1017D800A4EC1DF007D0300EA4EC1DF00001980712
:1017E800D8A09907000199BF73D000019951F3E17E
:1017F80000019805D8A06CD0EED7200EA4EC1DF0FF
:1018080000019807D8A09907000199BF07D00001E7
:101818009951F3E100019805D8B0EFD7030E000104
:1018280092150001816F000E000193150001826F6F
:101838000001815100018211D8B44AD02D0EA4ECC8
:101848001DF046D08EC00FF08FC010F090C011F080
:1018580091C012F000019F51040DED0EF324F66EB5
:101868007D0EF420F76E0900F5CF13F00900F5CFCF
:1018780014F00900F5CF15F00A00F5CF16F0DEECEC
:101888001AF00FC094F010C095F011C096F012C075
:1018980097F094C01CF095C01DF096C01EF097C03C
:1018A8001FF00A0E206E000E216E000E226E000E32
:1018B800236E8CEC1BF01CC094F01DC095F01EC06C
:1018C80096F01FC097F000019451300FA4EC1DF062
:1018D80000019F0700019F29D8B408D0B3D7300E64
:1018E800A4EC1DF000019A07D8A09B0700019BBF3C
:1018F80007D000019B51F3E100019A05D8B0EFD75A
:1019080000018DBF0CD000018D5105E1090E0001C9
:101918008C5DD8A004D0080E00019F6F02D08CC047
:101928009FF000019F5100018C5F000E00019FBFD6
:10193800FF0E00018D5B00019F510001D8B403D058
:101948002E0EA4EC1DF000019F5198EC11F032C04E
:1019580087F033C088F034C089F09CC026F09DC061
:1019680027F09EC028F087C023F088C024F089C0E3
:1019780025F08DEC17F023C066F024C067F025C071
:1019880068F0BEEC15F066C08EF067C08FF068C0D6
:1019980090F069C091F06DD08EC00FF08FC010F03C
:1019A80090C011F091C012F000019F51040DED0E8E
:1019B800F324F66E7D0EF420F76E0900F5CF13F0D0
:1019C8000900F5CF14F00900F5CF15F00A00F5CF9E
:1019D80016F0DEEC1AF00FC094F010C095F011C0AC
:1019E80096F012C097F094C01CF095C01DF096C0F8
:1019F8001EF097C01FF00A0E206E000E216E000E1A
:101A0800226E000E236E8CEC1BF01CC094F01DC0DF
:101A180095F01EC096F01FC097F000019451300F4A
:101A2800A4EC1DF08EC01CF08FC01DF090C01EF0FD
:101A380091C01FF000019F51040DED0EF324F66EC6
:101A48007D0EF420F76E0900F5CF20F00900F5CFE0
:101A580021F00900F5CF22F00A00F5CF23F08CEC35
:101A68001BF01CC08EF01DC08FF01EC090F01FC070
:101A780091F000019F0700019F29D8B408D08CD7A6
:101A8800300EA4EC1DF000018C07D8A08D070001D2
:101A98008C5100018D11D8B43CD1F2D7000192BD10
:101AA80023D08AC0D9FF8BC0DAFFDECF8EF0DDCF1E
:101AB8008FF00001000E8FBFFF0E906F916F020E26
:101AC80000018A27000E8B23000191AF21D0030E5D
:101AD800000192130001911F901F8F1F8E6D000E41
:101AE8008F239023912314D08AC0D9FF8BC0DAFFAB
:101AF800DECF81F0DDCF82F081C08EF082C08FF022
:101B08000001906B916B020E00018A27000E8B2357
:101B1800010E00019F6F0A0E00019F19D8B41ED054
:101B280000019F51040DED0EF324F66E7D0EF42096
:101B3800F76E0900F55000018E5D0900F5500001AF
:101B48008F590900F550000190590900F55000011E
:101B58009159D8A003D000019F2BDDD700019851DF
:101B680000019911D8B414D0030E00019215000198
:101B7800816F000E000193150001826F00018151F1
:101B880000018211D8B404D000019807D8A09907A1
:101B9800800E00019FBF7F0E0001816F00019851E8
:101BA80000019F5D00019951800A00018159D8B058
:101BB8000BD000019F510001985F000E00019FBFEC
:101BC800FF0E0001995B05D0000E0001996F000E11
:101BD800986F000192A521D0030E00019215000113
:101BE800816F000E000193150001826F0001815181
:101BF80000018211D8B403D02D0EA4EC1DF0000111
:101C0800985100019911D8B42ED0300EA4EC1DF0D3
:101C180000019807D8A09907F2D700019851000150
:101C28009911D8B40DD0200EA4EC1DF0000198072E
:101C3800D8A099070001985100019911D8A4F3D7A9
:101C4800030E000192150001816F000E000193152B
:101C58000001826F0001815100018211D8B403D0C4
:101C68002D0EA4EC1DF000019F5100018C6F8D6BAF
:101C78008CBF8D0743D08CC081F08DC082F00001ED
:101C8800D890813782370001D89081378237ED0E9E
:101C980000018125F66E7D0E8221F76E0900F5CFD1
:101CA80013F00900F5CF14F00900F5CF15F00A007C
:101CB800F5CF16F08EC00FF08FC010F090C011F065
:101CC80091C012F0DEEC1AF00FC01CF010C01DF02D
:101CD80011C01EF012C01FF00A0E206E000E216EF9
:101CE800000E226E000E236E8CEC1BF01C50300F81
:101CF80000019F6F00019F51A4EC1DF000018C07AB
:101D0800D8A08D0700018C29B6E100018D29D8A43F
:101D1800B2D775C0F6FF76C0F7FF0001754B762B7A
:101D28000800F5CF9FF000019F51D8B4120052EF80
:101D380009F0000E286E000E296E000E2A6E000EA5
:101D48002B6E000E2C6E000E2D6E000E2E6E000EE9
:101D58002F6E000E306E000E346E000E336E34BEE1
:101D680008D0345005E1050E335CD8B07CD101D0E1
:101D78007AD1D8903334D96E3434DA6EC00ED9267D
:101D8800010EDA22DECF35F0DDCF36F0D8903534CB
:101D9800D96E3634DA6E200ED926010EDA22DECF5D
:101DA8001DF0DDCF1EF01DC039F01EC03AF03B6AB1
:101DB8003C6AD8903534D96E3634DA6E600ED9263E
:101DC800010EDA22DECF1DF0DDCF1EF01D501F6E92
:101DD8001E50206E216A226A1F50395C20503A58E2
:101DE80021503B583C50800A236E2250800A2358C9
:101DF800D8B013D0D8903534D96E3634DA6E600E38
:101E0800D926010EDA22DECF1DF0DDCF1EF01DC06F
:101E180039F01EC03AF03B6A3C6AD8903534D96E26
:101E28003634DA6E400ED926010EDA22DECF1DF0E6
:101E3800DDCF1EF01D501F6E1E50206E216A226AD3
:101E480039501F5C3A5020583B5021582250800A84
:101E5800236E3C50800A2358D8B013D0D89035341C
:101E6800D96E3634DA6E400ED926010EDA22DECF6C
:101E78001DF0DDCF1EF01DC039F01EC03AF03B6AE0
:101E88003C6AD8903534D96E3634DA6E600ED9266D
:101E9800010EDA22DECF1DF0DDCF1EF01D501F6EC1
:101EA8001E50206E216A226A1F50395E20503A5A0D
:101EB80021503B5A22503C5A39C00FF03AC010F01A
:101EC8003BC011F03CC012F0E80E136E030E146E06
:101ED800000E156E000E166E4EEC1CF00FC039F099
:101EE80010C03AF011C03BF012C03CF039C00FF0FE
:101EF8003AC010F03BC011F03CC012F0D890353415
:101F0800D96E3634DA6E400ED926010EDA22DECFCB
:101F18001DF0DDCF1EF0D8903534D96E3634DA6E28
:101F2800600ED926010EDA22DECF1FF0DDCF20F0B9
:101F38001F1E201E1F4A202A1D501F261E50202209
:101F48001FC013F020C014F0156A166A07EC18F0C9
:101F58000FC039F010C03AF011C03BF012C03CF08D
:101F680039C01DF03AC01EF03BC01FF03CC020F045
:101F78001D1E1E1E1F1E201E1D2A000E1E221F2291
:101F88002022E80E1D24396E030E1E203A6E000E24
:101F98001F203B6E000E20203C6E3CBE08D03C50FB
:101FA8003B103A100CE1320E395CD8B008D0000E64
:101FB800396E000E3A6E000E3B6E000E3C6ED890E5
:101FC8003534D96E3634DA6E000ED926010EDA228F
:101FD80039C0DEFF3AC0DDFFD8903334D96E3434CF
:101FE800DA6ECA0ED926010EDA22DECF24F0DDCF52
:101FF80025F0000E25BEFF0E266E276E39C00FF0A5
:102008003AC010F03BC011F03CC012F024C013F0ED
:1020180025C014F026C015F027C016F04EEC1CF0B1
:102028000F5028261050292211502A2212502B22F4
:1020380039502C263A502D223B502E223C502F222C
:102048003CBE0AD03C503B103A1004E1C90E395C42
:10205800D8A002D0010E306E334A342A34BE89D655
:10206800345001E180D6000E326E000E316E32BE61
:1020780008D0325005E1020E315CD8B02AD101D027
:1020880028D1D8903134D96E3234DA6ED40ED926AC
:10209800010EDA22DECF37F0DDCF38F0D8903734B2
:1020A800D96E3834DA6E200ED926010EDA22DECF48
:1020B8001DF0DDCF1EF01DC039F01EC03AF03B6A9E
:1020C8003C6AD8903734D96E3834DA6E600ED92627
:1020D800010EDA22DECF1DF0DDCF1EF01D501F6E7F
:1020E8001E50206E216A226A1F50395C20503A58CF
:1020F80021503B583C50800A236E2250800A2358B6
:10210800D8B013D0D8903734D96E3834DA6E600E20
:10211800D926010EDA22DECF1DF0DDCF1EF01DC05C
:1021280039F01EC03AF03B6A3C6AD8903734D96E11
:102138003834DA6E400ED926010EDA22DECF1DF0D1
:10214800DDCF1EF01D501F6E1E50206E216A226AC0
:1021580039501F5C3A5020583B5021582250800A71
:10216800236E3C50800A2358D8B013D0D890373407
:10217800D96E3834DA6E400ED926010EDA22DECF57
:102188001DF0DDCF1EF01DC039F01EC03AF03B6ACD
:102198003C6AD8903734D96E3834DA6E600ED92656
:1021A800010EDA22DECF1DF0DDCF1EF01D501F6EAE
:1021B8001E50206E216A226A1F50395E20503A5AFA
:1021C80021503B5A22503C5A39C00FF03AC010F007
:1021D8003BC011F03CC012F0E80E136E030E146EF3
:1021E800000E156E000E166E4EEC1CF00FC039F086
:1021F80010C03AF011C03BF012C03CF039C00FF0EB
:102208003AC010F03BC011F03CC012F0D8903734FF
:10221800D96E3834DA6E400ED926010EDA22DECFB6
:102228001DF0DDCF1EF0D8903734D96E3834DA6E11
:10223800600ED926010EDA22DECF1FF0DDCF20F0A6
:102248001F1E201E1F4A202A1D501F261E502022F6
:102258001FC013F020C014F0156A166A07EC18F0B6
:102268000FC039F010C03AF011C03BF012C03CF07A
:1022780039C01DF03AC01EF03BC01FF03CC020F032
:102288001D1E1E1E1F1E201E1D2A000E1E221F227E
:102298002022E80E1D24396E030E1E203A6E000E11
:1022A8001F203B6E000E20203C6ED8903734D96E2C
:1022B8003834DA6E000ED926010EDA2239C0DEFF74
:1022C8003AC0DDFF314A322A32BEDBD6325001E154
:1022D800D2D63050D8A411D045BE05D0455008E11B
:1022E8004404D8B005D0FF0E456E380E446E120077
:1022F800000E456EC80E446E120028C00FF029C0AB
:1023080010F02AC011F02BC012F02CC013F02DC011
:1023180014F02EC015F02FC016F007EC18F00FC0FF
:1023280044F010C045F01200386E38AEFBD0386C5F
:102338003850800A120FD8A091D0000E206E030EDC
:102348001F6E000E186E0A0E176E000E126E640EC7
:10235800116E38500F6E106A0FBE10061FEC1BF07E
:102368000FC015F010C016F09CEC1AF0090E1524D9
:102378001D6E000E16201E6E44EC1DF0150E1D2459
:10238800F66E7E0E1E20F76E0900F5CF26F00900C6
:10239800F5CF27F00A00F5CF28F0000E186E640E6E
:1023A800176E3850156E166A15BE16069CEC1AF094
:1023B800120E15241D6E000E16201E6E000E206EC5
:1023C800030E1F6E44EC1DF0150E1D24F66E7E0ED6
:1023D8001E20F76E0900F5CF23F00900F5CF24F091
:1023E8000A00F5CF25F08DEC17F023C035F024C096
:1023F80036F025C037F035C023F036C024F037C09A
:1024080025F0000E206E030E1F6E000E126E0A0ECF
:10241800116E38500F6E106A0FBE10061FEC1BF0BD
:102428000FC01DF010C01EF044EC1DF0150E1D2449
:10243800F66E7E0E1E20F76E0900F5CF26F0090015
:10244800F5CF27F00A00F5CF28F08DEC17F023C060
:1024580032F024C033F025C034F012003850800A1E
:10246800750FD8A04DD0000E186E0A0E176E385092
:10247800156E166A15BE16069CEC1AF0090E152480
:102488001D6E000E16201E6E000E206E030E1F6EAF
:1024980044EC1DF0150E1D24F66E7E0E1E20F76E00
:1024A8000900F5CF23F00900F5CF24F00A00F5CF95
:1024B80025F0000E206E030E1F6E000E126E0A0E1F
:1024C800116E38500F6E106A0FBE10061FEC1BF00D
:1024D8000FC01DF010C01EF044EC1DF0150E1D2499
:1024E800F66E7E0E1E20F76E0900F5CF26F0090065
:1024F800F5CF27F00A00F5CF28F08DEC17F0A7D715
:102508003850030D150EF324F66E7E0EF420F76E88
:102518000900F5CF32F00900F5CF33F00A00F5CF06
:1025280034F012003850800A120FD8A091D0000E53
:10253800206E030E1F6E000E186E0A0E176E000E28
:10254800126E640E116E38500F6E106A0FBE1006B0
:102558001FEC1BF00FC015F010C016F09CEC1AF021
:10256800090E15241D6E000E16201E6E44EC1DF07B
:102578003C0E1D24F66E7E0E1E20F76E0900F5CF68
:1025880026F00900F5CF27F00A00F5CF28F0000E55
:10259800186E640E176E3850156E166A15BE16063C
:1025A8009CEC1AF0120E15241D6E000E16201E6EDD
:1025B800000E206E030E1F6E44EC1DF03C0E1D2411
:1025C800F66E7E0E1E20F76E0900F5CF23F0090087
:1025D800F5CF24F00A00F5CF25F08DEC17F023C0D5
:1025E80035F024C036F025C037F035C023F036C0AA
:1025F80024F037C025F0000E206E030E1F6E000E6B
:10260800126E0A0E116E38500F6E106A0FBE100649
:102618001FEC1BF00FC01DF010C01EF044EC1DF0A5
:102628003C0E1D24F66E7E0E1E20F76E0900F5CFB7
:1026380026F00900F5CF27F00A00F5CF28F08DEC39
:1026480017F023C032F024C033F025C034F0120054
:102658003850800A750FD8A04DD0000E186E0A0E9B
:10266800176E3850156E166A15BE16069CEC1AF0D1
:10267800090E15241D6E000E16201E6E000E206E0B
:10268800030E1F6E44EC1DF03C0E1D24F66E7E0EEC
:102698001E20F76E0900F5CF23F00900F5CF24F0CE
:1026A8000A00F5CF25F0000E206E030E1F6E000EF7
:1026B800126E0A0E116E38500F6E106A0FBE100699
:1026C8001FEC1BF00FC01DF010C01EF044EC1DF0F5
:1026D8003C0E1D24F66E7E0E1E20F76E0900F5CF07
:1026E80026F00900F5CF27F00A00F5CF28F08DEC89
:1026F80017F0A7D73850030D3C0EF324F66E7E0E64
:10270800F420F76E0900F5CF32F00900F5CF33F069
:102718000A00F5CF34F012003B6E6D0E3B649FD07B
:10272800000E206E030E1F6E000E186E0A0E176E36
:10273800000E126E640E116E3BC00FF0106A1FEC93
:102748001BF00FC015F010C016F09CEC1AF0090E23
:1027580015241D6E000E16201E6E44EC1DF0150E7D
:102768001D24F66E7E0E1E20F76E0900F5CF26F0AA
:102778000900F5CF27F00A00F5CF28F0000E186EF3
:10278800640E176E3BC015F0166A9CEC1AF0120E18
:1027980015241D6E000E16201E6E000E206E030EF0
:1027A8001F6E44EC1DF0150E1D24F66E7E0E1E20C5
:1027B800F76E0900F5CF23F00900F5CF24F00A00E1
:1027C800F5CF25F08DEC17F023C038F024C039F090
:1027D80025C03AF0000E206E030E1F6E000E126E1A
:1027E8000A0E116E3BC00FF0106A1FEC1BF00FC0F1
:1027F8001DF010C01EF044EC1DF0150E1D24F66EE1
:102808007E0E1E20F76E0900F5CF26F00900F5CFE1
:1028180027F00A00F5CF28F038C023F039C024F09B
:102828003AC025F08DEC17F023C035F024C036F0FF
:1028380025C037F035C023F036C024F037C025F066
:10284800000E266E000E276E3F0E286E8DEC17F0D8
:1028580023C032F024C033F025C034F012000A0E31
:102868003B645DD0000E206E030E1F6E000E126ECC
:102878000A0E116E3BC00FF0106A1FEC1BF00FC060
:102888001DF010C01EF044EC1DF0150E1D24F66E50
:102898007E0E1E20F76E0900F5CF26F00900F5CF51
:1028A80027F00A00F5CF28F0000E186E0A0E176EF2
:1028B8003BC015F0166A9CEC1AF0090E15241D6E23
:1028C800000E16201E6E000E206E030E1F6E44ECC6
:1028D8001DF0150E1D24F66E7E0E1E20F76E0900E3
:1028E800F5CF23F00900F5CF24F00A00F5CF25F045
:1028F8008DEC17F023C038F024C039F025C03AF029
:1029080038C023F039C024F03AC025F0000E266EF6
:10291800000E276E3F0E286E8DEC17F099D73B50AE
:10292800030D150EF324F66E7E0EF420F76E0900E3
:10293800F5CF23F00900F5CF24F00A00F5CF25F0F4
:10294800000E266E000E276E3F0E286E8DEC17F0D7
:1029580023C032F024C033F025C034F012003EC04A
:1029680060F00001616B626B3D340001603701E388
:102978006181000160510001656F41C060F0000194
:10298800616B626B40340001603701E361810001D3
:1029980060510001646F000165510001D8B411D085
:1029A800000164510001655DD8B012D00001655185
:1029B8000008000164250001606F180E00016065C1
:1029C80007D03FC03CF040C03DF041C03EF012008F
:1029D800000164510001D8B411D000016551000113
:1029E800645DD8B012D0000164510008000165256B
:1029F8000001606F180E0001606507D03CC03CF014
:102A08003DC03DF03EC03EF01200060E0001636F6F
:102A18003EAE02D00001638F41AE02D00001638D4B
:102A28003D8EFF0E3C16FF0E3D16000E3E16408EE4
:102A3800FF0E3F16FF0E4016000E411600016451AE
:102A48000001655DD8B023D0D8903F364036413676
:102A5800000164070001655100016419D8B410D061
:102A68000001630763C060F0070E00016017D8B467
:102A780007D0EAD7D8903E323D323C320001652B70
:102A88000001645100016519D8B429D0F3D70001B9
:102A980065510001645DD8B022D0D8903C363D36EF
:102AA8003E36000165070001655100016419D8B47C
:102AB80010D00001630763C060F0070E00016017C3
:102AC800D8B407D0EAD7D890413240323F3200011B
:102AD800642B0001645100016519D8A4F4D70001E2
:102AE80063AF0CD0FF0E3C1AFF0E3D1AFF0E3E1AC4
:102AF800010E3C26000E3D22000E3E22000163AD71
:102B08000CD0FF0E3F1AFF0E401AFF0E411A010E9D
:102B18003F26000E4022000E4122000E0001636F86
:102B28003C503F263D5040223E50412241AE0FD0FE
:102B3800FF0E3F1AFF0E401AFF0E411A010E3F26E4
:102B4800000E4022000E4122010E0001636F3FC0BB
:102B58000FF040C010F041C011F065C012F063C022
:102B680013F06DEC18F00FC03CF010C03DF011C030
:102B78003EF0120068C06AF000016B6B6C6B0001DC
:102B8800673500016A3701E36B8100016A51000172
:102B9800746F00017451D8A40AD0000E0001666F4A
:102BA800000E676F000E686F000E696F1200170E37
:102BB80000016A6F66C06BF067C06CF068C06DF0AA
:102BC80000016A2900016E6F05D00001D8906D33AD
:102BD8006C336B3300016E2FF8D700016B51000185
:102BE8006F6F0001678FFF0E00016617FF0E00016F
:102BF8006717000E00016817000166510001706F29
:102C0800000167510001716F000168510001726F86
:102C18000001736B8E0E0001745F000174AF1AD04F
:102C280000017451800A8F0FD8B00AD0000E00013D
:102C3800666F000E676F000E686F000E696F1200F6
:102C48000001D89073337233713370330001743FCD
:102C5800F7D71BD0170E0001746512D0000E0001C3
:102C6800666F000E676F000E686F000E696F1200C6
:102C78000001D890703771377237733700017407C5
:102C8800000174510001D8A4F3D700016F5100016D
:102C9800D8B409D00001731F721F711F706D000E28
:102CA80071237223732370C066F071C067F072C01D
:102CB80068F073C069F0120011C015F0166A176A3F
:102CC8001034153601E3168015501D6E1D50D8A41A
:102CD80009D0000E0F6E000E106E000E116E000E61
:102CE800126E120014C015F0166A176A13341536DE
:102CF80001E3168015501C6E1C50D8A409D0000E94
:102D08000F6E000E106E000E116E000E126E120085
:102D1800108EFF0E0F16FF0E1016000E1116138ED2
:102D2800FF0E1216FF0E1316000E1416000E186E64
:102D3800000E196E000E1A6E000E1B6E7F0E1D5EC1
:102D48001C50980F1D5E180E1C6ED8901836193638
:102D58001A361B3612500F5C135010581450115865
:102D6800D8A007D012500F5E1350105A1450115AA1
:102D78001880D8900F36103611361C2EE6D71DAEA7
:102D880016D01D50800A970FD8B009D0000E0F6ECC
:102D9800000E106E000E116E000E126E1200D8900A
:102DA8001B321A32193218321D3EF9D715D0170EB8
:102DB8001D640FD0000E0F6E000E106E000E116E07
:102DC800000E126E1200D890183619361A361B36B5
:102DD8001D061D50D8A4F7D718C00FF019C010F061
:102DE8001AC011F01BC012F01200113412341A6EFE
:102DF8001A50D8A409D0000E0F6E000E106E000EE7
:102E0800116E000E126E120014341534196E19501A
:102E1800D8A409D0000E0F6E000E106E000E116EB1
:102E2800000E126E1200118EFF0E0F16FF0E1016F6
:102E3800FF0E1116000E1216148EFF0E1216FF0E3C
:102E48001316FF0E1416000E1516000E156E000E42
:102E5800166E000E176E000E186E7F0E1A5E195051
:102E6800A00F1A5E200E196ED89015361636173632
:102E7800183612500F5C1350105814501158155032
:102E88001258D8A009D012500F5E1350105A14507F
:102E9800115A1550125A1580D8900F36103611361F
:102EA8001236192EE1D71AAE16D01A50800A9F0F83
:102EB800D8B009D0000E0F6E000E106E000E116E05
:102EC800000E126E1200D8901832173216321532D0
:102ED8001A3EF9D715D01F0E1A640FD0000E0F6EC8
:102EE800000E106E000E116E000E126E1200D890B9
:102EF80015361636173618361A061A50D8A4F7D7C4
:102F080015C00FF016C010F017C011F018C012F05D
:102F1800120025C029F02A6A2B6A2434293601E3D5
:102F28002A8029502C6E2C50D8A407D0000E236E6E
:102F3800000E246E000E256E120028C029F02A6AA1
:102F48002B6A2734293601E32A802950316E315003
:102F5800D8A407D0000E236E000E246E000E256E36
:102F6800120031507B0F2C2625C031F02850311A21
:102F7800800E3116248E278EFF0E2616FF0E27167A
:102F8800000E2816000E2D6E000E2E6E000E2F6EEF
:102F9800070E306E23A006D026502D2627502E224D
:102FA80028502F22D890253224322332D890263622
:102FB80027362836302EEED7090E306E23A006D0DD
:102FC80026502D2627502E2228502F22D8902532E1
:102FD80024322332D8902F322E322D32302EEED793
:102FE8002DC00FF02EC010F02FC011F02CC012F021
:102FF80031C013F06DEC18F00FC023F010C024F0AE
:1030080011C025F01200000E186E16AE0AD0161E5A
:10301800151E141E136C000E142215221622010E02
:10302800186E12AE0AD0121E111E101E0F6C000E62
:10303800102211221222010E181A000E196E000E0B
:103048001A6E000E1B6E000E1C6E13501410151015
:103058001610D8B42AD0010E176E06D0D8901336A1
:10306800143615361636172A16AEF8D7D8901936EC
:103078001A361B361C3613500F5C14501058155056
:10308800115816501258D8A009D013500F5E14507A
:10309800105A1550115A1650125A1980D8901632D3
:1030A800153214321332172EE1D71850D8B408D07D
:1030B8001C1E1B1E1A1E196C000E1A221B221C2213
:1030C80019C00FF01AC010F01BC011F01CC012F08C
:1030D80012001250D8B405D00F5010101110D8A4F7
:1030E8000CD0000E0F6E000E106E000E116E120046
:1030F800122AD890113210320F32000E0F14146EAB
:10310800000E1014156EFE0E1114166E14501510C4
:103118001610D8B40CD0ECD7122A010E0F26000EC8
:103128001022000E1122D890113210320F32000EE8
:103138000F14146E000E1014156EFF0E1114166E77
:10314800145015101610D8B406D0E6D71206D89029
:103158000F361036113610BE03D0020E1260F6D7A5
:1031680012A0109ED8901232125011121350D8A4E7
:10317800118E0FC00FF010C010F011C011F0120026
:10318800000E186E12AE0AD0121E111E101E0F6C01
:10319800000E102211221222010E186E16AE08D04F
:1031A800161E151E141E136C000E1422152216224C
:1031B8001350141015101610D8B424D0010E176E21
:1031C80006D0D8901336143615361636172A16AE8A
:1031D800F8D713500F5C145010581550115816504A
:1031E8001258D8A008D013500F5E1450105A15501A
:1031F800115A1650125AD890163215321432133208
:10320800172EE7D71850D8B408D0121E111E101E5A
:103218000F6C000E1022112212220FC00FF010C0E6
:1032280010F011C011F012C012F012000600E9CF20
:1032380003F0EACF04F0E1CF05F0E2CF06F0D9CFF2
:1032480007F0DACF08F0F3CF09F0F4CF0AF0F6CFA1
:103258000BF0F7CF0CF0F8CF0DF0F5CF0EF0F2A48D
:103268001AD0010E0001A927000EAA23AB23AC2314
:10327800010E0001AD27000EAE23AF23B023010ECF
:103288000001B127000EB223B323B423F80ED76E82
:103298002F0ED66EF2940EC0F5FF0DC0F8FF0CC0CD
:1032A800F7FF0BC0F6FF0AC0F4FF09C0F3FF08C020
:1032B800DAFF07C0D9FF06C0E2FF05C0E1FF04C07E
:1032C800EAFF03C0E9FF02C0FBFF01C0FAFF50920A
:1032D80011001D6C1E1ED8B01E2A1EBE0AD0E80E94
:1032E8001D5C030E1E58D8A004D0030E1E6EE80EF7
:1032F8001D6E1EAE0AD0190E1D5CFC0E1E58D8B0ED
:1033080004D0FC0E1E6E180E1D6E1EBE05D01E507B
:1033180006E11D04D8B003D01F6A1F2A01D01F6A16
:103328001F461F4683501F18FB0B1F18836E1EBEB7
:1033380005D01E5009E11D04D8B006D0E80E1D24A2
:103348001D6E030E1E201E6E1DC01FF0030E1F16DD
:103358001F3ABA501F18CF0B1F18BA6E1DC015F0B0
:103368001EC016F0000E186E040E176E9CEC1AF0B4
:103378001550BB6E12001D6C1E1ED8B01E2A1EBE34
:103388000AD0E80E1D5C030E1E58D8A004D0030E08
:103398001E6EE80E1D6E1EAE0AD0190E1D5CFC0EC8
:1033A8001E58D8B004D0FC0E1E6E180E1D6E1EBE20
:1033B80005D01E5006E11D04D8B003D01F6A1F2A8D
:1033C80001D01F6A1F4683501F18FD0B1F18836EFC
:1033D8001EBE05D01E5009E11D04D8B006D0E80E67
:1033E8001D241D6E030E1E201E6E1DC01FF0030E31
:1033F8001F161F3A1F46BD501F18DF0B1F18BD6E42
:103408001DC015F01EC016F0000E186E040E176EC3
:103418009CEC1AF01550BE6E120011AE16D00FC0FB
:1034280015F010C016F011C017F0151E161E171E45
:10343800152A000E16221722000E15240F6E000EF4
:103448001620106E800E1720116E14AE16D012C002
:1034580015F013C016F014C017F0151E161E171E0F
:10346800152A000E16221722000E1524126E000EC1
:103478001620136E800E1720146E000E0F1A000E01
:10348800101A800E111A000E121A000E131A800E4E
:10349800141A12500F5C1350105814501158D8B009
:1034A80002D0D8901200D8801200400EF66E380E66
:1034B800F76E000EF86E01EE90F010EE5BF009006A
:1034C800F5CFEEFFE550E150FAE1380EF66E3B0E0F
:1034D800F76E000EF86E00EED8F010EE0FF009004F
:1034E800F5CFEEFFE550E150FAE102EE28F013EED9
:1034F800FCF0EE6AE550E150FCE1E250FAE101EE41
:1035080000F0900EEE6AE806FDE100EEA9F02F0E3D
:10351800EE6AE806FDE100EE42F00D0EEE6AE806FE
:10352800FDE150905092000EF86E00010DEF00F092
:10353800000E1A6E18AE06D0176C181ED8B0182ACE
:10354800010E1A6E16AE06D0156C161ED8B0162AC5
:10355800010E1A1A000E1C6E000E1B6E1750181062
:10356800D8B41CD0010E196E04D0D890173618366E
:10357800192A18AEFAD7D8901B361C361750155C86
:1035880018501658D8A005D01750155E1850165A5E
:103598001B80D89018321732192EEDD71A50D8B48C
:1035A80004D01B6C1C1ED8B01C2A1BC015F01CC0F4
:1035B80016F01200000E176E000E186E000E196E2F
:1035C800000E1A6E1350141015101610D8B42AD005
:1035D800010E1B6E06D0D8901336143615361636E3
:1035E8001B2A16AEF8D7D8901736183619361A3659
:1035F80013500F5C1450105815501158165012588B
:10360800D8A009D013500F5E1450105A1550115AF3
:103618001650125A1780D8901632153214321332B7
:103628001B2EE1D717C00FF018C010F019C011F009
:103638001AC012F01200000E146E10AE06D00F6CF5
:10364800101ED8B0102A010E146E12AE04D0116CE0
:10365800121ED8B0122A11501210D8B418D0010E68
:10366800136E04D0D89011361236132A12AEFAD738
:1036780011500F5C12501058D8A004D011500F5E92
:103688001250105AD89012321132132EF1D714500A
:10369800D8B404D00F6C101ED8B0102A0FC00FF089
:1036A80010C010F01200000E206E0A0E206401D027
:1036B800120020C01DF01D461D46C2501D18C30B28
:1036C8001D18C26EC282C2B2FED7C450040DF3CF19
:1036D8001EF0F4CF1FF0C3CF15F0166A000E186E57
:1036E800400E176E9CEC1AF01E5015241E6E1F50CB
:1036F80016201F6E2050020D200EF324D96E010EE5
:10370800F420DA6E1EC0DEFF1FC0DDFF202ACDD7F1
:103718002050211022102310D8B424D0010E246E7A
:1037280006D0D8902036213622362336242A23AED6
:10373800F8D720501C5C21501D5822501E58235089
:103748001F58D8A008D020501C5E21501D5A225066
:103758001E5A23501F5AD890233222322132203247
:10376800242EE7D71CC01CF01DC01DF01EC01EF083
:103778001FC01FF01200D59ED59CD59AD586F80E8D
:10378800D76E2F0ED66EF184D09EF28AF28ED58E29
:10379800CD90CD9ECD9CCF0ECD16CD96CD92CD8021
:1037A800F80ECF6E2F0ECE6E939A929893909588BE
:1037B800958A958C959295949580959694929494E3
:1037C8009280928292849286928A96809682968439
:1037D80093849382949C948E848E12008E0E1F6E16
:1037E80006D0D8901A321932183217321F2A000E12
:1037F80017141B6E000E18141C6E000E19141D6E83
:10380800FF0E1A141E6E1B501C101D101E10D8A47B
:10381800E8D717C00FF018C010F019C011F01FC07A
:1038280012F0000E136E6DEC18F00FC017F010C0F8
:1038380018F011C019F01200009643009643009644
:103848004300964300E04100A04200704200E0417E
:10385800CD4C3ECDCC3DCD4C3ECDCC3D0061440061
:10386800D74300C84300AF43060005000400030027
:10387800020038FF9CFF00006400C8000100070038
:1038880000000000000000A041004842C8000000FD
:0338980000A0414C
:10389C00000E176E000E186E000E196E000E1A6ECA
:1038AC000FA008D0135017261450182215501922A7
:1038BC0016501A22D8901336143615361636D89060
:1038CC001232113210320F320F5010101110121020
:1038DC00D8A4E6D717C00FF018C010F019C011F01B
:1038EC001AC012F01200000E476E000E466E47BE54
:1038FC0006D0475021E10B0E465CD8B01200D89090
:10390C004634D96E4734DA6E400ED926010EDA22CF
:10391C00000EDE6E000EDD6ED8904634D96E473444
:10392C00DA6E600ED926010EDA22000EDE6E040E5F
:10393C00DD6E464A472ADBD71200000169510001AF
:10394C006A1100016B11D8B409D0000E0001691B7B
:10395C00000E00016A1B800E00016B1B66C03CF060
:10396C0067C03DF068C03EF069C03FF06AC040F0EF
:10397C006BC041F0B3EC14F03CC066F03DC067F096
:10398C003EC068F01200CA96CA98CA9ACA9CCA84E9
:10399C00CA90CA92CA84CA50870B5809CA6ECA50B8
:1039AC00FC0B0109CA6ECA94F90ECB6ECA84BD50C9
:1039BC00F00B0C09BD6EBA50F00B0C09BA6EF90E77
:1039CC00CB6E1200000E1A6E18AE06D0176C181EB5
:1039DC00D8B0182A010E1A6E17C00FF018C010F0CC
:1039EC00116A8E0E126E1AC013F06DEC18F00FC027
:1039FC0017F010C018F011C019F01200000E0001E1
:103A0C00A96F000EAA6F000EAB6F000EAC6F8AECA4
:103A1C001DF0000E4F6E94EC1DF01AEC1DF0BFEC77
:103A2C001BF0C9EC1CF01200C19AC198C196C1845C
:103A3C00C192C190C09EC086C088C08AC050F80B8D
:103A4C000609C06EC294C296C298C29AC292C28033
:103A5C00120023C027F024C028F027C01DF028C076
:103A6C001EF0BFEC19F025C029F026C02AF029C0A1
:103A7C001DF02AC01EF06DEC19F012001D501F0233
:103A8C00F3CF21F0F4CF22F01D502002F350222668
:103A9C001E501F02F350222621C01DF022C01EF022
:103AAC0012000F5010101110D8B406D0000E0F1ABF
:103ABC00000E101A800E111A0FC00FF010C010F06B
:103ACC0011C011F01200B89AB898B886B892B89094
:103ADC00330EAF6E000EB06EAC9EAC9CAC8AAC9844
:103AEC00AC94AB9CAB88AB8E1200116E000E106EBA
:103AFC003A0E116005D02F0E116402D0010E106E1B
:103B0C0010C00FF00F301200000E0001A96F000E54
:103B1C00AA6F000EAB6F000EAC6F1200D388D38A65
:103B2C00D38C070EB46E6D966F86120000E0409A2F
:0B3B3C00C940C201BC0200E0400802CA
:0C3B48000F6E9EA8FED70FC0ADFF12004C
:107DEC0000010000000A00000064000000E803002D
:107DFC000010270000A086010040420F00809698DA
:107E0C000000E1F50500CA9A3B00803FCDCC3DD780
:107E1C00233C12833AB7D138C62737388635C0D6BB
:107E2C0033CC2B32708930E7DB2EE53C1E42A20DA1
:107E3C0000803F00204100C842007A44401C46505C
:107E4C00C34724744997184BBCBE4C6B6E4E03153C
:107E5C005079AD60F349717B27434F4D273A27701A
:107E6C006C6F74272C276E616D65273A276C696ED1
:107E7C0065272C2776616C7565273A25692C276355
:107E8C006F6C6F72273A28302C3130302C323030F6
:107E9C00297D0A007B27434F4D273A27706C6F745E
:107EAC00272C276E616D65273A27532569272C27C8
:107EBC0076616C7565273A25692C2027636F6C6F8A
:107ECC0072273A2825642C25642C2564297D0A0008
:107EDC007B27434F4D273A276C696E65272C2776F5
:107EEC00616C7565273A27535B2025303475205D0E
:107EFC00203A205B25303475202C20253034752019
:107F0C005D277D0A007B27434F4D273A276C696E0E
:107F1C0065272C2776616C7565273A27456E746545
:107F2C0072696E672063616C6962726174696F6EED
:107F3C00277D0A007B27434F4D273A276C696E65D6
:107F4C00272C2776616C7565273A27526573657403
:107F5C002063616C6962726174696F6E277D0A00BF
:107F6C007B27434F4D273A276C696E65272C277664
:107F7C00616C7565273A27696E697469616C206D4F
:107F8C006F6465277D0A007B27434F4D273A276C8A
:107F9C00696E65272C2776616C7565273A275261C7
:107FAC007969746F20322E30277D0A007B27434F6E
:107FBC004D273A276C696E65272C2776616C7565A1
:107FCC00273A274D6F746F722074657374277D0A7E
:107FDC00007B27434F4D273A276C696E65272C276A
:107FEC0076616C7565273A276B70203D20256627D6
:047FFC007D0A0000FA
:020000040030CA
:0E000000240E191EFF0181FF0FC00FE00F40FC
:00000001FF
