:040000000BEF00F012
:100008005182FACF01F0FBCF02F0CEED18F0C2EF2B
:100018001AF05DEC1DF00001BC69000E0101886F4B
:10002800000E896F000E8A6F000E8B6F000E0001A4
:100038008D6F000E0001BB6F070EBA6F000E000136
:10004800606F000E616F000E626F000E636FC4EC8C
:100058001DF0000E1E6E000E1D6E000E206E000EAE
:100068001F6E89EC1DF08386000E0001BB6F070E22
:10007800BA6F05D0000E00017D6F010E7C6F000184
:1000880063BFF8D700016351000162110AE1880ECD
:100098000001605D130E00016159D8B08AEF11F0BC
:1000A800E9D78AEF11F060C00FF061C010F062C0AC
:1000B80011F063C012F0E80E136E030E146E000EFA
:1000C800156E000E166E86EC19F012BE0DD0125089
:1000D800111006E1F50E0F5C010E1058D8A004D0DF
:1000E8000001A16BA12B02D00001A16B0001A13B73
:1000F80080500001A119EF0BA119806E00018051F9
:1001080000018111D8A402D0819A3BD0000180055A
:1001180000018111D8A402D0818A33D0000180293E
:1001280030E100018129D8A42CD060C00FF061C053
:1001380010F062C011F063C012F0E80E136E030EE7
:10014800146E000E156E000E166E86EC19F012BEB7
:100158000DD01250111006E1F50E0F5C010E10586B
:10016800D8A004D00001A16BA12B02D00001A16B83
:100178000001A13BA14781500001A119DF0BA11982
:10018800816E0001825100018311D8A402D08190B0
:1001980038D00001820500018311D8A402D08180E3
:1001A80030D0000182292DE100018329D8A429D06B
:1001B80060C00FF061C010F062C011F063C012F0AF
:1001C800E80E136E030E146E000E156E000E166EFA
:1001D80086EC19F012BE0DD01250111006E1F50E82
:1001E8000F5C010E1058D8A004D00001A16BA12B00
:1001F80002D00001A16B81500001A119FE0BA119C9
:10020800816E00017C5100017D11D8B40BD0000E25
:1002180000017D6F000E7C6F6F0E1D6E7F0E1E6ECF
:10022800C0EC14F083BC1FD0000176510001771197
:10023800D8A419D0000E0001776F010E766F000167
:10024800800500018111D8B40BD0010E0001802572
:100258000001806F000E000181210001816F03D031
:1002680000018069816983B81FD0000178510001BD
:100278007911D8A419D0000E0001796F010E786F9A
:100288000001820500018311D8B40BD0010E0001D2
:1002980082250001826F000E000183210001836F17
:1002A80003D000018269836983AC05D0000E000188
:1002B800776F000E766F83A805D0000E0001796F66
:1002C800000E786F80C017F081C018F0030E1A6E08
:1002D800E80E196E9EEC1DF017C01DF018C01EF038
:1002E80082C017F083C018F0030E1A6EE80E196E5C
:1002F8009EEC1DF017C01FF018C020F089EC1DF00F
:100308008AEF11F038EC1BF000017C5100017D11DF
:10031800D8B44DD0000E00017D6F000E7C6F4A0EE0
:100328001D6E7F0E1E6EC0EC14F0370E1D6E7E0E15
:100338001E6EC0EC14F0010E4B6E440E126E030ECE
:10034800136E74EC1CF0030144510301D8A407D0C8
:10035800600E1D6E7D0E1E6EC0EC14F00AD0CBEC44
:100368001BF0D70E1D6E7E0E1E6EC0EC14F0A0ECB6
:100378001BF0000E4B6E440E126E030E136E74ECDF
:100388001CF0030144510301D8A407D0B90E1D6E17
:100398007D0E1E6EC0EC14F00AD0CBEC1BF0240EC0
:1003A8001D6E7F0E1E6EC0EC14F0A0EC1BF0819049
:1003B80060C00FF061C010F062C011F063C012F0AD
:1003C800D00E136E070E146E000E156E000E166E0C
:1003D80086EC19F012BE0DD01250111006E1E90E8C
:1003E8000F5C030E1058D8A004D00001A16BA12BFC
:1003F80002D00001A16B0001A13B80500001A119AE
:10040800EF0BA119806E819A83BA16D0A60E1D6EC5
:100418007C0E1E6EC0EC14F0000E0001BB6F090EBE
:10042800BA6F000E0001606F000E616F000E626F00
:10043800000E636F21EC1CF0000E03014E6F000EDE
:100448004D6F03014EBF0CD003014E5107E1020E60
:1004580003014D5DD8B08AEF11F002D08AEF11F098
:10046800D89003014D35D96E03014E35DA6EA80ECA
:10047800D926000EDA22DECF4FF3DDCF50F34FC37B
:10048800A1F050C3A2F00001D890A137A237000113
:10049800D890A137A237A1C017F0A2C018F04FC357
:1004A80019F050C31AF09EEC1DF017C032F318C0B3
:1004B80033F34FC317F050C318F04FC319F050C3AC
:1004C8001AF09EEC1DF017C034F318C035F34FC373
:1004D800A1F050C3A2F00001A13BA23BF00EA2176D
:1004E800A1510F0BA213F00EA117A1C017F0A2C0C3
:1004F80018F04FC319F050C31AF09EEC1DF017C046
:1005080036F318C037F332C317F033C318F0000EB0
:100518001A6E240E196E9EEC1DF017500301386FE9
:10052800396B34C317F035C318F0010E1A6E440E38
:10053800196E9EEC1DF0175003013A6F3B6B36C3E2
:1005480017F037C318F0000E1A6E240E196E9EECC1
:100558001DF0175003013C6F3D6BCB0E1D6E7B0EDB
:100568001E6E4FC31FF050C320F0D89003014F35C3
:10057800D96E03015035DA6E200ED926010EDA2223
:10058800DECF21F0DDCF22F038C323F039C324F0C9
:100598003AC325F03BC326F03CC327F03DC328F0FF
:1005A800C0EC14F003014D4B4E2B03014EBF58D73E
:1005B80003014E5101E14BD78AEF11F0818A8098EF
:1005C8008190000163BF8AEF11F0000163510001BF
:1005D800621109E1D10E0001605D070E0001615949
:1005E800D8A08AEF11F0000E0001BB6F070E26EFAE
:1005F80008F038EC1BF0000163BFD4D00001635150
:100608000001621108E1E90E0001605D030E0001BE
:100618006159D8A0C7D0000E0001606F000E616F4D
:10062800000E626F000E636F000E03014E6F000E26
:100638004D6F03014EBF0AD003014E5106E1020E71
:1006480003014D5DD8B0AED001D0ACD0D890030135
:100658004D35D96E03014E35DA6EA80ED926000E37
:10066800DA22DECF4FF3DDCF50F34FC3A1F050C3F2
:10067800A2F00001A13BA23BF00EA217A1510F0B63
:10068800A213F00EA117A1C017F0A2C018F04FC313
:1006980019F050C31AF09EEC1DF017C032F318C0C1
:1006A80033F34FC317F050C318F04FC319F050C3BA
:1006B8001AF09EEC1DF017C034F318C035F34FC381
:1006C800A1F050C3A2F00001D890A137A2370001D1
:1006D800D890A137A237A1C017F0A2C018F04FC315
:1006E80019F050C31AF09EEC1DF017C036F318C06D
:1006F80037F332C317F033C318F0000E1A6E240E06
:10070800196E9EEC1DF017500301386F396B34C316
:1007180017F035C318F0000E1A6E240E196E9EECF1
:100728001DF0175003013A6F3B6B36C317F037C300
:1007380018F0000E1A6E240E196E9EEC1DF017505C
:1007480003013C6F3D6BCB0E1D6E7B0E1E6E4FC3BF
:100758001FF050C320F0D89003014F35D96E030124
:100768005035DA6E200ED926010EDA22DECF21F0BE
:10077800DDCF22F038C323F039C324F03AC325F083
:100788003BC326F03CC327F03DC328F0C0EC14F06F
:1007980003014D4B4E2B03014EBF58D703014E5159
:1007A80001E14DD7000E0301506F000E4F6F03019A
:1007B80050BF0AD00301505106E10B0E03014F5DF3
:1007C800D8B07CD001D07AD04FC34DF350C34EF38C
:1007D800D89003014D35D96E03014E35DA6E200EDF
:1007E800D926010EDA22D89003014D35E16E0301B6
:1007F8004E35E26E400EE126010EE222DE50E65C46
:10080800DE50E658D8B01AD0D89003014D35D96ECD
:1008180003014E35DA6E200ED926010EDA22D89061
:1008280003014D35E16E03014E35E26E400EE126BF
:10083800010EE222DECFE6FFDDCFE5FFD89003010F
:100848004D35D96E03014E35DA6E600ED926010E8C
:10085800DA22D89003014D35E16E03014E35E26E80
:10086800200EE126010EE222DE50E65CDE50E6585C
:10087800D8B01AD0D89003014D35D96E03014E3542
:10088800DA6E200ED926010EDA22D89003014D35F2
:10089800E16E03014E35E26E600EE126010EE222A2
:1008A800DECFE6FFDDCFE5FF03014F4B502B030101
:1008B80050BF8AD70301505101E17FD760C00FF0C4
:1008C80061C010F062C011F063C012F02C0E136EFC
:1008D800010E146E000E156E000E166E86EC19F0E1
:1008E80012BE0CD012501110101004E1C90E0F5C8A
:1008F800D8A004D00001A16BA12B02D00001A16BEC
:100908000001A13B80500001A119EF0BA119806ED5
:10091800000E0301266F60C00FF061C010F062C0C6
:1009280011F063C012F02C0E136E010E146E000E3F
:10093800156E000E166E86EC19F012BE27D01250F6
:100948001110101004E1650E0F5CD8A01FD060C014
:100958000FF061C010F062C011F063C012F02C0EED
:10096800136E010E146E000E156E000E166E86ECD8
:1009780019F012BE08D012501110101007E1C80E5D
:100988000F5CD8B003D0010E0301266F030126B116
:1009980002D0819A01D0818A60C00FF061C010F046
:1009A80062C011F063C012F02C0E136E010E146EAB
:1009B800000E156E000E166E86EC19F012BE08D0E9
:1009C80012501110101008E1640E0F5CD8B004D05A
:1009D8000001A16BA12B02D00001A16B8150000185
:1009E800A119FE0BA119816E83BC14D08D0E1D6E4A
:1009F8007D0E1E6EC0EC14F0000E0001606F000E3C
:100A0800616F000E626F000E636F000E0001BB6F16
:100A1800060EBA6F83B88AEF11F0B00E1D6E7E0E07
:100A28001E6EC0EC14F0000E0001606F000E616FC6
:100A3800000E626F000E636F000E00017D6F010EE5
:100A48007C6F000E0001BB6F010EBA6F000E030130
:100A58002D6F000E2C6F03012DBF0CD003012D51FB
:100A680007E1050E03012C5DD8B08AEF11F002D022
:100A78008AEF11F0D89003012C35D96E03012D357A
:100A8800DA6EC40ED926010EDA22DECF2AF3DDCFC4
:100A98002BF3400E1D6E7C0E1E6E2AC31FF02BC357
:100AA80020F0D89003012A35D96E03012B35DA6E70
:100AB800600ED926010EDA22DECF21F0DDCF22F03A
:100AC800D89003012A35D96E03012B35DA6E400E12
:100AD800D926010EDA22DECF23F0DDCF24F0C0ECD8
:100AE80014F003012C4B2D2B03012DBFC3D7030199
:100AF8002D5101E1B6D78AEF11F081808098819A53
:100B080083A88AEF11F0A7EF0FF000017C510001D4
:100B18007D11D8B40FD0000E0001896F010E886FC7
:100B2800000E00017F6F010E7E6F000E00017D6FC9
:100B3800000E7C6F8180010E0301286FD8900001A0
:100B4800AA35D96E0001AB35DA6E000ED926010E32
:100B5800DA22010EDBBE2AD0F50EDE5C010EDE586D
:100B6800D8A024D048BE05D0485011E14704D8B0D9
:100B78000ED047C0A1F048C0A2F00001A11FA21FDB
:100B8800A14BA22BA1C026F3A2C027F304D047C0D3
:100B980026F348C027F3030127BF43D00301275199
:100BA80005E1960E0301265DD8A03BD0D890000140
:100BB800A835D96E0001A935DA6E000ED926010EC6
:100BC800DA22010EDBBE2AD0F50EDE5C010EDE58FD
:100BD800D8A024D048BE05D0485011E14704D8B069
:100BE8000ED047C0A1F048C0A2F00001A11FA21F6B
:100BF800A14BA22BA1C028F3A2C029F304D047C05F
:100C080028F348C029F3030129BF0BD00301295158
:100C180005E1960E0301285DD8A003D0000E03015C
:100C2800286F030128B102D0809801D08088819A6A
:100C3800000E1E6E000E1D6E000E206E000E1F6E42
:100C480089EC1DF038EC1BF0C5EC11F0000163BF16
:100C5800C4D0000163510001621108E1F50E0001E2
:100C6800605D010E00016159D8A0B7D0000E0001E7
:100C7800606F000E616F000E626F000E636F000EF2
:100C880003012F6F000E2E6F03012FBF0AD003013F
:100C98002F5106E1020E03012E5DD8B094D001D089
:100CA80092D0D89003012E35D96E03012F35DA6E14
:100CB800A80ED926000EDA22DECF4BF3DDCF4CF397
:100CC8004BC317F04CC318F04BC319F04CC31AF0C0
:100CD8009EEC1DF017C032F318C033F34BC317F066
:100CE8004CC318F04BC319F04CC31AF09EEC1DF01E
:100CF80017C034F318C035F34BC317F04CC318F0C2
:100D08004BC319F04CC31AF09EEC1DF017C036F314
:100D180018C037F332C317F033C318F0030E1A6E36
:100D2800840E196E9EEC1DF017500301386F396B55
:100D380034C317F035C318F0000E1A6E240E196E5E
:100D48009EEC1DF0175003013A6F3B6B36C317F04A
:100D580037C318F0010E1A6E440E196E9EEC1DF082
:100D6800175003013C6F3D6BCB0E1D6E7B0E1E6E44
:100D78004BC31FF04CC320F0D89003014B35D96EFC
:100D880003014C35DA6E000ED926010EDA22DECFC9
:100D980021F0DDCF22F038C323F039C324F03AC361
:100DA80025F03BC326F03CC327F03DC328F0C0EC38
:100DB80014F003012E4B2F2B03012FBF72D7030111
:100DC8002F5101E167D78E0E1D6E7B0E1E6E47C038
:100DD8001FF048C020F0C0EC14F083BA05D0000E14
:100DE8000001BB6F0A0EBA6F83BC39D0000E4B6E80
:100DF800240E126E030E136E74EC1CF003012451C2
:100E08000301D8A414D0000E00018C6F000E00015D
:100E1800876F000E866F000E0001BB6F040EBA6F5D
:100E2800330E1D6E7D0E1E6EC0EC14F018D0D50E5C
:100E38001D6E7C0E1E6EC0EC14F0000E4B6E1C0E68
:100E4800126E030E136E74EC1CF0CBEC1BF0FE0E4E
:100E58001D6E7E0E1E6EC0EC14F0A0EC1BF083B865
:100E68008AEF11F0010E4B6E250E126E030E136EF3
:100E780074EC1CF0030125510301D8A415D0000E11
:100E880000018C6F000E0001876F000E866F000E48
:100E98000001BB6F040EBA6F040E1D6E7D0E1E6E30
:100EA800C0EC14F08AEF11F0750E1D6E7C0E1E6EEC
:100EB800C0EC14F0010E4B6E1D0E126E030E136E75
:100EC80074EC1CF0CBEC1BF0600E1D6E7E0E1E6EDB
:100ED800C0EC14F0A0EC1BF08AEF11F08180808840
:100EE800818A83AA47D0000E0001BB6F020EBA6F39
:100EF800000E00017D6F010E7C6F000E0001606F17
:100F0800000E616F000E626F000E636F000E00012D
:100F1800646F000E656F000E666F000E676F000E3F
:100F28000001686F000E696F000E6A6F000E6B6F2C
:100F3800000E00016C6F000E6D6F000E6E6F000EDC
:100F48006F6F000E0101806F000E816F000E826FBF
:100F5800000E836F000E0001876F000E866F000E73
:100F680000017B6F000E7A6FDC0E1D6E7F0E1E6E09
:100F7800C0EC14F083B88AEF11F0F4EC1DF0880E81
:100F88001D6E7E0E1E6EC0EC14F0000E0001BB6FCD
:100F9800010E58D081808098819A000E1E6E000E36
:100FA8001D6E000E206E000E1F6E89EC1DF083BAB8
:100FB80021D0E40E1D6E7D0E1E6E86C01FF087C008
:100FC80020F0C0EC14F0000E0001BB6F050EBA6FE4
:100FD800000E00016C6F000E6D6F000E6E6F000E3C
:100FE8006F6F000E0001686F000E696F000E6A6F68
:100FF800000E6B6F83BC8AEF11F0000187BF8AEF88
:1010080011F00001875105E100018605D8A08AEF9B
:1010180011F0940E1D6E7F0E1E6EC0EC14F086C08B
:101028004FF087C050F001EC1BF0000E0001BB6FC1
:10103800030E08D081808088818A83AC8AEF11F002
:10104800A7EF0FF0BA6F8AEF11F0818A808881804C
:1010580000016BBF8AEF11F000016B5100016A11AA
:101068000001691106E1060E0001685DD8A08AEF4B
:1010780011F038EC1BF0C5EC11F0000E0001686FA0
:10108800000E696F000E6A6F000E6B6FCFEC16F0E2
:10109800D8900001AA35D96E0001AB35DA6E000E82
:1010A800D926010EDA22010EDBBE2AD0F50EDE5C4F
:1010B800010EDE58D8A024D048BE05D0485011E112
:1010C8004704D8B00ED047C0A1F048C0A2F0000134
:1010D800A11FA21FA14BA22BA1C010F3A2C011F304
:1010E80004D047C010F348C011F3030111BF43D027
:1010F8000301115105E1960E0301105DD8A03BD004
:10110800D8900001A835D96E0001A935DA6E000E15
:10111800D926010EDA22010EDBBE8AEF11F0F50E98
:10112800DE5C010EDE58D8A08AEF11F048BE05D06B
:10113800485011E14704D8B00ED047C0A1F048C0CC
:10114800A2F00001A11FA21FA14BA22BA1C012F364
:10115800A2C013F304D047C012F348C013F303012D
:1011680013BF09D00301135104E1960E0301125D68
:10117800D8B08AEF11F0000E0001BB6F040EBA6FF1
:10118800000E0001606F000E616F000E626F000EAE
:10119800636F280E136E000E146E000E156E000E8F
:1011A800166E6CC00FF06DC010F06EC011F06FC0FD
:1011B80012F068EC18F00FC000F310C001F311C072
:1011C80002F312C003F300C30FF001C310F002C30F
:1011D80011F003C312F0060E136E000E146E000E0B
:1011E800156E000E166E68EC18F0D8900001863562
:1011F800D96E00018735DA6E000ED926020EDA2282
:101208000FC0DEFF10C0DDFF0001864B872B8AEF81
:1012180011F000017C5100017D11D8B46CD1000E91
:10122800126E020E116E86C00FF087C010F080ECAF
:101238001AF0D8900F361036000E0F24D96E020E11
:101248001020DA6EDECF17F0DDCF18F0000E1A6E20
:10125800280E196E9EEC1DF017C045F318C046F312
:10126800000E126E020E116E86C00FF087C010F0CD
:1012780080EC1AF0D8900F361036000E0F24D96E75
:10128800020E1020DA6EDECF17F0DDCF18F0000E58
:101298001A6E280E196E9EEC1DF017C047F318C081
:1012A80048F3000E126E020E116E86C00FF087C052
:1012B80010F080EC1AF0D8900F361036000E0F247C
:1012C800D96E020E1020DA6EDECF17F0DDCF18F0DF
:1012D800000E1A6E280E196E9EEC1DF017C049F309
:1012E80018C04AF3000E126E020E116E86C00FF07F
:1012F80087C010F080EC1AF0D8900F361036000E28
:101308000F24D96E020E1020DA6EDECF17F0DDCF73
:1013180018F0000E1A6E280E196E9EEC1DF017C0FC
:101328001EF318C01FF3000E126E020E116E86C057
:101338000FF087C010F080EC1AF0D8900F361036F6
:10134800000E0F24D96E020E1020DA6EDECF17F0D1
:10135800DDCF18F0000E1A6E280E196E9EEC1DF0E7
:1013680017C020F318C021F3000E126E020E116E82
:1013780086C00FF087C010F080EC1AF0D8900F36B6
:101388001036000E0F24D96E020E1020DA6EDECF52
:1013980017F0DDCF18F0000E1A6E280E196E9EECAD
:1013A8001DF017C022F318C023F34F0E1D6E7B0EDD
:1013B8001E6E86C00FF087C010F0000E126E020E6F
:1013C800116E80EC1AF00FC01FF010C020F086C01C
:1013D8000FF087C010F0000E126E020E116E80EC36
:1013E8001AF0D8900F361036000E0F24D96E020E60
:1013F8001020DA6EDECF21F0DDCF22F049C30FF0E6
:101408004AC310F0000E126E020E116E80EC1AF034
:101418000FC0A1F010C0A2F047C30FF048C310F0EE
:10142800000E126E040E116E80EC1AF00F1E101EC4
:101438000F4A102A0F500001A12710500001A223C3
:1014480045C30FF046C310F0000E126E100E116E59
:1014580080EC1AF00F1E101E0F4A102A0F500001C0
:10146800A125236E10500001A221246E22C30FF083
:1014780023C310F0000E126E020E116E80EC1AF0EB
:101488000FC0A3F010C0A4F020C30FF021C310F0C8
:10149800000E126E040E116E80EC1AF00F1E101E54
:1014A8000F4A102A0F500001A32710500001A4234F
:1014B8001EC30FF01FC310F0000E126E100E116E37
:1014C80080EC1AF00F1E101E0F4A102A0F50000150
:1014D800A32710500001A423280E0001A325256E80
:1014E800000E0001A421266EC0EC14F0000E0001CD
:1014F8007D6F000E7C6F83BC0AD0000E00017D6FEB
:10150800010E7C6F000E0001BB6F080EBA6F000160
:101518006BBF8AEF11F000016B5100016A110001E5
:10152800691106E10B0E0001685DD8A08AEF11F081
:10153800000E0001686F000E696F000E6A6F000EE2
:101548006B6F38EC1BF0C5EC11F0000186A105D0DB
:10155800000E03013F6F010EC9D1000E126E020E7C
:10156800116E86C00FF087C010F080EC1AF0D8908A
:101578000F361036000E0F24D96E020E1020DA6EC8
:10158800DECF17F0DDCF18F0000E1A6E280E196E98
:101598009EEC1DF017C045F318C046F3000E126EFE
:1015A800020E116E86C00FF087C010F080EC1AF0A2
:1015B800D8900F361036000E0F24D96E020E102068
:1015C800DA6EDECF17F0DDCF18F0000E1A6E280E97
:1015D800196E9EEC1DF017C047F318C048F3000EB3
:1015E800126E020E116E86C00FF087C010F080ECEC
:1015F8001AF0D8900F361036000E0F24D96E020E4E
:101608001020DA6EDECF17F0DDCF18F0000E1A6E5C
:10161800280E196E9EEC1DF017C049F318C04AF346
:1016280049C30FF04AC310F0000E126E020E116E7D
:1016380080EC1AF00FC0A1F010C0A2F047C30FF061
:1016480048C310F0000E126E040E116E80EC1AF0F2
:101658000F1E101E0F4A102A0F500001A12710500C
:101668000001A22345C30FF046C310F0000E126E0E
:10167800100E116E80EC1AF00F1E101E0F4A102A61
:101688000F500001A1250001A36F10500001A221F5
:101698000001A46F0001A56B0001A4BFA50700010C
:1016A800A5510001A66F6CC00FF06DC010F06EC0A0
:1016B80011F06FC012F0060E136E000E146E000EBD
:1016C800156E000E166E68EC18F00001A3510F5C41
:1016D8000001A45110580001A55111581250800A58
:1016E8000001A76F0001A651800A0001A759D8B0D0
:1016F80005D0000E03013F6F030EF8D0000E126EE6
:10170800020E116E86C00FF087C010F080EC1AF040
:10171800D8900F361036000E0F24D96E020E102006
:10172800DA6EDECF17F0DDCF18F0000E1A6E280E35
:10173800196E9EEC1DF017C045F318C046F3000E55
:10174800126E020E116E86C00FF087C010F080EC8A
:101758001AF0D8900F361036000E0F24D96E020EEC
:101768001020DA6EDECF17F0DDCF18F0000E1A6EFB
:10177800280E196E9EEC1DF017C047F318C048F3E9
:10178800000E126E020E116E86C00FF087C010F0A8
:1017980080EC1AF0D8900F361036000E0F24D96E50
:1017A800020E1020DA6EDECF17F0DDCF18F0000E33
:1017B8001A6E280E196E9EEC1DF017C049F318C05A
:1017C8004AF349C30FF04AC310F0000E126E020E1E
:1017D800116E80EC1AF00FC0A1F010C0A2F047C340
:1017E8000FF048C310F0000E126E040E116E80EC5C
:1017F8001AF00F1E101E0F4A102A0F500001A127C1
:1018080010500001A22345C30FF046C310F0000E8C
:10181800126E100E116E80EC1AF00F1E101E0F4A79
:10182800102A0F500001A12710500001A223280EF2
:101838000001A1250001A36F000E0001A2210001F3
:10184800A46F0001A56B0001A4BFA5070001A55165
:101858000001A66F6CC00FF06DC010F06EC011F0E3
:101868006FC012F0060E136E000E146E000E156E89
:10187800000E166E68EC18F00001A3510F5C000111
:10188800A45110580001A55111581250800A0001A6
:10189800A76F0001A651800A0001A759D8B022D02D
:1018A80086C00FF087C010F0000E126E020E116E87
:1018B80080EC1AF0D8900F361036000E0F24D96E2F
:1018C800020E1020DA6E010EDBBE0CD0010EDB50CA
:1018D80004E1150EDE5CD8A005D0000E03013F6FB1
:1018E800040E04D0000E03013F6F050E3E6FD89022
:1018F80003013E35D96E03013F35DA6EB80ED9269D
:10190800010EDA22DECF40F3DDCF41F33EC317F0FC
:101918003FC318F0000E1A6E030E196E9EEC1DF0F0
:10192800A60E1724D96E010E1820DA6EDECF04F346
:10193800DECF05F3DDCF06F33EC317F03FC318F043
:10194800000E1A6E030E196E9EEC1DF0940E1724ED
:10195800D96E010E1820DA6EDECF07F3DECF08F35A
:10196800DDCF09F345C0A1F046C0A2F00001A11FD8
:10197800A21FA14BA22B47500001A125416E485040
:101988000001A221426E07C31EF008C31FF009C35D
:1019980020F041C017F042C018F041EC1DF017C00C
:1019A8001BF018C01CF019C01DF0EEEC17F01BC09E
:1019B8002DF01CC02EF01DC02FF004C31EF005C36F
:1019C8001FF006C320F047C017F048C018F041ECDC
:1019D8001DF017C01BF018C01CF019C01DF0EEEC6C
:1019E80017F01BC02AF01CC02BF01DC02CF0F9EC1E
:1019F80015F02AC036F02BC037F02CC038F060EC58
:101A080017F036C043F037C044F044BE1FD04450EE
:101A180003E14304D8A01AD043C0A1F044C0A2F007
:101A28000001A11FA21FA14BA22B030140510001DD
:101A3800A1251D6E030141510001A2211E6E40C364
:101A48001FF041C320F089EC1DF00ED040C31DF0FB
:101A580041C31EF04350030140251F6E445003014B
:101A68004121206E89EC1DF047C045F048C046F082
:101A780000017A5100017B11D8A415D2D890000139
:101A8800AA35D96E0001AB35DA6E000ED926010EE3
:101A9800DA22010EDBBE2AD0F50EDE5C010EDE581E
:101AA800D8A024D048BE05D0485011E14704D8B08A
:101AB8000ED047C0A1F048C0A2F00001A11FA21F8C
:101AC800A14BA22BA1C014F3A2C015F304D047C0A8
:101AD80014F348C015F3030115BF40D00301155195
:101AE80005E1960E0301145DD8A038D0D890000106
:101AF800A835D96E0001A935DA6E000ED926010E77
:101B0800DA22010EDBBECFD1F50EDE5C010EDE5807
:101B1800D8A0C9D148BE05D0485011E14704D8B073
:101B28000ED047C0A1F048C0A2F00001A11FA21F1B
:101B3800A14BA22BA1C016F3A2C017F304D047C033
:101B480016F348C017F3030117BF08D00301175154
:101B580004E1960E0301165DD8B0A5D1000E000170
:101B68007B6F010E7A6F000E0001606F000E616FCF
:101B7800000E626F000E636F000E00016C6F000EA6
:101B88006D6F000E6E6F000E6F6F80B804D000018D
:101B9800A16BA12B02D00001A16B0001A13B8050D9
:101BA8000001A119EF0BA119806E0001864B872B4C
:101BB800000186A107D00E0E1D6E7E0E1E6EC0ECB3
:101BC80014F067D1000E126E020E116E86C00FF06F
:101BD80087C010F080EC1AF0D8900F361036000E3F
:101BE8000F24D96E020E1020DA6EDECF17F0DDCF8B
:101BF80018F0000E1A6E280E196E9EEC1DF017C014
:101C080045F318C046F3000E126E020E116E86C020
:101C18000FF087C010F080EC1AF0D8900F3610360D
:101C2800000E0F24D96E020E1020DA6EDECF17F0E8
:101C3800DDCF18F0000E1A6E280E196E9EEC1DF0FE
:101C480017C047F318C048F3000E126E020E116E4B
:101C580086C00FF087C010F080EC1AF0D8900F36CD
:101C68001036000E0F24D96E020E1020DA6EDECF69
:101C780017F0DDCF18F0000E1A6E280E196E9EECC4
:101C88001DF017C049F318C04AF3000E126E020E79
:101C9800116E86C00FF087C010F080EC1AF0D89053
:101CA8000F361036000E0F24D96E020E1020DA6E91
:101CB800DECF17F0DDCF18F0000E1A6E280E196E61
:101CC8009EEC1DF017C01EF318C01FF3000E126E15
:101CD800020E116E86C00FF087C010F080EC1AF06B
:101CE800D8900F361036000E0F24D96E020E102031
:101CF800DA6EDECF17F0DDCF18F0000E1A6E280E60
:101D0800196E9EEC1DF017C020F318C021F3000EC9
:101D1800126E020E116E86C00FF087C010F080ECB4
:101D28001AF0D8900F361036000E0F24D96E020E16
:101D38001020DA6EDECF17F0DDCF18F0000E1A6E25
:101D4800280E196E9EEC1DF017C022F318C023F35D
:101D58004F0E1D6E7B0E1E6E86C00FF087C010F0F2
:101D6800000E126E020E116E80EC1AF00FC01FF0FA
:101D780010C020F086C00FF087C010F0000E126E61
:101D8800020E116E80EC1AF0D8900F361036000E45
:101D98000F24D96E020E1020DA6EDECF21F0DDCFCF
:101DA80022F049C30FF04AC310F0000E126E020E63
:101DB800116E80EC1AF00FC0A1F010C0A2F047C35A
:101DC8000FF048C310F0000E126E040E116E80EC76
:101DD8001AF00F1E101E0F4A102A0F500001A127DB
:101DE80010500001A22345C30FF046C310F0000EA7
:101DF800126E100E116E80EC1AF00F1E101E0F4A94
:101E0800102A0F500001A125236E10500001A221B5
:101E1800246E22C30FF023C310F0000E126E020EC0
:101E2800116E80EC1AF00FC0A3F010C0A4F020C30C
:101E38000FF021C310F0000E126E040E116E80EC2C
:101E48001AF00F1E101E0F4A102A0F500001A32768
:101E580010500001A4231EC30FF01FC310F0000E82
:101E6800126E100E116E80EC1AF00F1E101E0F4A23
:101E7800102A0F500001A32710500001A423280E98
:101E88000001A325256E000E0001A421266EC0ECDA
:101E980014F0070E1D6E7C0E1E6E86C01FF087C0E4
:101EA80020F0C0EC14F000017A0500017B11D8A4E1
:101EB8001ED0000163BF1BD00001635100016211F5
:101EC80008E1B10E0001605D040E00016159D8A05F
:101ED8000ED0000E0001606F000E616F000E626F81
:101EE800000E636F000E00017B6F000E7A6FFF0E0D
:101EF8000001A16FFF0E0001A26F4FC0A3F050C0F8
:101F0800A4F0D8900001A337A4370001A151000123
:101F1800A3270001A2510001A4230001865100015A
:101F2800A31905E1000187510001A419D8A4EED135
:101F3800EF0E1D6E7F0E1E6EC0EC14F0000E000139
:101F48007D6F010E7C6F000E0001BB6F080E26EF3F
:101F580008F083BC0AD0000E00017D6F010E7C6F73
:101F6800000E0001BB6F080EBA6F8180819A0001D4
:101F78006BBFCCD100016B5100016A1100016911DE
:101F880005E1060E0001685DD8A0C0D1000E000171
:101F9800686F000E696F000E6A6F000E6B6F38EC89
:101FA8001BF0C5EC11F0000186B105D0000E03014D
:101FB800316F000E04D0000E0301316F010E306F37
:101FC800D89003013035D96E03013135DA6EB80E79
:101FD800D926010EDA22DECF42F3DDCF43F330C338
:101FE80017F031C318F0000E1A6E030E196E9EEC2E
:101FF8001DF0A60E1724D96E010E1820DA6EDECF5A
:102008000AF3DECF0BF3DDCF0CF330C317F031C387
:1020180018F0000E1A6E030E196E9EEC1DF0940E49
:102028001724D96E010E1820DA6EDECF0DF3DECF3D
:102038000EF3DDCF0FF345C0A1F046C0A2F00001BA
:10204800A11FA21FA14BA22B47500001A125416E41
:1020580048500001A221426E0DC31EF00EC31FF0AE
:102068000FC320F041C017F042C018F041EC1DF03A
:1020780017C01BF018C01CF019C01DF0EEEC17F0CB
:102088001BC02DF01CC02EF01DC02FF00AC31EF07F
:102098000BC31FF00CC320F047C017F048C018F05E
:1020A80041EC1DF017C01BF018C01CF019C01DF042
:1020B800EEEC17F01BC02AF01CC02BF01DC02CF052
:1020C800F9EC15F02AC036F02BC037F02CC038F0E8
:1020D80060EC17F036C043F037C044F044BE1FD060
:1020E800445003E14304D8A01AD043C0A1F044C02F
:1020F800A2F00001A11FA21FA14BA22B0301425174
:102108000001A1251D6E030143510001A2211E6E8D
:1021180042C31FF043C320F089EC1DF00ED042C328
:102128001DF043C31EF04350030142251F6E445067
:1021380003014321206E89EC1DF000017A51000152
:102148007B11D8A491D0D8900001AA35D96E00018E
:10215800AB35DA6E000ED926010EDA22010EDBBE8F
:102168002AD0F50EDE5C010EDE58D8A024D048BE79
:1021780005D0485011E14704D8B00ED047C0A1F0AF
:1021880048C0A2F00001A11FA21FA14BA22BA1C011
:1021980018F3A2C019F304D047C018F348C019F3C4
:1021A800030119BF40D00301195105E1960E03013F
:1021B800185DD8A038D0D8900001A835D96E000194
:1021C800A935DA6E000ED926010EDA22010EDBBE21
:1021D8004BD0F50EDE5C010EDE58D8A045D048BEC7
:1021E80005D0485011E14704D8B00ED047C0A1F03F
:1021F80048C0A2F00001A11FA21FA14BA22BA1C0A1
:102208001AF3A2C01BF304D047C01AF348C01BF34B
:1022180003011BBF08D003011B5126E1960E0301E1
:102228001A5DD8B021D0000E00017B6F010E7A6FC5
:10223800000E0001606F000E616F000E626F000EED
:10224800636F80B804D00001A16BA12B02D00001FC
:10225800A16B0001A13B80500001A119EF0BA1194E
:10226800806E0001864B872B00017A0500017B11E7
:10227800D8A41ED0000163BF1BD000016351000128
:10228800621108E1B90E0001605D0B0E0001615991
:10229800D8A00ED0000E0001606F000E616F000E16
:1022A800626F000E636F000E00017B6F000E7A6F85
:1022B800070E0001861900018711D8A40AD0000E64
:1022C80000017D6F010E7C6F000E0001BB6F080ED0
:1022D800BA6F000167BF16D000016751000166118F
:1022E80008E1E90E0001645D030E00016559D8A0FC
:1022F80009D0000E0001646F000E656F000E666F56
:10230800000E676F47C045F048C046F0BAC0A1F05C
:10231800BBC0A2F00001A251000AD8A4F7D700015F
:10232800A151000AD8B457EF00F0010AD8B481EFE0
:1023380005F0030AD8B40DEF09F0010AD8B41EEF6E
:1023480008F0070AD8B4CEEF07F0010AD8B429EF8D
:1023580008F0030AD8B4E2EF02F0010AD8B486EF15
:1023680001F00F0AD8B489EF05F0010AD8B4FDEFDF
:1023780002F0030AD8B472EF07F0010AD8B4E9D51D
:10238800C5D7000E286E000E296E000E2A6E000EAC
:102398002B6E000E2C6E000E2D6E000E2E6E000E93
:1023A8002F6E000E306E000E346E000E336E34BE8B
:1023B80008D0345005E1050E335CD8B07CD101D08B
:1023C8007AD1D8903334D96E3434DA6EC40ED92623
:1023D800010EDA22DECF35F0DDCF36F0D890353475
:1023E800D96E3634DA6E200ED926010EDA22DECF07
:1023F8001DF0DDCF1EF01DC039F01EC03AF03B6A5B
:102408003C6AD8903534D96E3634DA6E600ED926E7
:10241800010EDA22DECF1DF0DDCF1EF01D501F6E3B
:102428001E50206E216A226A1F50395C20503A588B
:1024380021503B583C50800A236E2250800A235872
:10244800D8B013D0D8903534D96E3634DA6E600EE1
:10245800D926010EDA22DECF1DF0DDCF1EF01DC019
:1024680039F01EC03AF03B6A3C6AD8903534D96ED0
:102478003634DA6E400ED926010EDA22DECF1DF090
:10248800DDCF1EF01D501F6E1E50206E216A226A7D
:1024980039501F5C3A5020583B5021582250800A2E
:1024A800236E3C50800A2358D8B013D0D8903534C6
:1024B800D96E3634DA6E400ED926010EDA22DECF16
:1024C8001DF0DDCF1EF01DC039F01EC03AF03B6A8A
:1024D8003C6AD8903534D96E3634DA6E600ED92617
:1024E800010EDA22DECF1DF0DDCF1EF01D501F6E6B
:1024F8001E50206E216A226A1F50395E20503A5AB7
:1025080021503B5A22503C5A39C00FF03AC010F0C3
:102518003BC011F03CC012F0E80E136E030E146EAF
:10252800000E156E000E166EF6EC1BF00FC039F09B
:1025380010C03AF011C03BF012C03CF039C00FF0A7
:102548003AC010F03BC011F03CC012F0D8903534BE
:10255800D96E3634DA6E400ED926010EDA22DECF75
:102568001DF0DDCF1EF0D8903534D96E3634DA6ED2
:10257800600ED926010EDA22DECF1FF0DDCF20F063
:102588001F1E201E1F4A202A1D501F261E502022B3
:102598001FC013F020C014F0156A166A68EC18F012
:1025A8000FC039F010C03AF011C03BF012C03CF037
:1025B80039C01DF03AC01EF03BC01FF03CC020F0EF
:1025C8001D1E1E1E1F1E201E1D2A000E1E221F223B
:1025D8002022E80E1D24396E030E1E203A6E000ECE
:1025E8001F203B6E000E20203C6E3CBE08D03C50A5
:1025F8003B103A100CE1320E395CD8B008D0000E0E
:10260800396E000E3A6E000E3B6E000E3C6ED8908E
:102618003534D96E3634DA6E000ED926010EDA2238
:1026280039C0DEFF3AC0DDFFD8903334D96E343478
:10263800DA6ECE0ED926010EDA22DECF24F0DDCFF7
:1026480025F0000E25BEFF0E266E276E39C00FF04E
:102658003AC010F03BC011F03CC012F024C013F097
:1026680025C014F026C015F027C016F0F6EC1BF0B4
:102678000F5028261050292211502A2212502B229E
:1026880039502C263A502D223B502E223C502F22D6
:102698003CBE0AD03C503B103A1004E1C90E395CEC
:1026A800D8A002D0010E306E334A342A34BE89D6FF
:1026B800345001E180D6000E326E000E316E32BE0B
:1026C80008D0325005E1020E315CD8B02AD101D0D1
:1026D80028D1D8903134D96E3234DA6EA80ED92682
:1026E800000EDA22DECF37F0DDCF38F0D89037345D
:1026F800D96E3834DA6E200ED926010EDA22DECFF2
:102708001DF0DDCF1EF01DC039F01EC03AF03B6A47
:102718003C6AD8903734D96E3834DA6E600ED926D0
:10272800010EDA22DECF1DF0DDCF1EF01D501F6E28
:102738001E50206E216A226A1F50395C20503A5878
:1027480021503B583C50800A236E2250800A23585F
:10275800D8B013D0D8903734D96E3834DA6E600ECA
:10276800D926010EDA22DECF1DF0DDCF1EF01DC006
:1027780039F01EC03AF03B6A3C6AD8903734D96EBB
:102788003834DA6E400ED926010EDA22DECF1DF07B
:10279800DDCF1EF01D501F6E1E50206E216A226A6A
:1027A80039501F5C3A5020583B5021582250800A1B
:1027B800236E3C50800A2358D8B013D0D8903734B1
:1027C800D96E3834DA6E400ED926010EDA22DECF01
:1027D8001DF0DDCF1EF01DC039F01EC03AF03B6A77
:1027E8003C6AD8903734D96E3834DA6E600ED92600
:1027F800010EDA22DECF1DF0DDCF1EF01D501F6E58
:102808001E50206E216A226A1F50395E20503A5AA3
:1028180021503B5A22503C5A39C00FF03AC010F0B0
:102828003BC011F03CC012F0E80E136E030E146E9C
:10283800000E156E000E166EF6EC1BF00FC039F088
:1028480010C03AF011C03BF012C03CF039C00FF094
:102858003AC010F03BC011F03CC012F0D8903734A9
:10286800D96E3834DA6E400ED926010EDA22DECF60
:102878001DF0DDCF1EF0D8903734D96E3834DA6EBB
:10288800600ED926010EDA22DECF1FF0DDCF20F050
:102898001F1E201E1F4A202A1D501F261E502022A0
:1028A8001FC013F020C014F0156A166A68EC18F0FF
:1028B8000FC039F010C03AF011C03BF012C03CF024
:1028C80039C01DF03AC01EF03BC01FF03CC020F0DC
:1028D8001D1E1E1E1F1E201E1D2A000E1E221F2228
:1028E8002022E80E1D24396E030E1E203A6E000EBB
:1028F8001F203B6E000E20203C6ED8903734D96ED6
:102908003834DA6E000ED926010EDA2239C0DEFF1D
:102918003AC0DDFF314A322A32BEDBD6325001E1FD
:10292800D2D63050D8A411D048BE05D0485008E1BE
:102938004704D8B005D0FF0E486E380E476E120017
:10294800000E486EC80E476E120028C00FF029C04E
:1029580010F02AC011F02BC012F02CC013F02DC0BB
:1029680014F02EC015F02FC016F068EC18F00FC048
:1029780047F010C048F012001F0E2E6E000E2F6E8A
:1029880027D1250E3518D8B404D035501AEC1EF0CE
:102998001FD1000E346E000E336E000E326E03D05F
:1029A80032841D4A1E2A1DC0F6FF1EC0F7FF08000C
:1029B800F550300AD8B4F4D71DC0F6FF1EC0F7FF93
:1029C8000800F550D6EC1DF0D8A035D0000E346EB6
:1029D800000E336E33C017F034C018F0000E1A6EB4
:1029E8000A0E196E9EEC1DF017C033F018C034F0B3
:1029F800D00E296EFF0E2A6E1DC0F6FF1EC0F7FF0F
:102A08000800F5502B6E2C6A29502B262A502C22B0
:102A18002B5033262C5034221D4A1E2A1DC0F6FF87
:102A28001EC0F7FF0800F550D6EC1DF0D8A003D063
:102A3800D1D7328C17D01DC0F6FF1EC0F7FF1D4A34
:102A48001E2A0800F5CF35F03550000AD8B4120018
:102A5800640AD8B407D00D0AD8B404D01C0AD8B474
:102A6800E8D7B6D032BC15D02EC0D9FF2FC0DAFFB8
:102A7800DECF30F0DDCF31F0020E2E26000E2F22F1
:102A880031AE13D0030E3212306C311ED8B0312A59
:102A98000CD02EC0D9FF2FC0DAFFDECF30F0DDCF4B
:102AA80031F0020E2E26000E2F22010E356E050E75
:102AB8003518D8B412D03550020D450EF324F66EF1
:102AC8007B0EF420F76E0900F550305C0900F550D4
:102AD8003158D8A002D0352AEAD733503410D8B4A8
:102AE80009D032C029F0030E2916D8B403D0330612
:102AF800D8A03406800E35BE7F0E296E3350355C63
:102B08003450800A2958D8B007D03550335E000EAB
:102B180035BEFF0E345A04D0000E346E000E336EEC
:102B280032A414D032C029F0030E2916D8B403D029
:102B38002D0E1AEC1EF033503410D8B41ED0300EBF
:102B48001AEC1EF03306D8A03406F5D733503410EB
:102B5800D8B40AD0200E1AEC1EF03306D8A03406DA
:102B680033503410D8A4F6D732C029F0030E2916F2
:102B7800D8B403D02D0E1AEC1EF035C02DF024D099
:102B88002D50020D450EF324F66E7B0EF420F76EE1
:102B98000900F5CF11F00A00F5CF12F030C00FF0A0
:102BA80031C010F04BEC1CF00FC016F010C017F03D
:102BB800000E196E0A0E186EE1EC1CF01650300F5C
:102BC800356E35501AEC1EF02D062D28D8A4D8D70E
:102BD8001DC0F6FF1EC0F7FF1D4A1E2A0800F5CFCC
:102BE80035F03550D8B41200CCD62CC030F0316A4C
:102BF800326A2B34303601E331803050356E2FC0C5
:102C080030F0316A326A2E34303601E33180305088
:102C1800346E3550D8B40BD03450355CD8B00ED0A3
:102C2800355000083424306E180E306407D02DC09B
:102C38002AF02EC02BF02FC02CF012003450D8B43C
:102C48000BD03550345CD8B00ED034500008352441
:102C5800306E180E306407D02AC02AF02BC02BF033
:102C68002CC02CF01200060E336E2CBE338E2FBEF5
:102C7800338C2B8EFF0E2A16FF0E2B16000E2C16E9
:102C88002E8EFF0E2D16FF0E2E16000E2F16345008
:102C9800355CD8B01BD0D8902D362E362F3634065A
:102CA80035503418D8B40DD0330633C030F0070E81
:102CB8003016D8B406D0EFD7D8902C322B322A321F
:102CC800352A34503518D8B41FD0F6D73550345C6F
:102CD800D8B01AD0D8902A362B362C36350635502F
:102CE8003418D8B40DD0330633C030F0070E301680
:102CF800D8B406D0EFD7D8902F322E322D32342ABE
:102D080034503518D8A4F7D733AE0CD0FF0E2A1A92
:102D1800FF0E2B1AFF0E2C1A010E2A26000E2B224C
:102D2800000E2C2233AC0CD0FF0E2D1AFF0E2E1ADB
:102D3800FF0E2F1A010E2D26000E2E22000E2F2216
:102D4800000E336E2A502D262B502E222C502F2267
:102D58002FAE0ED0FF0E2D1AFF0E2E1AFF0E2F1AB1
:102D6800010E2D26000E2E22000E2F22010E336E8C
:102D78002DC00FF02EC010F02FC011F035C012F08A
:102D880033C013F02FEC19F00FC02AF010C02BF04D
:102D980011C02CF01200BCC19AF0BDC19BF0ACC1AF
:102DA80094F0ADC195F0AEC196F09AC197F09BC171
:102DB80098F09CC199F045C03FF046C040F03F1ED6
:102DC800401E3F4A402A47503F24416E4850402009
:102DD800426E97C01EF098C01FF099C020F041C005
:102DE80017F042C018F041EC1DF017C01BF018C0D6
:102DF8001CF019C01DF0EEEC17F01BC02DF01CC024
:102E08002EF01DC02FF094C01EF095C01FF096C084
:102E180020F047C017F048C018F041EC1DF017C06B
:102E28001BF018C01CF019C01DF0EEEC17F01BC009
:102E38002AF01CC02BF01DC02CF0F9EC15F02AC0AC
:102E480036F02BC037F02CC038F060EC17F036C0E5
:102E580043F037C044F044BE1CD0445003E143045F
:102E6800D8A017D043C03FF044C040F03F1E401EDA
:102E78003F4A402A00019A513F241D6E00019B5190
:102E880040201E6E9AC01FF09BC020F089EC1DF0F8
:102E98000ED09AC01DF09BC01EF0435000019A2529
:102EA8001F6E445000019B21206E89EC1DF047C025
:102EB80045F048C046F0120038C03AF03B6A3C6A18
:102EC80037343A3601E33B803A500001936F0001F2
:102ED8009351D8A409D0000E366E000E376E000E3E
:102EE800386E000E396E1200170E3A6E36C03BF07F
:102EF80037C03CF038C03DF03A283E6E04D0D89038
:102F08003D323C323B323E2EFAD73B5000018E6FA9
:102F1800378EFF0E3616FF0E3716000E381636504F
:102F280000018F6F37500001906F38500001916F8A
:102F38000001926B8E0E0001935F000193AF19D0D0
:102F480000019351800A8F0FD8B009D0000E366E59
:102F5800000E376E000E386E000E396E120000013A
:102F6800D8909233913390338F330001933FF7D742
:102F78001AD0170E0001936511D0000E366E000EA0
:102F8800376E000E386E000E396E12000001D890B0
:102F98008F3790379137923700019307000193518B
:102FA8000001D8A4F3D700018E510001D8B409D08C
:102FB8000001921F911F901F8F6D000E9023912387
:102FC80092238FC036F090C037F091C038F092C08D
:102FD80039F012001DC021F0226A236A1C34213600
:102FE80001E322802150246E2450D8A407D0000E7B
:102FF8001B6E000E1C6E000E1D6E120020C021F00C
:10300800226A236A1F34213601E322802150296E67
:103018002950D8A407D0000E1B6E000E1C6E000E9F
:103028001D6E120029507B0F24261DC029F0205048
:10303800291A800E29161C8E1F8EFF0E1E16FF0ED3
:103048001F16000E2016000E256E000E266E000EAE
:10305800276E070E286E1BA006D01E5025261F506F
:10306800262220502722D8901D321C321B32D8909D
:103078001E361F362036282EEED7090E286E1BA0C6
:1030880006D01E5025261F50262220502722D890D1
:103098001D321C321B32D890273226322532282E78
:1030A800EED725C00FF026C010F027C011F024C0BD
:1030B80012F029C013F02FEC19F00FC01BF010C04C
:1030C8001CF011C01DF01200000E186E16AE0AD0CA
:1030D800161E151E141E136C000E1422152216221D
:1030E800010E186E12AE0AD0121E111E101E0F6CA1
:1030F800000E102211221222010E181A000E196E4B
:10310800000E1A6E000E1B6E000E1C6E135014106B
:1031180015101610D8B42AD0010E176E06D0D89004
:103128001336143615361636172A16AEF8D7D89031
:1031380019361A361B361C3613500F5C14501058AB
:103148001550115816501258D8A009D013500F5EB8
:103158001450105A1550115A1650125A1980D890F6
:103168001632153214321332172EE1D71850D8B44C
:1031780008D01C1E1B1E1A1E196C000E1A221B22B8
:103188001C2219C00FF01AC010F01BC011F01CC08F
:1031980012F012000600E9CF03F0EACF04F0E1CF05
:1031A80005F0E2CF06F0D9CF07F0DACF08F0F3CF79
:1031B80009F0F4CF0AF0F6CF0BF0F7CF0CF0F8CF08
:1031C8000DF0F5CF0EF0F2A428D0010E0001602713
:1031D800000E612362236323010E00016427000EA1
:1031E800652366236723010E00016827000E692303
:1031F8006A236B23010E00016C27000E6D236E23DA
:103208006F23010E01018027000E8123822383236F
:10321800F80ED76E2F0ED66EF2940EC0F5FF0DC0C5
:10322800F8FF0CC0F7FF0BC0F6FF0AC0F4FF09C097
:10323800F3FF08C0DAFF07C0D9FF06C0E2FF05C0E8
:10324800E1FF04C0EAFF03C0E9FF02C0FBFF01C0C1
:10325800FAFF519211001250D8B405D00F50101037
:103268001110D8A40CD0000E0F6E000E106E000EB8
:10327800116E1200122AD890113210320F32000E3D
:103288000F14146E000E1014156EFE0E1114166E27
:10329800145015101610D8B40CD0ECD7122A010E01
:1032A8000F26000E1022000E1122D8901132103273
:1032B8000F32000E0F14146E000E1014156EFF0E50
:1032C8001114166E145015101610D8B406D0E6D77F
:1032D8001206D8900F361036113610BE03D0020EE3
:1032E8001260F6D712A0109ED89012321250111206
:1032F8001350D8A4118E0FC00FF010C010F011C0D9
:1033080011F01200000E186E12AE0AD0121E111E15
:10331800101E0F6C000E102211221222010E186EC0
:1033280016AE08D0161E151E141E136C000E14229D
:10333800152216221350141015101610D8B424D0C4
:10334800010E176E06D0D890133614361536163679
:10335800172A16AEF8D713500F5C14501058155092
:10336800115816501258D8A008D013500F5E145098
:10337800105A1550115A1650125AD8901632153242
:1033880014321332172EE7D71850D8B408D0121EAB
:10339800111E101E0F6C000E1022112212220FC0D7
:1033A8000FF010C010F011C011F012C012F012008E
:1033B800176C181ED8B0182A18BE0AD0E80E175C69
:1033C800030E1858D8A004D0030E186EE80E176E16
:1033D80018AE0AD0190E175CFC0E1858D8B004D0D5
:1033E800FC0E186E180E176E18BE05D0185006E1A0
:1033F8001704D8B003D0196A192A01D0196A1946D6
:10340800194683501918FB0B1918836E18BE05D07E
:10341800185009E11704D8B006D0E80E1724176E23
:10342800030E1820186E17C019F0030E1916193A52
:10343800BA501918CF0B1918BA6E17C00FF018C068
:1034480010F0000E126E040E116E80EC1AF00F5080
:10345800BB6E1200176C181ED8B0182A18BE0AD0F6
:10346800E80E175C030E1858D8A004D0030E186E87
:10347800E80E176E18AE0AD0190E175CFC0E185815
:10348800D8B004D0FC0E186E180E176E18BE05D0F2
:10349800185006E11704D8B003D0196A192A01D0C8
:1034A800196A194683501918FD0B1918836E18BE2E
:1034B80005D0185009E11704D8B006D0E80E172433
:1034C800176E030E1820186E17C019F0030E191680
:1034D800193A1946BD501918DF0B1918BD6E17C0D7
:1034E8000FF018C010F0000E126E040E116E80EC72
:1034F8001AF00F50BE6E1200000E146E12AE06D0F7
:10350800116C121ED8B0122A010E146E10AE06D01D
:103518000F6C101ED8B0102A010E141A000E166E69
:10352800000E156E11501210D8B41CD0010E136E77
:1035380004D0D89011361236132A12AEFAD7D89082
:103548001536163611500F5C12501058D8A005D0F9
:1035580011500F5E1250105A1580D8901232113245
:10356800132EEDD71450D8B404D0156C161ED8B04D
:10357800162A15C00FF016C010F01200340EF66EA1
:10358800390EF76E000EF86E01EE94F010EE48F06A
:103598000900F5CFEEFFE550E150FAE1120EF66EA4
:1035A8003C0EF76E000EF86E00EEA8F010EE12F06A
:1035B8000900F5CFEEFFE550E150FAE102EE00F028
:1035C800C80EEE6AE806FDE101EE00F0940EEE6A20
:1035D800E806FDE100EE60F02E0EEE6AE806FDE179
:1035E80000EE41F0100EEE6AE806FDE151905192AE
:1035F800000EF86E00010DEF00F04B50D8A404D077
:10360800000E3B6E000E03D0000E3B6E800E3A6E2D
:103618003AC03CF04FC00FF03C50B1EC1DF0000E2A
:103628003E6E000E3D6E13D0D8903D34D96E3E34B8
:10363800DA6E000ED926020EDA22DF500F6E3C50E9
:103648003D24396E3928B1EC1DF03D4A3E2A4F50D1
:103658003D5C3E50800A396E5050800A3958D8A0D7
:10366800E3D7A0EC1BF01200000E1A6E0A0E1A64C3
:1036780001D012001AC017F017461746C250171883
:10368800C30B1718C26EC282C2B2FED7C450040D53
:10369800F3CF18F0F4CF19F0C3CF0FF0106A000E73
:1036A800126E400E116E80EC1AF018500F24186E2E
:1036B80019501020196E1A50020D200EF324D96EDD
:1036C800010EF420DA6E18C0DEFF19C0DDFF1A2AD9
:1036D800CDD7D59ED59CD59AD586F80ED76E2F0E08
:1036E800D66EF184D09EF28AF28ED58ECD90CD9E84
:1036F800CD9CCF0ECD16CD96CD92CD80F80ECF6E47
:103708002F0ECE6E939A929893909588958A958C61
:10371800959295949580959694929494928092829D
:1037280092849286928A96809682968493849382D3
:10373800949C948E848E1200000E386E000E376EA4
:103748001BD0B80E1D6E7F0E1E6E010E37241F6E25
:10375800000E3820206ED8903734D96E3834DA6E9F
:10376800000ED926020EDA22DECF21F0DDCF22F0BC
:10377800C0EC14F0374A382A4F50375C3850800A6A
:10378800366E5050800A3658D8B01200DAD74F0E2D
:10379800126E000E136E02EC1DF0000E1F6E000E6E
:1037A8001E6E15D01EC012F01FC013F01EC01CF0F4
:1037B8001FC01DF0D8901C361D36000E1C24146E38
:1037C800020E1D20156EBEEC1CF01E4A1F2A4F501B
:1037D8001E5C1F50800A1C6E5050800A1C58D8B0BE
:1037E8001200E0D7000E176E000E186E000E196E4C
:1037F800000E1A6E0FA008D0135017261450182266
:103808001550192216501A22D89013361436153628
:103818001636D8901232113210320F320F50101063
:1038280011101210D8A4E6D717C00FF018C010F066
:1038380019C011F01AC012F01200000E4A6E000EE4
:10384800496E4ABE06D04A5021E10B0E495CD8B0F9
:103858001200D8904934D96E4A34DA6E400ED9260F
:10386800010EDA22000EDE6E000EDD6ED8904934AD
:10387800D96E4A34DA6E600ED926010EDA22000EAD
:10388800DE6E040EDD6E494A4A2ADBD71200000EAE
:10389800156E000E146E11501210D8B41CD0010E03
:1038A800136E04D0D89011361236132A12AEFAD7F6
:1038B800D8901436153611500F5C12501058D8A0F5
:1038C80005D011500F5E1250105A1480D890123241
:1038D8001132132EEDD714C00FF015C010F01200DE
:1038E8004B50D8A408D0150E0F6E000E106E000EA7
:1038F800E5EC1DF00AD04B04D8A407D0150E0F6EC6
:10390800000E106E800EE5EC1DF0000E146E1550C2
:10391800D8B405D01528D8B402D0010E146E12C040
:10392800D9FF13C0DAFF14C0DFFF120000484200BD
:103938008C4200F04100484200484200484200A042
:103948004000C04000C04000C04000C04000C0402F
:10395800C201DA02A401E80318FC90010600050080
:1039680004000300020038FF9CFF00006400C80048
:10397800C80000004B50D8A404D0000E1A6E000EE8
:1039880003D0000E1A6E800E196E19C018F01B0EA7
:103998000F6E000E106E18501224166E1628E5ECE5
:1039A8001DF01B50166E176A14C0D9FF15C0DAFF38
:1039B80016C0DEFF17C0DDFF120018501910D8B46A
:1039C80018D0010E1A6E04D0D890183619361A2A53
:1039D80019AEFAD71850165C19501758D8A004D049
:1039E8001850165E1950175AD890193218321A2ED4
:1039F800F1D716C016F017C017F012004B50D8A414
:103A080004D0000E186E000E03D0000E186E800E43
:103A1800176E17C016F0190E0F6E000E106E1650A6
:103A2800E5EC1DF01950146E156A12C0D9FF13C0C9
:103A3800DAFF14C0DEFF15C0DDFF1200CA96CA986F
:103A4800CA9ACA9CCA84CA90CA92CA84CA50870BA6
:103A58005809CA6ECA50FC0B0109CA6ECA94F90EFD
:103A6800CB6ECA84BD50F00B0C09BD6EBA50F00B7A
:103A78000C09BA6EF90ECB6E1200000E1A6E18AE53
:103A880006D0176C181ED8B0182A010E1A6E17C067
:103A98000FF018C010F0116A8E0E126E1AC013F0D3
:103AA8002FEC19F00FC017F010C018F011C019F062
:103AB8001200000E0001606F000E616F000E626F51
:103AC800000E636FFFEC1DF0000E0001BC6F12ECDE
:103AD8001EF074EC1DF06DEC1BF022EC1DF01200D2
:103AE800C19AC198C196C184C192C190C09EC08636
:103AF800C088C08AC050F80B0609C06EC294C2962E
:103B0800C298C29AC292C28012001DC021F01EC083
:103B180022F021C017F022C018F02EEC1AF01FC0B6
:103B280023F020C024F023C017F024C018F0DCECE8
:103B380019F0120017501902F3CF1BF0F4CF1CF044
:103B480017501A02F3501C2618501902F3501C265D
:103B58001BC017F01CC018F01200106E10C0A9FF8F
:103B68000FC0A8FFA69EA69CA684F29E550EA76E1F
:103B7800AA0EA76EA682F28EA6B2FED7A69412004F
:103B8800B89AB898B886B892B890330EAF6E000E4F
:103B9800B06EAC9EAC9CAC8AAC98AC94AB9CAB8839
:103BA800AB8E1200116E000E106E3A0E116005D029
:103BB8002F0E116402D0010E106E10C00FF00F30DE
:103BC8001200116E11C0A9FFA69EA69CA680A6B0E1
:103BD800FED70FC0D9FF10C0DAFFA8CFDFFF120051
:103BE800000E0F6E000EB1EC1DF0000E0F6E800E71
:103BF800B1EC1DF01200000E0001606F000E616F45
:103C0800000E626F000E636F1200010007000000D3
:103C18000000000000A04100E0400802D388D38AD9
:103C2800D38C070EB46E6D966F8612000F6E9EA829
:083C3800FED70FC0ADFF120022
:107B44000001000A006400E80310277B27434F4D1F
:107B5400273A276C696E65272C2776616C75652733
:107B64003A27456E746572696E6720726563742086
:107B74006628256929203D2028256929202825698A
:107B8400292028256929277D0A007B27434F4D2773
:107B94003A27706C6F74272C276E616D65273A271E
:107BA4006C696E65272C2776616C7565273A2569A3
:107BB4002C27636F6C6F72273A28302C3130302CAD
:107BC400323030297D0A007B27434F4D273A2770F6
:107BD4006C6F74272C276E616D65273A27532569CE
:107BE400272C2776616C7565273A25692C20276335
:107BF4006F6C6F72273A2825642C25642C25642920
:107C04007D0A007B27434F4D273A27536574746CD4
:107C140065272C276E616D65273A274172656120BF
:107C24002569272C27636F6C6F72273A283130300F
:107C34002C3130302C323535297D0A007B27434FD7
:107C44004D273A276C696E65272C2776616C75651C
:107C5400273A27535B2025303475205D203A205B7A
:107C640025303475202C2025303475205D277D0A7D
:107C7400007B27434F4D273A276C696E65272C27D5
:107C840076616C7565273A2753656C656374696E14
:107C94006720475245454E206D656D6F7279277D8B
:107CA4000A007B27434F4D273A276C696E65272CC2
:107CB4002776616C7565273A27456E746572696E1F
:107CC400672063616C6962726174696F6E277D0AF3
:107CD400007B27434F4D273A276C696E65272C2775
:107CE40076616C7565273A2753656C656374696EB4
:107CF4006720524544206D656D6F7279277D0A00B7
:107D04007B27434F4D273A276C696E65272C2776CE
:107D1400616C7565273A2757726974696E672047E5
:107D24005245454E206D656D6F7279277D0A007B43
:107D340027434F4D273A276C696E65272C277661B8
:107D44006C7565273A2757726974696E67205245C6
:107D540044206D656D6F7279277D0A007B27434F40
:107D64004D273A276C696E65272C2776616C7565FB
:107D7400273A27477265656E206D656D6F727920AD
:107D8400656D707479277D0A007B27434F4D273A30
:107D9400276C696E65272C2776616C7565273A27F1
:107DA40052657365742063616C6962726174696F92
:107DB4006E277D0A007B27434F4D273A276C696E57
:107DC40065272C2776616C7565273A2752656420F0
:107DD4006D656D6F727920656D707479277D0A0009
:107DE4007B27434F4D273A276C696E65272C2776EE
:107DF400616C7565273A2757726974696E672072DA
:107E0400656374202569277D0A007B27434F4D272E
:107E14003A276C696E65272C2776616C7565273A5D
:107E240027456E746572696E67206375727665277F
:107E34007D0A007B27434F4D273A276C696E6527DF
:107E44002C2776616C7565273A274C6F6164696EDF
:107E54006720656570726F6D277D0A007B27434F2D
:107E64004D273A276C696E65272C2776616C7565FA
:107E7400273A27475245454E206D656D6F72793A12
:107E8400277D0A007B27434F4D273A276C696E658F
:107E9400272C2776616C7565273A274D656D6F72BF
:107EA4007920657261736564277D0A007B27434FDF
:107EB4004D273A276C696E65272C2776616C7565AA
:107EC400273A27696E697469616C206D6F64652750
:107ED4007D0A007B27434F4D273A276C696E65273F
:107EE4002C2776616C7565273A27477265656E2085
:107EF4006D656D6F7279277D0A007B27434F4D278F
:107F04003A276C696E65272C2776616C7565273A6C
:107F140027524544206D656D6F72793A277D0A00BA
:107F24007B27434F4D273A276C696E65272C2776AC
:107F3400616C7565273A27526564206D656D6F72B3
:107F4400793A277D0A007B27434F4D273A276C69EE
:107F54006E65272C2776616C7565273A27526179FF
:107F640069746F20322E30277D0A007B27434F4DE2
:107F7400273A276C696E65272C2776616C7565270F
:107F84003A274D6F746F722074657374277D0A00ED
:107F94007B27434F4D273A276C696E65272C27763C
:107FA400616C7565273A2753617665206461746155
:107FB400277D0A007B27434F4D273A276C696E655E
:107FC400272C2776616C7565273A275B25695D2028
:107FD4003D202569277D0A007B27434F4D273A27FB
:107FE40052656C65617365277D0A007B27434F4D9D
:0C7FF400273A27486F6C64277D0A0000C4
:020000040030CA
:0E000000240E191EFF0181FF0FC00FE00F40FC
:00000001FF
