:040000000CEF00F011
:10000800FACF01F0FBCF02F0E9CF03F0D6ED18F0FC
:100018002AEF1AF017EC1DF0000E0101D86F070E39
:10002800D76F000E0001606F000E616F000E626FE7
:10003800000E636F53EC1DF0000E1E6E000E1D6E59
:10004800000E206E000E1F6E82EC1CF08386000EE0
:100058000101D86F070ED76F06D0000E0001856F1B
:10006800010E846F00D0000163BFF7D70001635110
:10007800000162110AE1880E0001605D130E0001A3
:100088006159D8B09EEF0FF0E8D79EEF0FF060C02F
:100098000FF061C010F062C011F063C012F0E80EFA
:1000A800136E030E146E000E156E000E166E77ECAE
:1000B80018F012BE0DD01250111006E1F50E0F5CAB
:1000C800010E1058D8A004D00001B56BB52B02D092
:1000D8000001B56B0001B53B80500001B519EF0B6D
:1000E800B519806E0001885100018911D8A402D089
:1000F800819A3CD00001880500018911D8A402D05A
:10010800818A34D00001882931E100018929D8A4E5
:100118002DD060C00FF061C010F062C011F063C054
:1001280012F0E80E136E030E146E000E156E000E1C
:10013800166E77EC18F012BE0DD01250111006E1B1
:10014800F50E0F5C010E1058D8A004D00001B56B55
:10015800B52B02D00001B56B0001B53BB547815006
:100168000001B519DF0BB519816E00D000018A5165
:1001780000018B11D8A402D0819039D000018A05E2
:1001880000018B11D8A402D0818031D000018A29C6
:100198002EE100018B29D8A42AD060C00FF061C0DD
:1001A80010F062C011F063C012F0E80E136E030E77
:1001B800146E000E156E000E166E77EC18F012BE57
:1001C8000DD01250111006E1F50E0F5C010E1058FB
:1001D800D8A004D00001B56BB52B02D00001B56BD7
:1001E80081500001B519FE0BB519816E00D00001D0
:1001F800845100018511D8B40CD0000E0001856F20
:10020800000E846F6F0E1D6E7F0E1E6E59EC13F07C
:1002180000D083BC20D000017E5100017F11D8A4FA
:100228001AD0000E00017F6F010E7E6F0001880555
:1002380000018911D8B40BD0010E000188250001F6
:10024800886F000E000189210001896F04D0000128
:100258008869896900D083B820D0000180510001E5
:100268008111D8A41AD0000E0001816F010E806F91
:1002780000018A0500018B11D8B40BD0010E0001D2
:100288008A2500018A6F000E00018B2100018B6F07
:1002980004D000018A698B6900D083AC06D0000EB7
:1002A80000017F6F000E7E6F00D083A806D0000E7D
:1002B8000001816F000E806F00D088C017F089C0E0
:1002C80018F0030E1A6EE80E196E2BEC1DF017C00D
:1002D8001DF018C01EF08AC017F08BC018F0030E6E
:1002E8001A6EE80E196E2BEC1DF017C01FF018C01F
:1002F80020F082EC1CF09EEF0FF0A0EC1AF0000149
:10030800845100018511D8B456D0000E0001856FC4
:10031800000E846F4A0E1D6E7F0E1E6E59EC13F090
:10032800370E1D6E7E0E1E6E59EC13F0010E4D6ECB
:10033800460E126E030E136EEAEC1BF003014651D3
:100348000301D8A407D0600E1D6E7D0E1E6E59ECF9
:1003580013F00BD0BEEC1BF0D70E1D6E7E0E1E6E7A
:1003680059EC13F092EC1BF000D0000E4D6E460EC7
:10037800126E030E136EEAEC1BF0030146510301E3
:10038800D8A407D0B90E1D6E7D0E1E6E59EC13F061
:100398000BD0BEEC1BF0240E1D6E7F0E1E6E59ECAA
:1003A80013F092EC1BF000D0760E1D6E7C0E1E6EC4
:1003B80059EC13F000D0819060C00FF061C010F0CC
:1003C80062C011F063C012F0D00E136E070E146EE7
:1003D800000E156E000E166E77EC18F012BE0DD0DA
:1003E8001250111006E1E90E0F5C030E1058D8A048
:1003F80004D00001B56BB52B02D00001B56B00012C
:10040800B53B80500001B519EF0BB519806E819A84
:1004180083BA9EEF0FF0A60E1D6E7C0E1E6E59EC71
:1004280013F0000E0101D86F090ED76F000E0001FE
:10043800606F000E616F000E626F000E636F38EC24
:100448001BF09EEF0FF0818A80988190000163BFB6
:100458009EEF0FF0000163510001621109E1D10E16
:100468000001605D070E00016159D8A09EEF0FF0F2
:10047800000E0101D86F070EC1EF0DF09EEF0FF0CF
:10048800A0EC1AF0000E03013D6F000E3C6F030153
:100498003DBF0AD003013D5106E10B0E03013C5D4F
:1004A800D8B07FD001D07DD03CC347F33DC348F3DB
:1004B800D89003014735D96E03014835DA6E200E0E
:1004C800D926010EDA22D89003014735E16E0301DF
:1004D8004835E26E400EE126010EE222DE50E65C6F
:1004E800DE50E658D8B01BD0D89003014735D96EF6
:1004F80003014835DA6E200ED926010EDA22D8908B
:1005080003014735E16E03014835E26E400EE126EE
:10051800010EE222DECFE6FFDDCFE5FF00D0D89066
:1005280003014735D96E03014835DA6E600ED926C6
:10053800010EDA22D89003014735E16E03014835F0
:10054800E26E200EE126010EE222DE50E65CDE506D
:10055800E658D8B01BD0D89003014735D96E0301AF
:100568004835DA6E200ED926010EDA22D89003011A
:100578004735E16E03014835E26E600EE126010E53
:10058800E222DECFE6FFDDCFE5FF00D003013C4BE2
:100598003D2B03013DBF88D703013D5102E17DD7C3
:1005A80000D060C00FF061C010F062C011F063C0ED
:1005B80012F02C0E136E010E146E000E156E000E46
:1005C800166E77EC18F012BE0CD0125011101010E5
:1005D80004E1C90E0F5CD8A004D00001B56BB52B9F
:1005E80002D00001B56B0001B53B80500001B51980
:1005F800EF0BB519806E000E0301366F60C00FF067
:1006080061C010F062C011F063C012F02C0E136EBE
:10061800010E146E000E156E000E166E77EC18F0B3
:1006280012BE28D012501110101004E1650E0F5C94
:10063800D8A020D060C00FF061C010F062C011F0E7
:1006480063C012F02C0E136E010E146E000E156EA0
:10065800000E166E77EC18F012BE08D0125011106A
:10066800101008E1C80E0F5CD8B004D0010E0301C9
:10067800366F00D0030136B102D0819A01D0818A49
:1006880060C00FF061C010F062C011F063C012F0DA
:100698002C0E136E010E146E000E156E000E166EE3
:1006A80077EC18F012BE08D012501110101008E1A3
:1006B800640E0F5CD8B004D00001B56BB52B02D026
:1006C8000001B56B81500001B519FE0BB519816E9B
:1006D80083BC15D08D0E1D6E7D0E1E6E59EC13F069
:1006E800000E0001606F000E616F000E626F000E59
:1006F800636F000E0101D86F060ED76F00D083B864
:100708009EEF0FF0B00E1D6E7E0E1E6E59EC13F0AC
:10071800000E0001606F000E616F000E626F000E28
:10072800636F000E0001856F010E846F000E0101DA
:10073800D86F010ED76F000E03013F6F000E3E6F9A
:1007480003013FBF0CD003013F5107E1050E030130
:100758003E5DD8B09EEF0FF002D09EEF0FF0D8901C
:1007680003013E35D96E03013F35DA6EBC0ED9263A
:10077800010EDA22DECF3AF3DDCF3BF3100E1D6E09
:100788007C0E1E6E3AC31FF03BC320F0D8900301C5
:100798003A35D96E03013B35DA6E600ED926010E63
:1007A800DA22DECF21F0DDCF22F0D89003013A35EE
:1007B800D96E03013B35DA6E400ED926010EDA22D6
:1007C800DECF23F0DDCF24F059EC13F003013E4BCC
:1007D8003F2B03013FBFC3D703013F5101E1B6D708
:1007E8009EEF0FF081808098819A83A89EEF0FF08A
:1007F800BDEF0DF09EEF0FF000018451000185114F
:10080800D8B410D0000E0001936F010E926F000E45
:100818000001876F010E866F000E0001856F000EC4
:10082800846F00D04D04D8A404D00001B56BB52B5B
:1008380002D00001B56B81500001B519FE0BB51946
:10084800816E010E0301386FD8900001BC35D96E56
:100858000001BD35DA6E000ED926010EDA22010E2E
:10086800DBBE2DD0F50EDE5C010EDE58D8A027D0F9
:1008780048BE05D0485011E14704D8B00ED047C053
:10088800B5F048C0B6F00001B51FB61FB54BB62B82
:10089800B5C036F3B6C037F305D047C036F348C005
:1008A80037F300D0030137BF49D00301375107E1BF
:1008B800320E0301365DD8B002D040D000D0D890B7
:1008C8000001BA35D96E0001BB35DA6E000ED926A3
:1008D800010EDA22010EDBBE2DD0F50EDE5C010E14
:1008E800DE58D8A027D048BE05D0485011E14704AB
:1008F800D8B00ED047C0B5F048C0B6F00001B51F5B
:10090800B61FB54BB62BB5C038F3B6C039F305D012
:1009180047C038F348C039F300D0030139BF0ED0BF
:100928000301395107E1320E0301385DD8B002D016
:1009380005D000D0000E0301386F00D0030138B194
:1009480002D0809801D080884D50D8A404D00001EE
:10095800B56BB52B02D00001B56B0001B53BB547AF
:1009680081500001B519DF0BB519816E000E1E6E9E
:10097800000E1D6E000E206E000E1F6E82EC1CF025
:10098800A0EC1AF0DBEC0FF0000163BFC6D0000149
:1009980063510001621108E1F50E0001605D010E6E
:1009A80000016159D8A0B9D0000E0001606F000E97
:1009B800616F000E626F000E636F000E0301416FDE
:1009C800000E406F030141BF0AD00301415106E107
:1009D800020E0301405DD8B095D001D093D0D890D5
:1009E80003014035D96E03014135DA6EBA0ED926B6
:1009F800000EDA22DECF49F3DDCF4AF349C317F000
:100A08004AC318F049C319F04AC31AF02BEC1DF079
:100A180017C006F318C007F349C317F04AC318F004
:100A280049C319F04AC31AF02BEC1DF017C008F39C
:100A380018C009F349C317F04AC318F049C319F09D
:100A48004AC31AF02BEC1DF017C00AF318C00BF3B9
:100A580006C317F007C318F0030E1A6E840E196E3A
:100A68002BEC1DF0175003010C6F0D6B08C317F02A
:100A780009C318F0000E1A6E240E196E2BEC1DF027
:100A8800175003010E6F0F6B0AC317F00BC318F052
:100A9800010E1A6E440E196E2BEC1DF0175003014F
:100AA800106F116B9B0E1D6E7B0E1E6E49C31FF0DF
:100AB8004AC320F0D89003014935D96E03014A355D
:100AC800DA6E000ED926010EDA22DECF21F0DDCF54
:100AD80022F00CC323F00DC324F00EC325F00FC37E
:100AE80026F010C327F011C328F059EC13F00301C6
:100AF800404B412B030141BF72D70301415102E131
:100B080067D700D05E0E1D6E7B0E1E6E47C01FF0AD
:100B180048C020F059EC13F000D083BA06D0000E7C
:100B28000101D86F0A0ED76F00D083BC3AD0000EEF
:100B38004D6E340E126E030E136EEAEC1BF00301B9
:100B480034510301D8A414D0000E0001966F000E92
:100B58000001916F000E906F000E0101D86F040E16
:100B6800D76F330E1D6E7D0E1E6E59EC13F019D023
:100B7800D50E1D6E7C0E1E6E59EC13F0000E4D6ED8
:100B8800220E126E030E136EEAEC1BF0BEEC1BF085
:100B9800FE0E1D6E7E0E1E6E59EC13F092EC1BF0CD
:100BA80000D083B89EEF0FF0010E4D6E350E126E19
:100BB800030E136EEAEC1BF0030135510301D8A4B0
:100BC80015D0000E0001966F000E0001916F000E07
:100BD800906F000E0101D86F040ED76F040E1D6EC2
:100BE8007D0E1E6E59EC13F09EEF0FF0450E1D6E34
:100BF8007C0E1E6E59EC13F0230E126E030E136E4C
:100C0800EAEC1BF0BEEC1BF0600E1D6E7E0E1E6E35
:100C180059EC13F092EC1BF09EEF0FF08180808866
:100C2800818A83AA48D0000E0101D86F020ED76FBF
:100C3800000E0001856F010E846F000E0001606FC9
:100C4800000E616F000E626F000E636F000E0001F0
:100C5800646F000E656F000E666F000E676F000E02
:100C68000001686F000E696F000E6A6F000E6B6FEF
:100C7800000E00016C6F000E6D6F000E6E6F000E9F
:100C88006F6F000E0101806F000E816F000E826F82
:100C9800000E836F000E0001916F000E906F000E22
:100CA8000001836F000E826FDC0E1D6E7F0E1E6EBC
:100CB80059EC13F000D083B89EEF0FF086EC1DF0CE
:100CC800880E1D6E7E0E1E6E59EC13F0000E01018B
:100CD800D86F010EC1EF0DF09EEF0FF04D04D8A4B0
:100CE80004D00001B56BB52B02D00001B56B815063
:100CF8000001B519FE0BB519816E60C00FF061C017
:100D080010F062C011F063C012F0700E136E170E6F
:100D1800146E000E156E000E166E77EC18F012BEEB
:100D28000DD01250111006E1B90E0F5C0B0E1058C1
:100D3800D8A004D00001B56BB52B02D00001B56B6B
:100D48000001B53B80500001B519EF0BB519806E55
:100D58004D50D8A404D00001B56BB52B02D00001CA
:100D6800B56B0001B53BB54781500001B519DF0BE4
:100D7800B519816E000E1E6E000E1D6E000E206EDF
:100D8800000E1F6E82EC1CF083BA27D0E40E1D6E95
:100D98007D0E1E6E90C01FF091C020F059EC13F02C
:100DA800000E0101D86F050ED76F000E00016C6FA1
:100DB800000E6D6F000E6E6F000E6F6F000E00015B
:100DC800686F000E696F000E6A6F000E6B6F000E81
:100DD8000001856F010E846F00D083BC9EEF0FF079
:100DE800000191BF9EEF0FF00001915105E1000154
:100DF8009005D8A09EEF0FF0940E1D6E7F0E1E6E0C
:100E080059EC13F090C050F091C051F067EC1AF013
:100E1800000E0101D86F030EC1EF0DF09EEF0FF029
:100E280081808088818A83AC9EEF0FF0BDEF0DF042
:100E38009EEF0FF00001845100018511D8B40BD04A
:100E4800000E0001856F000E846F000E00017D6F9B
:100E5800000E7C6F00D04D04D8A404D00001B56BFF
:100E6800B52B02D00001B56B0001B53BB5478150E9
:100E78000001B519DF0BB519816E00017C51000125
:100E88007D11D8B404D00001B56BB52B02D0000198
:100E9800B56B0001B53B80500001B519EF0BB519D2
:100EA800806E4D50D8A404D00001B56BB52B02D08C
:100EB8000001B56B81500001B519FE0BB519816EA3
:100EC80000016BBF9EEF0FF000016B5100016A112A
:100ED8000001691106E1060E0001685DD8A09EEFC9
:100EE8000FF0A0EC1AF0DBEC0FF0000E0001686FB9
:100EF800000E696F000E6A6F000E6B6F92EC15F0B2
:100F080000017C5100017D11D8A48CD0D89000013B
:100F1800BC35D96E0001BD35DA6E000ED926010E3A
:100F2800DA22010EDBBE2DD0F50EDE5C010EDE5896
:100F3800D8A027D048BE05D0485011E14704D8B002
:100F48000ED047C0B5F048C0B6F00001B51FB61FB7
:100F5800B54BB62BB5C012F3B6C013F305D047C0D6
:100F680012F348C013F300D0030113BF43D00301A9
:100F7800135107E1320E0301125DD8B002D03AD006
:100F880000D0D8900001BA35D96E0001BB35DA6EB1
:100F9800000ED926010EDA22010EDBBE43D0F50E73
:100FA800DE5C010EDE58D8A03DD048BE05D04850C2
:100FB80011E14704D8B00ED047C0B5F048C0B6F02C
:100FC8000001B51FB61FB54BB62BB5C014F3B6C09C
:100FD80015F305D047C014F348C015F300D003013A
:100FE80015BF08D0030115511DE1320E0301145D30
:100FF800D8B018D0000E00017D6F010E7C6F000E76
:101008000001606F000E616F000E626F000E636F6B
:10101800000E00016C6F000E6D6F000E6E6F000EFB
:101028006F6F00D000017C0500017D11D8A41FD08E
:10103800000163BF1CD0000163510001621108E187
:10104800B10E0001605D040E00016159D8A00FD0F7
:10105800000E0001606F000E616F000E626F000EDF
:10106800636F000E00017D6F020E7C6F00D0020ED0
:1010780000017C1900017D11D8A49EEF0FF0D890D3
:101088000001BC35D96E0001BD35DA6E000ED926D7
:10109800010EDA22010EDBBE2DD0F50EDE5C010E4C
:1010A800DE58D8A027D048BE05D0485011E14704E3
:1010B800D8B00ED047C0B5F048C0B6F00001B51F93
:1010C800B61FB54BB62BB5C016F3B6C017F305D08F
:1010D80047C016F348C017F300D0030117BF46D026
:1010E8000301175107E1320E0301165DD8B002D093
:1010F8003DD000D0D8900001BA35D96E0001BB357B
:10110800DA6E000ED926010EDA22010EDBBE9EEF42
:101118000FF0F50EDE5C010EDE58D8A09EEF0FF042
:1011280048BE05D0485011E14704D8B00ED047C09A
:10113800B5F048C0B6F00001B51FB61FB54BB62BC9
:10114800B5C018F3B6C019F305D047C018F348C0A6
:1011580019F300D0030119BF09D00301195104E1A3
:10116800320E0301185DD8B09EEF0FF0280E136EF3
:10117800000E146E000E156E000E166E6CC00FF089
:101188006DC010F06EC011F06FC012F0A5EC17F032
:101198000FC024F310C025F311C026F312C027F3A3
:1011A80024C30FF025C310F026C311F027C312F093
:1011B800060E136E000E146E000E156E000E166EDF
:1011C800A5EC17F0D89000019035D96E0001913543
:1011D800DA6E000ED926020EDA220FC0DEFF10C02A
:1011E800DDFF0001904B912B000E0101D86F040E1A
:1011F800C1EF0DF09EEF0FF0000184510001851141
:10120800D8B46DD1000E126E020E116E90C00FF0A0
:1012180091C010F0DFEC19F0D8900F361036000EA0
:101228000F24D96E020E1020DA6EDECF17F0DDCF54
:1012380018F0000E1A6E280E196E2BEC1DF017C050
:1012480028F318C029F3000E126E020E116E90C01A
:101258000FF091C010F0DFEC19F0D8900F3610366F
:10126800000E0F24D96E020E1020DA6EDECF17F0B2
:10127800DDCF18F0000E1A6E280E196E2BEC1DF03B
:1012880017C02AF318C02BF3000E126E020E116E4F
:1012980090C00FF091C010F0DFEC19F0D8900F3625
:1012A8001036000E0F24D96E020E1020DA6EDECF33
:1012B80017F0DDCF18F0000E1A6E280E196E2BEC01
:1012C8001DF017C02CF318C02DF3000E126E020E7D
:1012D800116E90C00FF091C010F0DFEC19F0D890AB
:1012E8000F361036000E0F24D96E020E1020DA6E5B
:1012F800DECF17F0DDCF18F0000E1A6E280E196E2B
:101308002BEC1DF017C02EF318C02FF3000E126E31
:10131800020E116E90C00FF091C010F0DFEC19F0C2
:10132800D8900F361036000E0F24D96E020E1020FA
:10133800DA6EDECF17F0DDCF18F0000E1A6E280E29
:10134800196E2BEC1DF017C030F318C031F3000EE6
:10135800126E020E116E90C00FF091C010F0DFEC0B
:1013680019F0D8900F361036000E0F24D96E020EE1
:101378001020DA6EDECF17F0DDCF18F0000E1A6EEF
:10138800280E196E2BEC1DF017C032F318C033F37A
:101398001F0E1D6E7B0E1E6E90C00FF091C010F0D8
:1013A800000E126E020E116EDFEC19F00FC01FF066
:1013B80010C020F090C00FF091C010F0000E126E17
:1013C800020E116EDFEC19F0D8900F361036000EB1
:1013D8000F24D96E020E1020DA6EDECF21F0DDCF99
:1013E80022F02CC30FF02DC310F0000E126E020E67
:1013F800116EDFEC19F00FC0B5F010C0B6F02AC3BB
:101408000FF02BC310F0000E126E040E116EDFECFD
:1014180019F00F1E101E0F4A102A0F500001B52791
:1014280010500001B62328C30FF029C310F0000E96
:10143800126E100E116EDFEC19F00F1E101E0F4AFF
:10144800102A0F500001B525236E10500001B62157
:10145800246E32C30FF033C310F0000E126E020E6A
:10146800116EDFEC19F00FC0B7F010C0B8F030C340
:101478000FF031C310F0000E126E040E116EDFEC87
:1014880019F00F1E101E0F4A102A0F500001B7271F
:1014980010500001B8232EC30FF02FC310F0000E18
:1014A800126E100E116EDFEC19F00F1E101E0F4A8F
:1014B800102A0F500001B72710500001B823280E3A
:1014C8000001B725256E000E0001B821266E59ECE3
:1014D80013F0000E0001856F000E846F00D083BCEE
:1014E8000BD0000E0001856F010E846F000E010104
:1014F800D86F080ED76F00D000016BBF9EEF0FF0BA
:1015080000016B5100016A110001691106E10B0E1F
:101518000001685DD8A09EEF0FF0000E0001686F13
:10152800000E696F000E6A6F000E6B6FA0EC1AF068
:10153800DBEC0FF0000190A1A3D0C7C0B5F0C8C084
:10154800B6F0000E0001B6BFFF0EB76FB86F6CC0E3
:101558000FF06DC010F06EC011F06FC012F0060EE3
:10156800136E000E146E000E156E000E166EA5ECAE
:1015780017F00001B5510F5C0001B6511058000179
:10158800B75111581250800A0001B96F0001B851C3
:10159800800A0001B959D8B05FD021EEBAF0DECF89
:1015A800B5F0DDCFB6F00001B51FB61FB54BB62BB1
:1015B8000101B2510001B5270101B3510001B62361
:1015C800B5C01DF0B6C01EF0000E1EBEFF0E1F6E89
:1015D800206E060E136E000E146E000E156E000EB1
:1015E800166E6CC00FF06DC010F06EC011F06FC0B9
:1015F80012F0A5EC17F00FC021F010C022F011C0B6
:1016080023F012C024F065EC1BF01DC024F31EC0AB
:1016180025F31FC026F320C027F324C30FF025C3EA
:1016280010F026C311F027C312F0C7C013F0C8C0CA
:1016380014F0000E14BEFF0E156E166EA5EC17F012
:101648000101BA510F24496E0101BB5110204A6EA5
:101658008190819A809807D08180819A8098B2C1C0
:1016680049F0B3C14AF0A1C173F0A2C174F0A3C19B
:1016780075F08FC170F090C171F091C172F014D003
:101688008190819A8088BAC149F0BBC14AF0ADC146
:1016980073F0AEC174F0AFC175F09BC170F09CC11E
:1016A80071F09DC172F000D0ABEC16F000018251D0
:1016B80000018311D8A40CD2D8900001BC35D96E92
:1016C8000001BD35DA6E000ED926010EDA22010EB0
:1016D800DBBE2DD0F50EDE5C010EDE58D8A027D07B
:1016E80048BE05D0485011E14704D8B00ED047C0D5
:1016F800B5F048C0B6F00001B51FB61FB54BB62B04
:10170800B5C01AF3B6C01BF305D047C01AF348C0DA
:101718001BF300D003011BBF43D003011B5107E19A
:10172800320E03011A5DD8B002D03AD000D0D8905A
:101738000001BA35D96E0001BB35DA6E000ED92624
:10174800010EDA22010EDBBEC3D1F50EDE5C010EFE
:10175800DE58D8A0BDD148BE05D0485011E1470495
:10176800D8B00ED047C0B5F048C0B6F00001B51FDC
:10177800B61FB54BB62BB5C01CF3B6C01DF305D0CC
:1017880047C01CF348C01DF300D003011DBF08D09B
:1017980003011D5104E1320E03011C5DD8B098D13C
:1017A800000E0001836F010E826F000E0001606F52
:1017B800000E616F000E626F000E636F000E000175
:1017C8006C6F000E6D6F000E6E6F000E6F6F80787D
:1017D8000001904B912B000190A107D00E0E1D6EB9
:1017E8007E0E1E6E59EC13F068D1000E126E020EBA
:1017F800116E90C00FF091C010F0DFEC19F0D89086
:101808000F361036000E0F24D96E020E1020DA6E35
:10181800DECF17F0DDCF18F0000E1A6E280E196E05
:101828002BEC1DF017C028F318C029F3000E126E18
:10183800020E116E90C00FF091C010F0DFEC19F09D
:10184800D8900F361036000E0F24D96E020E1020D5
:10185800DA6EDECF17F0DDCF18F0000E1A6E280E04
:10186800196E2BEC1DF017C02AF318C02BF3000ECD
:10187800126E020E116E90C00FF091C010F0DFECE6
:1018880019F0D8900F361036000E0F24D96E020EBC
:101898001020DA6EDECF17F0DDCF18F0000E1A6ECA
:1018A800280E196E2BEC1DF017C02CF318C02DF361
:1018B800000E126E020E116E90C00FF091C010F063
:1018C800DFEC19F0D8900F361036000E0F24D96EC1
:1018D800020E1020DA6EDECF17F0DDCF18F0000E02
:1018E8001A6E280E196E2BEC1DF017C02EF318C0B7
:1018F8002FF3000E126E020E116E90C00FF091C001
:1019080010F0DFEC19F0D8900F361036000E0F24C7
:10191800D96E020E1020DA6EDECF17F0DDCF18F088
:10192800000E1A6E280E196E2BEC1DF017C030F33E
:1019380018C031F3000E126E020E116E90C00FF037
:1019480091C010F0DFEC19F0D8900F361036000E69
:101958000F24D96E020E1020DA6EDECF17F0DDCF1D
:1019680018F0000E1A6E280E196E2BEC1DF017C019
:1019780032F318C033F31F0E1D6E7B0E1E6E90C01F
:101988000FF091C010F0000E126E020E116EDFEC17
:1019980019F00FC01FF010C020F090C00FF091C0D8
:1019A80010F0000E126E020E116EDFEC19F0D890D6
:1019B8000F361036000E0F24D96E020E1020DA6E84
:1019C800DECF21F0DDCF22F02CC30FF02DC310F0B5
:1019D800000E126E020E116EDFEC19F00FC0B5F09A
:1019E80010C0B6F02AC30FF02BC310F0000E126E11
:1019F800040E116EDFEC19F00F1E101E0F4A102A8C
:101A08000F500001B52710500001B62328C30FF06E
:101A180029C310F0000E126E100E116EDFEC19F0D3
:101A28000F1E101E0F4A102A0F500001B525236EF5
:101A380010500001B621246E32C30FF033C310F0EA
:101A4800000E126E020E116EDFEC19F00FC0B7F027
:101A580010C0B8F030C30FF031C310F0000E126E92
:101A6800040E116EDFEC19F00F1E101E0F4A102A1B
:101A78000F500001B72710500001B8232EC30FF0F4
:101A88002FC310F0000E126E100E116EDFEC19F05D
:101A98000F1E101E0F4A102A0F500001B7271050B2
:101AA8000001B823280E0001B725256E000E00019D
:101AB800B821266E59EC13F000D0D70E1D6E7B0EA0
:101AC8001E6E90C01FF091C020F059EC13F000D0AA
:101AD8000001820500018311D8A41FD0000163BF53
:101AE8001CD0000163510001621108E1B10E000130
:101AF800605D040E00016159D8A00FD0000E0001EE
:101B0800606F000E616F000E626F000E636F000E53
:101B18000001836F000E826F00D0FF0E0001B56FC9
:101B2800FF0E0001B66F50C0B7F051C0B8F0D890A2
:101B38000001B737B8370001B5510001B7270001D8
:101B4800B6510001B823000190510001B71905E111
:101B5800000191510001B819D8A4ECD1EF0E1D6E07
:101B68007F0E1E6E59EC13F0000E0001856F010EFA
:101B7800846F000E0101D86F080ED76FDBD183BCCC
:101B88000BD0000E0001856F010E846F000E01015D
:101B9800D86F080ED76F00D08180819A00016BBF83
:101BA800C9D100016B5100016A110001691105E1F9
:101BB800060E0001685DD8A0BDD1000E0001686F57
:101BC800000E696F000E6A6F000E6B6FA0EC1AF0C2
:101BD800DBEC0FF000D0000190B105D0000E03013E
:101BE800436F000E04D0000E0301436F010E426FD5
:101BF80000D0D89003014235D96E03014335DA6E1F
:101C0800B00ED926010EDA22DECF44F3DDCF45F33C
:101C180042C317F043C318F0000E1A6E030E196E74
:101C28002BEC1DF09E0E1724D96E010E1820DA6ECB
:101C3800DECF00F3DECF01F3DDCF02F342C317F0AE
:101C480043C318F0000E1A6E030E196E2BEC1DF02C
:101C58008C0E1724D96E010E1820DA6EDECF03F32E
:101C6800DECF04F3DDCF05F345C0B5F046C0B6F0CE
:101C78000001B51FB61FB54BB62B47500001B5255F
:101C8800416E48500001B621426E03C31EF004C3E2
:101C98001FF005C320F041C017F042C018F0E4EC73
:101CA8001CF017C01BF018C01CF019C01DF029EC5F
:101CB80017F01BC02DF01CC02EF01DC02FF000C364
:101CC8001EF001C31FF002C320F047C017F048C040
:101CD80018F0E4EC1CF017C01BF018C01CF019C079
:101CE8001DF029EC17F01BC02AF01CC02BF01DC0FA
:101CF8002CF0B0EC14F02AC036F02BC037F02CC012
:101D080038F024EC16F036C043F037C044F044BE37
:101D18001FD0445003E14304D8A01AD043C0B5F003
:101D280044C0B6F00001B51FB61FB54BB62B030172
:101D380044510001B5251D6E030145510001B6212E
:101D48001E6E44C31FF045C320F082EC1CF00FD078
:101D580044C31DF045C31EF04350030144251F6EC4
:101D6800445003014521206E82EC1CF000D0000194
:101D7800825100018311D8A487D0D8900001BC35C6
:101D8800D96E0001BD35DA6E000ED926010EDA22B1
:101D9800010EDBBE2DD0F50EDE5C010EDE58D8A09C
:101DA80027D048BE05D0485011E14704D8B00ED01E
:101DB80047C0B5F048C0B6F00001B51FB61FB54B17
:101DC800B62BB5C01EF3B6C01FF305D047C01EF32F
:101DD80048C01FF300D003011FBF43D003011F51A8
:101DE80007E1320E03011E5DD8B002D03AD000D010
:101DF800D8900001BA35D96E0001BB35DA6E000EF5
:101E0800D926010EDA22010EDBBE3ED0F50EDE5CCD
:101E1800010EDE58D8A038D048BE05D0485011E190
:101E28004704D8B00ED047C0B5F048C0B6F000019E
:101E3800B51FB61FB54BB62BB5C020F3B6C021F3FE
:101E480005D047C020F348C021F300D0030121BFCB
:101E580008D00301215118E1320E0301205DD8B0EA
:101E680013D0000E0001836F010E826F000E000177
:101E7800606F000E616F000E626F000E636F8078F6
:101E88000001904B912B00D00001820500018311C5
:101E9800D8A41FD0000163BF1CD00001635100010A
:101EA800621108E1B90E0001605D0B0E0001615975
:101EB800D8A00FD0000E0001606F000E616F000EF9
:101EC800626F000E636F000E0001836F000E826F59
:101ED80000D0070E0001901900019111D8A40BD071
:101EE800000E0001856F010E846F000E0101D86F8E
:101EF800080ED76F00D0000167BF17D000016751E7
:101F08000001661108E1E90E0001645D030E00019D
:101F18006559D8A00AD0000E0001646F000E656FE5
:101F2800000E666F000E676F00D047C045F048C0CE
:101F380046F000D0D7C1B5F0D8C1B6F00001B6510F
:101F4800000AD8A4F7D70001B551000AD8B44BEF5E
:101F580000F0010AD8B4F6EF03F0030AD8B400EF92
:101F680009F0010AD8B414EF07F0070AD8B472EFE1
:101F780006F0010AD8B41EEF07F0030AD8B427EF19
:101F880002F0010AD8B481EF01F00F0AD8B400EFCB
:101F980004F0010AD8B444EF02F0030AD8B412EFEF
:101FA80006F0010AD8B4EBD5C5D70CEF00F0000E47
:101FB80000019B6F000E9C6F000E9D6F000E9E6FC0
:101FC800000E00019F6F000EA06F000EA16F000EA3
:101FD800A26F000E0001A36F000E0001A76F000E94
:101FE800A66F0001A7BF0AD00001A75106E1050EA0
:101FF8000001A65DD8B0C6D101D0C4D1D8900001E7
:10200800A635D96E0001A735DA6EBC0ED926010EA9
:10201800DA22DECFA8F0DDCFA9F0D8900001A835EC
:10202800D96E0001A935DA6E200ED926010EDA2202
:10203800DECF29F0DDCF2AF029C0ACF02AC0ADF000
:102048000001AE6BAF6BD8900001A835D96E0001C6
:10205800A935DA6E600ED926010EDA22DECF29F014
:10206800DDCF2AF029502B6E2A502C6E2D6A2E6A4D
:102078002B500001AC5D2C500001AD592D500001D2
:10208800AE590001AF51800A2F6E2E50800A2F588A
:10209800D8B017D0D8900001A835D96E0001A9355D
:1020A800DA6E600ED926010EDA22DECF29F0DDCFF6
:1020B8002AF029C0ACF02AC0ADF00001AE6BAF6BBE
:1020C80000D0D8900001A835D96E0001A935DA6E84
:1020D800400ED926010EDA22DECF29F0DDCF2AF014
:1020E80029502B6E2A502C6E2D6A2E6A0001AC5195
:1020F8002B5C0001AD512C580001AE512D582E50CB
:10210800800A2F6E0001AF51800A2F58D8B017D01F
:10211800D8900001A835D96E0001A935DA6E400EB5
:10212800D926010EDA22DECF29F0DDCF2AF029C028
:10213800ACF02AC0ADF00001AE6BAF6B00D0D89008
:102148000001A835D96E0001A935DA6E600ED926CE
:10215800010EDA22DECF29F0DDCF2AF029502B6ECE
:102168002A502C6E2D6A2E6A2B500001AC5F2C5021
:102178000001AD5B2D500001AE5B2E500001AF5B3E
:10218800ACC01DF0ADC01EF0AEC01FF0AFC020F057
:10219800E80E216E030E226E000E236E000E246ED2
:1021A80065EC1BF01DC0ACF01EC0ADF01FC0AEF05A
:1021B80020C0AFF0ACC00FF0ADC010F0AEC011F051
:1021C800AFC012F0D8900001A835D96E0001A9352A
:1021D800DA6E400ED926010EDA22DECF29F0DDCFE5
:1021E8002AF0D8900001A835D96E0001A935DA6E19
:1021F800600ED926010EDA22DECF2BF0DDCF2CF0CF
:102208002B1E2C1E2B4A2C2A29502B262A502C22D6
:102218002BC013F02CC014F0156A166AA5EC17F041
:102228000FC0ACF010C0ADF011C0AEF012C0AFF0EE
:10223800ACC029F0ADC02AF0AEC02BF0AFC02CF076
:10224800291E2A1E2B1E2C1E292A000E2A222B226A
:102258002C22E80E29240001AC6F030E2A2000016D
:10226800AD6F000E2B200001AE6F000E2C20000178
:10227800AF6F0001AFBF0CD00001AF510001AE112C
:102288000001AD110FE1320E0001AC5DD8B00AD0EB
:10229800000E0001AC6F000EAD6F000EAE6F000EA9
:1022A800AF6F00D0D8900001A835D96E0001A935CC
:1022B800DA6E000ED926010EDA22ACC0DEFFADC000
:1022C800DDFFD8900001A635D96E0001A735DA6E7A
:1022D800C60ED926010EDA22DECF97F0DDCF98F0B0
:1022E8000001000E98BFFF0E996F9A6FACC01DF0E9
:1022F800ADC01EF0AEC01FF0AFC020F097C021F0F7
:1023080098C022F099C023F09AC024F065EC1BF025
:102318001D5000019B271E5000019C231F500001E7
:102328009D23205000019E230001AC5100019F27EE
:102338000001AD510001A0230001AE510001A1230D
:102348000001AF510001A2230001AFBF10D000016E
:10235800AF510001AE110001AD1105E1C90E000138
:10236800AC5DD8A004D0010E0001A36F00D000011D
:10237800A64BA72B0001A7BF41D60001A75102E138
:1023880036D600D0000E0001A56F000EA46F000124
:10239800A5BF0AD00001A55106E1020E0001A45D07
:1023A800D8B057D101D055D1D8900001A435D96EF5
:1023B8000001A535DA6EBA0ED926000EDA22DECF74
:1023C800AAF0DDCFABF0D8900001AA35D96E000194
:1023D800AB35DA6E200ED926010EDA22DECF29F0CF
:1023E800DDCF2AF029C0ACF02AC0ADF00001AE6BF9
:1023F800AF6BD8900001AA35D96E0001AB35DA6E03
:10240800600ED926010EDA22DECF29F0DDCF2AF0C0
:1024180029502B6E2A502C6E2D6A2E6A2B500001E3
:10242800AC5D2C500001AD592D500001AE59000192
:10243800AF51800A2F6E2E50800A2F58D8B017D06F
:10244800D8900001AA35D96E0001AB35DA6E600E5E
:10245800D926010EDA22DECF29F0DDCF2AF029C0F5
:10246800ACF02AC0ADF00001AE6BAF6B00D0D890D5
:102478000001AA35D96E0001AB35DA6E400ED926B7
:10248800010EDA22DECF29F0DDCF2AF029502B6E9B
:102498002A502C6E2D6A2E6A0001AC512B5C00016B
:1024A800AD512C580001AE512D582E50800A2F6E78
:1024B8000001AF51800A2F58D8B017D0D89000012A
:1024C800AA35D96E0001AB35DA6E400ED926010E59
:1024D800DA22DECF29F0DDCF2AF029C0ACF02AC0FD
:1024E800ADF00001AE6BAF6B00D0D8900001AA35FB
:1024F800D96E0001AB35DA6E600ED926010EDA22EC
:10250800DECF29F0DDCF2AF029502B6E2A502C6E11
:102518002D6A2E6A2B500001AC5F2C500001AD5B78
:102528002D500001AE5B2E500001AF5BACC01DF01A
:10253800ADC01EF0AEC01FF0AFC020F0E80E216E97
:10254800030E226E000E236E000E246E65EC1BF047
:102558001DC0ACF01EC0ADF01FC0AEF020C0AFF083
:10256800ACC00FF0ADC010F0AEC011F0AFC012F0AB
:10257800D8900001AA35D96E0001AB35DA6E400E4D
:10258800D926010EDA22DECF29F0DDCF2AF0D89045
:102598000001AA35D96E0001AB35DA6E600ED92676
:1025A800010EDA22DECF2BF0DDCF2CF02B1E2C1EF5
:1025B8002B4A2C2A29502B262A502C222BC013F0C8
:1025C8002CC014F0156A166AA5EC17F00FC0ACF011
:1025D80010C0ADF011C0AEF012C0AFF0ACC029F021
:1025E800ADC02AF0AEC02BF0AFC02CF0291E2A1EB9
:1025F8002B1E2C1E292A000E2A222B222C22E80E02
:1026080029240001AC6F030E2A200001AD6F000ED3
:102618002B200001AE6F000E2C200001AF6FD89068
:102628000001AA35D96E0001AB35DA6E000ED92645
:10263800010EDA22ACC0DEFFADC0DDFF0001A44B05
:10264800A52B0001A5BFB0D60001A55102E1A5D672
:1026580000D00001A3510001D8A410D048BE05D075
:10266800485007E14704D8B004D0FF0E486E380E32
:1026780003D0000E486EC80E476E16D09BC00FF0F0
:102688009CC010F09DC011F09EC012F09FC013F0C6
:10269800A0C014F0A1C015F0A2C016F0A5EC17F068
:1026A8000FC047F010C048F012001F0E2E6E000E2B
:1026B8002F6E43D1250E3518D8B404D03550ADEC63
:1026C8001DF03BD1000E346E000E336E000E326EDC
:1026D80005D032841D4A1E2A01D00BD01DC0F6FF3A
:1026E8001EC0F7FF0800F550300AD8B4F2D701D061
:1026F800F5D71DC0F6FF1EC0F7FF0800F55065ECC2
:102708001DF0D8A03AD0000E346E000E336E00D003
:1027180033C017F034C018F0000E1A6E0A0E196E86
:102728002BEC1DF017C033F018C034F0D00E296E12
:10273800FF0E2A6E1DC0F6FF1EC0F7FF0800F550F9
:102748002B6E2C6A29502B262A502C222B503326EC
:102758002C5034221D4A1E2A1DC0F6FF1EC0F7FF4A
:102768000800F55065EC1DF0D8A007D0D1D705D0EA
:10277800F2D01AD0E2D0328C17D01DC0F6FF1EC09E
:10278800F7FF1D4A1E2A0800F5CF35F03550000A1C
:10279800D8B4E1D0640AD8B407D00D0AD8B404D0AC
:1027A8001C0AD8B4E8D7C9D032BC15D02EC0D9FF7E
:1027B8002FC0DAFFDECF30F0DDCF31F0020E2E264B
:1027C800000E2F2231AE14D0030E3212306C311E9F
:1027D800D8B0312A0DD02EC0D9FF2FC0DAFFDECFF6
:1027E80030F0DDCF31F0020E2E26000E2F2200D061
:1027F800010E356E050E3518D8B416D001D014D098
:102808003550020D150EF324F66E7B0EF420F76E8C
:102818000900F550305C0900F5503158D8A004D0B3
:1028280001D002D0352AE6D733503410D8B40AD0B4
:1028380032C029F0030E2916D8B404D03306D8A024
:10284800340600D0800E35BE7F0E296E3350355CBD
:102858003450800A2958D8B007D03550335E000E5E
:1028680035BEFF0E345A05D0000E346E000E336E9E
:1028780000D032A41AD032C029F0030E2916D8B4D9
:1028880004D02D0EADEC1DF000D033503410D8B468
:1028980026D0300EADEC1DF03306D8A034063350E8
:1028A8003410D8B41CD0F5D71AD033503410D8B45B
:1028B8000CD0200EADEC1DF03306D8A034063350F2
:1028C8003410D8B402D0F5D700D032C029F0030EA6
:1028D8002916D8B404D02D0EADEC1DF000D035C0AB
:1028E8002DF025D02D50020D150EF324F66E7B0E1B
:1028F800F420F76E0900F5CF11F00A00F5CF12F0B9
:1029080030C00FF031C010F00AEC1BF00FC016F009
:1029180010C017F0000E196E0A0E186E12EC1CF09B
:102928001650300F356E3550ADEC1DF000D02D0629
:102938002D28D8B402D0D6D700D01DC0F6FF1EC0AF
:10294800F7FF1D4A1E2A0800F5CF35F03550D8B4D8
:1029580002D0B0D600D012002CC030F0316A326AF2
:102968002B34303601E331803050356E2FC030F0D3
:10297800316A326A2E34303601E331803050346E99
:102988003550D8B40BD03450355CD8B00ED0355053
:1029980000083424306E180E306407D02DC02AF099
:1029A8002EC02BF02FC02CF0B8D03450D8B40BD098
:1029B8003550345CD8B00ED0345000083524306E11
:1029C800180E306407D02AC02AF02BC02BF02CC078
:1029D8002CF0A3D0060E336E2CAE02D0338E00D06E
:1029E8002FBE338C2B8EFF0E2A16FF0E2B16000ED1
:1029F8002C162E8EFF0E2D16FF0E2E16000E2F16DD
:102A08003450355CD8B01ED0D8902D362E362F369F
:102A1800340635503418D8B40FD0330633C030F0EC
:102A2800070E3016D8B408D0EFD706D0D8902C327D
:102A38002B322A32352A00D034503518D8B424D055
:102A4800F5D722D03550345CD8B01ED0D8902A366D
:102A58002B362C36350635503418D8B40FD03306FB
:102A680033C030F0070E3016D8B408D0EFD706D0F0
:102A7800D8902F322E322D32342A00D034503518C7
:102A8800D8B402D0F5D700D033AE0CD0FF0E2A1A36
:102A9800FF0E2B1AFF0E2C1A010E2A26000E2B22CF
:102AA800000E2C2233AC0DD0FF0E2D1AFF0E2E1A5D
:102AB800FF0E2F1A010E2D26000E2E22000E2F2299
:102AC80000D0000E336E2A502D262B502E222C506B
:102AD8002F222FAE0FD0FF0E2D1AFF0E2E1AFF0E2B
:102AE8002F1A010E2D26000E2E22000E2F22010E67
:102AF800336E00D02DC00FF02EC010F02FC011F093
:102B080035C012F033C013F014EC18F00FC02AF0DF
:102B180010C02BF011C02CF000D01200B4C1A3F0EB
:102B2800B5C1A4F0A4C19DF0A5C19EF0A6C19FF0B7
:102B380092C1A0F093C1A1F094C1A2F045C03FF0AA
:102B480046C040F03F1E401E3F4A402A47503F249F
:102B5800416E48504020426EA0C01EF0A1C01FF038
:102B6800A2C020F041C017F042C018F0E4EC1CF0FD
:102B780017C01BF018C01CF019C01DF029EC17F085
:102B88001BC02DF01CC02EF01DC02FF09DC01EF0E4
:102B98009EC01FF09FC020F047C017F048C018F033
:102BA800E4EC1CF017C01BF018C01CF019C01DF095
:102BB80029EC17F01BC02AF01CC02BF01DC02CF00C
:102BC800B0EC14F02AC036F02BC037F02CC038F027
:102BD80024EC16F036C043F037C044F044BE1CD095
:102BE800445003E14304D8A017D043C03FF044C089
:102BF80040F03F1E401E3F4A402A0001A3513F2497
:102C08001D6E0001A45140201E6EA3C01FF0A4C079
:102C180020F082EC1CF00FD0A3C01DF0A4C01EF061
:102C280043500001A3251F6E44500001A421206ECB
:102C380082EC1CF000D047C045F048C046F01200B6
:102C480038C03AF03B6A3C6A37343A3601E33B8095
:102C58003A5000019C6F00019C51D8A402D044D086
:102C680075D0170E3A6E36C03BF037C03CF038C00E
:102C78003DF03A283E6E04D0D8903D323C323B328B
:102C88003E2EFAD73B500001976F378EFF0E36164F
:102C9800FF0E3716000E381636500001986F375061
:102CA8000001996F385000019A6F00019B6B8E0EDE
:102CB80000019C5F00019CAF13D000019C51800A69
:102CC8008F0FD8B003D010D041D000D00001D890D9
:102CD8009B339A339933983300019C3FF7D71ED022
:102CE800170E00019C6513D0000E366E000E376E6D
:102CF800000E386E000E396E29D009D00001D89028
:102D0800983799379A379B3700019C0700D0000104
:102D18009C510001D8B402D0F1D700D000019751DE
:102D28000001D8B40AD000019B1F9A1F991F986D03
:102D3800000E99239A239B2300D098C036F099C09F
:102D480037F09AC038F09BC039F000D0120045C067
:102D58003FF046C040F03F1E401E3F4A402A4750C1
:102D68003F24416E48504020426E70C01EF071C032
:102D78001FF072C020F041C017F042C018F0E4EC18
:102D88001CF017C01BF018C01CF019C01DF029EC6E
:102D980017F01BC02DF01CC02EF01DC02FF073C003
:102DA8001EF074C01FF075C020F047C017F048C06F
:102DB80018F0E4EC1CF017C01BF018C01CF019C088
:102DC8001DF029EC17F01BC02AF01CC02BF01DC009
:102DD8002CF0B0EC14F02AC036F02BC037F02CC021
:102DE80038F024EC16F036C043F037C044F044BE47
:102DF8001AD0445003E14304D8A015D043C03FF093
:102E080044C040F03F1E401E3F4A402A49503F24DC
:102E18001D6E4A5040201E6E49C01FF04AC020F067
:102E280082EC1CF00DD049C01DF04AC01EF0435082
:102E380049241F6E44504A20206E82EC1CF000D0BA
:102E480047C045F048C046F012001DC021F0226A74
:102E5800236A1C34213601E322802150246E245039
:102E6800D8A402D00ED06CD020C021F0226A236AE8
:102E78001F34213601E322802150296E2950D8A41D
:102E880007D0000E1B6E000E1C6E000E1D6E58D073
:102E980029507B0F24261DC029F02050291A800EA6
:102EA80029161C8E1F8EFF0E1E16FF0E1F16000EF3
:102EB8002016000E256E000E266E000E276E070ED9
:102EC800286E00D01BA007D01E5025261F50262292
:102ED8002050272200D0D8901D321C321B32D890A7
:102EE8001E361F362036282EEDD700D0090E286E44
:102EF80000D01BA007D01E5025261F502622205088
:102F0800272200D0D8901D321C321B32D89027328D
:102F180026322532282EEDD700D025C00FF026C046
:102F280010F027C011F024C012F029C013F014ECDF
:102F380018F00FC01BF010C01CF011C01DF000D01D
:102F48001200000E186E16AE0BD0161E151E141E9B
:102F5800136C000E142215221622010E186E00D0D2
:102F680012AE0BD0121E111E101E0F6C000E102276
:102F780011221222010E181A00D0000E196E000E2E
:102F88001A6E000E1B6E000E1C6E135014101510D6
:102F98001610D8B42FD0010E176E07D0D89013365C
:102FA800143615361636172A00D016BE02D0F6D7B4
:102FB80000D0D89019361A361B361C3613500F5CC1
:102FC800145010581550115816501258D8A00AD03D
:102FD80013500F5E1450105A1550115A1650125AA9
:102FE800198000D0D8901632153214321332172EA9
:102FF800E0D700D01850D8B409D01C1E1B1E1A1ECA
:10300800196C000E1A221B221C2200D019C00FF0C6
:103018001AC010F01BC011F01CC012F000D0120032
:103028001250D8B405D00F5010101110D8A40ED0DB
:10303800000E0F6E000E106E000E116E53D006D0EB
:10304800122AD890113210320F3200D0000E0F140D
:10305800146E000E1014156EFE0E1114166E145018
:1030680015101610D8B40ED0EBD70CD0122A010EBA
:103078000F26000E1022000E1122D89011321032A5
:103088000F3200D0000E0F14146E000E1014156EBF
:10309800FF0E1114166E145015101610D8B408D05F
:1030A800E5D706D01206D8900F361036113600D064
:1030B80010BE04D0020E1260F5D700D012B002D0B4
:1030C800109E00D0D8901232125011121350D8B45A
:1030D80002D0118E00D00FC00FF010C010F011C038
:1030E80011F000D01200000E186E12AE0BD0121E96
:1030F800111E101E0F6C000E102211221222010E3A
:10310800186E00D016AE09D0161E151E141E136CAC
:10311800000E14221522162200D013501410151078
:103128001610D8B429D0010E176E07D0D8901336D0
:10313800143615361636172A00D016BE02D0F6D722
:1031480000D013500F5C14501058155011581650D9
:103158001258D8A009D013500F5E1450105A1550A9
:10316800115A1650125A00D0D8901632153214320D
:103178001332172EE6D700D01850D8B409D0121E33
:10318800111E101E0F6C000E10221122122200D0E8
:103198000FC00FF010C010F011C011F012C012F0E3
:1031A80000D012000600EACF04F0E1CF05F0E2CF2C
:1031B80006F0D9CF07F0DACF08F0F3CF09F0F4CF53
:1031C8000AF0F6CF0BF0F7CF0CF0F8CF0DF0F5CFF3
:1031D8000EF0F2A429D0010E00016027000E612331
:1031E80062236323010E00016427000E6523662312
:1031F8006723010E00016827000E69236A236B23E9
:10320800010E00016C27000E6D236E236F23010E43
:1032180001018027000E812382238323F80ED76EB5
:103228002F0ED66EF29400D00EC0F5FF0DC0F8FF39
:103238000CC0F7FF0BC0F6FF0AC0F4FF09C0F3FF8C
:1032480008C0DAFF07C0D9FF06C0E2FF05C0E1FFEA
:1032580004C0EAFF03C0E9FF02C0FBFF01C0FAFF98
:103268001100176C181ED8B0182A18BE0BD0E80E1B
:10327800175C030E1858D8A005D0030E186EE80E78
:10328800176E00D018AE0BD0190E175CFC0E18582C
:10329800D8B005D0FC0E186E180E176E00D018BEE8
:1032A80005D0185006E11704D8B003D0196A192AB6
:1032B80001D0196A1946194683501918FB0B1918B9
:1032C800836E18BE05D018500AE11704D8B007D08D
:1032D800E80E1724176E030E1820186E00D017C0BA
:1032E80019F0030E1916193ABA501918CF0B1918F4
:1032F800BA6E17C00FF018C010F0000E126E040E50
:10330800116EDFEC19F00F50BB6E1200176C181E0F
:10331800D8B0182A18BE0BD0E80E175C030E185840
:10332800D8A005D0030E186EE80E176E00D018AEA0
:103338000BD0190E175CFC0E1858D8B005D0FC0E2F
:10334800186E180E176E00D018BE05D0185006E17A
:103358001704D8B003D0196A192A01D0196A194676
:1033680083501918FD0B1918836E18BE05D0185014
:103378000AE11704D8B007D0E80E1724176E030E19
:103388001820186E00D017C019F0030E1916193A34
:103398001946BD501918DF0B1918BD6E17C00FF06C
:1033A80018C010F0000E126E040E116EDFEC19F04A
:1033B8000F50BE6E1200000E146E12AE07D0116CC4
:1033C800121ED8B0122A010E146E00D010AE07D00B
:1033D8000F6C101ED8B0102A010E141A00D0000E5F
:1033E800166E000E156E11501210D8B421D0010EB1
:1033F800136E05D0D89011361236132A00D012BE9B
:1034080002D0F8D700D0D8901536163611500F5C78
:1034180012501058D8A006D011500F5E1250105AF2
:10342800158000D0D89012321132132EECD700D06C
:103438001450D8B405D0156C161ED8B0162A00D072
:1034480015C00FF016C010F000D0120002EE00F008
:10345800C80EEE6AE806FDE101EE00F08C0EEE6A99
:10346800E806FDE100EE60F0370EEE6AE806FDE1E1
:1034780000EE41F0110EEE6AE806FDE1700EF66E00
:10348800380EF76E000EF86E01EE8CF010EE4BF071
:103498000900F5CFEEFFE550E150FAE1360EF66E81
:1034A8003B0EF76E000EF86E00EEBAF010EE13F059
:1034B8000900F5CFEEFFE550E150FAE1000EF86E95
:1034C80000010EEF00F04D50D8A404D0000E3B6E62
:1034D800000E03D0000E3B6E800E3A6E00D03AC04C
:1034E8003CF050C00FF03C503FEC1DF0000E3E6E1B
:1034F800000E3D6E14D0D8903D34D96E3E34DA6E4D
:10350800000ED926020EDA22DF500F6E3C503D2401
:10351800396E39283FEC1DF03D4A3E2A00D0505004
:103528003D5C3E50800A396E5150800A3958D8A007
:10353800E2D792EC1BF01200000E1A6E0A0E1A6403
:1035480001D030D01AC017F017461746C2501718C6
:10355800C30B1718C26EC28200D0C2B2FED7C450C5
:10356800040DF3CF18F0F4CF19F0C3CF0FF0106AA1
:10357800000E126E400E116EDFEC19F018500F2479
:10358800186E19501020196E1A50020D200EF324CF
:10359800D96E010EF420DA6E18C0DEFF19C0DDFF07
:1035A8001A2ACCD71200D59ED59CD59AD586F80E66
:1035B800D76E2F0ED66EF184D09EF28AF28ED58EFB
:1035C800CD90CD9ECD9CCF0ECD16CD96CD92CD80F3
:1035D800F80ECF6E2F0ECE6E939A92989390958890
:1035E800958A958C959295949580959694929494B5
:1035F8009280928292849286928A9680968296840B
:1036080093849382949C948E848E1200000E156E7F
:10361800000E146E11501210D8B421D0010E136E82
:1036280005D0D89011361236132A00D012BE02D017
:10363800F8D700D0D8901436153611500F5C1250B8
:103648001058D8A006D011500F5E1250105A14808E
:1036580000D0D89012321132132EECD700D014C0FB
:103668000FF015C010F01200000E4C6E000E4B6EDD
:103678004CBE08D04C5024E10B0E4B5CD8B020D087
:1036880001D01ED0D8904B34D96E4C34DA6E400E2F
:10369800D926010EDA22000EDE6E000EDD6ED890FD
:1036A8004B34D96E4C34DA6E600ED926010EDA220C
:1036B800000EDE6E040EDD6E4B4A4C2AD9D700D0C0
:1036C8001200000E256E000E266E000E276E000EEC
:1036D800286E00D01DA009D0215025262250262270
:1036E800235027222450282200D0D8902136223671
:1036F80023362436D89020321F321E321D321D50F8
:103708001E101F102010D8A4E5D725C01DF026C014
:103718001EF027C01FF028C020F01200000E386EDF
:10372800000E376E1CD0B80E1D6E7F0E1E6E010E79
:1037380037241F6E000E3820206ED8903734D96E8B
:103748003834DA6E000ED926020EDA22DECF21F0E6
:10375800DDCF22F059EC13F0374A382A00D0505008
:10376800375C3850800A366E5150800A3658D8A0D7
:10377800DAD71200500E126E000E136EA4EC1CF075
:10378800000E1F6E000E1E6E16D01EC012F01FC057
:1037980013F01EC01CF01FC01DF0D8901C361D363B
:1037A800000E1C24146E020E1D20156E5EEC1CF01B
:1037B8001E4A1F2A00D050501E5C1F50800A1C6EE3
:1037C8005150800A1C58D8A0E0D712004D50D8A4F8
:1037D80008D0150E0F6E000E106E000E76EC1DF060
:1037E8000BD04D04D8A408D0150E0F6E000E106E25
:1037F800800E76EC1DF000D0000E146E1550D8B473
:1038080006D01528D8B403D0010E146E00D012C00B
:10381800D9FF13C0DAFF14C0DFFF120018501910C7
:10382800D8B41DD0010E1A6E05D0D89018361936A6
:103838001A2A00D019BE02D0F8D700D01850165C4A
:1038480019501758D8A005D01850165E1950175A95
:1038580000D0D890193218321A2EF0D700D016C0DE
:1038680016F017C017F01200004842008C4200F012
:103878004100484200484200484200A04000D04071
:1038880000C04000C04000C04000C040C20120034A
:10389800A401E80318FCC2010600050004000300A7
:1038A800020038FF9CFF00006400C800C800000048
:1038B80000A041004D50D8A404D0000E1A6E000E8E
:1038C80003D0000E1A6E800E196E00D019C018F0C1
:1038D8001B0E0F6E000E106E18501224166E16284E
:1038E80076EC1DF01B50166E176A14C0D9FF15C070
:1038F800DAFF16C0DEFF17C0DDFF120005D01FC0BB
:1039080021F020C022F005D01DC021F01EC022F0F9
:1039180000D021C017F022C018F08AEC19F01FC09F
:1039280023F020C024F005D01DC023F01EC024F0D1
:1039380000D023C017F024C018F035EC19F012009D
:103948004D50D8A404D0000E186E000E03D0000EFF
:10395800186E800E176E00D017C016F0190E0F6E75
:10396800000E106E165076EC1DF01950146E156A84
:1039780012C0D9FF13C0DAFF14C0DEFF15C0DDFF87
:103988001200CA96CA98CA9ACA9CCA84CA90CA928D
:10399800CA84CA50870B5809CA6ECA50FC0B010961
:1039A800CA6ECA94F90ECB6ECA84BD50F00B0C09CE
:1039B800BD6EBA50F00B0C09BA6EF90ECB6E120040
:1039C800000E1A6E18AE07D0176C181ED8B0182A39
:1039D800010E1A6E00D017C00FF018C010F0116A4F
:1039E8008E0E126E1AC013F014EC18F00FC017F0F8
:1039F80010C018F011C019F000D01200C19AC19877
:103A0800C196C184C192C190C09EC086C088C08A38
:103A1800C050F80B0609C06EC294C296C298C29AEA
:103A2800C292C2801200000E0001606F000E616F2A
:103A3800000E626F000E636F91EC1DF0A5EC1DF097
:103A480002EC1DF0D7EC1AF0C5EC1CF01200175070
:103A58001902F3CF1BF0F4CF1CF017501A02F350E1
:103A68001C2618501902F3501C261BC017F01CC046
:103A780018F000D01200106E10C0A9FF0FC0A8FFE8
:103A8800A69EA69CA684F29E550EA76EAA0EA76EA9
:103A9800A682F28E00D0A6B2FED7A6941200B89ADB
:103AA800B898B886B892B890330EAF6E000EB06E64
:103AB800AC9EAC9CAC8AAC98AC94AB9CAB88AB8EFF
:103AC8001200116E000E106E3A0E116006D02F0E05
:103AD800116403D0010E106E00D010C00FF00F302B
:103AE80000D01200116E11C0A9FFA69EA69CA68048
:103AF80000D0A6B0FED70FC0D9FF10C0DAFFA8CFFC
:103B0800DFFF1200000E0F6E000E3FEC1DF0000EDE
:103B18000F6E800E3FEC1DF01200000E0001606F6A
:103B2800000E616F000E626F000E636F12000100DD
:103B3800070000000000000000E040F4010802F463
:103B48000100D388D38AD38C070EB46E6D966F8626
:103B580012000F6E00D09EA8FED70FC0ADFF120056
:107B14000001000A006400E80310277B27434F4D4F
:107B2400273A276C696E65272C2776616C75652763
:107B34003A27456E746572696E67207265637420B6
:107B44006628256929203D202825692920282569BA
:107B5400292028256929277D0A007B27434F4D27A3
:107B64003A27706C6F74272C276E616D65273A274E
:107B74006C696E65272C2776616C7565273A2569D3
:107B84002C27636F6C6F72273A28302C3130302CDD
:107B9400323030297D0A007B27434F4D273A277026
:107BA4006C6F74272C276E616D65273A27532569FE
:107BB400272C2776616C7565273A25692C20276365
:107BC4006F6C6F72273A2825642C25642C25642950
:107BD4007D0A007B27434F4D273A27536574746C05
:107BE40065272C276E616D65273A274172656120F0
:107BF4002569272C27636F6C6F72273A2831303040
:107C04002C3130302C323535297D0A007B27434F07
:107C14004D273A276C696E65272C2776616C75654C
:107C2400273A27535B2025303475205D203A205BAA
:107C340025303475202C2025303475205D277D0AAD
:107C4400007B27434F4D273A276C696E65272C2705
:107C540076616C7565273A2753656C656374696E44
:107C64006720475245454E206D656D6F7279277DBB
:107C74000A007B27434F4D273A276C696E65272CF2
:107C84002776616C7565273A275772697474696E33
:107C94006720475245454E204D656D6F7279277DAB
:107CA4000A007B27434F4D273A276C696E65272CC2
:107CB4002776616C7565273A27456E746572696E1F
:107CC400672063616C6962726174696F6E277D0AF3
:107CD400007B27434F4D273A276C696E65272C2775
:107CE40076616C7565273A2753656C656374696EB4
:107CF4006720524544206D656D6F7279277D0A00B7
:107D04007B27434F4D273A276C696E65272C2776CE
:107D1400616C7565273A2757726974696E672047E5
:107D24005245454E206D656D6F7279277D0A007B43
:107D340027434F4D273A276C696E65272C277661B8
:107D44006C7565273A2757726974696E67205245C6
:107D540044206D656D6F7279277D0A007B27434F40
:107D64004D273A276C696E65272C2776616C7565FB
:107D7400273A27477265656E206D656D6F727920AD
:107D8400656D707479277D0A007B27434F4D273A30
:107D9400276C696E65272C2776616C7565273A27F1
:107DA40052657365742063616C6962726174696F92
:107DB4006E277D0A007B27434F4D273A276C696E57
:107DC40065272C2776616C7565273A2752656420F0
:107DD4006D656D6F727920656D707479277D0A0009
:107DE4007B27434F4D273A276C696E65272C2776EE
:107DF400616C7565273A2757726974696E672072DA
:107E0400656374202569277D0A007B27434F4D272E
:107E14003A276C696E65272C2776616C7565273A5D
:107E240027456E746572696E67206375727665277F
:107E34007D0A007B27434F4D273A276C696E6527DF
:107E44002C2776616C7565273A274C6F6164696EDF
:107E54006720656570726F6D277D0A007B27434F2D
:107E64004D273A276C696E65272C2776616C7565FA
:107E7400273A27475245454E206D656D6F72793A12
:107E8400277D0A007B27434F4D273A276C696E658F
:107E9400272C2776616C7565273A274D656D6F72BF
:107EA4007920657261736564277D0A007B27434FDF
:107EB4004D273A276C696E65272C2776616C7565AA
:107EC400273A27696E697469616C206D6F64652750
:107ED4007D0A007B27434F4D273A276C696E65273F
:107EE4002C2776616C7565273A27477265656E2085
:107EF4006D656D6F7279277D0A007B27434F4D278F
:107F04003A276C696E65272C2776616C7565273A6C
:107F140027524544206D656D6F72793A277D0A00BA
:107F24007B27434F4D273A276C696E65272C2776AC
:107F3400616C7565273A27526564206D656D6F72B3
:107F4400793A277D0A007B27434F4D273A276C69EE
:107F54006E65272C2776616C7565273A27526179FF
:107F640069746F20322E30277D0A007B27434F4DE2
:107F7400273A276C696E65272C2776616C7565270F
:107F84003A274D6F746F722074657374277D0A00ED
:107F94007B27434F4D273A276C696E65272C27763C
:107FA400616C7565273A2753617665206461746155
:107FB400277D0A007B27434F4D273A276C696E655E
:107FC400272C2776616C7565273A275B25695D2028
:107FD4003D202569277D0A007B27434F4D273A27FB
:107FE40052656C65617365277D0A007B27434F4D9D
:0C7FF400273A27486F6C64277D0A0000C4
:020000040030CA
:0E000000240E191EFF0181FF0FC00FE00F40FC
:00000001FF
