:040000000BEF00F012
:100008005182FACF01F0FBCF02F067ED0BF05EEF03
:020018000CF0EA
:100800000001000A006400E80310277B27434F4DD6
:10081000273A27706C6F74272C276E616D65273A15
:1008200027532569272C2776616C7565273A25693A
:100830002C2027636F6C6F72273A2825642C25645F
:100840002C2564297D0A007B27434F4D273A276CCE
:10085000696E65272C2776616C7565273A27456E8A
:10086000746572696E672063616C69627261746934
:100870006F6E277D0A007B27434F4D273A276C690F
:100880006E65272C2776616C7565273A275265734C
:1008900065742063616C6962726174696F6E277D33
:1008A0000A007B27434F4D273A276C696E65272C3A
:1008B0002776616C7565273A27696E697469616C82
:1008C000206D6F6465277D0A007B27434F4D273AD3
:1008D000276C696E65272C2776616C7565273A272A
:0F08E00052617969746F20322E30277D0A000033
:1008F00042EC0DF0000E0001796F000E786F000ED3
:100900000001736F000E726F000E00016B6F000E1E
:100910006A6F0001FA69000E0001646F000E656FD6
:10092000000E666F000E676F000E436E000E426E83
:10093000000E4D6E010E01019D6F000E3A6E000E0D
:100940003B6E000E3C6E000E3D6EFCEC0DF0000E9A
:100950001B6E000E1A6E000E1D6E000E1C6ED4EC87
:100960000DF08386010E01019D6F08D0C90E0001B4
:10097000DA6F080E0001DB6F7EEC09F03DBEF6D7A2
:100980003D503C103B1004E1C80E3A5CD8A0EED7B5
:1009900029EC0CF06BEF09F081903AC00FF03BC0EE
:1009A00010F03CC011F03DC012F0D00E136E070ED7
:1009B000146E000E156E000E166E75EC0AF012BE67
:1009C0000DD01250111006E1E90E0F5C030E105805
:1009D000D8A004D00001E86BE82B02D00001E86B3E
:1009E0000001E83B80500001E819EF0BE819806E28
:1009F000819A83BACDD7470E0001DA6F080E000145
:100A0000DB6F7EEC09F0030E01019D6FEDEC0BF046
:100A1000BFD7818A809881903DBEBAD73D503C10A7
:100A200006E1D10E3A5C070E3B58D8A0B1D7010EB3
:100A3000EBD129EC0CF0000E506E000E4F6E50BE44
:100A400008D0505005E10B0E4F5CD8B01FD101D03B
:100A50001DD1800E0001E86F000E0001E96FD890F3
:100A60004F34D96E5034DA6ED890D936DA36000168
:100A7000E851D9260001E951DA22D8904F34E16ECD
:100A80005034E26E000EE126010EE222E6CFEEF0D7
:100A9000E5CFEFF0EEC0F0F0EFC0F1F0000E000196
:100AA000F1BFFF0EF26FF36FDE500001F05DDE501C
:100AB0000001F159DE500001F2590001F351800AA2
:100AC0000001F46FDE50800A0001F459D8A014D060
:100AD000D8904F34D96E5034DA6E000ED926010EFC
:100AE000DA22DECF8AF1DDCF8BF10101000E8BBF60
:100AF000FF0E8C6F8D6F1CD0800E0001E86F000E12
:100B00000001E96FD8904F34D96E5034DA6ED89026
:100B1000D936DA360001E851D9260001E951DA2246
:100B2000DECF8AF1DECF8BF1DECF8CF1DECF8DF11F
:100B3000800E0001E86F000E0001E96FD8904F347D
:100B4000D96E5034DA6ED890D936DA360001E851D1
:100B5000D9260001E951DA228AC1DEFF8BC1DEFF0E
:100B60008CC1DEFF8DC1DEFFD8904F34D96E50347A
:100B7000DA6E000ED926010EDA22DECFE8F0DDCFE4
:100B8000E9F0E8C0EAF0E9C0EBF0000E0001EBBFCD
:100B9000FF0EEC6FED6FAC0E0001EE6F000E00016A
:100BA000EF6FD8904F34D96E5034DA6ED890D93672
:100BB000DA360001EE51D9260001EF51DA220001A8
:100BC000EA51DE5C0001EB51DE580001EC51DE58C9
:100BD000DE50800A0001F46F0001ED51800A00012F
:100BE000F459D8A014D0D8904F34D96E5034DA6E5E
:100BF000000ED926010EDA22DECF8EF1DDCF8FF185
:100C00000101000E8FBFFF0E906F916F1CD0AC0ED4
:100C10000001E86F000E0001E96FD8904F34D96EE3
:100C20005034DA6ED890D936DA360001E851D92638
:100C30000001E951DA22DECF8EF1DECF8FF1DECF77
:100C400090F1DECF91F1AC0E0001E86F000E0001D3
:100C5000E96FD8904F34D96E5034DA6ED890D936C7
:100C6000DA360001E851D9260001E951DA228EC1B5
:100C7000DEFF8FC1DEFF90C1DEFF91C1DEFF4F4A74
:100C8000502A50BEE6D6505001E1DDD63AC00FF0F2
:100C90003BC010F03CC011F03DC012F02C0E136EA2
:100CA000010E146E000E156E000E166E75EC0AF035
:100CB00012BE0CD012501110101004E1C90E0F5CBE
:100CC000D8A004D00001E86BE82B02D00001E86B4B
:100CD0000001E83B80500001E819EF0BE819806E35
:100CE000000E01019A6F3AC00FF03BC010F03CC0FB
:100CF00011F03DC012F02C0E136E010E146E000E9A
:100D0000156E000E166E75EC0AF012BE27D012504A
:100D10001110101004E1650E0F5CD8A01FD03AC06E
:100D20000FF03BC010F03CC011F03DC012F02C0E93
:100D3000136E010E146E000E156E000E166E75EC1D
:100D40000AF012BE08D012501110101007E1C80EA0
:100D50000F5CD8B003D0010E01019A6F01019AB166
:100D600002D0819A01D0818A3AC00FF03BC010F0C6
:100D70003CC011F03DC012F02C0E136E010E146E2B
:100D8000000E156E000E166E75EC0AF012BE08D03D
:100D900012501110101008E1640E0F5CD8B004D08E
:100DA0000001E86BE82B02D00001E86B81500001E4
:100DB000E819FE0BE819816E83BC13D0760E000192
:100DC000DA6F080E0001DB6F7EEC09F0000E3A6E60
:100DD000000E3B6E000E3C6E000E3D6E000E0101DB
:100DE0009D6F83B8D5D5A20E0001DA6F080E000101
:100DF000DB6F7EEC09F0000E3A6E000E3B6E000ECB
:100E00003C6E000E3D6E020E01019D6FC1D58180CA
:100E10003AC00FF03BC010F03CC011F03DC012F0E2
:100E2000E80E136E030E146E000E156E000E166E95
:100E300075EC0AF012BE0DD01250111006E1F50E3D
:100E40000F5C010E1058D8A004D00001E86BE82B0D
:100E500002D00001E86B0001E83B80500001E81976
:100E6000EF0BE819806E819A29EC0CF03DBE90D50D
:100E70003D503C1006E1E90E3A5C030E3B58D8A009
:100E800087D5000E3A6E000E3B6E000E3C6E000ED3
:100E90003D6E000E01019C6F000E9B6F01019CBF17
:100EA0000AD001019C5106E10B0E01019B5DD8B0F7
:100EB0006FD501D06DD5800E0001E86F000E0001E6
:100EC000E96FD89001019B35D96E01019C35DA6E2E
:100ED000D890D936DA360001E851D9260001E95117
:100EE000DA22AC0E0001EE6F000E0001EF6FD89019
:100EF00001019B35E16E01019C35E26ED890E1362F
:100F0000E2360001EE51E1260001EF51E222DE500F
:100F1000E65CDE50E658DE50E658E650800A0001F6
:100F2000F46FDE50800A0001F459D8A013D09BC1A1
:100F3000E8F09CC1E9F00001D890E837E9370001FA
:100F4000D890E837E937800E0001E8250101966F57
:100F5000000E12D09BC1E8F09CC1E9F00001D890CE
:100F6000E837E9370001D890E837E937AC0E0001DF
:100F7000E8250101966F000E0001E9210101976F3C
:100F800096C1D9FF97C1DAFFD89001019B35E16E78
:100F900001019C35E26E000EE126010EE222E6CF51
:100FA000ECF0E5CFEDF0ECC0EEF0EDC0EFF0000EB0
:100FB0000001EFBFFF0EF06FF16FDE500001EE5D3C
:100FC000DE500001EF59DE500001F0590001F151EF
:100FD000800A0001F26FDE50800A0001F259D8A0A9
:100FE00016D0D89001019B35D96E01019C35DA6E7F
:100FF000000ED926010EDA22DECF92F1DDCF93F179
:101000000101000E93BFFF0E946F956F71D0800E9B
:101010000001E86F000E0001E96FD89001019B35D7
:10102000D96E01019C35DA6ED890D936DA360001D6
:10103000E851D9260001E951DA22AC0E0001EE6F29
:10104000000E0001EF6FD89001019B35E16E0101A8
:101050009C35E26ED890E136E2360001EE51E12691
:101060000001EF51E222DE50E65CDE50E658DE5031
:10107000E658E650800A0001F46FDE50800A000155
:10108000F459D8A013D09BC1E8F09CC1E9F000014D
:10109000D890E837E9370001D890E837E937800E73
:1010A0000001E8250101986F000E12D09BC1E8F005
:1010B0009CC1E9F00001D890E837E9370001D890E9
:1010C000E837E937AC0E0001E8250101986F000E02
:1010D0000001E9210101996F98C1D9FF99C1DAFF97
:1010E000DECF92F1DECF93F1DECF94F1DECF95F13A
:1010F0000B0E0001DA6F080E0001DB6F9BC1DCF004
:101100009CC1DDF0AC0E0001E86F000E0001E96F3C
:10111000D89001019B35D96E01019C35DA6ED890CB
:10112000D936DA360001E851D9260001E951DA2230
:10113000DECFEAF0DECFEBF0DECFECF0DECFEDF08D
:101140000001EA1FEB1FEC1FED1FEA2B000EEB2343
:10115000EC23ED23010192510001EA250F6E0101FC
:1011600093510001EB21106E010194510001EC211B
:10117000116E010195510001ED21126EE80E136E02
:10118000030E146E000E156E000E166EC4EC0CF0FD
:101190000FC01BF010C01CF011C01DF012C01EF0DB
:1011A000800E0001EE6F000E0001EF6FD89001017C
:1011B0009B35D96E01019C35DA6ED890D936DA3676
:1011C0000001EE51D9260001EF51DA22DECFF0F016
:1011D000DECFF1F0DECFF2F0DECFF3F0AC0E0001A7
:1011E000F46F000E0001F56FD89001019B35D96EA8
:1011F00001019C35DA6ED890D936DA360001F45107
:10120000D9260001F551DA22DECFF6F0DECFF7F075
:10121000DECFF8F0DECFF9F00001F61FF71FF81F60
:10122000F91FF62B000EF723F823F9230001F051E4
:101230000001F6251F6E0001F1510001F721206E1B
:101240000001F2510001F821216E0001F35100016B
:10125000F921226E0FEC0AF01BC0DEF01CC0DFF09B
:101260001DC0E0F01EC0E1F09BC10FF09CC110F06A
:10127000000E126E0A0E116EE9EC0DF00F1E101E1C
:101280000F4A102AFF0E0F240001E26F000E1020FB
:101290000001E36F000E0001E56F000EE46F9BC1DB
:1012A0000FF09CC110F0000E126E0A0E116EE9ECE8
:1012B0000DF00FC0E6F010C0E7F07EEC09F0010180
:1012C0009B4B9C2B01019CBFF6D501019C5101E178
:1012D000EBD5C8EF04F001019D51000AD8B409EF25
:1012E00005F0010AD8B4CCEF04F0030AD8B48FD5C6
:1012F000010AD8B419EF05F0C8EF04F0DC0E2A6E2D
:10130000000E2B6E7ED0250E3018D8B404D030508D
:1013100026EC0EF076D0000E2C6EDAC0F6FFDBC0A5
:10132000F7FF0001DA4BDB2B0800F5CF30F030502F
:10133000000AD8B41200640AD8B403D00D0AD8A4A5
:1013400060D02AC0D9FF2BC0DAFFDECF2EF0DDCF70
:101350002FF0020E2A26000E2B222FAE06D0030EEF
:101360002C122E6C2F1ED8B02F2A010E306E050EB7
:101370003018D8B412D03050020D010EF324F66E9E
:10138000080EF420F76E0900F5502E5C0900F550A8
:101390002F58D8A002D0302AEAD72CC029F0030E4B
:1013A0002916D8B403D02D0E26EC0EF030C02DF047
:1013B00024D02D50020D010EF324F66E080EF420F9
:1013C000F76E0900F5CF11F00A00F5CF12F02EC02C
:1013D0000FF02FC010F019EC0DF00FC016F010C078
:1013E00017F0000E196E0A0E186E65EC0DF016500F
:1013F000300F306E305026EC0EF02D062D28D8A47C
:10140000D8D7DAC0F6FFDBC0F7FF0001DA4BDB2BE1
:101410000800F5CF30F03050D8B4120074D7000E69
:10142000246E22AE0AD0221E211E201E1F6C000E2A
:10143000202221222222010E246E1EAE0AD01E1E60
:101440001D1E1C1E1B6C000E1C221D221E22010EC6
:10145000241A000E256E000E266E000E276E000E5A
:10146000286E1F50201021102210D8B42AD0010E4F
:10147000236E06D0D8901F36203621362236232AF6
:1014800022AEF8D7D89025362636273628361F5074
:101490001B5C20501C5821501D5822501E58D8A0AB
:1014A00009D01F501B5E20501C5A21501D5A22503B
:1014B0001E5A2580D8902232213220321F32232E0C
:1014C000E1D72450D8B408D0281E271E261E256C2C
:1014D000000E26222722282225C01BF026C01CF041
:1014E00027C01DF028C01EF01200000E186E12AEAC
:1014F0000AD0121E111E101E0F6C000E1022112297
:101500001222010E186E16AE08D0161E151E141EDD
:10151000136C000E142215221622135014101510ED
:101520001610D8B424D0010E176E06D0D8901336FA
:10153000143615361636172A16AEF8D713500F5C28
:10154000145010581550115816501258D8A008D0E1
:1015500013500F5E1450105A1550115A1650125A4B
:10156000D8901632153214321332172EE7D718508E
:10157000D8B408D0121E111E101E0F6C000E1022BF
:10158000112212220FC00FF010C010F011C011F084
:1015900012C012F0120018BE0AD0E80E175C030E3B
:1015A0001858D8A004D0030E186EE80E176E18AEA7
:1015B0000AD0190E175CFC0E1858D8B004D0FC0ED7
:1015C000186E180E176E18BE05D0185006E11704D5
:1015D000D8B003D0196A192A01D0196A19461946D8
:1015E00083501918FB0B1918836E18BE05D01850BC
:1015F00009E11704D8B006D0E80E1724176E030EC1
:101600001820186E17C019F0030E1916193ABA509F
:101610001918CF0B1918BA6E17C00FF018C010F0B8
:10162000000E126E040E116EABEC0BF00F50BB6E81
:10163000120018BE0AD0E80E175C030E1858D8A086
:1016400004D0030E186EE80E176E18AE0AD0190EED
:10165000175CFC0E1858D8B004D0FC0E186E180E8B
:10166000176E18BE05D0185006E11704D8B003D085
:10167000196A192A01D0196A194683501918FD0BE5
:101680001918836E18BE05D0185009E11704D8B098
:1016900006D0E80E1724176E030E1820186E17C018
:1016A00019F0030E1916193A1946BD501918DF0B17
:1016B0001918BD6E17C00FF018C010F0000E126E92
:1016C000040E116EABEC0BF00F50BE6E1200060054
:1016D000E9CF03F0EACF04F0E1CF05F0E2CF06F066
:1016E000D9CF07F0DACF08F0F3CF09F0F4CF0AF042
:1016F000F6CF0BF0F7CF0CF0F8CF0DF0F5CF0EF0E2
:10170000F2A40BD0010E3A26000E3B223C223D22D1
:10171000F80ED76E2F0ED66EF2940EC0F5FF0DC0E8
:10172000F8FF0CC0F7FF0BC0F6FF0AC0F4FF09C0BA
:10173000F3FF08C0DAFF07C0D9FF06C0E2FF05C00B
:10174000E1FF04C0EAFF03C0E9FF02C0FBFF01C0E4
:10175000FAFF51921100000E146E12AE06D0116CF9
:10176000121ED8B0122A010E146E10AE06D00F6CE5
:10177000101ED8B0102A010E141A000E166E000E9C
:10178000156E11501210D8B41CD0010E136E04D077
:10179000D89011361236132A12AEFAD7D8901536D1
:1017A000163611500F5C12501058D8A005D01150A9
:1017B0000F5E1250105A1580D89012321132132E2B
:1017C000EDD71450D8B404D0156C161ED8B0162A14
:1017D00015C00FF016C010F01200000E126E000EB1
:1017E000116E12BE06D0125033E10B0E115CD8B050
:1017F0001200800E0F6E000E106ED8901134D96E4C
:101800001234DA6ED890D936DA360F50D926105005
:10181000DA22DE6ADE6ADE6ADD6AAC0E0F6E000E68
:10182000106ED8901134D96E1234DA6ED890D93641
:10183000DA360F50D9261050DA22000EDE6E040E72
:10184000DE6E000EDE6E000EDD6E114A122AC9D762
:101850001200000E1A6E0A0E1A6401D012001AC08D
:1018600017F017461746C2501718C30B1718C26E49
:10187000C282C2B2FED7C450040DF3CF18F0F4CF29
:1018800019F0C3CF0FF0106A000E126E400E116EE9
:10189000ABEC0BF018500F24186E19501020196E75
:1018A0001A50020D000EF324D96E010EF420DA6EE8
:1018B00018C0DEFF19C0DDFF1A2ACDD74A0EF66E1A
:1018C0001B0EF76E000EF86E01EE56F010EE34F0BF
:1018D0000900F5CFEEFFE550E150FAE101EE9EF090
:1018E00013EEFCF0EE6AE550E150FCE1E250FAE163
:1018F00001EE00F0560EEE6AE806FDE100EE60F043
:101900007A0EEE6AE806FDE100EE36F01B0EEE6A96
:10191000E806FDE151905192000EF86E000178EF5B
:1019200004F0D59ED59CD59AD586F80ED76E2F0E8D
:10193000D66EF184D09EF28AF28ED58ECD90CD9E59
:10194000CD9CCF0ECD16CD96CD92CD80F80ECF6E1C
:101950002F0ECE6E939A929893909588958A958C37
:101960009592959495809596949294949280928273
:1019700092849286928A96809682968493849382A9
:10198000949C948E848E1200000E176E000E186EBA
:10199000000E196E000E1A6E0FA008D013501726F5
:1019A000145018221550192216501A22D8901336A6
:1019B000143615361636D8901232113210320F32D4
:1019C0000F50101011101210D8A4E6D717C00FF046
:1019D00018C010F019C011F01AC012F01200106EE9
:1019E00010A002D0C28401D0C29410C00FF0030E28
:1019F0000F16020E0F6001D002D0C28601D0C2962F
:101A000010C00FF0070E0F16040E0F6001D002D0A9
:101A1000C28801D0C29810C00FF00F0E0F16080E2A
:101A20000F6001D002D0C28A01D0C29AC280C282A5
:101A30001200000E156E000E146E11501210D8B464
:101A40001CD0010E136E04D0D89011361236132A12
:101A500012AEFAD7D8901436153611500F5C1250CA
:101A60001058D8A005D011500F5E1250105A148093
:101A7000D89012321132132EEDD714C00FF015C0CA
:101A800010F01200000E3A6E000E3B6E000E3C6E1F
:101A9000000E3D6E000E01013A6F000E3B6F000E0E
:101AA0003C6F000E3D6F0EEC0EF0000E0001FA6F61
:101AB00017EC0EF0BFEC0DF091EC0CF01FEC0EF0FB
:101AC0002CEC0EF086EC0DF0120018501910D8B462
:101AD00018D0010E1A6E04D0D890183619361A2A6A
:101AE00019AEFAD71850165C19501758D8A004D060
:101AF0001850165E1950175AD890193218321A2EEB
:101B0000F1D716C016F017C017F01200CA96CA987F
:101B1000CA9ACA9CCA84CA90CA92CA84CA50870BFD
:101B20005809CA6ECA50FC0B0109CA6ECA94F90E54
:101B3000CB6ECA84BD50F00B0C09BD6EBA50F00BD1
:101B40000C09BA6EF90ECB6E120000964300964354
:101B500000964300964300E04100A042007042001E
:101B6000E041CD4C3ECDCC3DCD4C3ECDCC3D006199
:101B70004400D74300C84300AF43C8000000C19AE7
:101B8000C198C196C194C182C180C09EC086C088E0
:101B9000C08AC050F80B0609C06EC294C296C298A3
:101BA000C29AC292C28012001AC01EF01BC01FF05F
:101BB0001EC017F01FC018F019EC0BF01CC020F06D
:101BC0001DC021F020C017F021C018F0CBEC0AF0A6
:101BD00012000F501102F3CF13F0F4CF14F00F5096
:101BE0001202F350142610501102F350142613C0A1
:101BF0000FF014C010F01200B89AB898B886B892D6
:101C0000B890330EAF6E000EB06EAC9EAC9CAC8A3A
:101C1000AC98AC94AB9CAB88AB8E1200000E3A6EC5
:101C2000000E3B6E000E3C6E000E3D6E1200D3881F
:101C3000D38AD38C070EB46E6D966F861200000E99
:101C40004B6E000E496E000E4A6E12000F6E9EA87B
:101C5000FED70FC0ADFF1200000E476E4750EFECED
:041C60000CF0120072
:020000040030CA
:0E000000240E191EFF0181FF0FC00FE00F40FC
:00000001FF
