:040000000CEF00F011
:10000800FACF01F0FBCF02F0E9CF03F0BCED0BF023
:04001800FEEF0BF0FC
:100800000001000A006400E80310277B27434F4DD6
:10081000273A27706C6F74272C276E616D65273A15
:1008200027532569272C2776616C7565273A25693A
:100830002C2027636F6C6F72273A2825642C25645F
:100840002C2564297D0A007B27434F4D273A276CCE
:10085000696E65272C2776616C7565273A27456E8A
:10086000746572696E672063616C69627261746934
:100870006F6E277D0A007B27434F4D273A276C690F
:100880006E65272C2776616C7565273A275265734C
:1008900065742063616C6962726174696F6E277D33
:1008A0000A007B27434F4D273A276C696E65272C3A
:1008B0002776616C7565273A27696E697469616C82
:1008C000206D6F6465277D0A007B27434F4D273AD3
:1008D000276C696E65272C2776616C7565273A272A
:1008E00052617969746F20322E30277D0A00000032
:1008F00093EC0DF0000E00019D6F000E9C6F000E3A
:100900000001956F000E946F000E00018B6F000EBA
:100910008A6F0001F569000E0001746F000E756F9B
:10092000000E766F000E776F000E436E000E426E63
:10093000000E4C6E010E0001F66F000E3A6E000EB6
:100940003B6E000E3C6E000E3D6E38EC0EF0000E5D
:100950001B6E000E1A6E000E1D6E000E1C6EB6ECA5
:100960000DF08386010E0001F66F09D0C90E00015B
:10097000D16F080E0001D26F60EC09F000D03DBECF
:10098000F5D73D503C103B1006E1C80E3A5CD8B09C
:1009900002D0ECD700D07EEC0CF04BEF09F0818058
:1009A0008088818A83BAF7D7470E0001D16F080E7D
:1009B0000001D26F60EC09F0030E0001F66F3FEC0E
:1009C0000CF0E9D7818A809881903DBEE4D73D50F4
:1009D0003C1006E1D10E3A5C070E3B58D8A0DBD79D
:1009E000010EEFD1D8D77EEC0CF0000E516E000E48
:1009F000506E51BE08D0515005E10B0E505CD8B07E
:100A000020D101D01ED1A50E0001DF6F000E000124
:100A1000E06FD8905034D96E5134DA6ED890D93610
:100A2000DA360001DF51D9260001E051DA22D890F0
:100A30005034E16E5134E26E000EE126010EE222E6
:100A4000E6CFE5F0E5CFE6F0E5C0E7F0E6C0E8F098
:100A5000000E0001E8BFFF0EE96FEA6FDE500001F3
:100A6000E75DDE500001E859DE500001E959000160
:100A7000EA51800A0001EB6FDE50800A0001EB5959
:100A8000D8A014D0D8905034D96E5134DA6E000EFC
:100A9000D926010EDA22DECF84F1DDCF85F1010106
:100AA000000E85BFFF0E866F876F1CD0A50E00015C
:100AB000DF6F000E0001E06FD8905034D96E5134D2
:100AC000DA6ED890D936DA360001DF51D926000126
:100AD000E051DA22DECF84F1DECF85F1DECF86F180
:100AE000DECF87F1A50E0001DF6F000E0001E06F81
:100AF000D8905034D96E5134DA6ED890D936DA366F
:100B00000001DF51D9260001E051DA2284C1DEFF65
:100B100085C1DEFF86C1DEFF87C1DEFFD89050347D
:100B2000D96E5134DA6E000ED926010EDA22DECFEC
:100B3000DFF0DDCFE0F0DFC0E1F0E0C0E2F0000E7A
:100B40000001E2BFFF0EE36FE46F280E0001E56FC6
:100B5000010E0001E66FD8905034D96E5134DA6E30
:100B6000D890D936DA360001E551D9260001E65190
:100B7000DA220001E151DE5C0001E251DE580001A1
:100B8000E351DE58DE50800A0001EB6F0001E451B2
:100B9000800A0001EB59D8A014D0D8905034D96EF7
:100BA0005134DA6E000ED926010EDA22DECF88F13A
:100BB000DDCF89F10101000E89BFFF0E8A6F8B6FB7
:100BC0001CD0280E0001DF6F010E0001E06FD890ED
:100BD0005034D96E5134DA6ED890D936DA360001F5
:100BE000DF51D9260001E051DA22DECF88F1DECFD5
:100BF00089F1DECF8AF1DECF8BF1280E0001DF6FA5
:100C0000010E0001E06FD8905034D96E5134DA6E85
:100C1000D890D936DA360001DF51D9260001E051EB
:100C2000DA2288C1DEFF89C1DEFF8AC1DEFF8BC107
:100C3000DEFF504A512A51BEE6D6515002E1DDD6C0
:100C400000D03AC00FF03BC010F03CC011F03DC0E6
:100C500012F02C0E136E010E146E000E156E000EA7
:100C6000166E70EC0AF012BE0CD01250111010105B
:100C700004E1C90E0F5CD8A004D00001DF6BDF2BAC
:100C800002D00001DF6B0001DF3B80500001DF1963
:100C9000EF0BDF19806E000E0101946F3AC00FF068
:100CA0003BC010F03CC011F03DC012F02C0E136E92
:100CB000010E146E000E156E000E166E70EC0AF02A
:100CC00012BE28D012501110101004E1650E0F5CF6
:100CD000D8A020D03AC00FF03BC010F03CC011F0BB
:100CE0003DC012F02C0E136E010E146E000E156E28
:100CF000000E166E70EC0AF012BE08D012501110E1
:100D0000101008E1C80E0F5CD8B004D0010E01012C
:100D1000946F00D0010194B102D0819A01D0818AF0
:100D20003AC00FF03BC010F03CC011F03DC012F0D3
:100D30002C0E136E010E146E000E156E000E166E44
:100D400070EC0AF012BE08D012501110101008E119
:100D5000640E0F5CD8B004D00001DF6BDF2B02D033
:100D60000001DF6B81500001DF19FE0BDF19816E7E
:100D700083BC14D0760E0001D16F080E0001D26F33
:100D800060EC09F0000E3A6E000E3B6E000E3C6EF9
:100D9000000E3D6E000E0001F66F00D083B8FBD54B
:100DA000A20E0001D16F080E0001D26F60EC09F0B5
:100DB000000E3A6E000E3B6E000E3C6E000E3D6E55
:100DC000020E0001F66FE7D581803AC00FF03BC0FC
:100DD00010F03CC011F03DC012F0E80E136E030E8F
:100DE000146E000E156E000E166E70EC0AF012BE38
:100DF0000DD01250111006E1F50E0F5C010E1058C7
:100E0000D8A004D00001DF6BDF2B02D00001DF6B24
:100E10000001DF3B80500001DF19EF0BDF19806E0E
:100E2000819A7EEC0CF03DBEB6D53D503C1006E1FB
:100E3000E90E3A5C030E3B58D8A0ADD5000E3A6ED1
:100E4000000E3B6E000E3C6E000E3D6E000E01016A
:100E5000966F000E956F010196BF0AD00101965161
:100E600006E10B0E0101955DD8B095D501D093D563
:100E7000A50E0001DF6F000E0001E06FD8900101A8
:100E80009535D96E01019635DA6ED890D936DA36B5
:100E90000001DF51D9260001E051DA22280E0001BD
:100EA000E56F010E0001E66FD89001019535E16E06
:100EB00001019635E26ED890E136E2360001E55147
:100EC000E1260001E651E222DE50E65CDE50E65803
:100ED000DE50E658E650800A0001EB6FDE50800AD3
:100EE0000001EB59D8A013D095C1DFF096C1E0F016
:100EF0000001D890DF37E0370001D890DF37E037C6
:100F0000A50E0001DF250101906F000E12D095C1E2
:100F1000DFF096C1E0F00001D890DF37E037000144
:100F2000D890DF37E037280E0001DF250101906FF0
:100F3000010E0001E0210101916F00D090C1D9FFA5
:100F400091C1DAFFD89001019535E16E0101963526
:100F5000E26E000EE126010EE222E6CFE3F0E5CFDD
:100F6000E4F0E3C0E5F0E4C0E6F0000E0001E6BF07
:100F7000FF0EE76FE86FDE500001E55DDE50000117
:100F8000E659DE500001E7590001E851800A0001EE
:100F9000E96FDE50800A0001E959D8A016D0D89038
:100FA00001019535D96E01019635DA6E000ED9260C
:100FB000010EDA22DECF8CF1DDCF8DF10101000EC2
:100FC0008DBFFF0E8E6F8F6F73D0A50E0001DF6F88
:100FD000000E0001E06FD89001019535D96E010136
:100FE0009635DA6ED890D936DA360001DF51D92637
:100FF0000001E051DA22280E0001E56F010E000128
:10100000E66FD89001019535E16E01019635E26EEB
:10101000D890E136E2360001E551E1260001E651C3
:10102000E222DE50E65CDE50E658DE50E658E6503E
:10103000800A0001EB6FDE50800A0001EB59D8A056
:1010400013D095C1DFF096C1E0F00001D890DF37F2
:10105000E0370001D890DF37E037A50E0001DF252B
:101060000101926F000E12D095C1DFF096C1E0F041
:101070000001D890DF37E0370001D890DF37E03744
:10108000280E0001DF250101926F010E0001E02111
:101090000101936F00D092C1D9FF93C1DAFFDECF77
:1010A0008CF1DECF8DF1DECF8EF1DECF8FF100D06F
:1010B0000B0E0001D16F080E0001D26F95C1D3F065
:1010C00096C1D4F0280E0001DF6F010E0001E06F21
:1010D000D89001019535D96E01019635DA6ED89018
:1010E000D936DA360001DF51D9260001E051DA2283
:1010F000DECFE1F0DECFE2F0DECFE3F0DECFE4F0F2
:101100000001E11FE21FE31FE41FE12B000EE223B9
:10111000E323E42301018C510001E1250F6E01015D
:101120008D510001E221106E01018E510001E32179
:10113000116E01018F510001E421126EE80E136E51
:10114000030E146E000E156E000E166E16EC0DF0EA
:101150000FC01BF010C01CF011C01DF012C01EF01B
:10116000A50E0001E56F000E0001E66FD8900101A9
:101170009535D96E01019635DA6ED890D936DA36C2
:101180000001E551D9260001E651DA22DECFE7F071
:10119000DECFE8F0DECFE9F0DECFEAF0280E000186
:1011A000EB6F010E0001EC6FD89001019535D96EFF
:1011B00001019635DA6ED890D936DA360001EB5156
:1011C000D9260001EC51DA22DECFEDF0DECFEEF0D1
:1011D000DECFEFF0DECFF0F00001ED1FEE1FEF1FCE
:1011E000F01FED2B000EEE23EF23F0230001E7515B
:1011F0000001ED251F6E0001E8510001EE21206E77
:101200000001E9510001EF21216E0001EA510001C6
:10121000F021226E01EC0AF01BC0D5F01CC0D6F004
:101220001DC0D7F01EC0D8F095C10FF096C110F0C8
:10123000000E126E0A0E116E24EC0EF00F1E101E20
:101240000F4A102AFF0E0F240001D96F000E102044
:101250000001DA6F000E0001DC6F000EDB6F95C13C
:101260000FF096C110F0000E126E0A0E116E24ECF3
:101270000EF00FC0DDF010C0DEF060EC09F00101EF
:10128000954B962B010196BFF3D50101965101E1D3
:10129000E8D5CBEF04F00001F651000AD8B4E2EF34
:1012A00004F0010AD8B4CFEF04F0030AD8B48CD507
:1012B000010AD8B4F3EF04F0CBEF04F00CEF00F028
:1012C000D30E2A6E000E2B6E8CD0250E3018D8B49B
:1012D00004D030505BEC0EF084D0000E2C6E04D0A5
:1012E0008FD016D07ED014D0D1C0F6FFD2C0F7FF79
:1012F0000001D14BD22B0800F5CF30F03050000A5E
:10130000D8B47ED0640AD8B403D00D0AD8A469D06A
:101310002AC0D9FF2BC0DAFFDECF2EF0DDCF2FF0B1
:10132000020E2A26000E2B222FAE07D0030E2C12FF
:101330002E6C2F1ED8B02F2A00D0010E306E050E55
:101340003018D8B416D001D014D03050020D010E90
:10135000F324F66E080EF420F76E0900F5502E5CAB
:101360000900F5502F58D8A004D001D002D0302A5F
:10137000E6D72CC029F0030E2916D8B404D02D0EC0
:101380005BEC0EF000D030C02DF025D02D50020DBA
:10139000010EF324F66E080EF420F76E0900F5CF67
:1013A00011F00A00F5CF12F02EC00FF02FC010F090
:1013B000E8EC0CF00FC016F010C017F0000E196E1C
:1013C0000A0E186E6DEC0DF01650300F306E305066
:1013D0005BEC0EF000D02D062D28D8B402D0D6D765
:1013E00000D0D1C0F6FFD2C0F7FF0001D14BD22B05
:1013F0000800F5CF30F03050D8B402D066D700D016
:101400001200000E246E22AE0BD0221E211E201EC2
:101410001F6C000E202221222222010E246E00D0F9
:101420001EAE0BD01E1E1D1E1C1E1B6C000E1C2291
:101430001D221E22010E241A00D0000E256E000E61
:10144000266E000E276E000E286E1F5020102110F1
:101450002210D8B42FD0010E236E07D0D8901F369B
:10146000203621362236232A00D022BE02D0F6D7DB
:1014700000D0D89025362636273628361F501B5CDC
:1014800020501C5821501D5822501E58D8A00AD058
:101490001F501B5E20501C5A21501D5A22501E5AAC
:1014A000258000D0D8902232213220321F32232EC4
:1014B000E0D700D02450D8B409D0281E271E261EFD
:1014C000256C000E26222722282200D025C01BF0E2
:1014D00026C01CF027C01DF028C01EF000D012004E
:1014E000000E186E12AE0BD0121E111E101E0F6CC5
:1014F000000E102211221222010E186E00D016AE1C
:1015000009D0161E151E141E136C000E142215226F
:10151000162200D01350141015101610D8B429D06C
:10152000010E176E07D0D8901336143615361636BE
:10153000172A00D016BE02D0F6D700D013500F5C89
:10154000145010581550115816501258D8A009D0E0
:1015500013500F5E1450105A1550115A1650125A4B
:1015600000D0D8901632153214321332172EE6D727
:1015700000D01850D8B409D0121E111E101E0F6CC6
:10158000000E10221122122200D00FC00FF010C046
:1015900010F011C011F012C012F000D0120018BEED
:1015A0000BD0E80E175C030E1858D8A005D0030E18
:1015B000186EE80E176E00D018AE0BD0190E175C1F
:1015C000FC0E1858D8B005D0FC0E186E180E176E09
:1015D00000D018BE05D0185006E11704D8B003D0CB
:1015E000196A192A01D0196A19461946835019181F
:1015F000FB0B1918836E18BE05D018500AE11704AA
:10160000D8B007D0E80E1724176E030E1820186EF6
:1016100000D017C019F0030E1916193ABA5019184C
:10162000CF0B1918BA6E17C00FF018C010F0000ECB
:10163000126E040E116E71EC0BF00F50BB6E1200A7
:1016400018BE0BD0E80E175C030E1858D8A005D0B2
:10165000030E186EE80E176E00D018AE0BD0190EE0
:10166000175CFC0E1858D8B005D0FC0E186E180E7A
:10167000176E00D018BE05D0185006E11704D8B078
:1016800003D0196A192A01D0196A1946835019180A
:10169000FD0B1918836E18BE05D018500AE1170407
:1016A000D8B007D0E80E1724176E030E1820186E56
:1016B00000D017C019F0030E1916193A1946BD507B
:1016C0001918DF0B1918BD6E17C00FF018C010F0F5
:1016D000000E126E040E116E71EC0BF00F50BE6E08
:1016E0001200000E146E12AE07D0116C121ED8B08C
:1016F000122A010E146E00D010AE07D00F6C101E0F
:10170000D8B0102A010E141A00D0000E166E000E6A
:10171000156E11501210D8B421D0010E136E05D0E1
:10172000D89011361236132A00D012BE02D0F8D744
:1017300000D0D8901536163611500F5C1250105844
:10174000D8A006D011500F5E1250105A158000D04C
:10175000D89012321132132EECD700D01450D8B4D6
:1017600005D0156C161ED8B0162A00D015C00FF083
:1017700016C010F000D012000600EACF04F0E1CF4E
:1017800005F0E2CF06F0D9CF07F0DACF08F0F3CFBB
:1017900009F0F4CF0AF0F6CF0BF0F7CF0CF0F8CF4A
:1017A0000DF0F5CF0EF0F2A40CD0010E3A26000E8B
:1017B0003B223C223D22F80ED76E2F0ED66EF294BD
:1017C00000D00EC0F5FF0DC0F8FF0CC0F7FF0BC036
:1017D000F6FF0AC0F4FF09C0F3FF08C0DAFF07C034
:1017E000D9FF06C0E2FF05C0E1FF04C0EAFF03C065
:1017F000E9FF02C0FBFF01C0FAFF110001EE97F004
:1018000013EEFCF0EE6AE550E150FCE1E250FAE143
:1018100001EE00F0540EEE6AE806FDE100EE60F025
:10182000710EEE6AE806FDE100EE36F01C0EEE6A7F
:10183000E806FDE1EE0EF66E1B0EF76E000EF86E7A
:1018400001EE54F010EE30F00900F5CFEEFFE55058
:10185000E150FAE1DE0EF66E1C0EF76E000EF86E29
:1018600000EEF1F010EE04F00900F5CFEEFFE550C8
:10187000E150FAE1000EF86E000178EF04F0000E7E
:10188000126E000E116E12BE08D0125036E10B0E11
:10189000115CD8B032D001D030D0A50E0F6E000E42
:1018A000106ED8901134D96E1234DA6ED890D936C1
:1018B000DA360F50D9261050DA22DE6ADE6ADE6A86
:1018C000DD6A280E0F6E010E106ED8901134D96E9D
:1018D0001234DA6ED890D936DA360F50D926105035
:1018E000DA22000EDE6E040EDE6E000EDE6E000EDC
:1018F000DD6E114A122AC7D700D01200000E1A6EF0
:101900000A0E1A6401D030D01AC017F017461746D5
:10191000C2501718C30B1718C26EC28200D0C2B2D1
:10192000FED7C450040DF3CF18F0F4CF19F0C3CF95
:101930000FF0106A000E126E400E116E71EC0BF07B
:1019400018500F24186E19501020196E1A50020DDD
:10195000000EF324D96E010EF420DA6E18C0DEFFFB
:1019600019C0DDFF1A2ACCD71200D59ED59CD59A76
:10197000D586F80ED76E2F0ED66EF184D09EF28AE1
:10198000F28ED58ECD90CD9ECD9CCF0ECD16CD9620
:10199000CD92CD80F80ECF6E2F0ECE6E939A929888
:1019A00093909588958A958C959295949580959627
:1019B000949294949280928292849286928A968053
:1019C0009682968493849382949C948E848E120043
:1019D000000E156E000E146E11501210D8B421D0E6
:1019E000010E136E05D0D89011361236132A00D08E
:1019F00012BE02D0F8D700D0D89014361536115048
:101A00000F5C12501058D8A006D011500F5E125023
:101A1000105A148000D0D89012321132132EECD705
:101A200000D014C00FF015C010F01200000E176E99
:101A3000000E186E000E196E000E1A6E00D00FA068
:101A400009D0135017261450182215501922165079
:101A50001A2200D0D8901336143615361636D89080
:101A60001232113210320F320F50101011101210AA
:101A7000D8A4E5D717C00FF018C010F019C011F0A6
:101A80001AC012F01200106E10A002D0C28401D051
:101A9000C29410C00FF0030E0F16020E0F6001D09B
:101AA00002D0C28601D0C29610C00FF0070E0F16EA
:101AB000040E0F6001D002D0C28801D0C29810C0BD
:101AC0000FF00F0E0F16080E0F6001D002D0C28A61
:101AD00001D0C29AC280C282120018501910D8B424
:101AE0001DD0010E1A6E05D0D890183619361A2A54
:101AF00000D019BE02D0F8D700D01850165C19508B
:101B00001758D8A005D01850165E1950175A00D093
:101B1000D890193218321A2EF0D700D016C016F00D
:101B200017C017F01200000E3A6E000E3B6E000E4A
:101B30003C6E000E3D6E000E0001686F000E696F76
:101B4000000E6A6F000E6B6F4AEC0EF0000E000183
:101B5000F56F53EC0EF00FEC0EF0B5EC0CF062EC00
:101B60000EF069EC0EF0D8EC0DF0120005D01CC0A0
:101B70001EF01DC01FF005D01AC01EF01BC01FF0C4
:101B800000D01EC017F01FC018F020EC0BF01CC0D6
:101B900020F01DC021F005D01AC020F01BC021F09C
:101BA00000D020C017F021C018F0CFEC0AF01200CE
:101BB000CA96CA98CA9ACA9CCA84CA90CA92CA8447
:101BC000CA50870B5809CA6ECA50FC0B0109CA6E6D
:101BD000CA94F90ECB6ECA84BD50F00B0C09BD6ED1
:101BE000BA50F00B0C09BA6EF90ECB6E12000096CB
:101BF0004300964300964300964300E04100A04214
:101C000000704200E041CD4C3ECDCC3DCD4C3ECDB0
:101C1000CC3D00614400D74300C84300AF43C19AA4
:101C2000C198C196C194C182C180C09EC086C0883F
:101C3000C08AC050F80B0609C06EC294C296C29802
:101C4000C29AC292C28012000F501102F3CF13F059
:101C5000F4CF14F00F501202F3501426105011025A
:101C6000F350142613C00FF014C010F000D012006F
:101C7000B89AB898B886B892B890330EAF6E000E86
:101C8000B06EAC9EAC9CAC8AAC98AC94AB9CAB8870
:101C9000AB8E1200000E3A6E000E3B6E000E3C6ED4
:101CA000000E3D6E1200D388D38AD38C070EB46E1B
:101CB0006D966F8612000F6E00D09EA8FED70FC0E3
:101CC000ADFF1200000E4B6E000E496E000E4A6E04
:101CD0001200000E476E475043EC0DF01200C80092
:021CE000000002
:020000040030CA
:0E000000240E191EFF0181FF0FC00FE00F40FC
:00000001FF
