:040000000CEF00F011
:10000800FACF41F0FBCF42F0E9CF43F009ED02F01F
:100018004BEF02F0D0EC02F0000E0001B96F000EB9
:10002800B86F000E0001BB6F000EBA6F000E1C6E99
:10003800000E1B6E000E1E6E000E1D6E000E106E62
:10004800000E0F6E000E126E000E116E000E286E5E
:10005800000E276E000E226E000E216E000E0A6E34
:10006800000E096E0001FF69000E0001A06F000E6E
:10007800A16F000EA26F000EA36F000E066E000E99
:10008800056E000E386E020E516E000E016E000EE7
:10009800026E000E036E000E046E1EEC03F0020EDC
:1000A800516E05D0000E146E010E136E00D004BE02
:1000B800F9D70450031008E1880E015C130E0258AA
:1000C800D8B002D0EFD700D08EEC01F083B019D0B1
:1000D8001B501C10D8A415D0000E1C6E010E1B6EF0
:1000E8000A0E0F181010D8B407D0010E0F240F6E87
:1000F800000E1020106E05D0FF0E106EF60E0F6E5B
:1001080000D083B419D01D501E10D8A415D0000EED
:100118001E6E010E1D6E0A0E11181210D8B407D0EB
:10012800010E1124116E000E1220126E05D0FF0E62
:10013800126EF60E116E00D083A005D0000E1C6E54
:10014800000E1B6E00D083A405D0000E1E6E000E9C
:100158001D6E00D00FC0F2F010C0F3F011C0F4F023
:1001680012C0F5F039EC03F00F501010D8B404D0D9
:100178000101586B582B02D00101586B0101583B03
:10018800835001015819EF0B5819836E1150121042
:10019800D8B404D00101586B582B02D00101586B18
:1001A8000101583B58475847835001015819BF0B64
:1001B8005819836E01C0F2F002C0F3F003C0F4F0E6
:1001C80004C0F5F0E00E0001F66F2E0EF76F000E7A
:1001D800F86F000EF96F13EC01F00001F5BF11D0B4
:1001E8000001F5510001F41108E1710E0001F25D02
:1001F800170E0001F359D8A004D00101586B582BF1
:1002080002D00101586B0101583B58478350010146
:100218005819DF0B5819836E57D70CEF00F0000EF2
:10022800506E0001F5AF0CD00001F51FF41FF31F4D
:10023800F26D000EF323F423F523010E506E00D067
:100248000001F9AF0AD00001F91FF81FF71FF66D7A
:10025800000EF723F823F92300D00001F65100011E
:10026800F7110001F8110001F911D8B43CD0010EC2
:100278004F6E08D00001D890F637F737F837F937BE
:100288004F2A00D00001F9BF02D0F4D700D00001F6
:10029800F6510001F25D0001F7510001F359000128
:1002A800F8510001F4590001F9510001F559D8A09D
:1002B80011D00001F6510001F25F0001F751000171
:1002C800F35B0001F8510001F45B0001F9510001F2
:1002D800F55B00D00001D890F933F833F733F633E3
:1002E8004F2ED5D700D05050D8B40AD00001F51FF2
:1002F800F41FF31FF26D000EF323F423F52300D04F
:10030800F2C0F2F0F3C0F3F0F4C0F4F0F5C0F5F089
:1003180000D012002ABE05D02A5010E12904D8B016
:100328000DD029C04FF02AC050F04F1E501E4F4A22
:10033800502A4FC0F2F050C0F3F005D029C0F2F0B7
:100348002AC0F3F000D00001F251175C1850800A5F
:100358004F6E0001F351800A4F58D8B00CD02ABE16
:1003680007D02A5003E12904D8A002D0818404D000
:100378008194838603D08194839600D02CBE05D0C7
:100388002C5010E12B04D8B00DD02BC04FF02CC04E
:1003980050F04F1E501E4F4A502A4FC0F4F050C024
:1003A800F5F005D02BC0F4F02CC0F5F000D000011A
:1003B800F451175C1850800A4F6E0001F551800AFD
:1003C8004F58D8B00DD02CBE08D02C5003E12B04C8
:1003D800D8A003D08284839606D08294818003D0EB
:1003E8008294819000D0090E17181810D8B407D03D
:1003F800010E1724176E000E1820186E05D0000E77
:10040800186E000E176E00D012000600EACF44F0F6
:10041800E1CF45F0E2CF46F0D9CF47F0DACF48F048
:10042800F3CF49F0F4CF4AF0F6CF4BF0F7CF4CF0CA
:10043800F8CF4DF0F5CF4EF0F2A40CD0010E012606
:10044800000E022203220422F80ED76E2F0ED66E5B
:10045800F29400D04EC0F5FF4DC0F8FF4CC0F7FF36
:100468004BC0F6FF4AC0F4FF49C0F3FF48C0DAFFAB
:1004780047C0D9FF46C0E2FF45C0E1FF44C0EAFFDC
:1004880043C0E9FF42C0FBFF41C0FAFF110001EE83
:1004980059F013EEFCF0EE6AE550E150FCE1E25051
:1004A800FAE101EE00F0580EEE6AE806FDE100EE12
:1004B80060F05E0EEE6AE806FDE100EE01F0400E27
:1004C800EE6AE806FDE1DE0EF66E050EF76E000E2A
:1004D800F86E00EEBEF010EE34F00900F5CFEEFF36
:1004E800E550E150FAE100010EEF00F0D59ED59CF1
:1004F800D59AD586F80ED76E2F0ED66EF184D09E7B
:10050800F28AF28ED58ECD90CD9ECD9CCF0ECD1693
:10051800CD96CD92CD80F80ECF6E2F0ECE6E9598DB
:10052800959A959C958095829584959694949390A8
:10053800939494809482968496829680928A9288E4
:10054800848E1200506E50A002D0C28401D0C29492
:1005580050C04FF0030E4F16020E4F6001D002D06C
:10056800C28601D0C29650C04FF0070E4F16040E37
:100578004F6001D002D0C28801D0C29850C04FF05D
:100588000F0E4F16080E4F6001D002D0C28A01D05C
:10059800C29AC280C2821200000E016E000E026E64
:1005A800000E036E000E046E000E0001906F000E28
:1005B800916F000E926F000E936F30EC03F0000EF7
:1005C8000001FF6F42EC03F009EC03F07AEC02F053
:1005D8004AEC03F01200009643009643009643004D
:1005E800964300E04100A04200704200E041CD4C3B
:1005F8003ECDCC3DCD4C3ECDCC3D00614400D743F3
:1006080000C84300AF43C8000000C19AC198C18622
:10061800C184C192C190C09EC086C088C08AC050A3
:10062800F80B0609C06EC294C296C298C29AC292CA
:10063800C2801200B89AB898B886B892B890330EAB
:10064800AF6E000EB06EAC9EAC9CAC8AAC98AC940D
:10065800AB9CAB88AB8E1200000E016E000E026ED2
:10066800000E036E000E046E1200F2C029F0F3C0F3
:100678002AF0F4C02BF0F5C02CF01200D388D38AEE
:10068800D38C070EB46E6D966F861200000E326E14
:080698003250A6EC02F0120042
:020000040030CA
:0E000000240E191EFF0181FF0FC00FE00F40FC
:00000001FF
