:040000000CEF00F011
:10000800FACF47F0FBCF48F0E9CF49F0FDED00F01B
:1000180071EF01F030BE05D0305011E12F04D8B097
:100028000ED02FC0ECF030C0EDF00001EC1FED1F3A
:10003800EC4BED2BECC0EEF0EDC0EFF005D02FC08F
:10004800EEF030C0EFF000D00001EE511D5C1E5004
:10005800800A0001EC6F0001EF51800A0001EC59A1
:10006800D8B00CD030BE07D0305003E12F04D8A050
:1000780002D0818404D08194838603D081948396AE
:1000880000D032BE05D0325011E13104D8B00ED0C4
:1000980031C0ECF032C0EDF00001EC1FED1FEC4B6D
:1000A800ED2BECC0F0F0EDC0F1F005D031C0F0F070
:1000B80032C0F1F000D00001F0511D5C1E50800AE2
:1000C8000001EC6F0001F151800A0001EC59D8B031
:1000D8000DD032BE08D0325003E13104D8A003D08D
:1000E8008284839606D08294818003D08294819002
:1000F80000D0090E1D181E10D8B407D0010E1D24FB
:100108001D6E000E1E201E6E05D0000E1E6E000E07
:100118001D6E00D01200CCEC01F0000E146E000E23
:10012800136E000E166E000E156E000E226E000E77
:10013800216E000E246E000E236E000E106E000E4F
:100148000F6E000E126E000E116E000E2E6E000E57
:100158002D6E000E286E000E276E000E0A6E000E21
:10016800096E0001F769000E0001A06F000EA16F73
:10017800000EA26F000EA36F000E066E000E056E35
:10018800000E3E6E020E0001F86F000E016E000EAA
:10019800026E000E036E000E046E1AEC02F0020EE0
:1001A8000001F86F05D0000E1A6E010E196E00D00E
:1001B80004BEF9D70450031008E1880E015C130E41
:1001C8000258D8B002D0EFD700D00EEC00F084A2CD
:1001D80002D0838801D0839884A002D0838A01D07A
:1001E800839A80AA02D0838C01D0839CEED70CEF2F
:1001F80000F00600EACF4AF0E1CF4BF0E2CF4CF036
:10020800D9CF4DF0DACF4EF0F3CF4FF0F4CF50F016
:10021800F6CF51F0F7CF52F0F8CF53F0F5CF54F0B6
:10022800F2A40CD0010E0126000E022203220422A1
:10023800F80ED76E2F0ED66EF29400D054C0F5FF8C
:1002480053C0F8FF52C0F7FF51C0F6FF50C0F4FF8B
:100258004FC0F3FF4EC0DAFF4DC0D9FF4CC0E2FFDC
:100268004BC0E1FF4AC0EAFF49C0E9FF48C0FBFFB5
:1002780047C0FAFF11000001ED6F0001EDA102D0A7
:10028800C28401D0C294EDC0ECF0030E0001EC175B
:10029800020E0001EC6101D002D0C28601D0C296E4
:1002A800EDC0ECF0070E0001EC17040E0001EC6144
:1002B80001D002D0C28801D0C298EDC0ECF00F0E78
:1002C8000001EC17080E0001EC6101D002D0C28ACF
:1002D80001D0C29AC280C282120001EE58F013EE19
:1002E800FCF0EE6AE550E150FCE1E250FAE101EE83
:1002F80000F0580EEE6AE806FDE100EE60F0580ED8
:10030800EE6AE806FDE100EE01F0460EEE6AE80648
:10031800FDE1D60EF66E030EF76E000EF86E00EED7
:10032800B8F010EE34F00900F5CFEEFFE550E150DB
:10033800FAE100018FEF00F0D59ED59CD59AD586BD
:10034800F80ED76E2F0ED66EF184D09EF28AF28EFA
:10035800D58ECD90CD9ECD9CCF0ECD16CD96CD927F
:10036800CD80F80ECF6E2F0ECE6E9598959A959CEF
:10037800958095829584959694949390939494807F
:100388009482968496829680928A9288848E1200AD
:10039800000E016E000E026E000E036E000E046E5B
:1003A800000E0001906F000E916F000E926F000E0C
:1003B800936F2CEC02F0000E0001F76F35EC02F0A1
:1003C80005EC02F0A0EC01F03DEC02F01200009602
:1003D8004300964300964300964300E04100A04244
:1003E80000704200E041CD4C3ECDCC3DCD4C3ECDE1
:1003F800CC3D00614400D74300C84300AF43C80068
:100408000000C19AC198C186C184C192C190C09EA2
:10041800C086C088C08AC050F80B0609C06EC29456
:10042800C296C298C29AC292C2801200B89AB8986C
:10043800B886B892B890330EAF6E000EB06EAC9E10
:10044800AC9CAC8AAC98AC94AB9CAB88AB8E1200DD
:10045800000E016E000E026E000E036E000E046E9A
:100468001200D388D38AD38C070EB46E6D966F862C
:0E0478001200000E386E38503FEC01F01200FA
:020000040030CA
:0E000000240E191EFF0181FF0FC00FE00F40FC
:00000001FF
