:020000001028C6
:10000800FE00030EF1000408F2000A08F300831250
:1000180003137F08F400BF281128F501F601F70142
:10002800F801A001A101A201A301A401F920A500E2
:10003800FA20A600FB20A700FC20A800FD20A900AC
:100048008301F228031083120313061D0314031CF3
:10005800312883120313851434288312031385105F
:100068000310861C0314031C3D2883120313051474
:1000780040288312031305100310061C0314031CE5
:1000880049288312031385174C28831203138513F9
:100098000310051E0314031C5528831203130517A8
:1000A80058288312031305130310851D0314031C1A
:1000B800612883120313861608008312031386121D
:1000C80008008D2801308312031395001014F801DD
:1000D800F80A0800831203130C1C08000C101010F7
:1000E800FC308F0017308E000230AA002A08F80072
:1000F80008002620F7018312031395010330AA0094
:100108002A08F800080064307702031C0800F80188
:10011800080078088400043004020318080001303D
:100128008A000030040782000800FC3083120313A1
:100138008F0018308E00831603130C1083120313DC
:100148000C10CF309005101590119010101010144D
:10015800080083120313121587309205FC309205AC
:10016800831603138611113092008312031395012D
:100178000C30970008000B110130F0007008F707E9
:100188007408FF0073088A0072088400710E8300E7
:10019800FE0E7E0E090083160313861106158614BB
:1001A8000614051685158510051085130513861286
:1001B800080083160313811281110108F8390138E8
:1001C80081000B118B168B1708000730831203135D
:1001D8009F00F701F801F601F5010800E920CF209A
:1001E800AD209920DD206520F7280134023406343B
:0401F80008340C3487
:0802000066286E287D2887287E
:02400E0018FF99
:00000001FF
