:020000001028C6
:10000800FE00030EF1000408F2000A08F300831250
:1000180003137F08F400B0281128F501F601F70151
:10002800F801A001A101A201A301A401EA20A500F1
:10003800EB20A600EC20A700ED20A800EE20A900E8
:100048008301E3284E28043083120313950010140B
:10005800F801F80A0800831203130C1C08000C109E
:100068001010FC308F0017308E000230AA002A08CA
:10007800F80008005A20F701831203139501033092
:10008800AA002A08F800080002307702031C0800BA
:10009800F8010800780884000430040203180800F6
:1000A80000308A00EF30040782000800831203132F
:1000B800061D62288312031385146528831203130F
:1000C8008510861C6B288312031305146E2883126F
:1000D80003130510061C7428831203138517772849
:1000E800831203138513051E7D2883120313051736
:1000F8008028831203130513851D86288312031392
:10010800861608008312031386120800FC30831237
:1001180003138F0018308E00831603130C108312FC
:1001280003130C10CF30900510159011901010107B
:100138001014080083120313121587309205FC303F
:10014800920583160313861111309200831203134C
:1001580095010C30970008000B110130F000700871
:10016800F7077408FF0073088A0072088400710E8C
:100178008300FE0E7E0E09008316031386110615F2
:1001880086140614051685158510051085130513A4
:100198008612080083160313811281110108F839A9
:1001A800013881000B118B168B170800073083125A
:1001B80003139F00F701F801F601F5010800DA20A2
:1001C800C0209E208A20CE202620E8280134023430
:0E01D800063408340C3427282F283E284828E7
:02400E0018FF99
:00000001FF
