:040000000CEF00F011
:10000800FACF01F0FBCF02F0E9CF03F0C4ED01F025
:100018007EEF02F0000E336E000E346E000E2F6E6F
:10002800000E316E000E326E000E306E000E286E1D
:10003800000E276E000E2A6E000E296E000E2C6E22
:10004800000E2B6E000E2E6E000E2D6E000E246E0E
:10005800000E236E000E266E000E256E0EEC02F0CA
:1000680087EC02F031EC02F064EC02F000D081B4CD
:1000780019D02B502C10D8A415D0000E2C6E010EC0
:100088002B6E0A0E23182410D8B407D0010E23248F
:10009800236E000E2420246E05D0FF0E246EF60E6B
:1000A800236E00D081B019D02D502E10D8A415D0B1
:1000B800000E2E6E010E2D6E0A0E25182610D8B4CD
:1000C80007D0010E2524256E000E2620266E05D0A9
:1000D800FF0E266EF60E256E00D081A405D0000E08
:1000E8002C6E000E2B6E00D081A005D0000E2E6E57
:1000F800000E2D6E00D023502410D8B403D01E6AF1
:100108001E2A01D01E6A1E461E4683501E18FB0B6F
:100118001E18836E838625502610D8B403D01E6A15
:100128001E2A01D01E6A1E3A83501E18EF0B1E1895
:10013800836E22BE12D02250211006E1110E1F5CE0
:10014800270E2058D8A009D0000E1F6E000E206E72
:10015800000E216E000E226E00D023C00FF024C0C6
:1001680010F0000E126E640E116E50EC02F00FC00B
:100178001AF010C01BF025C00FF026C010F0000EBA
:10018800126E640E116E50EC02F00FC01CF010C01D
:100198001DF071EC02F06BD70CEF00F0176C181E15
:1001A800D8B0182A18BE0BD0E80E175C030E1858E2
:1001B800D8A005D0030E186EE80E176E00D018AE42
:1001C8000BD0190E175CFC0E1858D8B005D0FC0ED1
:1001D800186E180E176E00D018BE05D0185006E11C
:1001E8001704D8B003D0196A192A01D0196A8350A4
:1001F8001918FE0B1918836E18BE05D018500AE19D
:100208001704D8B007D0E80E1724176E030E18206D
:10021800186E00D017C019F0030E1916193A1946AE
:10022800BD501918DF0B1918BD6E17C00FF018C094
:1002380010F0000E126E040E116E79EC01F00F50E2
:10024800BE6E1200176C181ED8B0182A18BE0BD034
:10025800E80E175C030E1858D8A005D0030E186EC8
:10026800E80E176E00D018AE0BD0190E175CFC0EF6
:100278001858D8B005D0FC0E186E180E176E00D09E
:1002880018BE05D0185006E11704D8B003D0196A73
:10029800192A01D0196A82501918FE0B1918826E92
:1002A80018BE05D018500AE11704D8B007D0E80ED8
:1002B8001724176E030E1820186E00D017C019F0F7
:1002C800030E1916193ABA501918CF0B1918BA6E25
:1002D80017C00FF018C010F0000E126E040E116E49
:1002E80079EC01F00F50BB6E1200000E146E12AEC6
:1002F80007D0116C121ED8B0122A010E146E00D04D
:1003080010AE07D00F6C101ED8B0102A010E141AA8
:1003180000D0000E166E000E156E11501210D8B4D3
:1003280021D0010E136E05D0D89011361236132A3B
:1003380000D012BE02D0F8D700D0D89015361636A5
:1003480011500F5C12501058D8A006D011500F5EF3
:100358001250105A158000D0D89012321132132E34
:10036800ECD700D01450D8B405D0156C161ED8B0F0
:10037800162A00D015C00FF016C010F000D01200D9
:100388000600EACF04F0E1CF05F0E2CF06F0D9CFBE
:1003980007F0DACF08F0F3CF09F0F4CF0AF0F6CF80
:1003A8000BF0F7CF0CF0F8CF0DF0F5CF0EF0F2A46C
:1003B8000CD0010E1F26000E202221222222F80E28
:1003C800D76E2F0ED66EF29400D09EA006D0F80EEF
:1003D800CF6E2F0ECE6E9E9000D00EC0F5FF0DC0D2
:1003E800F8FF0CC0F7FF0BC0F6FF0AC0F4FF09C006
:1003F800F3FF08C0DAFF07C0D9FF06C0E2FF05C057
:10040800E1FF04C0EAFF03C0E9FF02C0FBFF01C02F
:10041800FAFF1100D59ED59CD59AD586F80ED76ED1
:100428002F0ED66EF184D09EF28AF28ED58ECD90A4
:10043800CD9ECD9CCF0ECD16CD96CD92CD80F80E0B
:10044800CF6E2F0ECE6EF19E000E1F6E000E206E28
:10045800000E216E000E226E1200CA96CA98CA9A21
:10046800CA9CCA84CA90CA92CA84CA50870B5809BF
:10047800CA6ECA50FC0B0109CA6ECA94F90ECB6E3B
:10048800CA84BD50F00B0C09BD6EBA50F00B0C09B4
:10049800BA6EF90ECB6E12000F501102F3CF13F0A3
:1004A800F4CF14F00F501202F3501426105011021A
:1004B800F350142613C00FF014C010F000D012002F
:1004C800959495969598938093829384958A938C26
:1004D800959094909492949412001AC017F01BC0AF
:1004E80018F0D2EC00F01CC017F01DC018F026EC74
:1004F80001F0120000EE1FF0160EEE6AE806FDE1AC
:1005080000010EEF00F0D388D38AD38C070EB46EA7
:060518006D966F861200D3
:020000040030CA
:0E0000002408191EFF0181FF0FC00FE00F4002
:00000001FF
