:040000000CEF00F011
:10000800FACF01F0FBCF02F0E9CF03F03BED02F0AD
:10001800E5EF02F0000E366E000E376E000E326EFF
:10002800000E346E000E356E000E336E000E296E13
:10003800000E286E000E2B6E000E2A6E000E2D6E1E
:10004800000E2C6E000E2F6E000E2E6E000E256E0A
:10005800000E246E000E276E000E266E85EC02F050
:10006800F0EC02F0A8EC02F0C7EC02F095D099D0C1
:1000780081BA04D083848386839803D0839483963B
:10008800838881B00DD0000E316E010E306E000EE7
:10009800206E000E216E000E226E000E236E0FD011
:1000A80081A40DD001D00BD0000E1B6E000E1A6E6D
:1000B800000E1D6E000E1C6ED8EC02F000D0000E73
:1000C8001B6E000E1A6E000E1D6E000E1C6ED8EC14
:1000D80002F067D0000E1B6E000E1A6E000E1D6E29
:1000E800000E1C6ED8EC02F020C00FF021C010F0FA
:1000F80022C011F023C012F0E80E136E030E146E26
:10010800000E156E000E166EEAEC00F012BE0CD052
:100118001250111006E1F50E0F5C010E1058D8A010
:1001280003D01E6A1E2A01D01E6A1E461E46835030
:100138001E18FB0B1E18836E8396839823BE31D03E
:100148002350221006E1890E205C130E2158D8A0F6
:1001580028D0000E316E020E22D023D081BA0CD0E6
:10016800FC0E1B6E180E1A6E030E1D6EE80E1C6E2A
:10017800D8EC02F083840CD08394FC0E1B6E7C0EAA
:100188001A6EFE0E1D6E0C0E1C6ED8EC02F000D01E
:100198008396839881B005D0000E316E000E306EC4
:1001A80000D030C01EF031C01FF01F50000AD8A484
:1001B800F8D71E50000AD8B45BD7010AD8B48AD73A
:1001C800030AD8B4CBD7EDD70CEF00F0000E186EA9
:1001D80012AE0BD0121E111E101E0F6C000E102234
:1001E80011221222010E186E00D016AE09D0161E6A
:1001F800151E141E136C000E14221522162200D090
:100208001350141015101610D8B429D0010E176EFB
:1002180007D0D8901336143615361636172A00D05C
:1002280016BE02D0F6D700D013500F5C14501058E9
:100238001550115816501258D8A009D013500F5EF7
:100248001450105A1550115A1650125A00D0D890FE
:100258001632153214321332172EE6D700D0185042
:10026800D8B409D0121E111E101E0F6C000E1022D9
:100278001122122200D00FC00FF010C010F011C0D0
:1002880011F012C012F000D01200176C181ED8B06E
:10029800182A18BE0BD0E80E175C030E1858D8A001
:1002A80005D0030E186EE80E176E00D018AE0BD0EE
:1002B800190E175CFC0E1858D8B005D0FC0E186E35
:1002C800180E176E00D018BE05D0185006E1170496
:1002D800D8B003D0196A192A01D0196A835019189D
:1002E800FE0B1918836E18BE05D018500AE11704C2
:1002F800D8B007D0E80E1724176E030E1820186E12
:1003080000D017C019F0030E1916193A1946BD5036
:100318001918DF0B1918BD6E17C00FF018C010F0B0
:10032800000E126E040E116EF0EC01F00F50BE6E4E
:100338001200176C181ED8B0182A18BE0BD0E80E79
:10034800175C030E1858D8A005D0030E186EE80ED7
:10035800176E00D018AE0BD0190E175CFC0E18588B
:10036800D8B005D0FC0E186E180E176E00D018BE47
:1003780005D0185006E11704D8B003D0196A192A15
:1003880001D0196A82501918FE0B1918826E18BE0E
:1003980005D018500AE11704D8B007D0E80E172482
:1003A800176E030E1820186E00D017C019F0030E30
:1003B8001916193ABA501918CF0B1918BA6E17C06E
:1003C8000FF018C010F0000E126E040E116EF0EC53
:1003D80001F00F50BB6E1200000E146E12AE07D063
:1003E800116C121ED8B0122A010E146E00D010AE75
:1003F80007D00F6C101ED8B0102A010E141A00D0A6
:10040800000E166E000E156E11501210D8B421D0C1
:10041800010E136E05D0D89011361236132A00D06B
:1004280012BE02D0F8D700D0D89015361636115023
:100438000F5C12501058D8A006D011500F5E125001
:10044800105A158000D0D89012321132132EECD7E2
:1004580000D01450D8B405D0156C161ED8B0162A82
:1004680000D015C00FF016C010F000D01200060022
:10047800EACF04F0E1CF05F0E2CF06F0D9CF07F0DC
:10048800DACF08F0F3CF09F0F4CF0AF0F6CF0BF08B
:10049800F7CF0CF0F8CF0DF0F5CF0EF0F2A40CD09A
:1004A800010E2026000E212222222322F80ED76ECA
:1004B8002F0ED66EF29400D09EA006D0F80ECF6E06
:1004C8002F0ECE6E9E9000D00EC0F5FF0DC0F8FF27
:1004D8000CC0F7FF0BC0F6FF0AC0F4FF09C0F3FF1A
:1004E80008C0DAFF07C0D9FF06C0E2FF05C0E1FF78
:1004F80004C0EAFF03C0E9FF02C0FBFF01C0FAFF26
:100508001100D59ED59CD59AD586F80ED76E2F0E9C
:10051800D66EF184D09EF28AF28ED58ECD90CD9E85
:10052800CD9CCF0ECD16CD96CD92CD80F80ECF6E48
:100538002F0ECE6EF19E000E206E000E216E000E64
:10054800226E000E236E1200CA96CA98CA9ACA9CD6
:10055800CA84CA90CA92CA84CA50870B5809CA6EFC
:10056800CA50FC0B0109CA6ECA94F90ECB6ECA8434
:10057800BD50F00B0C09BD6EBA50F00B0C09BA6EE9
:10058800F90ECB6E12009594959695989380938268
:100598009384938A958A938C958C9386958E95905F
:1005A80094909492949412001AC017F01BC018F0FB
:1005B80049EC01F01CC017F01DC018F09DEC01F0CB
:1005C800120000EE20F0180EEE6AE806FDE1000EBB
:1005D800F86E00010EEF00F0D388D38AD38C070E93
:0805E800B46E6D966F861200DF
:020000040030CA
:0E0000002408191EFF0181FF0FC00FE00F4002
:00000001FF
