:0400000007EF00F016
:0A000800588230ED1EF0DDEF1FF00E
:10080000004176657261676520616D6F756E742059
:100810006F6620697465726174696F6E73207065AC
:100820007220627574746F6E2073746174757320B6
:10083000636865636B3A20252E34660A0053756D34
:1008400020697465726174696F6E732C20416D6FDD
:10085000756E74206379636C65733A20256C6C64E3
:100860002C20256C6C640A00696E66006E616E0057
:010870000087
:10087200000E0001886F62C089F063C08AF064C014
:100882008BF065C08CF08CBF4BEF04F049EF04F0A5
:100892005FEF04F0010E886F89C007F08AC008F08C
:1008A2008BC009F08CC00AF0A8EC20F007C089F0D8
:1008B20008C08AF009C08BF00AC08CF0000E00015B
:1008C2008E6F000E8D6FFCC078F0FDC079F08851FC
:1008D200D8B46EEF04F070EF04F084EF04F08851A6
:1008E200D8A476EF04F078EF04F07EEF04F0000E67
:1008F2006E6F2B0E6D6F82EF04F0000E6E6F2D0E79
:100902006D6F6DC088F089C007F08AC008F08BC097
:1009120009F08CC00AF038EC1CF007040810D8A4C7
:1009220095EF04F097EF04F0CAEF04F0000188514C
:10093200D8B49EEF04F0A0EF04F0A9EF04F088C051
:10094200ADF17807D8A07907000E8E6F010E8D6F7A
:10095200AD0E8D25076E010E8E21086E680E096E92
:10096200080E0A6E68EC20F00001FD0E7827FF0EDB
:10097200792360C018F061C019F0AD0E1A6E010E35
:100982001B6E78C01CF079C01DF0B5EC1EF049EF6B
:1009920009F089C007F08AC008F08BC009F08CC04A
:1009A2000AF038EC1CF007500810D8A4DBEF04F072
:1009B200DDEF04F010EF05F000018851D8B4E4EF48
:1009C20004F0E6EF04F0EFEF04F088C0ADF1780731
:1009D200D8A07907000E8E6F010E8D6FAD0E8D259A
:1009E200076E010E8E21086E6C0E096E080E0A6EDD
:1009F20068EC20F00001FD0E7827FF0E792360C01D
:100A020018F061C019F0AD0E1A6E010E1B6E78C09F
:100A12001CF079C01DF0B5EC1EF049EF09F0000E94
:100A220000018F6F000E906F800E916F3F0E926FDC
:100A3200000E776F000E766F89C007F08AC008F04B
:100A42008BC009F08CC00AF0000E0B6E000E0C6E0B
:100A5200000E0D6E000E0E6E90EC1DF0D8B034EF4D
:100A620005F036EF05F015EF06F043EF05F07AC01A
:100A72008FF07BC090F07CC091F07DC092F00001BD
:100A8200764B772B8FC007F090C008F091C009F029
:100A920092C00AF0000E0B6E000E0C6E200E0D6E50
:100AA200410E0E6EA9EC10F007C07AF008C07BF080
:100AB20009C07CF00AC07DF000017A51895D076EA1
:100AC2007B518A59086E7C518B59096E7D518C5924
:100AD2000A6E26EC1FF00ABE7AEF05F00A500910E2
:100AE200081009E1020E075CD8A07AEF05F07CEF4E
:100AF20005F038EF05F07AC020F07BC021F07CC011
:100B020022F07DC023F089C024F08AC025F08BC07A
:100B120026F08CC027F0B6EC1BF0D8A093EF05F0BE
:100B220095EF05F038EF05F000018F51895D076EF2
:100B320090518A59086E91518B59096E92518C5974
:100B42000A6E26EC1FF00ABEB4EF05F00A50091037
:100B5200081007E1020E075CD8B0B2EF05F0B4EF5F
:100B620005F0FCEF05F08FC089F090C08AF091C0CB
:100B72008BF092C08CF015EF06F08FC021F090C080
:100B820022F091C023F092C024F0000E256E000ED8
:100B9200266E200E276E410E286EBEEC12F021C08A
:100BA2008FF022C090F023C091F024C092F0000197
:100BB2007607D8A077078F51895D076E90518A59C1
:100BC200086E91518B59096E92518C590A6E26EC1E
:100BD2001FF00ABEFAEF05F00A500910081007E1EB
:100BE200020E075CD8B0F8EF05F0FAEF05F0FCEF63
:100BF20005F0B4EF05F089C020F08AC021F08BC067
:100C020022F08CC023F08FC024F090C025F091C058
:100C120026F092C027F0B6EC1BF0D8A013EF06F036
:100C220015EF06F0BEEF05F066C070F070C071F00F
:100C320057BE1EEF06F020EF06F026EF06F056C074
:100C420069F057C06AF02BEF06F0000E00016A6FE0
:100C5200060E696F69C074F06AC075F00001744BCA
:100C6200752B660E7119D8A439EF06F03BEF06F02A
:100C72005BEF06F077BF42EF06F040EF06F04EEF73
:100C820006F0000E8F6F000E906F800E916F3F0E78
:100C9200926F000E776F000E766F670E7019D8B4E0
:100CA20055EF06F057EF06F05BEF06F0765174272A
:100CB20077517523000E7F6F000E7E6F89C080F022
:100CC2008AC081F08BC082F08CC083F08FC07AF032
:100CD20090C07BF091C07CF092C07DF0ECEF06F00A
:100CE20080C021F081C022F082C023F083C024F0B2
:100CF2008FC025F090C026F091C027F092C028F056
:100D0200BEEC12F021C03AF022C03BF023C03CF00E
:100D120024C03DF01EEC17F03AC084F03BC085F0D1
:100D22003CC086F03DC087F084C007F085C008F063
:100D320086C009F087C00AF033EC1BF007C072F0DE
:100D420008C073F080C020F081C021F082C022F080
:100D520083C023F084C00BF085C00CF086C00DF078
:100D620087C00EF08FC007F090C008F091C009F064
:100D720092C00AF0A9EC10F007C024F008C025F0D8
:100D820009C026F00AC027F000EC20F020C080F055
:100D920021C081F022C082F023C083F08FC021F0F5
:100DA20090C022F091C023F092C024F0000E256E74
:100DB200000E266E200E276E410E286EBEEC12F03B
:100DC20021C08FF022C090F023C091F024C092F095
:100DD20000017E4B7F2B74517E5D7F51800A4E6EE7
:100DE2007551800A4E58D8A0F9EF06F0FBEF06F0D5
:100DF20071EF06F08FC007F090C008F091C009F0C3
:100E020092C00AF0000E0B6E000E0C6EA00E0D6E5C
:100E1200400E0E6EA9EC10F007C084F008C085F0F9
:100E220009C086F00AC087F080C020F081C021F09E
:100E320082C022F083C023F084C024F085C025F054
:100E420086C026F087C027F0B6EC1BF0D8B02CEF96
:100E520007F02EEF07F039EF07F0000E0001846F64
:100E6200000E856F000E866F000E876F62EF07F02F
:100E720080C007F081C008F082C009F083C00AF088
:100E820084C00BF085C00CF086C00DF087C00EF058
:100E920090EC1DF0D8A050EF07F052EF07F062EF90
:100EA20007F0000172B158EF07F05AEF07F062EF56
:100EB20007F0000E846F000E856F000E866F000E25
:100EC200876F89C007F08AC008F08BC009F08CC018
:100ED2000AF084C00BF085C00CF086C00DF087C00C
:100EE2000EF049EC0EF007C080F008C081F009C096
:100EF20082F00AC083F080C020F081C021F082C05D
:100F020022F083C023F0000E0B6E000E0C6E200E3A
:100F12000D6E410E0E6E7AC007F07BC008F07CC0E9
:100F220009F07DC00AF0A9EC10F007C024F008C057
:100F320025F009C026F00AC027F0B6EC1BF0D8A0B5
:100F4200A5EF07F0A7EF07F0D0EF07F00001764B0F
:100F5200772B7AC007F07BC008F07CC009F07DC017
:100F62000AF0000E0B6E000E0C6E200E0D6E410E7E
:100F72000E6EA9EC10F007C07AF008C07BF009C031
:100F82007CF00AC07DF0660E00017119D8A4CCEF86
:100F920007F0CEEF07F0D0EF07F0744B752B7AC055
:100FA2008FF07BC090F07CC091F07DC092F076C053
:100FB20067F077C068F0000E00016F6F000E6C6F73
:100FC200000E6B6F000E7F6F000E7E6FCEEF08F08B
:100FD20080C021F081C022F082C023F083C024F0BF
:100FE2008FC025F090C026F091C027F092C028F063
:100FF200BEEC12F021C03AF022C03BF023C03CF01C
:1010020024C03DF01EEC17F03AC084F03BC085F0DE
:101012003CC086F03DC087F084C007F085C008F070
:1010220086C009F087C00AF033EC1BF008BE25EF3A
:1010320008F0085007E10A0E075CD8B023EF08F069
:1010420025EF08F035EF08F084C007F085C008F0FE
:1010520086C009F087C00AF033EC1BF007C072F0BB
:1010620008C073F03AEF08F0000E0001736F090E2A
:10107200726F00016F51D8A441EF08F043EF08F0FE
:101082006BEF08F068BF4AEF08F048EF08F06BEF2B
:1010920008F0AD0E8D25D96E010E8E21DA6E2E0E60
:1010A200DF6E8D4B8E2B7807D8A07907010E6F6FFC
:1010B2006BEF08F0AD0E8D25D96E010E8E21DA6E22
:1010C200300EDF6E8D4B8E2B7807D8A079076B0719
:1010D200D8A06C076B516C11D8A472EF08F074EFB2
:1010E20008F05BEF08F0AD0E8D25D96E010E8E2152
:1010F200DA6E7251300FDF6E8D4B8E2B7807D8A0CF
:10110200790780C020F081C021F082C022F083C024
:1011120023F084C00BF085C00CF086C00DF087C0B0
:101122000EF08FC007F090C008F091C009F092C095
:101132000AF0A9EC10F007C024F008C025F009C09D
:1011420026F00AC027F000EC20F020C080F021C079
:1011520081F022C082F023C083F08FC021F090C0C2
:1011620022F091C023F092C024F0000E256E000EF2
:10117200266E200E276E410E286EBEEC12F021C0A4
:101182008FF022C090F023C091F024C092F00001B1
:101192006707D8A068077E4B7F2B74517E5D7F5115
:1011A200800A4E6E7551800A4E58D8B0DBEF08F0B7
:1011B200DDEF08F0EBEF08F08EBFE9EF08F08E519B
:1011C20009E14B0E8D5DD8A0E9EF08F0EBEF08F0D6
:1011D200E9EF07F0000E7F6F4F0E7E6FAD0E7E259A
:1011E200D96E010E7F21DA6E000EDF6EAD0E4E6EED
:1011F200010E4F6E8D514E5E8E514F5A7E514E24CE
:10120200076E7F514F20086EAD0E096E010E0A6EF9
:101212008DC00BF08EC00CF0B5EC1FF000018D51AB
:101222007E5D8D6F8E517F598E6F8851D8A41CEFD1
:1012320009F01FEF09F0010E20EF09F0000E7E6F9A
:101242007F6B8851D8B428EF09F02AEF09F035EF07
:1012520009F08D07D8A08E07AD0E8D25D96E010E2F
:101262008E21DA6E88C0DFFF7E51785F7F51795B15
:1012720060C018F061C019F0AD0E8D251A6E010E16
:101282008E211B6E78C01CF079C01DF0B5EC1EF0EB
:101292001200010E0001D827000ED923DA23DB2326
:1012A200DC23DD23DE23DF23EA51D8A45BEF09F040
:1012B2005DEF09F068EF09F083A462EF09F064EFD3
:1012C20009F079EF09F0000EE56F79EF09F0EA0510
:1012D200D8A46EEF09F070EF09F079EF09F083B44A
:1012E20075EF09F077EF09F079EF09F0010EE56F7C
:1012F2000101A851D8B480EF09F082EF09F087EF1D
:1013020009F08180000EA86F88EF09F08190A35147
:10131200D8B48EEF09F090EF09F095EF09F08182D1
:10132200000EA36F96EF09F081929E51D8B49CEF04
:1013320009F09EEF09F0A3EF09F08184000E9E6F81
:10134200A4EF09F081949951D8B4AAEF09F0ACEF57
:1013520009F0B1EF09F08188000E996FB2EF09F040
:1013620081989451D8B4B8EF09F0BAEF09F0BFEF01
:1013720009F0818A000E946FC0EF09F0819A57BF7D
:10138200D1EF09F057515611551154115311521101
:10139200511108E15005D8A0D1EF09F0D3EF09F0BF
:1013A20026EF0BF021EE50F0070EDE6AE806FDE2B2
:1013B2000001D851D027D951D123DA51D223DB51A0
:1013C200D323DC51D423DD51D523DE51D623DF5183
:1013D200D723010EC827000EC923CA23CB23CC234F
:1013E200CD23CE23CF2320EED8F0070EDE6AE80607
:1013F200FDE2010E01018C27000E8D238E238F2327
:1014020090239123922393230001EA51D8A40CEF55
:101412000AF00EEF0AF044EF0AF0E551D8B414EFE7
:101422000AF016EF0AF040EF0AF0010E0101282738
:10143200000E29232A232B232C232D232E232F2373
:101442002FBF33EF0AF02F512E112D112C112B111A
:101452002A11291109E1030E285DD8A033EF0AF001
:1014620035EF0AF07CEF0AF0010E0001EA6F21EE7F
:1014720028F0070EDE6AE806FDE27CEF0AF0010EB4
:10148200E56F38EF0AF0EA05D8A44AEF0AF04CEF0C
:101492000AF07CEF0AF0E551D8A452EF0AF054EFBB
:1014A2000AF078EF0AF0010E01012827000E292325
:1014B2002A232B232C232D232E232F232FBF71EFFF
:1014C2000AF02F512E112D112C112B112A11291135
:1014D20009E1030E285DD8A071EF0AF073EF0AF05C
:1014E2007CEF0AF0000E0001EA6F38EF0AF0000EFE
:1014F200E56F38EF0AF0000E0301046F0001EF51AF
:10150200D8A486EF0AF088EF0AF09AEF0AF0EA050B
:10151200D8A48EEF0AF090EF0AF09AEF0AF00101D8
:10152200A82B010E0301046F010E0001EF6FAFEF54
:101532000AF0EF05D8A4A0EF0AF0A2EF0AF0AFEF8D
:101542000AF0EA51D8A4A8EF0AF0AAEF0AF0AFEF26
:101552000AF00101A32B000E0001EF6FE051D8A4A5
:10156200B5EF0AF0B7EF0AF0CBEF0AF0030104512E
:10157200D8B4BEEF0AF0C0EF0AF026EF0BF021EE6E
:1015820000F0070EDE6AE806FDE2010E0001E06FE0
:1015920026EF0BF0E051D8B4D1EF0AF0D3EF0AF006
:1015A20026EF0BF003010451D8B4DAEF0AF0DCEFB6
:1015B2000AF0DEEF0AF00001E02B010107BFF1EFB4
:1015C2000AF007510611051104110311021101114C
:1015D20009E1320E005DD8A0F1EF0AF0F3EF0AF054
:1015E2001BEF0BF00001E005D8A4FAEF0AF0FCEFC4
:1015F2000AF000EF0BF001019E2B18EF0BF0020E28
:10160200E019D8A407EF0BF009EF0BF00DEF0BF088
:101612000101992B18EF0BF0030EE019D8A414EF77
:101622000BF016EF0BF018EF0BF00101942B000EEC
:101632000001E06F010E01010027000E01230223C9
:101642000323042305230623072301015FBF3AEF87
:101652000BF05F515E115D115C115B115A110BE1D0
:10166200E80E585D030E5959D8A03AEF0BF03CEF43
:101672000BF0CAEF0BF03D0E0001B46F080EB56F10
:10168200D0C0B6F0D1C0B7F0D2C0B8F0D3C0B9F074
:10169200D4C0BAF0D5C0BBF0D6C0BCF0D7C0BDF044
:1016A200C8C0BEF0C9C0BFF0CAC0C0F0CBC0C1F054
:1016B200CCC0C2F0CDC0C3F0CEC0C4F0CFC0C5F024
:1016C200DAEC20F0D0C007F0D1C008F0D2C009F0A7
:1016D200D3C00AF0D4C00BF0D5C00CF0D6C00DF0C8
:1016E200D7C00EF0010E8BEC14F007C021F008C039
:1016F20022F009C023F00AC024F0C8C007F0C9C014
:1017020008F0CAC009F0CBC00AF0CCC00BF0CDC0C3
:101712000CF0CEC00DF0CFC00EF0010E8BEC14F029
:1017220007C025F008C026F009C027F00AC028F03B
:10173200BEEC12F021C000F322C001F323C002F379
:1017420024C003F3010E0001B46F080EB56F00C38D
:10175200B6F001C3B7F002C3B8F003C3B9F0DAECD4
:1017620020F020EEC8F0070EDE6AE806FDE220EE69
:10177200D0F0070EDE6AE806FDE221EE58F0070E11
:10178200DE6AE806FDE221EE50F0070EDE6AE806A8
:10179200FDE2120095C0D9FF96C0DAFFDECFF6FF58
:1017A200DDCFF7FF0800F550250AD8A4DBEF0BF0D8
:1017B200DDEF0BF034EF0EF095C0D9FF96C0DAFFE3
:1017C200DE2A000EDD22000E0001FD6F000EFC6F0E
:1017D200FCC0FEF05668576895C0D9FF96C0DAFF84
:1017E200DECFF6FFDDCFF7FF0800F5502E0AD8A4B2
:1017F200FDEF0BF0FFEF0BF06DEF0CF0000E576EEC
:10180200000E566E95C0D9FF96C0DAFFDE2A000E92
:10181200DD2295C0D9FF96C0DAFFDECFF6FFDDCF1D
:10182200F7FF0800F5502A0AD8A41AEF0CF01CEFB3
:101832000CF039EF0CF095C0D9FF96C0DAFFDE2A22
:10184200000EDD2297C0D9FF98C0DAFFDFCF99F0F2
:10185200020EDE26DFCF9AF0000EDD2299C0D9FFFC
:101862009AC0DAFFDECF56F0DDCF57F06DEF0CF005
:1018720095C0D9FF96C0DAFFDECF0DF0DDCF0EF0B6
:101882008EEC1AF00DC056F00EC057F050EF0CF06F
:1018920095C0D9FF96C0DAFFDE2A000EDD2295C080
:1018A200D9FF96C0DAFFDECFF6FFDDCFF7FF0800E3
:1018B200F5CF99F0D00E000199259A6F9B6BFF0E20
:1018C2009B239B5109E10A0E9A5DD8A06BEF0CF0A5
:1018D2006DEF0CF049EF0CF095C0D9FF96C0DAFF1E
:1018E200DECFACF0DDCFADF0ACC0F6FFADC0F7FFA0
:1018F2000800F5CFABF09CEF0CF0AC4BAD2BACC0BD
:10190200F6FFADC0F7FF0800F5506C0AD8A48CEFC3
:101912000CF08EEF0CF0B5EF0CF04C0EAB6FAC4B45
:10192200AD2BB5EF0CF0690EAB6FB5EF0CF0000EFE
:10193200AB6FB5EF0CF0AB51996F9A6B9A51000AED
:10194200D8B4A6EF0CF098EF0CF09951640AD8B411
:1019520094EF0CF00D0AD8B494EF0CF0050AD8B449
:101962007EEF0CF098EF0CF0ACC0F6FFADC0F7FFC5
:101972000800F550640AD8B4C1EF0CF0C3EF0CF0C4
:1019820024EF0DF0ACC0F6FFADC0F7FF0800F55034
:10199200690AD8A4CFEF0CF0D1EF0CF05FEF0DF095
:1019A20024EF0DF097C0D9FF98C0DAFFDFCF99F08E
:1019B200020EDE26DFCF9AF0000EDD2299C0D9FF9B
:1019C2009AC0DAFFDECFA3F0DDCFA4F0000EA4BFF1
:1019D200FF0EA56FA66FA76FA86FA96FAA6F39EF49
:1019E2000DF097C0D9FF98C0DAFFDFCF99F0080E4B
:1019F200DE26DFCF9AF0000EDD2299C0D9FF9AC011
:101A0200DAFFDECF9BF0DECF9CF0DECF9DF0DECFA3
:101A12009EF0DECF9FF0DECFA0F0DECFA1F0DECFD2
:101A2200A2F09BC0A3F09CC0A4F09DC0A5F09EC0F4
:101A3200A6F09FC0A7F0A0C0A8F0A1C0A9F0A2C0C4
:101A4200AAF039EF0DF0AB51996F9A6B9A51000AD7
:101A5200D8B42EEF0DF039EF0DF099514C0AD8B4ED
:101A6200F2EF0CF0250AD8B4D3EF0CF039EF0DF0F9
:101A7200010EAC25996F000EAD219A6F95C0D9FF6A
:101A820096C0DAFF99C0DEFF9AC0DDFF93C023F053
:101A920094C024F0A3C025F0A4C026F0A5C027F06E
:101AA200A6C028F0A7C029F0A8C02AF0A9C02BF030
:101AB200AAC02CF0E0EC15F048EF0EF095C0D9FF6B
:101AC20096C0DAFFDECFACF0DDCFADF0ACC0F6FFF2
:101AD200ADC0F7FF0800F5CFABF07CEF0DF0AC4BDB
:101AE200AD2B95EF0DF06C0EAB6F95EF0DF0000E78
:101AF200AB6F95EF0DF0AB51996F9A6B9A51000A4B
:101B0200D8B486EF0DF078EF0DF099514C0AD8B4A5
:101B120070EF0DF02A0AD8B474EF0DF00A0AD8B4A7
:101B220070EF0DF078EF0DF0ACC0F6FFADC0F7FF2F
:101B32000800F550660AD8A4A1EF0DF0A3EF0DF04E
:101B42002BEF0EF0D9EF0DF097C0D9FF98C0DAFF56
:101B5200DFCF99F0040EDE26DFCF9AF0000EDD22F1
:101B620099C0D9FF9AC0DAFFDECFA3F0DECFA4F08E
:101B7200DECFA5F0DECFA6F0EEEF0DF097C0D9FFD5
:101B820098C0DAFFDFCF99F0040EDE26DFCF9AF09D
:101B9200000EDD2299C0D9FF9AC0DAFFDECFA3F092
:101BA200DECFA4F0DECFA5F0DECFA6F0EEEF0DF093
:101BB200AB51996F9A6B9A51000AD8B4E3EF0DF0CA
:101BC200EEEF0DF099514C0AD8B4BFEF0DF0200A98
:101BD200D8B4A5EF0DF0EEEF0DF0010EAC25996F24
:101BE200000EAD219A6F95C0D9FF96C0DAFF99C059
:101BF200DEFF9AC0DDFF15EF0EF093C060F094C0D7
:101C020061F0A3C062F0A4C063F0A5C064F0A6C0F6
:101C120065F0ACC0F6FFADC0F7FF0800F5CF66F087
:101C220039EC04F048EF0EF0ACC0F6FFADC0F7FFA0
:101C32000800F550996F9A6B9A51000AD8B424EFB4
:101C42000EF02BEF0EF09951660AD8B4FEEF0DF0AC
:101C52002BEF0EF095C0D9FF96C0DAFFDE2A000EF8
:101C6200DD2248EF0EF095C0D9FF96C0DAFFDECF35
:101C7200F6FFDDCFF7FF0800F550086E096A93C042
:101C82000AF094C00BF0E5EC1DF02BEF0EF0120001
:101C92000A50800B136E0A500A24156E09AE54EFD7
:101CA2000EF056EF0EF057EF0EF015801550D8B427
:101CB2005DEF0EF05FEF0EF074EF0EF01528D8A472
:101CC20065EF0EF067EF0EF06FEF0EF0000E076E8D
:101CD200000E086E000E096E000E0A6E098E000ECE
:101CE2000A6E7CEF0EF0000E076E000E086E000EFC
:101CF200096E000E0A6E0E50800B146E13501418EB
:101D0200D8B486EF0EF088EF0EF089EF0EF0138C48
:101D12000E500E24146E0DAE91EF0EF093EF0EF0F6
:101D220094EF0EF014801450D8B49AEF0EF09CEF9A
:101D32000EF0B1EF0EF01428D8A4A2EF0EF0A4EF2B
:101D42000EF0ACEF0EF0000E0B6E000E0C6E000EDD
:101D52000D6E000E0E6E0D8E000E0E6EB9EF0EF0B1
:101D6200000E0B6E000E0C6E000E0D6E000E0E6E4F
:101D72001550145CD8B0C0EF0EF0C2EF0EF0E9EFD0
:101D82000EF013ACC7EF0EF0C9EF0EF0CBEF0EF072
:101D9200800E131A15C016F014C015F016C014F0F8
:101DA20007C016F00BC007F016C00BF008C016F003
:101DB2000CC008F016C00CF009C016F00DC009F0F6
:101DC20016C00DF00AC016F00EC00AF016C00EF0D2
:101DD200000E166E155014C00FF0106A0F5E000E42
:101DE200105A10BEFEEF0EF0105009E11A0E0F5CF1
:101DF200D8A0FEEF0EF000EF0FF037EF0FF0075014
:101E0200081009100A10D8A409EF0FF00CEF0FF018
:101E1200010E0DEF0FF0000E166E000E076E000E93
:101E2200086E000E096E000E0A6E14C015F040EF27
:101E32000FF016A01FEF0FF021EF0FF027EF0FF0BA
:101E4200D89016300109166E29EF0FF0D89016328D
:101E520007A02EEF0FF030EF0FF031EF0FF0168EDC
:101E62000A340A32093208320732152A1450155C34
:101E7200D8A03EEF0FF040EF0FF01AEF0FF013BCB7
:101E820045EF0FF047EF0FF087EF0FF01550D8A492
:101E92004DEF0FF04FEF0FF059EF0FF0000E076EFE
:101EA200000E086E000E096E000E0A6EA8EF10F00A
:101EB2000B5007260C5008220D5009220E500A2200
:101EC2000AA066EF0FF068EF0FF014EF10F016A003
:101ED2006DEF0FF06FEF0FF075EF0FF0D890163037
:101EE2000109166E77EF0FF0D890163207A07CEF3B
:101EF2000FF07EEF0FF07FEF0FF0168E0A340A32EA
:101F0200093208320732152A14EF10F00B50075C21
:101F12000C5008580D5009580A50800A0F6E0E5086
:101F2200800A0F58D8B098EF0FF09AEF0FF0C5EF74
:101F32000FF007500B5C0F6E08500C58106E0950D2
:101F42000D58116E0A500E58126EFF0E0F24076EB6
:101F5200FF0E1020086EFF0E1120096EFF0E1220D8
:101F62000A6E800E131A166C1650D8A4BBEF0FF02F
:101F7200BDEF0FF0CDEF0FF0010E0726000E082285
:101F820009220A22CDEF0FF00B50075E0C50085ABF
:101F92000D50095A0E500A5A0750081009100A101B
:101FA200D8A4D6EF0FF0D8EF0FF00DEF10F01650C7
:101FB200D8A4DEEF0FF0E0EF0FF00DEF10F0000EFF
:101FC200076E000E086E000E096E000E0A6EA8EF74
:101FD20010F0D8900736083609360A3616AEF4EFF6
:101FE2000FF0F6EF0FF0F7EF0FF0078016A0FCEFFF
:101FF2000FF0FEEF0FF002EF10F0D880163604EF6C
:1020020010F0D89016361550D8B40AEF10F00CEF35
:1020120010F00DEF10F0150609AE12EF10F014EFEC
:1020220010F0EAEF0FF0000E146E16AE1BEF10F078
:102032001DEF10F035EF10F016C00FF07F0E0F16E7
:10204200D8B426EF10F028EF10F02CEF10F0010EAC
:10205200146E35EF10F007A031EF10F033EF10F0EF
:1020620035EF10F028EF10F01450D8B43BEF10F019
:102072003DEF10F068EF10F0010E0726000E082267
:1020820009220A220AA048EF10F04AEF10F068EF86
:1020920010F007C00FF008C010F009C011F00AC01C
:1020A20012F012341232113210320F320FC007F016
:1020B20010C008F011C009F012C00AF01528D8B4F7
:1020C20065EF10F067EF10F068EF10F0152A152891
:1020D200D8B46EEF10F070EF10F078EF10F01550EA
:1020E200D8A476EF10F078EF10F08AEF10F0000E1F
:1020F200076E000E086E000E096E000E0A6E155075
:10210200D8A486EF10F088EF10F08AEF10F0000EDE
:10211200136E15A08FEF10F091EF10F094EF10F006
:10212200098E95EF10F0099ED89015300A6E13AE05
:102132009DEF10F09FEF10F0A0EF10F00A8E07C095
:1021420007F008C008F009C009F00AC00AF012003E
:102152000A50800B136E0A500A24196E09AEB4EFAE
:1021620010F0B6EF10F0B7EF10F019801950D8B494
:10217200BDEF10F0BFEF10F0D2EF10F01928D8A485
:10218200C5EF10F0C7EF10F0CFEF10F0000E076EA2
:10219200000E086E000E096E000E0A6E098EDAEF4E
:1021A20010F0000E076E000E086E000E096E000E93
:1021B2000A6E0E50800B131A0E500E24146E0DAEC2
:1021C200E5EF10F0E7EF10F0E8EF10F01480145094
:1021D200D8B4EEEF10F0F0EF10F003EF11F0142886
:1021E200D8A4F6EF10F0F8EF10F000EF11F0000EA7
:1021F2000B6E000E0C6E000E0D6E000E0E6E0D8E2E
:102202000BEF11F0000E0B6E000E0C6E000E0D6E39
:10221200000E0E6E1450D8B411EF11F013EF11F03E
:102222001BEF11F01950D8A419EF11F01BEF11F0A8
:1022320025EF11F0000E076E000E086E000E096EFB
:10224200000E0A6EBDEF12F00D500702F3CF1EF022
:10225200F4CF1FF01E50156E166A176A186A1F50C7
:102262001A6E1B6A1C6A1D6A0C500802F3CF1EF01C
:10227200F4CF1FF01E501526000E16221722182228
:102282001F501A26000E1B221C221D220B5009026F
:10229200F3CF1EF0F4CF1FF01E501526000E1622AB
:1022A200172218221F501A26000E1B221C221D2242
:1022B20017C018F016C017F015C016F0156A0B50AB
:1022C2000802F3CF1EF0F4CF1FF01E5015261F5048
:1022D2001622000E1722000E18220C500702F3CF0E
:1022E2001EF0F4CF1FF01E5015261F501622000EAE
:1022F2001722000E182217C018F016C017F015C0CA
:1023020016F0156A0B500702F3CF1EF0F4CF1FF040
:102312001E5015261F501622000E1722000E1822DC
:102322000D500802F3CF1EF0F4CF1FF01E501A26F4
:102332001F501B22000E1C22000E1D220C500902EF
:10234200F3CF1EF0F4CF1FF01E501A261F501B228F
:10235200000E1C22000E1D220D500902F3CF1EF0AA
:10236200F4CF1FF01E500F6E1F50106E116A126ACA
:1023720011C012F010C011F00FC010F00F6A0F5010
:102382001A2610501B2211501C2212501D2215C059
:102392000FF016C010F017C011F018C012F0190E8D
:1023A200D8EF11F0D8901232113210320F32E82EDB
:1023B200D3EF11F00F501A2610501B2211501C227D
:1023C20012501D2217C018F016C017F015C016F0D3
:1023D200156A145019C00FF0106A0F26000E102251
:1023E200820E0F241E6EFF0E10201F6E0EEF12F0D3
:1023F200D8901A361B361C361D3618AE03EF12F073
:1024020005EF12F006EF12F01A80D8901536163644
:10241200173618361E06D8A01F061CAE13EF12F090
:1024220015EF12F0F9EF11F0000E146E18AE1CEF5A
:1024320012F01EEF12F042EF12F0FF0E15140F6EA3
:10244200FF0E1614106EFF0E1714116E7F0E181465
:10245200126E0F50101011101210D8B433EF12F088
:1024620035EF12F039EF12F0010E146E42EF12F056
:102472001AA03EEF12F040EF12F042EF12F035EFE9
:1024820012F01450D8B448EF12F04AEF12F06EEF87
:1024920012F0010E1A26000E1B221C221D221DA064
:1024A20055EF12F057EF12F06EEF12F01AC00FF064
:1024B2001BC010F01CC011F01DC012F012341232F9
:1024C200113210320F320FC01AF010C01BF011C0BF
:1024D2001CF012C01DF01E4A1F2A1FBE79EF12F017
:1024E2001F5008E11E28D8A079EF12F07BEF12F0FE
:1024F20085EF12F0000E1A6E000E1B6E800E1C6E1F
:102502007F0E1D6EB3EF12F01FBE92EF12F01F503E
:1025120006E11E04D8B090EF12F092EF12F09EEF97
:1025220012F0000E1A6E000E1B6E000E1C6E000ED4
:102532001D6E000E136EB3EF12F01EC019F0FF0EE7
:102542001A16FF0E1B167F0E1C16000E1D1619A062
:10255200ADEF12F0AFEF12F0B0EF12F01C8ED89088
:1025620019301D6E13501D121AC007F01BC008F05F
:102572001CC009F01DC00AF012002450800B316EFD
:1025820024502424386E23AEC9EF12F0CBEF12F0A0
:10259200CCEF12F038803850D8B4D2EF12F0D4EF2A
:1025A20012F0E9EF12F03828D8A4DAEF12F0DCEFDB
:1025B20012F0E4EF12F0000E216E000E226E000EF9
:1025C200236E000E246E238E000E246EF1EF12F0A5
:1025D200000E216E000E226E000E236E000E246E7F
:1025E2002850800B311A28502824396E27AEFCEF70
:1025F20012F0FEEF12F0FFEF12F039803950D8B42A
:1026020005EF13F007EF13F01CEF13F03928D8A4ED
:102612000DEF13F00FEF13F017EF13F0000E256E0E
:10262200000E266E000E276E000E286E278E000EFC
:10263200286E24EF13F0000E256E000E266E000E9B
:10264200276E000E286E2550261027102810D8A4B9
:102652002DEF13F02FEF13F047EF13F0000E216E62
:10266200000E226E000E236E000E246E800E2312C8
:102672007F0E24123150241221C021F022C022F0F8
:1026820023C023F024C024F08AEF14F03850D8A4D9
:102692004DEF13F04FEF13F059EF13F0000E216ED0
:1026A200000E226E000E236E000E246E8AEF14F0CE
:1026B200395038C029F02A6A295E000E2A5A7F0E44
:1026C2002924326E000E2A20336E21C02DF022C042
:1026D2002EF023C02FF024C030F0000E216E000E29
:1026E200226E000E236E000E246E000E346E000E5B
:1026F200356E000E366E000E376E000E396EBAEF72
:1027020013F03950D8B488EF13F08AEF13F0A1EF29
:1027120013F0D8902D362E362F363036D8902136FB
:1027220022362336243637AE99EF13F09BEF13F09F
:102732009CEF13F02180D890343635363636373652
:1027420025502D5C26502E5827502F58285030588F
:10275200D8A0AEEF13F0B0EF13F0B9EF13F0378C4F
:1027620025502D5E26502E5A27502F5A2850305A67
:10277200392A190E3964C0EF13F0C2EF13F082EF59
:1027820013F02D502E102F103010D8B4CBEF13F0C1
:10279200CDEF13F0E5EF13F03480E5EF13F0D890AE
:1027A200213622362336243637AEDAEF13F0DCEF49
:1027B20013F0DDEF13F02180D890343635363636FB
:1027C20037363206D8A0330623AEEAEF13F0ECEF29
:1027D20013F0D0EF13F0000E396E37AEF3EF13F0B3
:1027E200F5EF13F019EF14F0FF0E3414296EFF0EFB
:1027F20035142A6EFF0E36142B6E7F0E37142C6E94
:1028020029502A102B102C10D8B40AEF14F00CEF18
:1028120014F010EF14F0010E396E19EF14F021A02C
:1028220015EF14F017EF14F019EF14F00CEF14F089
:102832003950D8B41FEF14F021EF14F045EF14F023
:10284200010E2126000E22222322242224A02CEF74
:1028520014F02EEF14F045EF14F021C029F022C03D
:102862002AF023C02BF024C02CF02C342C322B3233
:102872002A32293229C021F02AC022F02BC023F0AB
:102882002CC024F0324A332A33BE50EF14F03350B6
:1028920008E13228D8A050EF14F052EF14F05DEFA7
:1028A20014F0000E336E3268000E216E000E226E9E
:1028B200000E236E000E246E33BE6AEF14F0335006
:1028C20006E13204D8B068EF14F06AEF14F078EF42
:1028D20014F0000E336E000E326E000E216E000EEA
:1028E200226E000E236E000E246E000E316E32C078
:1028F20038F038A07FEF14F081EF14F084EF14F079
:10290200238E85EF14F0239ED8903830246E3BEF4F
:1029120013F01200176E1750D8B492EF14F094EF20
:1029220014F0CEEF14F00EBE9BEF14F099EF14F0FA
:10293200CEEF14F007C00FF008C010F009C011F07C
:102942000AC012F00BC013F00CC014F00DC015F049
:102952000EC016F00F1E101E111E121E131E141E84
:10296200151E161E0F2A000E1022112212221322E9
:102972001422152216220FC019F010C01AF011C02D
:102982001BF012C01CF013C01DF014C01EF015C0C5
:102992001FF016C020F0DEEF14F007C019F008C0D7
:1029A2001AF009C01BF00AC01CF00BC01DF00CC0CD
:1029B2001EF00DC01FF00EC020F0075008100910C5
:1029C2000A100B100C100D100E10D8A4EBEF14F01F
:1029D200EDEF14F0F7EF14F0000E076E000E086E24
:1029E200000E096E000E0A6EDFEF15F0960E186EDD
:1029F20005EF15F0182AD89020321F321E321D32F0
:102A02001C321B321A32193220EE19F0000EDE147B
:102A12000F6E000EDE14106E000EDE14116EFE0E2E
:102A2200DE14126EFF0EDE14136EFF0EDE14146E31
:102A3200FF0EDE14156EFF0EDE14166E0F50101010
:102A4200111012101310141015101610D8A42CEF18
:102A520015F02EEF15F0FBEF14F044EF15F0182AE5
:102A6200010E1926000E1A221B221C221D221E22D2
:102A72001F222022D89020321F321E321D321C32D9
:102A82001B321A32193220EE19F0000EDE140F6ECC
:102A9200000EDE14106E000EDE14116EFF0EDE1438
:102AA200126EFF0EDE14136EFF0EDE14146EFF0E96
:102AB200DE14156EFF0EDE14166E0F50101011107C
:102AC20012101310141015101610D8A46BEF15F075
:102AD2006DEF15F030EF15F079EF15F01806D8907C
:102AE20019361A361B361C361D361E361F36203650
:102AF2001BBE7EEF15F080EF15F088EF15F0020E89
:102B0200186086EF15F088EF15F06FEF15F018B02A
:102B12008DEF15F08FEF15F09FEF15F0FF0E1916E0
:102B2200FF0E1A167F0E1B16FF0E1C16FF0E1D1629
:102B3200FF0E1E16FF0E1F16FF0E2016D89018321B
:102B420018C00FF0106A116A126A136A146A156AC1
:102B5200166A13C016F012C015F011C014F010C09E
:102B620013F00FC012F0116A106A0F6A0F50191297
:102B720010501A1211501B1212501C1213501D1217
:102B820014501E1215501F12165020121750D8B48E
:102B9200CDEF15F0CFEF15F0D7EF15F00EBED6EF53
:102BA20015F0D4EF15F0D7EF15F01C8E19C007F011
:102BB2001AC008F01BC009F01CC00AF0120025C0A0
:102BC2003BF026C03CF027C03DF028C03EF029C0B3
:102BD2003FF02AC040F02BC041F02CC042F042BE70
:102BE200F5EF15F0F8EF15F0010EF9EF15F0000E04
:102BF200436E4350D8B400EF16F002EF16F012EF16
:102C020016F0421E411E401E3F1E3E1E3D1E3C1E31
:102C12003B6C000E3C223D223E223F2240224122BA
:102C2200422257BE1FEF16F0575006E15604D8B0A5
:102C32001DEF16F01FEF16F025EF16F0000E386E9E
:102C4200010E376E29EF16F056C037F057C038F034
:102C5200FCC039F0FDC03AF04350D8B433EF16F05F
:102C620035EF16F04CEF16F03906D8A03A0643506D
:102C7200D8A43EEF16F040EF16F046EF16F0000E25
:102C8200366E2B0E356E4AEF16F0000E366E2D0E96
:102C9200356E35C043F0000E456E4F0E446E000E89
:102CA2000101FC6FD1EF16F04406D8A04506AD0E27
:102CB2004424D96E010E4520DA6E3BC007F03CC0B9
:102CC20008F03DC009F03EC00AF03FC00BF040C022
:102CD2000CF041C00DF042C00EF00A0E0F6E000E55
:102CE200106E000E116E000E126E000E136E000EAC
:102CF200146E000E156E000E166EDCEC19F007C095
:102D02002DF008C02EF009C02FF00AC030F00BC021
:102D120031F00CC032F00DC033F00EC034F02DC0D3
:102D220019F02EC01AF088EC20F01950300FDF6E27
:102D32003706D8A038063906D8A03A063BC007F0B5
:102D42003CC008F03DC009F03EC00AF03FC00BF0A5
:102D520040C00CF041C00DF042C00EF00A0E0F6EE2
:102D6200000E106E000E116E000E126E000E136E2B
:102D7200000E146E000E156E000E166E18EC19F091
:102D820007C03BF008C03CF009C03DF00AC03EF06D
:102D92000BC03FF00CC040F00DC041F00EC042F03D
:102DA20045BEDCEF16F0455008E14404D8A0DCEF44
:102DB20016F0DEEF16F0FAEF16F03B503C103D1025
:102DC2003E103F10401041104210D8A4EBEF16F015
:102DD200EDEF16F055EF16F038BEFAEF16F0385058
:102DE20006E13704D8B0F8EF16F0FAEF16F055EF17
:102DF20016F04350D8B400EF17F002EF17F00DEFC2
:102E020017F04406D8A04506AD0E4424D96E010E33
:102E12004520DA6E43C0DFFF23C018F024C019F04A
:102E2200AD0E44241A6E010E45201B6E39C01CF0F3
:102E32003AC01DF0B5EC1EF01200F4C04AF0F5C025
:102E42004BF0F6C04CF0F7C04DF03AC04AF03BC030
:102E52004BF03CC04CF03DC04DF0810E3E6EFF0E7B
:102E62003F6E4AC040F04BC041F04CC042F04DC0F2
:102E720043F0180E42EF17F0D890433242324132FB
:102E82004032E82E3DEF17F040503E24486E000ECF
:102E92003F20496E49BE57EF17F0495009E1170E1E
:102EA200485CD8A057EF17F059EF17F063EF17F00F
:102EB2003AC03AF03BC03BF03CC03CF03DC03DF074
:102EC20026EF18F049BE68EF17F06AEF17F0DAEF55
:102ED20017F048C03EF0FF0E3F6EFF0E406E7F0EB1
:102EE200416E000E426E3E6679EF17F081EF17F0E9
:102EF20042344232413240323F323E2E74EF17F0BA
:102F02003FC044F040C045F041C046F042C047F0E7
:102F120044504A143E6E45504B143F6E46504C147A
:102F2200406E47504D14416E3E503F1040104110CC
:102F3200D8A49EEF17F0A0EF17F0A2EF17F059EF09
:102F420017F04AC03EF04BC03FF04CC040F04DC0BD
:102F520041F0200EB2EF17F0D890413240323F32AA
:102F62003E32E82EADEF17F03E503F1040104110B8
:102F7200D8B4BEEF17F0C0EF17F0C8EF17F0445007
:102F82004A2645504B2246504C2247504D22441C63
:102F92003E6E451C3F6E461C406E471C416E3E50C5
:102FA2004A163F504B1640504C1641504D161EEFDC
:102FB20018F04AC03EF04BC03FF04CC040F04DC04C
:102FC20041F0200EEAEF17F0D890413240323F3202
:102FD2003E32E82EE5EF17F03E503F104010411010
:102FE200D8A4F6EF17F0F8EF17F002EF18F0000E82
:102FF2004A6E000E4B6E000E4C6E000E4D6E1EEFB2
:1030020018F0D8904A343E6E4B343F6E4C34406ECA
:103012004D34416E3E503F1040104110D8B414EF71
:1030220018F016EF18F01EEF18F0000E4A6E000EA0
:103032004B6E800E4C6EBF0E4D6E4AC03AF04BC0C6
:103042003BF04CC03CF04DC03DF0120053BE33EF9C
:1030520018F0590E525C020E5358D8A033EF18F0F4
:1030620035EF18F03BEF18F0020E116E580E106E8D
:1030720053EF18F053AE47EF18F0A80E525CFD0E56
:103082005358D8B047EF18F049EF18F04FEF18F047
:10309200FD0E116EA80E106E53EF18F052C010F014
:1030A20053C011F011BE5EEF18F011500AE1100486
:1030B200D8A05EEF18F062EF18F00F6A0F2A63EFE4
:1030C20018F00F6A0F4683500F18FD0B0F18836E0E
:1030D20011BE72EF18F06EEF18F00F6A0F2A73EF3D
:1030E20018F00F6A83500F18FE0B0F18836E11BE73
:1030F20085EF18F0115006E11004D8B083EF18F0F4
:1031020085EF18F089EF18F0106C111ED8B0112A53
:1031120010C00FF0030E0F160F3ABD500F18CF0B51
:103122000F18BD6E10C007F011C008F0000E0A6E35
:10313200040E096E2EEC1DF00750BE6E55BEABEFAD
:1031420018F0590E545C020E5558D8A0ABEF18F087
:10315200ADEF18F0B3EF18F0020E136E580E126EA8
:10316200CBEF18F055AEBFEF18F0A80E545CFD0E71
:103172005558D8B0BFEF18F0C1EF18F0C7EF18F0EC
:10318200FD0E136EA80E126ECBEF18F054C012F0A3
:1031920055C013F013BED6EF18F013500AE1120413
:1031A200D8A0D6EF18F0DAEF18F00F6A0F2ADBEF8B
:1031B20018F00F6A0F4682500F18FD0B0F18826E1F
:1031C20013BEEAEF18F0E6EF18F00F6A0F2AEBEFE2
:1031D20018F00F6A82500F18FE0B0F18826E13BE82
:1031E200FDEF18F0135006E11204D8B0FBEF18F00F
:1031F200FDEF18F001EF19F0126C131ED8B0132A6C
:1032020012C00FF0030E0F160F3ABA500F18CF0B61
:103212000F18BA6E12C007F013C008F0000E0A6E43
:10322200040E096E2EEC1DF00750BB6E1200000E4C
:10323200186E16BE21EF19F01FEF19F033EF19F0D7
:10324200161E151E141E131E121E111E101E0F6CAA
:10325200000E1022112212221322142215221622EB
:10326200010E186E0EBE3AEF19F038EF19F04CEF5E
:1032720019F00E1E0D1E0C1E0B1E0A1E091E081E24
:10328200076C000E082209220A220B220C220D22B0
:103292000E22010E181A20EE19F0070EDE6AE80659
:1032A200FDE20F501010111012101310141015100F
:1032B2001610D8B45FEF19F061EF19F0B3EF19F0FF
:1032C200010E176E6FEF19F0D8900F3610361136C7
:1032D20012361336143615361636172A16AE74EF12
:1032E20019F076EF19F065EF19F0D89019361A3601
:1032F2001B361C361D361E361F3620360F50075C15
:10330200105008581150095812500A5813500B58AF
:1033120014500C5815500D5816500E58D8A094EF52
:1033220019F096EF19F0A7EF19F00F50075E105041
:10333200085A1150095A12500A5A13500B5A145073
:103342000C5A15500D5A16500E5A1980D890163232
:103352001532143213321232113210320F32172E4A
:1033620076EF19F01850D8B4B9EF19F0BBEF19F095
:10337200CBEF19F0201E1F1E1E1E1D1E1C1E1B1E23
:103382001A1E196C000E1A221B221C221D221E223A
:103392001F22202219C007F01AC008F01BC009F032
:1033A2001CC00AF01DC00BF01EC00CF01FC00DF0B7
:1033B20020C00EF01200000E186E0EBEE5EF19F0DE
:1033C200E3EF19F0F7EF19F00E1E0D1E0C1E0B1E87
:1033D2000A1E091E081E076C000E082209220A2274
:1033E2000B220C220D220E22010E186E16BEFEEFCB
:1033F20019F0FCEF19F00EEF1AF0161E151E141E2E
:10340200131E121E111E101E0F6C000E102211220E
:10341200122213221422152216220F5010101110FC
:1034220012101310141015101610D8B41BEF1AF046
:103432001DEF1AF065EF1AF0010E176E2BEF1AF05E
:10344200D8900F361036113612361336143615361A
:103452001636172A16AE30EF1AF032EF1AF021EFB5
:103462001AF00F50075C10500858115009581250AA
:103472000A5813500B5814500C5815500D5816502A
:103482000E58D8A047EF1AF049EF1AF059EF1AF088
:103492000F50075E1050085A1150095A12500A5A1A
:1034A20013500B5A14500C5A15500D5A16500E5AEE
:1034B200D8901632153214321332123211321032BF
:1034C2000F32172E32EF1AF01850D8B46BEF1AF0F1
:1034D2006DEF1AF07DEF1AF00E1E0D1E0C1E0B1E64
:1034E2000A1E091E081E076C000E082209220A2263
:1034F2000B220C220D220E2207C007F008C008F092
:1035020009C009F00AC00AF00BC00BF00CC00CF0A5
:103512000DC00DF00EC00EF01200000E156E000E62
:10352200146E000E136E000E126E9AEF1AF00D4A10
:103532000E2A0DC0F6FF0EC0F7FF0800F550200A54
:10354200D8B4A6EF1AF0A8EF1AF098EF1AF00DC04F
:10355200F6FF0EC0F7FF0800F5CF0FF0F70E0F24AD
:10356200106E116AFF0E1122115009E1050E105C56
:10357200D8A0BEEF1AF0C0EF1AF098EF1AF0CAEF17
:103582001AF0000E136E010E126E0D4A0E2AFFEF94
:103592001AF00DC0F6FF0EC0F7FF0800F5500F6ECF
:1035A200106A1050000AD8B4D9EF1AF0FFEF1AF0DF
:1035B2000F502B0AD8B4C6EF1AF0060AD8B4C2EFDD
:1035C2001AF0FFEF1AF014C007F015C008F0000E51
:1035D2000A6E0A0E096EEEEC20F00DC0F6FF0EC068
:1035E200F7FF0800F550075E000E085A300E072458
:1035F200146E000E0820156EC6EF1AF00DC0F6FF0D
:103602000EC0F7FF0800F5CF0FF0D00E0F24106E9A
:10361200116AFF0E1122115009E10A0E105CD8A0A6
:1036220015EF1BF017EF1BF0E4EF1AF01250131016
:10363200D8A41EEF1BF020EF1BF02EEF1BF014C0DE
:103642000FF015C010F00F1E101E0F4A102A0FC0E7
:103652000DF010C00EF032EF1BF014C00DF015C0CB
:103662000EF0120009340A34106E1050D8A43CEF48
:103672001BF03EEF1BF048EF1BF0000E076E000E32
:10368200086E000E096E000E0A6EB5EF1BF007C041
:103692000BF008C00CF009C00DF00AC00EF0200EAD
:1036A20058EF1BF0D8900E320D320C320B32E82E4E
:1036B20053EF1BF00B500F6E098EFF0E0716FF0E15
:1036C2000816FF0E0916000E0A16960E105E10BEA0
:1036D2006FEF1BF06DEF1BF085EF1BF01050800AAF
:1036E200970FD8B077EF1BF079EF1BF07BEF1BF051
:1036F2003EEF1BF0D8900A32093208320732103EF0
:103702007BEF1BF09DEF1BF01F0E10648BEF1BF085
:103712008DEF1BF095EF1BF03EEF1BF0D8900736B4
:10372200083609360A3610061050D8A49BEF1BF053
:103732009DEF1BF08FEF1BF00F50D8B4A3EF1BF0DF
:10374200A5EF1BF0ADEF1BF00A1E091E081E076C49
:10375200000E082209220A2207C007F008C008F05A
:1037620009C009F00AC00AF01200000E2014286EE7
:10377200000E2114296E800E22142A6E7F0E23144D
:103782002B6E285029102A102B10D8A4CBEF1BF037
:10379200CDEF1BF0D5EF1BF0000E206E000E216E58
:1037A200000E226E000E236E000E2414286E000EF0
:1037B2002514296E800E26142A6E7F0E27142B6E76
:1037C200285029102A102B10D8A4EAEF1BF0ECEF96
:1037D2001BF0F4EF1BF0000E246E000E256E000E9F
:1037E200266E000E276E23AEF9EF1BF0FBEF1BF0E7
:1037F20004EF1CF0206C211ED8B0212A221ED8B062
:10380200222A800E235627AE09EF1CF00BEF1CF084
:1038120014EF1CF0246C251ED8B0252A261ED8B021
:10382200262A800E2756000E201A000E211A000E9C
:10383200221A800E231A000E241A000E251A000ED8
:10384200261A800E271A2450205C25502158265013
:10385200225827502358D8B031EF1CF033EF1CF018
:1038620036EF1CF0D89037EF1CF0D8801200F8C069
:1038720011F0F9C012F0FAC013F0FBC014F007C047
:1038820011F008C012F009C013F00AC014F011C000
:103892000BF012C00CF013C00DF014C00EF0180E95
:1038A20058EF1CF0D8900E320D320C320B32E82E4B
:1038B20053EF1CF00B500F6E106A0F501010D8A46B
:1038C20065EF1CF067EF1CF087EF1CF0D890113405
:1038D2000B6E12340C6E13340D6E14340E6E0B50CC
:1038E2000C100D100E10D8A479EF1CF07BEF1CF019
:1038F20081EF1CF0000E086E020E076EB6EF1CF090
:10390200000E086E030E076EB6EF1CF00F281010A3
:10391200D8A48EEF1CF090EF1CF0B2EF1CF011C097
:103922000BF012C00CF013C00DF014C00EF0090E13
:10393200D8900B360C360D360E36E82E99EF1CF069
:103942000B500C100D100E10D8B4AAEF1CF0ADEFF6
:103952001CF0010EAEEF1CF0000E076E086AB6EF07
:103962001CF0000E086E040E076E1200700ED312C9
:10397200070EB46E6D966F86D59ED59CD59AD59658
:10398200D550F80B0509D56EF184F28AD09EF80E57
:10399200D76EAC0ED66ECD90CD9ECD9CCF0ECD16F1
:1039A200CD96CD92F28ED58ECD80F80ECF6E2F0EA3
:1039B200CE6ECA94CA50870B0809CA6ECA50FC0B55
:1039C2000109CA6EBD50F00B0C09BD6EBA50F00B66
:1039D2000C09BA6E950ECB6ECF0EBD16CF0EBA166F
:1039E200000EBE6E000EBB6ECA84C30EC216C29219
:1039F200C280CF0EC116C150F00B0909C16EC09E24
:103A0200380EC012C050F80B0609C06E948C948E0A
:103A1200B89AB898B886B892B890330EAF6E000EC6
:103A2200B06EAC9EAC9CAC8AAC98AC94AB9CAB88B0
:103A3200AB8E9390939293949398939A9584958650
:103A420092809282928492869288968095929590A4
:103A520094929490939694941200000E0C6E0ABE67
:103A620037EF1DF035EF1DF03DEF1DF0096C0A1E1A
:103A7200D8B00A2A010E0C6E08BE44EF1DF042EFC8
:103A82001DF04AEF1DF0076C081ED8B0082A010E7F
:103A92000C1A000E0E6E000E0D6E09500A10D8B4EC
:103AA20055EF1DF057EF1DF07FEF1DF0010E0B6E6D
:103AB2005FEF1DF0D89009360A360B2A0AAE64EF82
:103AC2001DF066EF1DF05BEF1DF0D8900D360E363F
:103AD2000950075C0A500858D8A072EF1DF074EF25
:103AE2001DF079EF1DF00950075E0A50085A0D804B
:103AF200D8900A3209320B2E66EF1DF00C50D8B462
:103B020085EF1DF087EF1DF08BEF1DF00D6C0E1E83
:103B1200D8B00E2A0DC007F00EC008F01200000E39
:103B220007140F6E000E0814106E800E0914116E29
:103B32007F0E0A14126E0F50101011101210D8A41A
:103B4200A5EF1DF0A7EF1DF0AFEF1DF0000E076E01
:103B5200000E086E000E096E000E0A6E000E0B14A7
:103B62000F6E000E0C14106E800E0D14116E7F0E6F
:103B72000E14126E0F50101011101210D8A4C4EFB0
:103B82001DF0C6EF1DF0CEEF1DF0000E0B6E000E05
:103B92000C6E000E0D6E000E0E6E0B5007180FE12C
:103BA2000C5008180CE10D50091809E10E500A18C2
:103BB200D8B4DEEF1DF0E0EF1DF0E3EF1DF0D8907A
:103BC200E4EF1DF0D88012000A500B10D8B4ECEFCD
:103BD2001DF0EEEF1DF0F7EF1DF00A500B10D8A408
:103BE200F5EF1DF0F7EF1DF0FCEF1DF0085011ECA2
:103BF20021F02FEF1EF020EE09F00A50D9260B50CB
:103C0200DA22DE50DE10D8B409EF1EF00BEF1EF000
:103C120026EF1EF020EE09F00A50D9260B50DA22C8
:103C220010EE03F00A50E1260B50E222DE50E65C71
:103C3200E650800A106EDE50800A1058D8B024EF89
:103C42001EF026EF1EF02FEF1EF020EE03F00A50BA
:103C5200D9260B50DA22DE2A000EDD2212000600DF
:103C6200D9CF03F0DACF04F0F2A43AEF1EF03CEF22
:103C72001EF071EF1EF0F80ED76EAC0ED66EF294F7
:103C8200000E066E000E056E05C001F006C002F0C1
:103C9200D89001360236D89001360236D8900136D5
:103CA2000236500E0124D96E010E0220DA6EDE2A8F
:103CB200000EDE22DE22DE22DE22DE22DE22DE22F4
:103CC200054A062A06BE6FEF1EF0065009E1050EF0
:103CD200055CD8A06FEF1EF071EF1EF045EF1EF0ED
:103CE20004C0DAFF03C0D9FF58921100000E126E11
:103CF20012C00FF00F460F46C2500F18C30B0F1819
:103D0200C26EC282C2B288EF1EF08AEF1EF083EF4B
:103D12001EF0C450040DF3CF10F0F4CF11F0C3CF56
:103D220007F0086A000E0A6E400E096E2EEC1DF0B6
:103D320010500724106E11500820116E1250020DFF
:103D4200780EF324D96E010EF420DA6E10C0DEFF75
:103D520011C0DDFF122A050E1264B2EF1EF0B4EF9D
:103D62001EF079EF1EF012001DBEBAEF1EF0BCEF7E
:103D72001EF0C2EF1EF01CC021F01DC022F0C6EFE3
:103D82001EF0000E226E000E216E000E206E000E3E
:103D92001F6ED8EF1EF0000E096E200E086E18C0BE
:103DA2000AF019C00BF0E5EC1DF01F4A202A215041
:103DB2001F5C2050800A1E6E2250800A1E58D8A016
:103DC200E5EF1EF0E7EF1EF0CCEF1EF01AC011F087
:103DD2001BC012F018C013F019C014F046EC20F00A
:103DE2001200000E0A6E000E096E09C007F00AC02A
:103DF20008F0D89007360836D89007360836D8909B
:103E020007360836500E0724D96E010E0820DA6EE6
:103E1200070EDE6AE806FDE2094A0A2A0ABE1BEF1D
:103E22001FF00A5009E1050E095CD8A01BEF1FF034
:103E32001DEF1FF0F6EF1EF0000E536E000E526ED5
:103E4200000E556E000E546E12000ABE35EF1FF0C2
:103E52000A500910081006E10704D8B033EF1FF02A
:103E620035EF1FF050EF1FF007C00BF008C00CF049
:103E720009C00DF00AC00EF00B1E0C1E0D1E0E1E08
:103E82000B2A000E0C220D220E220BC007F00CC0D2
:103E920008F00DC009F00EC00AF058EF1FF007C07D
:103EA20007F008C008F009C009F00AC00AF01200C1
:103EB20021EE8CF0070EDE6AE806FDE2000E00013C
:103EC200EA6F000EEF6F21EE28F0070EDE6AE806B9
:103ED200FDE221EE00F0070EDE6AE806FDE2000ECA
:103EE200E06F000E01019E6F000E996F000E946F3D
:103EF20020EED8F0070EDE6AE806FDE220EED0F0F2
:103F0200070EDE6AE806FDE220EEC8F0070EDE6A62
:103F1200E806FDE21200B0C050F0B1C051F0A1EFCE
:103F22001FF0AEC093F0AFC094F0500E0001956F39
:103F3200000E966FB2C097F0B3C098F0CBEC0BF0C6
:103F420050C0F6FF51C0F7FF0800F5500009D8A491
:103F5200ADEF1FF0AFEF1FF092EF1FF0000E000168
:103F6200AF6F000EAE6F120009C010F00AC011F060
:103F720007C00EF008C00FF0CFEF1FF010C0D9FF3E
:103F820011C0DAFFDF500D6E104A112A0EC0D9FFA0
:103F92000FC0DAFF0DC0DFFF0E4A0F2A0B06D8A0B2
:103FA2000C060B2806E10C28D8A4DAEF1FF0DCEF90
:103FB2001FF0BFEF1FF0120002EE00F011EE00F052
:103FC200EE6AE550E150FCE1E250FAE101EE00F068
:103FD200FD0EEE6AE806FDE100EEC8F0370EEE6A6D
:103FE200E806FDE1576A566A556A546A536A526A8C
:103FF20058905892000EF86E000101EF21F0000E69
:10400200241A000E251A000E261A800E271A20C026
:1040120007F021C008F022C009F023C00AF024C032
:104022000BF025C00CF026C00DF027C00EF049ECB5
:104032000EF007C020F008C021F009C022F00AC02B
:1040420023F01200010E0B6E200E07180810D8B4D0
:104052002DEF20F02FEF20F042EF20F0F70E072493
:10406200096EFF0E08200A6E0A5009E1050E095C6E
:10407200D8A03EEF20F040EF20F042EF20F0000EFB
:104082000B6E0BC007F0086A1200000E176E000ECE
:10409200166E57EF20F015C008F0096A13C00AF037
:1040A20014C00BF0E5EC1DF0164A172A1650112425
:1040B200D96E17501220DA6EDF50156E1550D8A443
:1040C20065EF20F067EF20F04CEF20F0120009C0FE
:1040D2000BF00AC00CF007C00DF008C00EF00BC0C8
:1040E200F6FF0CC0F7FF0B4A0C2A0DC0D9FF0EC019
:1040F200DAFF0D4A0E2A0800F5CFDFFFDF50D8A401
:1041020085EF20F087EF20F070EF20F012001ABE4A
:1041120095EF20F01A5006E11904D8B093EF20F081
:1041220095EF20F0A3EF20F019C01BF01AC01CF08D
:104132001B1E1C1E1B4A1C2A1BC019F01CC01AF095
:10414200A7EF20F019C019F01AC01AF01200075098
:10415200081009100A10D8B4B1EF20F0B3EF20F024
:10416200BBEF20F0000E071A000E081A000E091A03
:10417200800E0A1A07C007F008C008F009C009F04B
:104182000AC00AF01200D00E0724096EFF0E0820A2
:104192000A6E0A500AE10A0E095CD8A0D3EF20F099
:1041A200D6EF20F0010ED7EF20F0000E076E086A5E
:1041B2001200B60E0001C66F000EC76F000EAE6F82
:1041C200000EAF6FB4C0B0F0B5C0B1F0C60EB26FA2
:1041D200000EB36F8CEC1FF0120007500902F3CFF0
:1041E2000BF0F4CF0CF007500A02F3500C260850E3
:1041F2000902F3500C260BC007F00CC008F01200A5
:10420200B7EC1CF0F2EC1EF059EC1FF027EC18F0A2
:1042120077EC1EF04AEC09F007EF21F007EF00F00F
:10422200076E9EA817EF21F019EF21F012EF21F08F
:0642320007C0ADFF120001
:020000040020DA
:08000000FFFFFFFFFFFFFFFF00
:020000040030CA
:0E000000240E191EFF0081FF0FC00FE00F40FD
:00000001FF
