:0400000007EF00F016
:0A0008005982D1ED18F0FBEF19F05A
:1008000000577269746520656570726F6D206D6F39
:10081000746F7220612073706565643A2025640AE4
:1008200000577269746520656570726F6D206D6F19
:10083000746F7220622073706565643A2025640AC3
:1008400000000001AE51D8A428EF04F02AEF04F014
:1008500035EF04F083A42FEF04F031EF04F04EEFF6
:1008600004F0000EA96F4EEF04F0AE05D8B43BEFD4
:1008700004F03DEF04F045EF04F05850D8B443EFD6
:1008800004F045EF04F04EEF04F083B44AEF04F0B7
:100890004CEF04F04EEF04F0010EA96FAF51D8A455
:1008A00054EF04F056EF04F061EF04F083A65BEF21
:1008B00004F05DEF04F072EF04F0000EAA6F72EF27
:1008C00004F0AF05D8A467EF04F069EF04F072EF0D
:1008D00004F083B66EEF04F070EF04F072EF04F0F2
:1008E000010EAA6F5850D8B478EF04F07AEF04F0F4
:1008F00028EF05F067BF8CEF04F0675166116511B2
:10090000641163116211611109E1140E605DD8A0D8
:100910008CEF04F08EEF04F01DEF09F020EE60F094
:10092000070EDE6AE806FDE2A951D8A49AEF04F0AA
:100930009CEF04F023EF05F0000E586E20EE60F0FF
:10094000070EDE6AE806FDE2000E196E000E186E54
:10095000AE0E1824D96E000E1920DA6E000EDF6E6E
:10096000A90E1824D96E000E1920DA6E000EDF6E63
:10097000EF0E1824D96E010E1920DA6E000EDF6E0C
:1009800018C007F019C008F0D89007360836D8907C
:1009900007360836D89007360836780E0724D96E01
:1009A000010E0820DA6E070EDE6AE806FDE218C0C6
:1009B00007F019C008F0D89007360836D8900736E7
:1009C0000836D89007360836500E0724D96E010E27
:1009D0000820DA6E070EDE6AE806FDE2D8901834C9
:1009E000D96E1934DA6E880ED926000EDA22000E7E
:1009F000DE6E000EDD6EA40E1824D96E000E1920D6
:100A0000DA6E000EDF6E9F0E1824D96E000E1920CC
:100A1000DA6E000EDF6EE00E1824D96E010E19207A
:100A2000DA6E000EDF6E184A192A19BE21EF05F0A2
:100A3000195009E1020E185CD8A021EF05F023EF50
:100A400005F0A8EF04F0000E0001A96F1DEF09F0FA
:100A500067BF39EF05F067516611651164116311C5
:100A60006211611108E16005D8A039EF05F03BEF94
:100A700005F01DEF09F020EE60F0070EDE6AE806D3
:100A8000FDE20101D851D027D951D123DA51D22327
:100A9000DB51D323DC51D423DD51D523DE51D623C2
:100AA000DF51D723010EC827000EC923CA23CB2349
:100AB000CC23CD23CE23CF2321EED8F0070EDE6A40
:100AC000E806FDE2000E196E000E186EAE0E182438
:100AD000D96E000E1920DA6EDF50D8A472EF05F03F
:100AE00074EF05F015EF06F0A90E1824D96E000E6C
:100AF0001920DA6EDF50D8B480EF05F082EF05F0F0
:100B0000F4EF05F018C007F019C008F0D8900736C8
:100B10000836D89007360836D89007360836780E4B
:100B20000724D96E010E0820DA6EDE2A000EDE22BE
:100B3000DE22DE22DE22DE22DE22DE2218C007F0E6
:100B400019C008F0D89007360836D890073608360E
:100B5000D89007360836780E0724D96E010E082083
:100B6000DA6E070EDBBED1EF05F0070EDB501BE19E
:100B7000060EDB5018E1050EDB5015E1040EDB50CC
:100B800012E1030EDB500FE1020EDB500CE1010E0F
:100B9000DB5009E1020EDE5CD8A0D1EF05F0D3EF07
:100BA00005F0C2EF06F0AE0E1824D96E000E192023
:100BB000DA6E010EDF6E18C007F019C008F0D89089
:100BC00007360836D89007360836D89007360836E4
:100BD000780E0724D96E010E0820DA6E070EDE6A41
:100BE000E806FDE2C2EF06F0A90E1824D96E000E49
:100BF0001920DA6E010EDF6E18C007F019C008F078
:100C0000D89007360836D89007360836D890073679
:100C10000836780E0724D96E010E0820DA6E070E0A
:100C2000DE6AE806FDE2C2EF06F0AE0E1824D96EC9
:100C3000000E1920DA6EDE04D8A421EF06F023EFAF
:100C400006F0C2EF06F0A90E1824D96E000E192086
:100C5000DA6EDF50D8A42FEF06F031EF06F0A3EFE5
:100C600006F018C007F019C008F0D890073608360B
:100C7000D89007360836D89007360836780E0724FD
:100C8000D96E010E0820DA6EDE2A000EDE22DE2288
:100C9000DE22DE22DE22DE22DE2218C007F019C0AC
:100CA00008F0D89007360836D89007360836D8901E
:100CB00007360836780E0724D96E010E0820DA6E42
:100CC000070EDBBE80EF06F0070EDB501BE1060EC1
:100CD000DB5018E1050EDB5015E1040EDB5012E18C
:100CE000030EDB500FE1020EDB500CE1010EDB5076
:100CF00009E1020EDE5CD8A080EF06F082EF06F07C
:100D0000C2EF06F0AE0E1824D96E000E1920DA6E6E
:100D1000000EDF6E18C007F019C008F0D890073633
:100D20000836D89007360836D89007360836780E39
:100D30000724D96E010E0820DA6E070EDE6AE80677
:100D4000FDE2C2EF06F0A90E1824D96E000E19209C
:100D5000DA6E000EDF6E18C007F019C008F0D890E8
:100D600007360836D89007360836D8900736083642
:100D7000780E0724D96E010E0820DA6E070EDE6A9F
:100D8000E806FDE2184A192A19BED0EF06F01950FC
:100D900009E1020E185CD8A0D0EF06F0D2EF06F001
:100DA00066EF05F0000E196E000E186E110E182475
:100DB000D96E000E1920DA6E000EDF6EEF0E1824C9
:100DC000D96E010E1920DA6EDF50D8A4EAEF06F0D2
:100DD000ECEF06F013EF07F0AE0E1824D96E000EFC
:100DE0001920DA6EDE04D8A4F8EF06F0FAEF06F068
:100DF00013EF07F0EA0E1824D96E010E1920DA6EEF
:100E0000DF2A110E1824D96E000E1920DA6E010E99
:100E1000DF6EEF0E1824D96E010E1920DA6E010E66
:100E2000DF6E3EEF07F0EF0E1824D96E010E192089
:100E3000DA6EDE04D8A41FEF07F021EF07F03EEFD3
:100E400007F0AE0E1824D96E000E1920DA6EDF50AE
:100E5000D8A42DEF07F02FEF07F03EEF07F0E50ED7
:100E60001824D96E010E1920DA6EDF2AEF0E18242D
:100E7000D96E010E1920DA6E000EDF6E184A192A9B
:100E800019BE4CEF07F0195009E1020E185CD8A00A
:100E90004CEF07F04EEF07F0D6EF06F0000E176E9E
:100EA000000E166ED8901634D96E1734DA6E880E8E
:100EB000D926000EDA22DE50DE10D8A462EF07F049
:100EC00064EF07F098EF07F0110E1624D96E000EAC
:100ED0001720DA6EDF50D8B470EF07F072EF07F02A
:100EE0000DEF09F016C007F017C008F0D8900736CC
:100EF0000836D89007360836D89007360836500E90
:100F00000724D96E010E0820DA6E070EDE6AE806A5
:100F1000FDE2D8901634D96E1734DA6E880ED926D1
:100F2000000EDA22010EDE6E000EDD6E0DEF09F00E
:100F3000D8901634D96E1734DA6E880ED926000E82
:100F4000DA22DE2808E1DE28D8B4A9EF07F0ABEFFB
:100F500007F0A1EF08F0D8901634D96E1734DA6E86
:100F6000880ED926000EDA22DE50DE10D8B4BBEF90
:100F700007F0BDEF07F0A1EF08F0110E1624D96EAF
:100F8000000E1720DA6EDF50D8B4C9EF07F0CBEFB0
:100F900007F0D7EF07F0D8901634D96E1734DA6E11
:100FA000880ED926000EDA22DE2A000EDD2216C0B7
:100FB00007F017C008F0D89007360836D8900736E3
:100FC0000836D89007360836500E0724D96E010E21
:100FD0000820DA6E070EDBBE0AEF08F0070EDB50C2
:100FE0001BE1060EDB5018E1050EDB5015E1040E87
:100FF000DB5012E1030EDB500FE1020EDB500CE17F
:10100000010EDB5009E11E0EDE5CD8A00AEF08F0ED
:101010000CEF08F083EF08F0D8901634D96E17342F
:10102000DA6E880ED926000EDA22DE04DE10D8A48D
:101030001CEF08F01EEF08F027EF08F0A40E1624AE
:10104000D96E000E1720DA6EDF2A5DEF08F0D89017
:101050001634D96E1734DA6E880ED926000EDA22CD
:10106000020EDE18DE10D8A438EF08F03AEF08F0D0
:1010700043EF08F09F0E1624D96E000E1720DA6E8B
:10108000DF2A5DEF08F0D8901634D96E1734DA6E87
:10109000880ED926000EDA22030EDE18DE10D8A440
:1010A00054EF08F056EF08F05DEF08F0E00E16245C
:1010B000D96E010E1720DA6EDF2A16C007F017C0AE
:1010C00008F0D89007360836D89007360836D890FA
:1010D00007360836500E0724D96E010E0820DA6E46
:1010E000070EDE6AE806FDE2D8901634D96E173492
:1010F000DA6E880ED926000EDA22FF0EDE6EFF0EA3
:10110000DD6E0DEF09F016C007F017C008F0D8909B
:1011100007360836D89007360836D890073608368E
:10112000500E0724D96E010E0820DA6EDE2A000E5A
:10113000DE22DE22DE22DE22DE22DE22DE220DEFB3
:1011400009F0D8901634D96E1734DA6E880ED92685
:10115000000EDA22DE2806E1DE28D8A4B2EF08F07D
:10116000B4EF08F00DEF09F016C007F017C008F053
:10117000D89007360836D89007360836D890073604
:101180000836500E0724D96E010E0820DA6E070EBD
:10119000DBBEE7EF08F0070EDB501BE1060EDB506D
:1011A00018E1050EDB5015E1040EDB5012E1030ED1
:1011B000DB500FE1020EDB500CE1010EDB5009E1C8
:1011C0000A0EDE5CD8A0E7EF08F0E9EF08F083EF45
:1011D00008F0D8901634D96E1734DA6E880ED926F6
:1011E000000EDA22000EDE6E000EDD6E16C007F075
:1011F00017C008F0D89007360836D890073608365A
:10120000D89007360836500E0724D96E010E0820F4
:10121000DA6E070EDE6AE806FDE2164A172A17BEE6
:101220001BEF09F0175009E1020E165CD8A01BEF66
:1012300009F01DEF09F052EF07F012005704D8B47F
:1012400024EF09F026EF09F02FEF09F0020E5718EE
:10125000D8A42DEF09F02FEF09F08FEF0AF000016D
:1012600077BF42EF09F07751761175117411731140
:101270007211711109E10A0E705DD8A042EF09F0F8
:1012800044EF09F07FEF09F020EE70F0070EDE6A00
:10129000E806FDE2C94BCA2BCABF58EF09F0CA5194
:1012A00009E10A0EC95DD8A058EF09F05AEF09F01C
:1012B0005EEF09F0000ECA6F000EC96F56BE6AEFEE
:1012C00009F0E90E555C030E5658D8A06AEF09F0F4
:1012D0006CEF09F070EF09F0030E566EE80E556ED4
:1012E00056BE77EF09F075EF09F07BEF09F0000EBD
:1012F000566E000E556E55C0CBF056C0CCF0000EA9
:101300000A6EC80E096ECBC007F0CCC008F090EC96
:1013100017F007C00DF008C00EF0000E106E0A0E98
:101320000F6ED5EC1AF00DC013F00EC014F0000EC5
:10133000166EC80E156E2EEC17F013C024F014C0F4
:1013400025F024C01BF025C01CF0000E1CBEFF0EB3
:101350001D6E1E6E1F6E206E216E226E1B500001D0
:10136000705D1C5071591D5072591E5073591F5099
:10137000745920507559215076597751800A236E3F
:101380002250800A2358D8B0C8EF09F0CAEF09F0FC
:10139000CEEF09F0010ECE6FD0EF09F0000ECE6F48
:1013A000CBC013F0CCC014F0000E166EC80E156E34
:1013B0002EEC17F013C028F014C029F0000E2B6E8D
:1013C000000E2A6E28502A5C2B50800A1B6E295072
:1013D000800A1B58D8B0EFEF09F0F1EF09F0FBEFEE
:1013E00009F09A0E2A24D96E000E2B20DA6E010E17
:1013F000DF6E19EF0AF028502A1807E129502B1840
:10140000D8A405EF0AF007EF0AF011EF0AF09A0EE0
:101410002A24D96E000E2B20DA6ECEC0DFFF19EF22
:101420000AF09A0E2A24D96E000E2B20DA6E000ED6
:10143000DF6E2A4A2B2A2BBE27EF0AF02B5009E138
:10144000050E2A5CD8A027EF0AF029EF0AF0E2EF98
:1014500009F05704D8A42FEF0AF031EF0AF051EF4A
:101460000AF000019AB102D0819001D08180000180
:101470009BB102D0819201D0818200019CB102D047
:10148000819401D0818400019DB102D0819801D066
:10149000818800019EB102D0819A01D0818AADEF8E
:1014A0000DF0020E5718D8A458EF0AF05AEF0AF0C0
:1014B000ADEF0DF00001CABF67EF0AF0CA5109E1B4
:1014C000020EC95DD8A067EF0AF069EF0AF088EF55
:1014D0000AF09AB102D0819001D0818000019BB1C5
:1014E00002D0819201D0818200019CB102D081940E
:1014F00001D0818400019DB102D0819801D0818802
:1015000000019EB102D0819A01D0818AADEF0DF029
:101510008190819281948198819AADEF0DF0030EB4
:101520005718D8A496EF0AF098EF0AF04BEF0BF09B
:10153000000177BFABEF0AF0775176117511741186
:1015400073117211711109E1140E705DD8A0ABEF27
:101550000AF0ADEF0AF0B3EF0AF020EE70F0070EDC
:10156000DE6AE806FDE277BFC9EF0AF0775176112F
:101570007511741173117211711107E10A0E705D0A
:10158000D8B0C5EF0AF0C9EF0AF01B6A1B2ACAEFF0
:101590000AF01B6A81501B18FE0B1B18816E00019C
:1015A00077BFE2EF0AF0775176117511741173115C
:1015B000721171110BE10A0E705DD8A0E2EF0AF012
:1015C000E6EF0AF01B6A1B2AE7EF0AF01B6A1B46CC
:1015D00081501B18FD0B1B18816E000177BF04EFB3
:1015E0000BF077517611751174117311721171111D
:1015F00007E10A0E705DD8B000EF0BF004EF0BF0BE
:101600001B6A1B2A05EF0BF01B6A1B461B46815009
:101610001B18FB0B1B18816E000177BF1FEF0BF02F
:1016200077517611751174117311721171110BE1EB
:101630000A0E705DD8A01FEF0BF023EF0BF01B6AB2
:101640001B2A24EF0BF01B6A1B3A81501B18EF0B6F
:101650001B18816E000177BF41EF0BF077517611B7
:101660007511741173117211711107E10A0E705D19
:10167000D8B03DEF0BF041EF0BF01B6A1B2A42EF95
:101680000BF01B6A1B3A1B4681501B18DF0B1B1803
:10169000816EADEF0DF0040E5718D8A452EF0BF089
:1016A00054EF0BF0E6EF0BF0000177BF67EF0BF0A4
:1016B000775176117511741173117211711109E15D
:1016C000140E705DD8A067EF0BF069EF0BF086EF9A
:1016D0000BF020EE70F0070EDE6AE806FDE2534ADA
:1016E000542A54BE7DEF0BF0545009E1050E535CB3
:1016F000D8A07DEF0BF07FEF0BF086EF0BF0000E24
:10170000076EFF0E086EC75190EC1AF0535054103C
:10171000D8B48DEF0BF091EF0BF01B6A1B2A92EF00
:101720000BF01B6A81501B18FE0B1B18816E5304B3
:101730005410D8B49EEF0BF0A2EF0BF01B6A1B2ADB
:10174000A3EF0BF01B6A1B4681501B18FD0B1B18E7
:10175000816E020E53185410D8B4B1EF0BF0B5EFF0
:101760000BF01B6A1B2AB6EF0BF01B6A1B461B46CD
:1017700081501B18FB0B1B18816E030E531854105D
:10178000D8B4C5EF0BF0C9EF0BF01B6A1B2ACAEFE8
:101790000BF01B6A1B3A81501B18EF0B1B18816E54
:1017A000040E53185410D8B4D8EF0BF0DCEF0BF044
:1017B0001B6A1B2ADDEF0BF01B6A1B3A1B4681508C
:1017C0001B18DF0B1B18816EADEF0DF0050E5718BF
:1017D000D8A4EDEF0BF0EFEF0BF081EF0CF0000170
:1017E00077BF02EF0CF077517611751174117311F8
:1017F0007211711109E1140E705DD8A002EF0CF0A6
:1018000004EF0CF021EF0CF020EE70F0070EDE6A12
:10181000E806FDE2534A542A54BE18EF0CF0545027
:1018200009E1050E535CD8A018EF0CF01AEF0CF08C
:1018300021EF0CF0000E076EFF0E086EC75190EC02
:101840001AF0040E53185410D8B429EF0CF02DEFF1
:101850000CF01B6A1B2A2EEF0CF01B6A81501B1820
:10186000FE0B1B18816E030E53185410D8B43BEFB7
:101870000CF03FEF0CF01B6A1B2A40EF0CF01B6AC8
:101880001B4681501B18FD0B1B18816E020E53184E
:101890005410D8B44EEF0CF052EF0CF01B6A1B2A18
:1018A00053EF0CF01B6A1B461B4681501B18FB0BA9
:1018B0001B18816E53045410D8B461EF0CF065EF1F
:1018C0000CF01B6A1B2A66EF0CF01B6A1B3A815056
:1018D0001B18EF0B1B18816E53505410D8B473EFC4
:1018E0000CF077EF0CF01B6A1B2A78EF0CF01B6AE8
:1018F0001B3A1B4681501B18DF0B1B18816EADEF86
:101900000DF0060E5718D8A488EF0CF08AEF0CF0F3
:10191000ADEF0DF0000177BF9DEF0CF07751761120
:101920007511741173117211711109E10A0E705D54
:10193000D8A09DEF0CF09FEF0CF0D0EF0CF020EE54
:1019400070F0070EDE6AE806FDE2C94BCA2BCABF7B
:10195000B3EF0CF0CA5109E10A0EC95DD8A0B3EF8C
:101960000CF0B5EF0CF0B9EF0CF0000ECA6F000EE2
:10197000C96F534A542A54BEC7EF0CF0545009E1C2
:10198000140E535CD8A0C7EF0CF0C9EF0CF0D0EFE9
:101990000CF0C5C007F0FF0E086EC75190EC1AF0AE
:1019A0000001CABFE0EF0CF0CA5107E1020EC95DA9
:1019B000D8B0DDEF0CF0E0EF0CF0010EE1EF0CF031
:1019C000000E266E276AC4BFEFEF0CF0C45109E188
:1019D000200EC35DD8A0EFEF0CF0F1EF0CF0F7EFA5
:1019E0000CF0000EC46F200EC36F08EF0DF0C4BFE3
:1019F00004EF0DF0C45106E1C305D8B002EF0DF0BD
:101A000004EF0DF008EF0DF0000EC46F010EC36F70
:101A100026502710D8B40FEF0DF011EF0DF0A8EFFE
:101A20000DF01F0EC3151B6E000EC4151C6E1CBEE0
:101A300027EF0DF01C5007E1100E1B5CD8B023EF10
:101A40000DF027EF0DF01D6A1D2A28EF0DF01D6A1D
:101A500081501D18FE0B1D18816E0F0E0001C3155D
:101A60001B6E000EC4151C6E1CBE44EF0DF01C5006
:101A700007E1080E1B5CD8B040EF0DF044EF0DF00D
:101A80001D6A1D2A45EF0DF01D6A1D4681501D1867
:101A9000FD0B1D18816E070E0001C3151B6E000E95
:101AA000C4151C6E1CBE62EF0DF01C5007E1040E45
:101AB0001B5CD8B05EEF0DF062EF0DF01D6A1D2AC1
:101AC00063EF0DF01D6A1D461D4681501D18FB0B6E
:101AD0001D18816E030E0001C3151B6E000EC41588
:101AE0001C6E1CBE81EF0DF01C5007E1020E1B5C4A
:101AF000D8B07DEF0DF081EF0DF01D6A1D2A82EF49
:101B00000DF01D6A1D3A81501D18EF0B1D18816ED6
:101B1000010E0001C3151B6E000EC4151C6E1CBE09
:101B20009EEF0DF01C5006E11B04D8B09AEF0DF0AB
:101B30009EEF0DF01D6A1D2A9FEF0DF01D6A1D3AE4
:101B40001D4681501D18DF0B1D18816EADEF0DF085
:101B50008190819281948198819A12000001C151F3
:101B6000C211D8A4B6EF0DF0B8EF0DF0E5EF0DF00F
:101B70005850D8A4BEEF0DF0C0EF0DF0E5EF0DF01A
:101B8000000EC26F010EC16FC9EC19F018EC19F00C
:101B9000000E076EFF0E086E040E90EC1AF00E0E8B
:101BA0000001F26F080EF36FBFC0F4F0C0C0F5F093
:101BB000C1EC1AF02E0E0001F26F080EF36FBDC0DB
:101BC000F4F0BEC0F5F0C1EC1AF00001C105C2117D
:101BD000D8A4EDEF0DF0EFEF0DF088EF10F0BB5152
:101BE000BC11D8A4F6EF0DF0F8EF0DF02EEF0EF0CB
:101BF0005750D8A4FEEF0DF000EF0EF02EEF0EF0D0
:101C0000000EBC6F010EBB6F000EC46F010EC36FE0
:101C1000C0BF0DEF0EF00FEF0EF018EF0EF0040E38
:101C2000076E010E086E060E90EC1AF088EF10F0A9
:101C3000C0BF25EF0EF0C05106E1BF05D8B023EFBD
:101C40000EF025EF0EF088EF10F0050E076E010E76
:101C5000086E060E90EC1AF088EF10F0BB05BC1170
:101C6000D8A435EF0EF037EF0EF09EEF0EF0C0BFA8
:101C70003CEF0EF03EEF0EF044EF0EF0BFC055F01B
:101C8000C0C056F050EF0EF0BFC0F8F0C0C0F9F081
:101C9000F81FF91FF84BF92BF8C055F0F9C056F0B2
:101CA000A451D8B456EF0EF058EF0EF087EF0EF0B7
:101CB000000EBC6F020EBB6F000EC46F020EC36F2E
:101CC000BEBF65EF0EF067EF0EF070EF0EF0040E82
:101CD000076E010E086E060E90EC1AF084EF0EF0FF
:101CE000BEBF7DEF0EF0BE5106E1BD05D8B07BEF63
:101CF0000EF07DEF0EF084EF0EF0050E076E010E74
:101D0000086E060E90EC1AF0000E0001A46F9F51B1
:101D1000D8B48DEF0EF08FEF0EF088EF10F0000EBC
:101D20009F6F000EBC6F030EBB6FFF0E076EFF0EA2
:101D3000086E020E90EC1AF088EF10F0030EBB193B
:101D4000BC11D8A4A6EF0EF0A8EF0EF05EEF0FF0D6
:101D5000A0C1F4F1A1C1F5F1E80E0F6E030E106EF3
:101D6000000E116E000E126E000E136E000E146E39
:101D7000000E156E000E166EF4C107F0F5C108F0E6
:101D8000000E08BEFF0E096E0A6E0B6E0C6E0D6E15
:101D90000E6E37EC18F007C01FF008C020F009C025
:101DA00021F00AC022F00BC023F00CC024F00DC0BB
:101DB00025F00EC026F0FF0E276E030E286E000ED3
:101DC000296E000E2A6E000E2B6E000E2C6E000E79
:101DD0002D6E000E2E6EA0EC13F01FC0F8F020C088
:101DE000F9F021C0FAF022C0FBF023C0FCF024C0BF
:101DF000FDF025C0FEF026C0FFF0F8C055F0F9C098
:101E000056F00001A451D8B408EF0FF00AEF0FF01C
:101E10002BEF0FF0000EA46F000E03011B6F000EDE
:101E20001A6F55C01EF356C01FF3E8EC17F018ECFC
:101E300019F0010E0001F26F080EF36F55C0F4F0B7
:101E400056C0F5F0C1EC1AF0000E0001BC6F000E98
:101E5000BB6F000E576E9F51D8B431EF0FF033EFC8
:101E60000FF088EF10F0000E9F6F000E03011B6F44
:101E7000010E1A6F55C01EF356C01FF3E8EC17F0A1
:101E800018EC19F0010E0001F26F080EF36F55C047
:101E9000F8F056C0F9F0F81FF91FF84BF92BF8C00D
:101EA000F4F0F9C0F5F0C1EC1AF0000E0001BC6FBF
:101EB000000EBB6F000E576E88EF10F0020EBB19BC
:101EC000BC11D8A466EF0FF068EF0FF0CFEF0FF062
:101ED000BEBF6DEF0FF06FEF0FF075EF0FF0BDC0ED
:101EE00055F0BEC056F081EF0FF0BDC0F8F0BEC097
:101EF000F9F0F81FF91FF84BF92BF8C055F0F9C0AD
:101F000056F0A451D8B487EF0FF089EF0FF0B8EF77
:101F10000FF0000EBC6F010EBB6F000EC46F010E00
:101F2000C36FC0BF96EF0FF098EF0FF0A1EF0FF067
:101F3000040E076E010E086E060E90EC1AF0B5EF57
:101F40000FF0C0BFAEEF0FF0C05106E1BF05D8B033
:101F5000ACEF0FF0AEEF0FF0B5EF0FF0050E076E20
:101F6000010E086E060E90EC1AF0000E0001A46F30
:101F70009F51D8B4BEEF0FF0C0EF0FF088EF10F014
:101F8000000E9F6F000EBC6F040EBB6FFF0E076E3E
:101F9000FF0E086E020E90EC1AF088EF10F0040E9F
:101FA000BB19BC11D8A4D7EF0FF0D9EF0FF088EF11
:101FB00010F0A0C1F6F1A1C1F7F1E80E0F6E030E0B
:101FC000106E000E116E000E126E000E136E000EDB
:101FD000146E000E156E000E166EF6C107F0F7C1F6
:101FE00008F0000E08BEFF0E096E0A6E0B6E0C6E36
:101FF0000D6E0E6E37EC18F007C01FF008C020F011
:1020000009C021F00AC022F00BC023F00CC024F05C
:102010000DC025F00EC026F0FF0E276E030E286EB1
:10202000000E296E000E2A6E000E2B6E000E2C6E16
:10203000000E2D6E000E2E6EA0EC13F01FC0F8F0F7
:1020400020C0F9F021C0FAF022C0FBF023C0FCF060
:1020500024C0FDF025C0FEF026C0FFF0F8C055F00A
:10206000F9C056F00001A451D8B439EF10F03BEF9D
:1020700010F05CEF10F0000EA46F000E03011D6F56
:10208000000E1C6F55C020F356C021F3E8EC17F08A
:1020900018EC19F0210E0001F26F080EF36F55C015
:1020A000F4F056C0F5F0C1EC1AF0000E0001BC6F60
:1020B000000EBB6F000E576E9F51D8B462EF10F048
:1020C00064EF10F088EF10F0000E9F6F000E030118
:1020D0001D6F010E1C6F55C020F356C021F3E8ECB4
:1020E00017F018EC19F0210E0001F26F080EF36FD3
:1020F00055C0F8F056C0F9F0F81FF91FF84BF92B4E
:10210000F8C0F4F0F9C0F5F0C1EC1AF055EF0FF09B
:1021100012003BC0D5F03CC0D6F03DC0D7F03EC069
:10212000D8F03FC0D9F040C0DAF041C0DBF042C087
:10213000DCF00001DCBF9FEF10F0A2EF10F0010E09
:10214000A3EF10F0000EDD6FDD51D8B4AAEF10F050
:10215000ACEF10F0BCEF10F0DC1FDB1FDA1FD91F53
:10216000D81FD71FD61FD56D000ED623D723D8234F
:10217000D923DA23DB23DC23BABFC9EF10F0BA512D
:1021800006E1B905D8B0C7EF10F0C9EF10F0CFEFF6
:1021900010F0000ED26F010ED16FD3EF10F0B9C066
:1021A000D1F0BAC0D2F0B7C0D3F0B8C0D4F0DD518E
:1021B000D8B4DDEF10F0DFEF10F0F6EF10F0D3073A
:1021C000D8A0D407DD51D8A4E8EF10F0EAEF10F062
:1021D000F0EF10F0000ED06F2B0ECF6FF4EF10F079
:1021E000000ED06F2D0ECF6FCFC0DDF0000EDF6F71
:1021F0001F0EDE6F000E02011F6F7CEF11F0DE0775
:10220000D8A0DF07000EDE25D96E020EDF21DA6EC0
:10221000D5C007F0D6C008F0D7C009F0D8C00AF082
:10222000D9C00BF0DAC00CF0DBC00DF0DCC00EF052
:102230000A0E0F6E000E106E000E116E000E126E62
:10224000000E136E000E146E000E156E000E166E4C
:1022500064EC14F007C043F008C044F009C045F036
:102260000AC046F00BC047F00CC048F00DC049F062
:102270000EC04AF043C019F044C01AF070EC1AF0D6
:102280001950300FDF6E0001D107D8A0D207D30755
:10229000D8A0D407D5C01FF0D6C020F0D7C021F0F9
:1022A000D8C022F0D9C023F0DAC024F0DBC025F07A
:1022B000DCC026F00A0E276E000E286E000E296E76
:1022C000000E2A6E000E2B6E000E2C6E000E2D6E70
:1022D000000E2E6EA0EC13F01FC0D5F020C0D6F07B
:1022E00021C0D7F022C0D8F023C0D9F024C0DAF042
:1022F00025C0DBF026C0DCF00001DFBF88EF11F065
:10230000DF5108E1DE05D8A088EF11F08AEF11F067
:10231000A6EF11F0D551D611D711D811D911DA1174
:10232000DB11DC11D8A497EF11F099EF11F0FFEF5A
:1023300010F0D2BFA6EF11F0D25106E1D105D8B00E
:10234000A4EF11F0A6EF11F0FFEF10F0DD51D8B4BB
:10235000ACEF11F0AEEF11F0B9EF11F0DE07D8A03D
:10236000DF07000EDE25D96E020EDF21DA6EDDC03A
:10237000DFFF39C018F03AC019F0000EDE251A6EE2
:10238000020EDF211B6ED3C01CF0D4C01DF058EC30
:1023900019F012000001B4BFD7EF11F0590EB35D70
:1023A000020EB459D8A0D7EF11F0D9EF11F0DFEF3A
:1023B00011F0020E1D6E580E1C6EF7EF11F0B4AF47
:1023C000EBEF11F0A80EB35DFD0EB459D8B0EBEFF2
:1023D00011F0EDEF11F0F3EF11F0FD0E1D6EA80EF0
:1023E0001C6EF7EF11F0B3C01CF0B4C01DF01DBEA1
:1023F00002EF12F01D500AE11C04D8A002EF12F007
:1024000006EF12F01B6A1B2A07EF12F01B6A1B462D
:1024100083501B18FD0B1B18836E1DBE16EF12F0A8
:1024200012EF12F01B6A1B2A17EF12F01B6A83507F
:102430001B18FE0B1B18836E1DBE29EF12F01D50DA
:1024400006E11C04D8B027EF12F029EF12F02DEFAF
:1024500012F01C6C1D1ED8B01D2A1CC01BF0030EF0
:102460001B161B3ABD501B18CF0B1B18BD6E1CC092
:1024700013F01DC014F0000E166E040E156E2EEC37
:1024800017F01350BE6E0001B6BF50EF12F0590E98
:10249000B55D020EB659D8A050EF12F052EF12F00F
:1024A00058EF12F0020E1F6E580E1E6E70EF12F0F3
:1024B000B6AF64EF12F0A80EB55DFD0EB659D8B0F8
:1024C00064EF12F066EF12F06CEF12F0FD0E1F6E6B
:1024D000A80E1E6E70EF12F0B5C01EF0B6C01FF051
:1024E0001FBE7BEF12F01F500AE11E04D8A07BEF45
:1024F00012F07FEF12F01B6A1B2A80EF12F01B6AAA
:102500001B4682501B18FD0B1B18826E1FBE8FEFDF
:1025100012F08BEF12F01B6A1B2A90EF12F01B6A6D
:1025200082501B18FE0B1B18826E1FBEA2EF12F00A
:102530001F5006E11E04D8B0A0EF12F0A2EF12F077
:10254000A6EF12F01E6C1F1ED8B01F2A1EC01BF073
:10255000030E1B161B3ABA501B18CF0B1B18BA6E72
:102560001EC013F01FC014F0000E166E040E156E80
:102570002EEC17F01350BB6E1200000E4B6E4BC0CA
:1025800039F039463946C2503918C30B3918C26E72
:10259000C282C2B2CEEF12F0D0EF12F0C9EF12F049
:1025A000C450040DF3CF49F0F4CF4AF0C3CF13F079
:1025B000146A000E166E400E156E2EEC17F0495080
:1025C0001324496E4A5014204A6E4B50020DB40E2B
:1025D000F324D96E010EF420DA6E49C0DEFF4AC042
:1025E000DDFF4B50080D000EF324D96E010EF420D0
:1025F000DA6E4950DE264A50DE22000EDE22DE224E
:10260000DE22DE22DE22DE224B2A050E4B640BEF99
:1026100013F00DEF13F0BFEF12F0010E000192273F
:10262000000E93239423952396239723982399238D
:1026300099BF2AEF13F0995198119711961195119E
:102640009411931109E1190E925DD8A02AEF13F0AD
:102650002CEF13F09FEF13F0000E4B6E4B50080D54
:10266000000EF324D96E010EF420DA6EDECF39F0BD
:10267000DECF3AF0DECF3BF0DECF3CF0DECF3DF0F8
:10268000DECF3EF0DECF3FF0DECF40F039C01FF0AE
:102690003AC020F03BC021F03CC022F03DC023F006
:1026A0003EC024F03FC025F040C026F092C027F085
:1026B00093C028F094C029F095C02AF096C02BF062
:1026C00097C02CF098C02DF099C02EF0A0EC13F01C
:1026D0001FC041F020C042F021C043F022C044F0AE
:1026E00023C045F024C046F025C047F026C048F07E
:1026F0004B50020DA00EF324D96E010EF420DA6EB9
:1027000041C0DEFF42C0DDFF4B50080D000EF32438
:10271000D96E010EF420DA6E070EDE6AE806FDE2DD
:102720004B2A050E4B6497EF13F099EF13F02EEF41
:1027300013F020EE92F0070EDE6AE806FDE21200CA
:10274000000E306E2EBEA9EF13F0A7EF13F0BBEF13
:1027500013F02E1E2D1E2C1E2B1E2A1E291E281E77
:10276000276C000E282229222A222B222C222D22FD
:102770002E22010E306E26BEC2EF13F0C0EF13F012
:10278000D4EF13F0261E251E241E231E221E211EFA
:10279000201E1F6C000E202221222222232224220E
:1027A00025222622010E301A20EE31F0070EDE6AB5
:1027B000E806FDE22750281029102A102B102C10B3
:1027C0002D102E10D8B4E7EF13F0E9EF13F03BEF24
:1027D00014F0010E2F6EF7EF13F0D890273628363D
:1027E00029362A362B362C362D362E362F2A2EAE6B
:1027F000FCEF13F0FEEF13F0EDEF13F0D89031364D
:102800003236333634363536363637363836275064
:102810001F5C28502058295021582A5022582B50EC
:1028200023582C5024582D5025582E502658D8A0C7
:102830001CEF14F01EEF14F02FEF14F027501F5E62
:102840002850205A2950215A2A50225A2B50235AB4
:102850002C50245A2D50255A2E50265A3180D8906B
:102860002E322D322C322B322A3229322832273284
:102870002F2EFEEF13F03050D8B441EF14F043EF99
:1028800014F053EF14F0381E371E361E351E341E5A
:10289000331E321E316C000E322233223422352296
:1028A00036223722382231C01FF032C020F033C028
:1028B00021F034C022F035C023F036C024F037C0F8
:1028C00025F038C026F01200000E186E0EBE6DEF17
:1028D00014F06BEF14F07FEF14F00E1E0D1E0C1EA3
:1028E0000B1E0A1E091E081E076C000E0822092274
:1028F0000A220B220C220D220E22010E186E16BE89
:1029000086EF14F084EF14F096EF14F0161E151EE7
:10291000141E131E121E111E101E0F6C000E10220C
:102920001122122213221422152216220F501010E7
:10293000111012101310141015101610D8B4A3EFA4
:1029400014F0A5EF14F0EDEF14F0010E176EB3EFD5
:1029500014F0D8900F36103611361236133614365E
:1029600015361636172A16AEB8EF14F0BAEF14F073
:10297000A9EF14F00F50075C105008581150095877
:1029800012500A5813500B5814500C5815500D582B
:1029900016500E58D8A0CFEF14F0D1EF14F0E1EF9D
:1029A00014F00F50075E1050085A1150095A125077
:1029B0000A5A13500B5A14500C5A15500D5A1650EF
:1029C0000E5AD89016321532143213321232113296
:1029D00010320F32172EBAEF14F01850D8B4F3EFAC
:1029E00014F0F5EF14F005EF15F00E1E0D1E0C1E81
:1029F0000B1E0A1E091E081E076C000E0822092263
:102A00000A220B220C220D220E2207C007F008C05A
:102A100008F009C009F00AC00AF00BC00BF00CC0A6
:102A20000CF00DC00DF00EC00EF012004DC0D9FF1D
:102A30004EC0DAFFDECFF6FFDDCFF7FF0800F5501E
:102A4000250AD8A426EF15F028EF15F0A8EF15F009
:102A50004DC0D9FF4EC0DAFFDE2A000EDD22000E87
:102A60000001B86F000EB76FB7C0CDF0B969BA6991
:102A70004DC0D9FF4EC0DAFFDECFE8F0DDCFE9F080
:102A8000E8C0F6FFE9C0F7FF0800F550640AD8B4C3
:102A90004CEF15F04EEF15F05CEF15F0E8C0F6FFC7
:102AA000E9C0F7FF0800F550690AD8A45AEF15F0FD
:102AB0005CEF15F09FEF15F04FC0D9FF50C0DAFF63
:102AC000DFCF51F0020EDE26DFCF52F0000EDD2206
:102AD00051C0D9FF52C0DAFFDECFE0F0DDCFE1F028
:102AE000000EE1BFFF0EE26FE36FE46FE56FE66F8C
:102AF000E76F010EE825516E000EE921526E4DC0C0
:102B0000D9FF4EC0DAFF51C0DEFF52C0DDFF4BC01F
:102B100039F04CC03AF0E0C03BF0E1C03CF0E2C01C
:102B20003DF0E3C03EF0E4C03FF0E5C040F0E6C059
:102B300041F0E7C042F089EC10F0BCEF15F04DC059
:102B4000D9FF4EC0DAFFDE2A000EDD22BCEF15F001
:102B50004DC0D9FF4EC0DAFFDECFF6FFDDCFF7FF65
:102B60000800F550086E096A4BC00AF04CC00BF023
:102B700086EC18F09FEF15F01200000E0A6E000EA2
:102B8000096EAE0E0924D96E000E0A20DA6E000E10
:102B9000DF6EA90E0924D96E000E0A20DA6E000E2F
:102BA000DF6EEF0E0924D96E010E0A20DA6E000ED8
:102BB000DF6E09C007F00AC008F0D8900736083663
:102BC000D89007360836D89007360836780E07248E
:102BD000D96E010E0820DA6E070EDE6AE806FDE205
:102BE00009C007F00AC008F0D89007360836D89018
:102BF00007360836D89007360836500E0724D96EA7
:102C0000010E0820DA6E070EDE6AE806FDE2D890B3
:102C10000934D96E0A34DA6E880ED926000EDA220B
:102C2000000EDE6E000EDD6EA40E0924D96E000EBD
:102C30000A20DA6E000EDF6E9F0E0924D96E000E98
:102C40000A20DA6E000EDF6EE00E0924D96E010E46
:102C50000A20DA6E000EDF6E094A0A2A0ABE3AEF2F
:102C600016F00A5009E1020E095CD8A03AEF16F0FE
:102C70003CEF16F0C1EF15F0010E586E21EED8F0C2
:102C8000070EDE6AE806FDE221EED0F0070EDE6AEE
:102C9000E806FDE221EEC8F0070EDE6AE806FDE276
:102CA0001200700ED312070EB46E6D966F86D59E0D
:102CB000D59CD59AD596D550F80B0509D56EF184DB
:102CC000F28AD09EF80ED76EAC0ED66ECD90CD9E09
:102CD000CD9CCF0ECD16CD96CD92F28ED58ECD80D9
:102CE000F80ECF6E2F0ECE6ECA94CA50870B08090D
:102CF000CA6ECA50FC0B0109CA6EBD50F00B0C091C
:102D0000BD6EBA50F00B0C09BA6E950ECB6ECF0E9D
:102D1000BD16CF0EBA16000EBE6E000EBB6ECA8474
:102D2000C30EC216C292C280CF0EC116C150F00BA4
:102D30000909C16EC09E380EC012C050F80B0609BA
:102D4000C06E948C948EB89AB898B886B892B890A1
:102D5000330EAF6E000EB06EAC9EAC9CAC8AAC98DD
:102D6000AC94AB9CAB88AB8E9390939293949398D6
:102D7000939A958495869280928292849286928884
:102D80009680959295909492949093969494120034
:102D9000000E0A6E000E096E09C007F00AC008F0A6
:102DA000D89007360836D89007360836D8900736B8
:102DB0000836600E0724D96E000E0820DA6E070E62
:102DC000DE6AE806FDE2094A0A2A0ABEF1EF16F0B9
:102DD0000A5009E1050E095CD8A0F1EF16F0F3EFF7
:102DE00016F0CCEF16F0000E0001B46F000EB36FBA
:102DF000000EB66F000EB56F000E0A6E000E096E63
:102E000009C007F00AC008F0D89007360836D890F5
:102E100007360836D89007360836000E0724D96ED4
:102E2000010E0820DA6E070EDE6AE806FDE2094AA6
:102E30000A2A0ABE25EF17F00A5009E1050E095CBF
:102E4000D8A025EF17F027EF17F000EF17F020EECE
:102E500092F0070EDE6AE806FDE21200000E186E20
:102E600016BE37EF17F035EF17F03DEF17F0156C82
:102E7000161ED8B0162A010E186E14BE44EF17F0B5
:102E800042EF17F04AEF17F0136C141ED8B0142A53
:102E9000010E181A000E1A6E000E196E155016103B
:102EA000D8B455EF17F057EF17F07FEF17F0010E7A
:102EB000176E5FEF17F0D89015361636172A16AE34
:102EC00064EF17F066EF17F05BEF17F0D890193644
:102ED0001A361550135C16501458D8A072EF17F01C
:102EE00074EF17F079EF17F01550135E1650145A5F
:102EF0001980D89016321532172E66EF17F0185039
:102F0000D8B485EF17F087EF17F08BEF17F0196C37
:102F10001A1ED8B01A2A19C013F01AC014F01200E1
:102F2000000E0C6E08BE99EF17F097EF17F09FEFA9
:102F300017F0076C081ED8B0082A010E0C6E0ABEE6
:102F4000A6EF17F0A4EF17F0AAEF17F0096C0A1E0E
:102F5000D8B00A2A09500A10D8B4B1EF17F0B3EF6D
:102F600017F0D7EF17F0010E0B6EBBEF17F0D890EC
:102F700009360A360B2A0AAEC0EF17F0C2EF17F077
:102F8000B7EF17F00950075C0A500858D8A0CBEFEC
:102F900017F0CDEF17F0D1EF17F00950075E0A5088
:102FA000085AD8900A3209320B2EC2EF17F00C5093
:102FB000D8B4DDEF17F0DFEF17F0E3EF17F0076C91
:102FC000081ED8B0082A07C007F008C008F0120091
:102FD000000E0B6E0BC0A9FF0BA0F1EF17F0F3EF83
:102FE00017F004EF18F0D8900B30076E086AD890ED
:102FF00007360836000E0724D96E030E0820DA6E55
:10300000DF50A86E1AEF18F0D8900B30076E086AE0
:10301000D89007360836000E0724D96E030E082014
:10302000DA6EDECF09F0DDCF0AF00AC009F00A6AD5
:103030000950A86EA69CA69EA684F29E550EA76E69
:10304000AA0EA76EA682F28EA694A1A82AEF18F067
:103050002CEF18F025EF18F0A1980B2A640E0B64E2
:1030600034EF18F036EF18F0EAEF17F0120020EE08
:1030700017F0070EDE6AE806FDE207A042EF18F03F
:1030800044EF18F054EF18F00F5017261050182284
:103090001150192212501A2213501B2214501C22B4
:1030A00015501D2216501E22D8900F36103611369C
:1030B00012361336143615361636D8900E320D32B7
:1030C0000C320B320A32093208320732075008102C
:1030D00009100A100B100C100D100E10D8A473EF6D
:1030E00018F075EF18F03DEF18F017C007F018C092
:1030F00008F019C009F01AC00AF01BC00BF01CC080
:103100000CF01DC00DF01EC00EF012000A500B1086
:10311000D8B48DEF18F08FEF18F098EF18F00A5030
:103120000B10D8A496EF18F098EF18F09DEF18F058
:103130000850FAEC1AF0D0EF18F020EE09F00A501F
:10314000D9260B50DA22DE50DE10D8B4AAEF18F0E0
:10315000ACEF18F0C7EF18F020EE09F00A50D926AE
:103160000B50DA2210EE03F00A50E1260B50E22257
:10317000DE50E65CE650800A106EDE50800A105881
:10318000D8B0C5EF18F0C7EF18F0D0EF18F020EE68
:1031900003F00A50D9260B50DA22DE2A000EDD2277
:1031A00012000600D9CF03F0DACF04F0F2A4DBEF6F
:1031B00018F0DDEF18F012EF19F0F80ED76EAC0E24
:1031C000D66EF294000E066E000E056E05C001F07C
:1031D00006C002F0D89001360236D8900136023689
:1031E000D89001360236600E0124D96E000E0220FE
:1031F000DA6EDE2A000EDE22DE22DE22DE22DE2271
:10320000DE22DE22054A062A06BE10EF19F006501D
:1032100009E1050E055CD8A010EF19F012EF19F0C6
:10322000E6EF18F004C0DAFF03C0D9FF599211008D
:1032300003011A511B11D8B420EF19F022EF19F035
:1032400026EF19F0136814682AEF19F0000E146EB7
:10325000010E136E1C511D11D8B431EF19F033EF6C
:1032600019F037EF19F0156816683BEF19F0000EEA
:10327000166E010E156E1EC30DF01FC30EF013C0A7
:103280000FF014C010F0D5EC1AF00DC0BFF00EC056
:10329000C0F020C30DF021C30EF015C00FF016C012
:1032A00010F0D5EC1AF00DC0BDF00EC0BEF012004B
:1032B0001DBE5DEF19F05FEF19F065EF19F01CC04E
:1032C00021F01DC022F069EF19F0000E226E000EF1
:1032D000216E000E206E000E1F6E7BEF19F0000EA7
:1032E000096E200E086E18C00AF019C00BF086ECAB
:1032F00018F01F4A202A21501F5C2050800A1E6EA1
:103300002250800A1E58D8A088EF19F08AEF19F0D1
:103310006FEF19F01AC011F01BC012F018C013F0B3
:1033200019C014F04EEC1AF01200000E566E000E8A
:10333000556E000E576E000E0001CE6F000ECA6F64
:10334000000EC96F000E546E000E536E20EE70F02A
:10335000070EDE6AE806FDE2000E086E000E076E3C
:103360009A0E0724D96E000E0820DA6E000EDF6E6A
:10337000074A082A08BEC6EF19F0085009E1050EF1
:10338000075CD8A0C6EF19F0C8EF19F0B0EF19F03C
:103390001200000E0D6E0DC0A9FFA69CA69EA68071
:1033A0000DA0D5EF19F0D7EF19F0EEEF19F00B5093
:1033B000086EA850076ED8900D30096E0A6AD89032
:1033C00009360A36000E0924D96E030E0A20DA6E79
:1033D00007C0DEFF08C0DDFFF1EF19F0A8CF0BF04A
:1033E0000C6A0D2A640E0D64F8EF19F0FAEF19F06B
:1033F000CBEF19F0120003EE00F011EE00F0EE6AD0
:10340000E550E150FCE1E250FAE102EE00F0200E5E
:10341000EE6AE806FDE101EE00F0F40EEE6AE80661
:10342000FDE100EE60F06F0EEE6AE806FDE1586A1D
:10343000576A566A556A546A536A59905992000EEF
:10344000F86E080EF76E0001A9EF1AF0ECC0F0F06C
:10345000EDC0F1F03AEF1AF0EAC04BF0EBC04CF0DF
:10346000F00E4D6E000E4E6EEEC04FF0EFC050F0FD
:1034700016EC15F0F0C0F6FFF1C0F7FF0800F550AC
:103480000009D8A446EF1AF048EF1AF02CEF1AF012
:10349000000E0001EB6F000EEA6F1200000E176EB7
:1034A000000E166E5FEF1AF015C008F0096A13C01F
:1034B0000AF014C00BF086EC18F0164A172A1650C2
:1034C0001124D96E17501220DA6EDF50156E155088
:1034D000D8A46DEF1AF06FEF1AF054EF1AF0120043
:1034E0001ABE7DEF1AF01A5006E11904D8B07BEF2E
:1034F0001AF07DEF1AF08BEF1AF019C01BF01AC00A
:103500001CF01B1E1C1E1B4A1C2A1BC019F01CC0D1
:103510001AF08FEF1AF019C019F01AC01AF0120041
:10352000096E09C057F007C0C7F00001C86B08C09A
:10353000C5F0C66B000ECA6F000EC96F000E546E48
:10354000000E536E20EE70F0070EDE6AE806FDE214
:10355000120051EC16F0C8EC16F0BDEC15F095EC2D
:1035600019F0E8EC1AF0CAEC11F0BDEC12F021EC05
:1035700004F01EEC09F0AEEC0DF0B3EF1AF007EF1B
:1035800000F0F40E0001F66F000EF76F000EEA6F08
:10359000000EEB6FF2C0ECF0F3C0EDF0F60EEE6F44
:1035A000000EEF6F26EC1AF012000D500F02F3CF51
:1035B00011F0F4CF12F00D501002F35012260E50FD
:1035C0000F02F350122611C00DF012C00EF01200BF
:1035D000000E0001C26F000EC16F000EC06F000E22
:1035E000BF6F000EBE6F000EBD6F000EBC6F000EF1
:1035F000BB6F1200076E9EA800EF1BF002EF1BF0DE
:0A360000FBEF1AF007C0ADFF120047
:020000040020DA
:08000000FFFFFFFFFFFFFFFF00
:020000040030CA
:0E000000240E191EFF0081FF0FC00FE00F40FD
:00000001FF
