:0400000007EF00F016
:0A0008005882CBED09F023EF0BF056
:1008000000427574746F6E203120636C69636B20D5
:1008100064657465637465640A00416E616C6F673A
:100820002076616C75652025643A202564200A00D5
:1008300053656C656374656420616E616C6F673AC3
:100840002025640A000025C03BF026C03CF027C0EC
:100850003DF028C03EF029C03FF02AC040F02BC038
:1008600041F02CC042F042BE38EF04F03BEF04F000
:10087000010E3CEF04F0000E436E4350D8B443EF3A
:1008800004F045EF04F055EF04F0421E411E401EF7
:100890003F1E3E1E3D1E3C1E3B6C000E3C223D2278
:1008A0003E223F2240224122422255BE62EF04F006
:1008B000555006E15404D8B060EF04F062EF04F044
:1008C00068EF04F0000E386E010E376E6CEF04F026
:1008D00054C037F055C038F052C039F053C03AF028
:1008E0004350D8B476EF04F078EF04F08FEF04F0C3
:1008F0003906D8A03A064350D8A481EF04F083EF1C
:1009000004F089EF04F0000E366E2B0E356E8DEF7D
:1009100004F0000E366E2D0E356E35C043F0000E1D
:10092000456E1F0E446E000E0001C06F14EF05F0FF
:100930004406D8A04506A10E4424D96E000E4520D9
:10094000DA6E3BC007F03CC008F03DC009F03EC085
:100950000AF03FC00BF040C00CF041C00DF042C0A7
:100960000EF00A0E0F6E000E106E000E116E000ECD
:10097000126E000E136E000E146E000E156E000E39
:10098000166E55EC07F007C02DF008C02EF009C018
:100990002FF00AC030F00BC031F00CC032F00DC0A7
:1009A00033F00EC034F02DC019F02EC01AF003EC55
:1009B0000BF01950300FDF6E3706D8A03806390615
:1009C000D8A03A063BC007F03CC008F03DC009F093
:1009D0003EC00AF03FC00BF040C00CF041C00DF02B
:1009E00042C00EF00A0E0F6E000E106E000E116E59
:1009F000000E126E000E136E000E146E000E156EB9
:100A0000000E166E91EC06F007C03BF008C03CF0FB
:100A100009C03DF00AC03EF00BC03FF00CC040F0F2
:100A20000DC041F00EC042F045BE1FEF05F045502D
:100A300008E14404D8A01FEF05F021EF05F03DEFD9
:100A400005F03B503C103D103E103F10401041104F
:100A50004210D8A42EEF05F030EF05F098EF04F027
:100A600038BE3DEF05F0385006E13704D8B03BEF13
:100A700005F03DEF05F098EF04F04350D8B443EF94
:100A800005F045EF05F050EF05F04406D8A0450607
:100A9000A10E4424D96E000E4520DA6E43C0DFFF5C
:100AA00023C018F024C019F0A10E44241A6E000EC1
:100AB00045201B6E39C01CF03AC01DF050EC0AF006
:100AC0001200000167BF74EF05F0675166116511F0
:100AD000641163116211611109E1320E605DD8A0E9
:100AE00074EF05F076EF05F0A7EF05F020EE60F06B
:100AF000070EDE6AE806FDE29E4B9F2B9FBF8AEF42
:100B000005F09F5109E1200E9E5DD8A08AEF05F007
:100B10008CEF05F090EF05F0000E9F6F000E9E6FBA
:100B20001A0ED16F080ED26F9CC0D3F09DC0D4F0C6
:100B3000D8909C35D96E9D35DA6E880ED926000E78
:100B4000DA22DECFD5F0DDCFD6F038EC0BF0D8903E
:100B500000019C35D96E9D35DA6E880ED926000EBF
:100B6000DA22010EDBBEC1EF05F0DE52020EDE5CC2
:100B7000D8B0BDEF05F0C1EF05F0D96BD92BC3EFAD
:100B800005F00001D96B8150D919FE0BD919816E7E
:100B9000D8909C35D96E9D35DA6E880ED926000E18
:100BA000DA22010EDBBEE1EF05F0DE52020EDE5C62
:100BB000D8B0DDEF05F0E1EF05F0D96BD92BE3EF0D
:100BC00005F00001D96BD9478150D919FD0BD9190E
:100BD000816ED8909C35D96E9D35DA6E880ED926F7
:100BE000000EDA22010EDBBE02EF06F0DE52020E2C
:100BF000DE5CD8B0FEEF05F002EF06F0D96BD92B22
:100C000004EF06F00001D96BD947D9478150D919B3
:100C1000FB0BD919816ED8909C35D96E9D35DA6E53
:100C2000880ED926000EDA22010EDBBE24EF06F074
:100C3000DE52020EDE5CD8B020EF06F024EF06F0A4
:100C4000D96BD92B26EF06F00001D96BD93B815027
:100C5000D919EF0BD919816ED8909C35D96E9D3575
:100C6000DA6E880ED926000EDA22010EDBBE45EFC1
:100C700006F0DE52020EDE5CD8B041EF06F045EF22
:100C800006F0D96BD92B47EF06F00001D96BD93BA1
:100C9000D9478150D919DF0BD919816E83B453EF2D
:100CA00006F055EF06F087EF06F0A051D8A45BEFF1
:100CB00006F05DEF06F087EF06F0010ED16F080E2B
:100CC000D26F38EC0BF000019C4B9D2B9DBF72EF57
:100CD00006F09D5109E1060E9C5DD8A072EF06F06A
:100CE00074EF06F078EF06F0000E9D6F000E9C6F1B
:100CF000300ED16F080ED26F9CC0D3F09DC0D4F0DF
:100D000038EC0BF0010E0001A06F90EF06F083A409
:100D10008CEF06F08EEF06F090EF06F0000EA06F5D
:100D20001200000E186E16BE9AEF06F098EF06F04D
:100D3000ACEF06F0161E151E141E131E121E111EF9
:100D4000101E0F6C000E10221122122213221422E8
:100D500015221622010E186E0EBEB3EF06F0B1EF8B
:100D600006F0C5EF06F00E1E0D1E0C1E0B1E0A1E11
:100D7000091E081E076C000E082209220A220B22F7
:100D80000C220D220E22010E181A20EE19F0070E69
:100D9000DE6AE806FDE20F50101011101210131059
:100DA000141015101610D8B4D8EF06F0DAEF06F0CC
:100DB0002CEF07F0010E176EE8EF06F0D8900F3613
:100DC0001036113612361336143615361636172AE3
:100DD00016AEEDEF06F0EFEF06F0DEEF06F0D8907E
:100DE00019361A361B361C361D361E361F3620366F
:100DF0000F50075C105008581150095812500A58EB
:100E000013500B5814500C5815500D5816500E58BE
:100E1000D8A00DEF07F00FEF07F020EF07F00F500D
:100E2000075E1050085A1150095A12500A5A1350AE
:100E30000B5A14500C5A15500D5A16500E5A198050
:100E4000D890163215321432133212321132103257
:100E50000F32172EEFEF06F01850D8B432EF07F02C
:100E600034EF07F044EF07F0201E1F1E1E1E1D1E4C
:100E70001C1E1B1E1A1E196C000E1A221B221C227D
:100E80001D221E221F22202219C007F01AC008F0BE
:100E90001BC009F01CC00AF01DC00BF01EC00CF0F6
:100EA0001FC00DF020C00EF01200000E186E0EBE16
:100EB0005EEF07F05CEF07F070EF07F00E1E0D1EFF
:100EC0000C1E0B1E0A1E091E081E076C000E0822AF
:100ED00009220A220B220C220D220E22010E186E6C
:100EE00016BE77EF07F075EF07F087EF07F0161ED5
:100EF000151E141E131E121E111E101E0F6C000E46
:100F000010221122122213221422152216220F500F
:100F10001010111012101310141015101610D8B450
:100F200094EF07F096EF07F0DEEF07F0010E176E73
:100F3000A4EF07F0D8900F3610361136123613365C
:100F4000143615361636172A16AEA9EF07F0ABEF92
:100F500007F09AEF07F00F50075C10500858115037
:100F6000095812500A5813500B5814500C58155069
:100F70000D5816500E58D8A0C0EF07F0C2EF07F07A
:100F8000D2EF07F00F50075E1050085A1150095A5F
:100F900012500A5A13500B5A14500C5A15500D5A2D
:100FA00016500E5AD89016321532143213321232AD
:100FB000113210320F32172EABEF07F01850D8B4A1
:100FC000E4EF07F0E6EF07F0F6EF07F00E1E0D1E58
:100FD0000C1E0B1E0A1E091E081E076C000E08229E
:100FE00009220A220B220C220D220E2207C007F032
:100FF00008C008F009C009F00AC00AF00BC00BF0E5
:101000000CC00CF00DC00DF00EC00EF0120048C068
:10101000D9FF49C0DAFFDECFF6FFDDCFF7FF0800CA
:10102000F550250AD8A417EF08F019EF08F099EF4A
:1010300008F048C0D9FF49C0DAFFDE2A000EDD22E1
:10104000000E536E000E526E52C056F05468556832
:1010500048C0D9FF49C0DAFFDECFC9F0DDCFCAF002
:10106000C9C0F6FFCAC0F7FF0800F550640AD8B43B
:101070003CEF08F03EEF08F04CEF08F0C9C0F6FF77
:10108000CAC0F7FF0800F550690AD8A44AEF08F073
:101090004CEF08F090EF08F04AC0D9FF4BC0DAFFE0
:1010A000DFCF4CF0020EDE26DFCF4DF0000EDD224A
:1010B0004CC0D9FF4DC0DAFFDECFC1F0DDCFC2F0AA
:1010C0000001000EC2BFFF0EC36FC46FC56FC66FB5
:1010D000C76FC86F010EC9254C6E000ECA214D6E38
:1010E00048C0D9FF49C0DAFF4CC0DEFF4DC0DDFF6C
:1010F00046C023F047C024F0C1C025F0C2C026F08E
:10110000C3C027F0C4C028F0C5C029F0C6C02AF06B
:10111000C7C02BF0C8C02CF023EC04F0ADEF08F0F2
:1011200048C0D9FF49C0DAFFDE2A000EDD22ADEF4C
:1011300008F048C0D9FF49C0DAFFDECFF6FFDDCFA7
:10114000F7FF0800F550086E096A46C00AF047C06C
:101150000BF080EC09F090EF08F01200700ED31243
:10116000070EB46E6D966F86D59ED59CD59AD59692
:10117000D550F80B0509D56EF184F28AD09EF80E91
:10118000D76EAC0ED66ECD90CD9ECD9CCF0ECD162B
:10119000CD96CD92F28ED58ECD80F80ECF6E2F0EDD
:1011A000CE6ECA96CA98CA9ACA9CCA84CA90CA9273
:1011B000CA50870B5809CA6ECA50FC0B0109CA6E87
:1011C000CA94F90ECB6ECA84BD50F00B0C09BD6EEB
:1011D000BA50F00B0C09BA6EC30EC216C292C2808E
:1011E000CF0EC116C150F00B0909C16EC09E380E5A
:1011F000C012C050F80B0609C06E948C948EB89A39
:10120000B898B886B892B890330EAF6E000EB06E34
:10121000AC9EAC9CAC8AAC98AC94AB9CAB88AB8ECF
:101220009390939293949398939A958495869280B1
:10123000928292849286928896801200000E0C6EA2
:101240000ABE27EF09F025EF09F02DEF09F0096C30
:101250000A1ED8B00A2A010E0C6E08BE34EF09F03F
:1012600032EF09F03AEF09F0076C081ED8B0082AEF
:10127000010E0C1A000E0E6E000E0D6E09500A10B3
:10128000D8B445EF09F047EF09F06FEF09F0010E10
:101290000B6E4FEF09F0D89009360A360B2A0AAECA
:1012A00054EF09F056EF09F04BEF09F0D8900D36E6
:1012B0000E360950075C0A500858D8A062EF09F0B2
:1012C00064EF09F069EF09F00950075E0A50085A07
:1012D0000D80D8900A3209320B2E56EF09F00C50CF
:1012E000D8B475EF09F077EF09F07BEF09F00D6CDA
:1012F0000E1ED8B00E2A0DC007F00EC008F0120066
:101300000A500B10D8B487EF09F089EF09F092EF7B
:1013100009F00A500B10D8A490EF09F092EF09F0F1
:1013200097EF09F0085068EC0BF0CAEF09F020EED7
:1013300009F00A50D9260B50DA22DE50DE10D8B45C
:10134000A4EF09F0A6EF09F0C1EF09F020EE09F0D3
:101350000A50D9260B50DA2210EE03F00A50E1268B
:101360000B50E222DE50E65CE650800A106EDE5042
:10137000800A1058D8B0BFEF09F0C1EF09F0CAEFEA
:1013800009F020EE03F00A50D9260B50DA22DE2AAB
:10139000000EDD2212000600D9CF03F0DACF04F0F0
:1013A000F2A4D5EF09F0D7EF09F00CEF0AF0F80E30
:1013B000D76EAC0ED66EF294000E066E000E056E61
:1013C00005C001F006C002F0D89001360236D89070
:1013D00001360236D89001360236600E0124D96EED
:1013E000000E0220DA6EDE2A000EDE22DE22DE226F
:1013F000DE22DE22DE22DE22054A062A06BE0AEFB1
:101400000AF0065009E1050E055CD8A00AEF0AF0C3
:101410000CEF0AF0E0EF09F004C0DAFF03C0D9FFD7
:1014200058921100000E126E12C00FF00F460F46B8
:10143000C2500F18C30B0F18C26EC282C2B223EF84
:101440000AF025EF0AF01EEF0AF0C450040DF3CFA6
:1014500010F0F4CF11F0C3CF07F0086A000E0A6E47
:10146000400E096E1EEC09F010500724106E11504A
:101470000820116E1250020D880EF324D96E000E52
:10148000F420DA6E10C0DEFF11C0DDFF122A050E57
:1014900012644DEF0AF04FEF0AF014EF0AF0120059
:1014A0001DBE55EF0AF057EF0AF05DEF0AF01CC0C1
:1014B00021F01DC022F061EF0AF0000E226E000E36
:1014C000216E000E206E000E1F6E73EF0AF0000EEC
:1014D000096E200E086E18C00AF019C00BF080ECDF
:1014E00009F01F4A202A21501F5C2050800A1E6EDE
:1014F0002250800A1E58D8A080EF0AF082EF0AF02E
:1015000067EF0AF01AC011F01BC012F018C013F0F8
:1015100019C014F0E1EC0AF01200000E0A6E000E81
:10152000096E09C007F00AC008F0D89007360836DF
:10153000D89007360836D89007360836600E07244C
:10154000D96E000E0820DA6E070EDE6AE806FDE2AC
:10155000094A0A2A0ABEB6EF0AF00A5009E1050E46
:10156000095CD8A0B6EF0AF0B8EF0AF091EF0AF0E4
:101570001200CDC04EF0CEC04FF0CDEF0AF0CBC080
:1015800046F0CCC047F04E0E486E000E496ECFC0FC
:101590004AF0D0C04BF007EC08F04EC0F6FF4FC049
:1015A000F7FF0800F5500009D8A4D9EF0AF0DBEFE7
:1015B0000AF0BFEF0AF0000E0001CC6F000ECB6FF7
:1015C0001200000E176E000E166EF2EF0AF015C034
:1015D00008F0096A13C00AF014C00BF080EC09F09F
:1015E000164A172A16501124D96E17501220DA6E97
:1015F000DF50156E1550D8A400EF0BF002EF0BF082
:10160000E7EF0AF012001ABE10EF0BF01A5006E1D5
:101610001904D8B00EEF0BF010EF0BF01EEF0BF02B
:1016200019C01BF01AC01CF01B1E1C1E1B4A1C2AD2
:101630001BC019F01CC01AF022EF0BF019C019F0F2
:101640001AC01AF0120000EE60F0610EEE6AE806B1
:10165000FDE1576A566A556A546A536A526A58904D
:101660005892000EF86E080EF76E00014CEF0BF06A
:10167000D30E506E000E516E000E0001CB6F000EA7
:10168000CC6FD1C0CDF0D2C0CEF0500ECF6F000ED7
:10169000D06FB9EC0AF012008DEC0AF0AEEC08F055
:1016A0005AEC0BF012EC0AF061EC05F052EF0BF083
:1016B00007EF00F0000E00019F6F000E9E6F000EFE
:1016C0009D6F000E9C6F000EA06F000E576E1200F3
:1016D000076E9EA86EEF0BF070EF0BF069EF0BF04A
:0616E00007C0ADFF12007F
:020000040020DA
:08000000FFFFFFFFFFFFFFFF00
:020000040030CA
:0E000000240E191EFF0181FF0FC00FE00F40FC
:00000001FF
